:0200000280007C
:1000000020350720BD2B0800A5010800A501080028
:10001000A5010800A5010800A501080000000000D6
:10002000000000000000000000000000AD0108001A
:10003000A501080000000000BD010800CD01080076
:10004000A5010800A5010800A5010800A5010800F8
:10005000A5010800A5010800A5010800A5010800E8
:1000600015620800A50108000000000095260800A0
:10007000FD26080065270800CD27080000000000C5
:10008000000000002D62080045620800A50108007C
:100090005D620800A5010800A5010800A50108008F
:1000A000A501080000000000A5010800A501080046
:1000B000A5010800A5010800E1580800A5010800F5
:1000C000A5010800A5010800A5010800A501080078
:1000D000A5010800A5010800A5010800A501080068
:1000E00085350800A5010800A5010800A501080044
:1000F000A501080008B50548054B1B1A062B00D8BA
:1001000008BD044B002BFBD09847F9E7C8B908009D
:10011000CBB908000000000008B50748074B1B1AC0
:100120009B1003EBD373591000D108BD044A002A79
:10013000FBD09047F9E700BFC8B90800C8B908006C
:100140000000000010B5064C237843B9FFF7D2FF3A
:10015000044B13B10448AFF300800123237010BD9A
:10016000E00A072000000000C8B9080008B5084BE5
:100170001BB108480849AFF300800848036813B171
:10018000074B03B19847BDE80840FFF7C5BF00BF64
:1001900000000000C8B90800E40A0720C8B9080038
:1001A0000000000080B400AFFEE700BF80B500AFE4
:1001B00040F22123C0F20803984780BD80B500AF0C
:1001C00040F22123C0F20803984780BD80B500AFFC
:1001D00040F21123C0F2080398470346002B0AD1CE
:1001E00040F23D63C0F20803984743F24953C0F21E
:1001F0000803984700E000BF80BD00BF80B400AF97
:10020000FEE700BF80B400AFBD4680BC704700BFB2
:1002100080B400AF4FF000031846BD4680BC704765
:1002200080B400AFFEE700BF80B483B000AF786059
:100230007B68044A1A607B68184607F10C07BD46C4
:1002400080BC7047E8A8080080B582B000AF786035
:10025000F970BA707B707B68184640F22923C0F2AF
:10026000080398477B680A4A1A607B68FA781A7113
:100270007B68BA785A717B687A789A717B683A7C25
:10028000DA717B68184607F10807BD4680BD00BFDC
:10029000C0A8080080B584B000AF786039604FF026
:1002A0000003FB604FF00003BB6020E07A68BB688E
:1002B000D3181B79386819464FF00A0240F271438F
:1002C000C0F2080398470346FA68D318FB60386801
:1002D0004FF02E0140F24943C0F20803984703460D
:1002E000FA68D318FB60BB6803F10103BB60BB680D
:1002F000022BCCBF00230123DBB2002BD6D17B68BD
:10030000DB79386819464FF00A0240F27143C0F2B7
:10031000080398470346FA68D318FB60FB68184641
:1003200007F11007BD4680BD90B585B002AF78607B
:1003300039607B68012B16D13A684FF6FF739A42F9
:1003400011D14FF00003009340F6FC20C2F20700E9
:100350004FF000014FF000024FF0000340F249243B
:10036000C0F20804A04707F10C07BD4690BD00BFCE
:1003700080B500AF4FF001004FF6FF7140F2293316
:10038000C0F20803984780BD90B583B000AF786095
:1003900039603B68002B02D14FF0000310E07B680E
:1003A0001B6803F104031C68386846F69773C0F2B3
:1003B000080398470346786839681A46A0470346F9
:1003C000184607F10C07BD4690BD00BF80B586B04A
:1003D00000AFF860B9607A604FF000037B610FE016
:1003E000FB681B681B68BA681278B96801F10101E3
:1003F000B960F8681146984703467A69D3187B615B
:100400007B68002B0CBF00230123DBB27A6802F16A
:10041000FF327A60002BE3D17B69184607F1180799
:10042000BD4680BD80B582B000AF78603960786825
:10043000396840F28933C0F20803984703461846EA
:1004400007F10807BD4680BD80B582B000AF786077
:100450000B46FB707B681B681B68FA78786811464E
:1004600098470346184607F10807BD4680BD00BF00
:1004700080B584B000AFF8600B467A60FB72FB7AFF
:10048000F86819467A6840F29D43C0F2080398471D
:100490000346184607F11007BD4680BD80B584B0FD
:1004A00000AFF860B9607A607B68002B09D1FB6807
:1004B0001B681B68BA68D2B2F868114698470346B1
:1004C0000AE07B68DBB2F868B9681A4640F261530B
:1004D000C0F2080398470346184607F11007BD46C7
:1004E00080BD00BF80B584B000AF786078684FF001
:1004F0000D0140F24943C0F208039847F86078685C
:100500004FF00A0140F24943C0F2080398470346FE
:10051000FA68D318FB60FB68184607F11007BD4660
:1005200080BD00BF80B584B000AF78603960786866
:10053000396840F22543C0F208039847F8607868AC
:1005400040F2E543C0F2080398470346FA68D3181F
:10055000FB60FB68184607F11007BD4680BD00BF71
:1005600080B590B000AFF860B9601346FB7107F139
:10057000140303F12003FB63FB6B4FF000021A70BE
:10058000FB79012B02D84FF00A03FB71BB68BB63F8
:10059000FB79BA68B2FBF3F3BB60BB6BDAB2BB6842
:1005A000DBB2F97901FB03F3DBB2D31A87F83730FA
:1005B000FB6B03F1FF33FB6397F83730092B05D84A
:1005C00097F8373003F13003DBB204E097F83730A7
:1005D00003F13703DBB2FA6B1370BB68002B0CBF5F
:1005E00000230123DBB2002BD0D1F868F96B40F275
:1005F0008933C0F2080398470346184607F14007BD
:10060000BD4680BD80B483B000AF786040F2A003E7
:10061000C2F207037A681A6007F10C07BD4680BC76
:10062000704700BF80B400AF40F2A003C2F20703DE
:100630004FF0FF321A60BD4680BC704780B500AFF6
:1006400040F2A003C2F207031B68B3F1FF3F18D0CA
:1006500040F2A003C2F207031B6803F1FF3240F22D
:10066000A003C2F207031A6040F2A003C2F207031C
:100670001B68002B06D140F20103C2F20703984722
:1006800000E000BF80BD00BF80B582B000AF7860E1
:100690007B6818464FF000014FF0400246F63543A4
:1006A000C0F2080398477B684FF000021A647B6829
:1006B0004FF000025A647B68184607F10807BD46F0
:1006C00080BD00BF80B485B000AF78600B46FB7082
:1006D0007B681B6C03F1010303F03F03FB607B6845
:1006E0005A6CFB689A4207D07B681B6C7A68F97871
:1006F000D1547B68FA681A6407F11407BD4680BCC0
:10070000704700BF80B485B000AF786040F6043316
:10071000C2F207031B68002B08D140F60433C2F273
:10072000070343F22052C2F207021A6040F6043374
:10073000C2F207031B68FB6040F60433C2F20703F2
:100740001A687B68D21840F60433C2F207031A60B5
:10075000FB68184607F11407BD4680BC704700BF10
:1007600080B483B000AF78604FF0FF33184607F1D4
:100770000C07BD4680BC704780B483B000AF786082
:1007800039603B684FF400525A604FF0000318463E
:1007900007F10C07BD4680BC704700BF80B483B032
:1007A00000AF78604FF00103184607F10C07BD4613
:1007B00080BC704780B485B000AFF860B9607A60E3
:1007C0004FF00003184607F11407BD4680BC704780
:1007D00080B485B000AFF860B9607A604FF0000374
:1007E000184607F11407BD4680BC704780B487B037
:1007F00000AFF860B9607A604FF000037B6118E0E9
:1008000000BF4FF40063C4F20E035B6903F0020300
:10081000002BF6D04FF40063C4F20E03BA681278CE
:10082000DA617B6903F101037B61BB6803F10103BA
:10083000BB607A697B689A42E2DB7B69184607F104
:100840001C07BD4680BC704780B582B000AF7860A1
:100850004AF63010C0F20800796846F66343C0F2E9
:1008600008039847FEE700BF80B483B000AF78600C
:10087000396000BF07F10C07BD4680BC704700BF60
:1008800080B400AF4FF0FF331846BD4680BC7047C0
:1008900080B483B000AF78607B68064A1A607B68DA
:1008A0004FF000025A607B68184607F10C07BD46FE
:1008B00080BC704708A9080080B582B000AF78609E
:1008C0007B68184640F69103C0F2080398477B689E
:1008D000054A1A607B684FF47A729A607B68184602
:1008E00007F10807BD4680BDA8A9080080B483B001
:1008F00000AF78604FF00103184607F10C07BD46C2
:1009000080BC704780B582B000AF78607B681846C5
:1009100040F6B903C0F2080398477B68034A1A609F
:100920007B68184607F10807BD4680BD80A908000E
:1009300080B584B000AFF860B9603B601346FB71CE
:10094000FB68184640F60513C0F208039847FB6899
:10095000094A1A60FB68BA691A61FB68BA685A6189
:10096000FB68FA791A76FB683A68DA61FB68184620
:1009700007F11007BD4680BD58A9080080B483B0B8
:1009800000AF78607B681B691B6C03F140027B68D9
:100990001B695B6CD31A03F03F03184607F10C0781
:1009A000BD4680BC704700BF80B483B000AF7860A4
:1009B0007B681B691A6C7B681B695B6C9A4202D16D
:1009C0004FF0FF3305E07B681A697B681B695B6C3D
:1009D000D35C184607F10C07BD4680BC704700BFCA
:1009E00080B485B000AF78607B681B691A6C7B6847
:1009F0001B695B6C9A4202D14FF0FF3311E07B68B8
:100A00001A697B681B695B6CD35CFB737B681B6931
:100A10007A681269526C02F1010202F03F025A64D4
:100A2000FB7B184607F11407BD4680BC704700BF2A
:100A300080B483B000AF78607B685B695B6903F06A
:100A40000203002B14BF00230123DBB2002BF3D1E0
:100A500007F10C07BD4680BC704700BF80B483B06F
:100A600000AF78600B46FB707B685B695B6903F0E5
:100A70000203002B14BF00230123DBB2002BF3D1B0
:100A80007B685B69FA78DA614FF00103184607F179
:100A90000C07BD4680BC704780B584B000AF78605D
:100AA0007B685B695B69FB60FB6803F00103002BFB
:100AB0000CD07B681A697B685B699B69DBB2104666
:100AC000194640F2C563C0F208039847FB6803F07B
:100AD0002003002B04D1FB6803F04003002B07D058
:100AE0007B685B697A685269126842F480721A60A6
:100AF00007F11007BD4680BD80B483B000AF7860B9
:100B00004FF00103184607F10C07BD4680BC704743
:100B100080B584B000AFF860B9603B601346FB71EC
:100B2000FB68184640F60513C0F208039847FB68B7
:100B3000094A1A60FB68BA691A61FB68BA685A61A7
:100B4000FB68FA791A76FB683A68DA61FB6818463E
:100B500007F11007BD4680BDC8A9080080B483B066
:100B600000AF78607B681B691B6C03F140027B68F7
:100B70001B695B6CD31A03F03F03184607F10C079F
:100B8000BD4680BC704700BF80B483B000AF7860C2
:100B90007B681B691A6C7B681B695B6C9A4202D18B
:100BA0004FF0FF3305E07B681A697B681B695B6C5B
:100BB000D35C184607F10C07BD4680BC704700BFE8
:100BC00080B485B000AF78607B681B691A6C7B6865
:100BD0001B695B6C9A4202D14FF0FF3311E07B68D6
:100BE0001A697B681B695B6CD35CFB737B681B6950
:100BF0007A681269526C02F1010202F03F025A64F3
:100C0000FB7B184607F11407BD4680BC704700BF48
:100C100080B483B000AF78607B685B695B6903F088
:100C20000203002B14BF00230123DBB2002BF3D1FE
:100C300007F10C07BD4680BC704700BF80B483B08D
:100C400000AF78600B46FB707B685B695B6903F003
:100C50000203002B14BF00230123DBB2002BF3D1CE
:100C60007B685B69FA78DA614FF00103184607F197
:100C70000C07BD4680BC704780B584B000AF78607B
:100C80007B685B695B69FB60FB6803F00103002B19
:100C90000CD07B681A697B685B699B69DBB2104684
:100CA000194640F2C563C0F208039847FB6803F099
:100CB0002003002B04D1FB6803F04003002B07D076
:100CC0007B685B697A685269126842F480721A60C4
:100CD00007F11007BD4680BD80B483B000AF7860D7
:100CE00039607B683A685A6007F10C07BD4680BCE2
:100CF000704700BF80B582B000AF78607B681B781A
:100D000003F10203DAB27B681A704FF000004AF672
:100D10002821C0F208014FF0420241F60123C0F23F
:100D2000080398470346184607F10807BD4680BDEB
:100D300080B582B000AF78607B681B7803F1020356
:100D4000DAB27B681A704FF000004AF66C21C0F2EC
:100D500008014FF0420241F60123C0F20803984710
:100D60000346184607F10807BD4680BD80B584B02C
:100D700000AF78607B685B78FB737B681B78BB7324
:100D8000BB7BA12B12D1FB7B212B0FD14FF000009D
:100D900040F2A401C2F207014FF0070241F601231D
:100DA000C0F2080398474FF001034BE0BB7B212BB7
:100DB00046D1FB7B202B0DD140F2A400C2F20700EC
:100DC0004FF0070141F6A123C0F2080398474FF006
:100DD000010337E0FB7B222B32D17B689A7840F20B
:100DE000A403C2F20703DA7140F2A403C2F20703BC
:100DF0001B68B3F5966F14BF00230123DBB2002BF1
:100E00001BD040F2A403C2F20703DB79DBB203F08C
:100E10000103002B14BF00230123DBB2002B07D0FA
:100E20004FF0FA0040F20563C0F20803984704E06F
:100E300040F22563C0F2080398474FF0010301E038
:100E40004FF00003184607F11007BD4680BD00BFF4
:100E500080B483B000AF7860396007F10C07BD46FD
:100E600080BC704790B58BB000AF786040F62453DB
:100E7000C2F20703BB61BB6953E8004F7C617B6929
:100E8000002B0CBF00230123DBB2002B02D0BFF3E9
:100E90002F8F68E04FF001033B6140F62453C2F20C
:100EA0000703FB60FB683A6943E80024BC60BB6849
:100EB000002B0CBF00230123DBB2002BD6D140F660
:100EC0000833C2F207033B623B6AD3F8003203F1F6
:100ED00001034FEAC3534FEAD3537B6231E04FF033
:100EE000020041F2A973C0F2080398470346002BA1
:100EF00014BF00230123DBB2002B07D04CF22823C0
:100F0000C4F20A034FF480421A6025E04FF0020059
:100F100041F6F903C0F208039847F8613B6AD3F839
:100F20000032FA69D1B23A6AD1543B6A7A6AC3F89C
:100F300000227B6A03F101034FEAC3534FEAD35304
:100F40007B623B6AD3F804227B6A9A420CBF00237F
:100F50000123DBB2002BC2D140F62453C2F20703B7
:100F60004FF000021A6007F12C07BD4690BD00BF8C
:100F700080B485B000AF786040F60833C2F2070352
:100F8000FB60FB68D3F80022FB68D3F80432D31A65
:100F90004FEAC3534FEAD353184607F11407BD462F
:100FA00080BC704780B485B000AF786040F60833ED
:100FB000C2F20703FB60FB68D3F80022FB68D3F89A
:100FC00004329A4214BF00230123DBB2002B02D06B
:100FD0004FF0FF3304E0FB68D3F80432FA68D35CC7
:100FE000184607F11407BD4680BC704780B584B031
:100FF00000AF786040F60833C2F20703FB60FB687D
:10100000D3F80022FB68D3F804329A4214BF0023BD
:101010000123DBB2002B02D04FF0FF3328E0FB6846
:10102000D3F80432FA68D35CFB72FB68D3F804325D
:1010300003F101034FEAC3534FEAD353FA68C2F8EE
:1010400004324FF0020041F2A973C0F2080398473E
:101050000346002B0CBF00230123DBB2002B06D07C
:101060007B681B6803F118031B6878689847FB7A54
:10107000184607F11007BD4680BD00BF80B582B09D
:1010800000AF78604FF0030042F27553C0F20803DE
:10109000984707F10807BD4680BD00BF80B586B000
:1010A00000AFF860B9607A6040F2A403C2F20703AF
:1010B000DB79DBB2002B0CBF00230123DBB2002B5A
:1010C0001BD04FF00300B9687A6841F64113C0F2B3
:1010D0000803984703467B617B69002B01DD7B6930
:1010E00016E0FB6818464FF0010140F6D943C0F204
:1010F000080398474FF000030AE0FB6818464FF0DA
:10110000010140F6D943C0F2080398474FF00003AD
:10111000184607F11807BD4680BD00BF80B582B0F4
:1011200000AF78600B46FB707B681B6803F104031B
:101130001B6807F10302786811464FF001029847D7
:101140000346184607F10807BD4680BD80B582B04A
:1011500000AF78607B68184640F6B903C0F2080318
:1011600098477B68034A1A607B68184607F10807AE
:10117000BD4680BDF0A9080080B582B000AF7860A0
:1011800039607B68012B0DD13A684FF6FF739A42A4
:1011900008D140F61050C2F2070041F24D13C0F2E0
:1011A0000803984707F10807BD4680BD80B500AF2A
:1011B0004FF001004FF6FF7141F27913C0F20803BE
:1011C000984780BD80B582B000AF78607B681B789F
:1011D00003F10103DAB27B681A704FF000004AF69F
:1011E0001831C0F208014FF0190241F60123C0F294
:1011F000080398470346184607F10807BD4680BD17
:1012000080B582B000AF78604FF000004AF6B021A0
:10121000C0F208014FF0650241F60123C0F2080355
:1012200098470346184607F10807BD4680BD00BF32
:1012300080B596B000AF0346B9607A60FB73BB68B7
:101240003B65FB7B3B744FF000037B650FE07B6DE0
:1012500003F10103396D7A6D8A18127807F158018C
:10126000CB1803F8482C7B6D03F101037B657A6D85
:101270007B689A422CBF00230123DBB2002BE6D10E
:101280007B6803F1010307F110024FF004001146DF
:101290001A4641F64113C0F20803984707F1580770
:1012A000BD4680BD80B485B000AF78607B685B7858
:1012B000FB737B681B78BB73BB7BA12B0BD1FB7BC8
:1012C000012B02D14FF0010324E0FB7B032B02D161
:1012D0004FF001031EE0BB7B212B19D1FB7B0B2BB5
:1012E00009D17B689A7840F2B003C2F207031A7002
:1012F0004FF001030EE0FB7B0A2B09D17B689A7843
:1013000040F2B103C2F207031A704FF0010301E08B
:101310004FF00003184607F11407BD4680BC704724
:1013200080B483B000AF78607B684FF000021A7021
:101330007B68184607F10C07BD4680BC704700BFAC
:1013400080B582B000AF78607B68184640F69103A4
:10135000C0F2080398477B68034A1A607B68184606
:1013600007F10807BD4680BDC0AB080080B582B05C
:1013700000AF786039604FF0020039684FF0080222
:1013800041F23123C0F20803984707F10807BD4630
:1013900080BD00BF80B584B000AF78600B46FB70A5
:1013A000FB78872B04D9FB7803F17803FB703CE0D2
:1013B000FB785BB2002B13DA7B681B7ADAB2FB781E
:1013C000A3F180034FF0010101FA03F3DBB21343F1
:1013D000DBB2DAB27B681A724FF00003FB7024E0D4
:1013E000FA784AF63433C0F208039B5CFB70FB7852
:1013F000002B0BD17B6818464FF0010140F6D94312
:10140000C0F2080398474FF0000363E0FB785BB23B
:10141000002B0ADA7B681B7A43F00203DAB27B689E
:101420001A72FB7803F07F03FB707B689B7AFA7873
:101430009A4243D07B68DB7AFA789A423ED07B6846
:101440001B7BFA789A4239D07B685B7BFA789A42A8
:1014500034D07B689B7BFA789A422FD07B68DB7B09
:10146000FA789A422AD04FF00003FB730FE0FB7B1F
:101470007A68D3189B7A002B05D1FB7B7A68D31846
:10148000FA789A720BE0FB7B03F10103FB73FB7BA1
:10149000052B8CBF00230123DBB2002BE7D1FB7BA4
:1014A000062B0BD17B6818464FF0010140F6D9435B
:1014B000C0F2080398474FF000030BE07B6803F18C
:1014C00008037868194641F26D33C0F20803984763
:1014D0004FF00103184607F11007BD4680BD00BF5D
:1014E00080B584B000AF78600B46FB70FB78872B2B
:1014F00004D9FB7803F17803FB7036E0FB785BB22C
:10150000002B16DA7B681B7ADAB2FB78A3F1800332
:101510004FF0010101FA03F3DBB26FEA0303DBB220
:101520001340DBB2DAB27B681A724FF00003FB7033
:101530001BE0FA784AF63433C0F208039B5CFB7078
:10154000FB78002B02D14FF000033AE0FB785BB24E
:10155000002B0ADA7B681B7A23F00203DAB27B687D
:101560001A72FB7803F07F03FB704FF00003FB73EC
:1015700013E0FB78002B0CD0FB7B7A68D3189B7AA6
:10158000FA789A4205D1FB7B7A68D3184FF00002B3
:101590009A72FB7B03F10103FB73FB7B052B8CBF72
:1015A00000230123DBB2002BE3D17B6803F10803A6
:1015B0007868194641F26D33C0F2080398474FF03E
:1015C0000103184607F11007BD4680BD80B582B003
:1015D00000AF78607B684FF000029A727B684FF032
:1015E0000002DA727B684FF000021A737B684FF0DA
:1015F00000025A737B684FF000029A737B684FF0C9
:101600000002DA737B684FF000021A727B6803F104
:1016100008037868194641F26D33C0F20803984711
:1016200007F10807BD4680BD80B584B000AF786083
:101630000B46FB704FF00003FB737B681B6803F1E4
:1016400008031B68FA787868114698470346FB73CD
:101650007B681B6803F10C031B68FA7878681146F5
:101660009847FB7B184607F11007BD4680BD00BFB9
:1016700080B582B000AF786039607B68012B16D1ED
:101680003A684FF6FF739A4211D140F62850C2F2E1
:10169000070041F22133C0F20803984740F62C506E
:1016A000C2F2070041F24133C0F20803984707F144
:1016B0000807BD4680BD00BF80B500AF4FF00100F8
:1016C0004FF6FF7141F27163C0F20803984780BD85
:1016D00080B483B000AF40F2BC03C2F207031B68C2
:1016E0007B6072B6BFF35F8F40F2BC03C2F20703A8
:1016F0004FF000021A607B68184607F10C07BD46E0
:1017000080BC704780B483B000AF78607B681846B7
:1017100007F10C07BD4680BC704700BF80B582B0A2
:1017200000AF7860786841F20573C0F2080398470B
:101730000346002B0CBF00230123DBB2002B09D092
:1017400040F2BC03C2F207034FF001021A60BFF37C
:101750005F8F62B607F10807BD4680BD80B582B0D5
:1017600000AF7860396041F2D163C0F20803984756
:1017700002467B681A607B68184607F10807BD4679
:1017800080BD00BF80B582B000AF78607B681B6809
:10179000184641F21D73C0F2080398477B6818464B
:1017A00007F10807BD4680BD90B585B000AF7860F1
:1017B00007F10C031846796841F25D73C0F2080323
:1017C00098477B6803F00F03184643F67953C0F23D
:1017D00008039847044607F10C03184641F2857345
:1017E000C0F2080398472346184607F11407BD4680
:1017F00090BD00BF90B589B000AFF860B9607A6065
:1018000040F64053C2F207031B68002B02D14FF091
:10181000010301E04FF00003002B02D04FF0FF3432
:1018200064E007F114031846F96841F25D73C0F2F1
:1018300008039847FB6803F00F03184643F67953F3
:10184000C0F208039847F861FA697B689A4201D2AE
:10185000FB6900E07B687B607B68FB61BB68BB6108
:1018600010E0FB6803F00F03184643F66543C0F22F
:101870000803984703461A46BB691A70BB6903F10F
:101880000103BB61FB69002B0CBF00230123DBB20A
:10189000FA6902F1FF32FA61002BE2D17B68002B7A
:1018A0000ED0FB6803F00F03184643F67953C0F2DD
:1018B000080398470346002B02D14FF0010301E0D3
:1018C0004FF00003002B08D0FB6803F00F0318460D
:1018D00043F6AD53C0F2080398477C6807F1140340
:1018E000184641F28573C0F208039847234618460C
:1018F00007F12407BD4690BD80B584B000AF786085
:101900007B6803F00F0207F10F03104619464FF0F2
:10191000010241F2F573C0F2080398470346012B18
:101920000CBF00230123DBB2002B02D04FF0FF33AA
:1019300000E0FB7B184607F11007BD4680BD00BFE5
:1019400080B588B000AFF860B9607A607B687B6171
:10195000BB68BB6140F64053C2F207031B68002B13
:1019600014BF00230123DBB2002B25D04FF0FF333F
:101970002BE0FB68002B03D14FF04003FB6102E03A
:101980004FF40073FB61FA697B689A4201D97B6866
:10199000FB617A68FB69D31A7B60FB6803F00F0375
:1019A0001846B969FA6943F6C923C0F20803984793
:1019B000BA69FB69D318BB617B68002B0CBF00239D
:1019C0000123DBB2002BD4D17B69184607F1200735
:1019D000BD4680BD80B483B000AF786040F6505300
:1019E000C2F207034FF000021A6040F65453C2F2ED
:1019F00007037A681A6007F10C07BD4680BC704780
:101A000080B588B000AF0346B9607A60FB73BB68ED
:101A1000BB617B687B614FF000033B614FF00003CB
:101A2000FB6140F65053C2F207031A6840F6545364
:101A3000C2F207031B689A421DDA14E0BA69FB6917
:101A4000D3184FF0000019467A6843F6C923C0F254
:101A5000080398473861FA693B69D318FB617A68D3
:101A60003B69D31A7B607B68002B0CBF00230123EA
:101A7000DBB2002BE2D140F65053C2F207031B68E1
:101A80001A467B69D3181A4640F65053C2F2070330
:101A90001A607B69184607F12007BD4680BD00BF6C
:101AA00080B582B000AF7860396043F62123C0F280
:101AB000080398474FF0000079683A6843F6C1433D
:101AC000C0F20803984743F66923C0F20803984719
:101AD0003B68184607F10807BD4680BD80B584B055
:101AE00000AF78607B689B88FB73FB7B002B07D182
:101AF000786840F66D53C0F20803984703460CE03F
:101B0000FB7B022B07D1786841F2A523C0F20803C2
:101B10009847034601E04FF00003184607F110070D
:101B2000BD4680BD80B582B000AF4FF000037B6042
:101B30004FF00003FB7007F10303184640F6F5432E
:101B4000C0F208039847786007F10303184641F292
:101B5000C513C0F20803984703467A68D3187B6020
:101B6000FB78184607F10807BD4680BD80B582B0F6
:101B700000AF4FF000037B604FF00003FB7007F1F4
:101B80000303184640F63153C0F2080398477860C3
:101B900007F10303184641F2C513C0F20803984742
:101BA00003467A68D3187B60FB78184607F108076C
:101BB000BD4680BD80B586B000AF78604FF00000B4
:101BC00041F6D513C0F20803984741F62533C0F219
:101BD00008039847786107F108034FF000021A6084
:101BE00003F104034FF000021A6003F104034FF005
:101BF00000021A7003F101034FF009033B724FF02A
:101C000002037B724FF001037B734FF0C003FB7341
:101C10004FF0FA033B7440F65053C2F207031B68BF
:101C20009BB203F109039BB27B817B69DBB23B73FF
:101C3000786841F6D513C0F20803984707F1080306
:101C40004FF0000019464FF0090241F60123C0F29F
:101C50000803984741F62533C0F2080398474FF030
:101C60000103184607F11807BD4680BD80B586B050
:101C700000AF78604FF0000041F6D513C0F20803C2
:101C8000984741F66D33C0F208039847786107F131
:101C900008034FF000021A6003F104034FF0000242
:101CA0001A6003F104034FF000021A7003F10103FC
:101CB0004FF009033B724FF007037B724FF00103B3
:101CC0007B734FF0C003FB734FF0FA033B7440F695
:101CD0005053C2F207031B689BB203F109039BB286
:101CE0007B817B69DBB23B73786841F6D513C0F228
:101CF0000803984707F108034FF0000019464FF01A
:101D0000090241F60123C0F20803984741F66D33FA
:101D1000C0F2080398474FF00103184607F118076F
:101D2000BD4680BD80B586B000AF78607B68DB784B
:101D3000FB734FF00003FB754FF000033B61FB7B2F
:101D4000022B09D17B68DB88184641F6B533C0F217
:101D5000080398470346A9E07B68DB88184641F6EC
:101D6000D513C0F208039847FB7B222B0DD1FB7BD8
:101D7000184641F20123C0F2080398470346002B9E
:101D80000CBF00230123DBB290E0FB7B012B26D1AB
:101D90007B68DB88082B06D140F64C53C2F2070360
:101DA0004FF001021A6040F64C53C2F207031B6861
:101DB000002B04D04AF64443C0F2080303E04AF67D
:101DC0003043C0F208033B613B691B781A467B68CD
:101DD000DB889A4252D97B68DB88FB754EE0FB7B3F
:101DE000032B2BD17B689B78002B05D14AF6F0336F
:101DF000C0F208033B6116E07B689B78022B05D19B
:101E00004AF6F433C0F208033B610CE07B689B7830
:101E1000012B05D14AF61843C0F208033B6102E0EA
:101E20004FF0000342E03B691B781A467B68DB8871
:101E30009A4223D97B68DB88FB751FE0FB7B062B6E
:101E40000FD14AF68443C0F208033B613B691B781B
:101E50001A467B68DB889A4210D97B68DB88FB7561
:101E60000CE0FB7B072B09D17B68DB88184641F629
:101E70006D43C0F208039847034617E03B69002B07
:101E800002D14FF0000311E0FB7D002B02D13B6932
:101E90001B78FB75FB7D4FF0000039691A4641F64F
:101EA0000123C0F2080398474FF00103184607F1D9
:101EB0001807BD4680BD00BF80B400AF0DE04FF4F1
:101EC0004043C4F20A035B6803F00103002B0CBF1C
:101ED00000230123DBB2002B17D14FF44043C4F29F
:101EE0000A03D3F8303103F00103002B14BF0023A1
:101EF0000123DBB2002BE2D14FF44043C4F20A03CA
:101F00004FF00102C3F8602100E000BFBD4680BC75
:101F1000704700BF80B584B000AF0346FB714FF03F
:101F20000003C2F21903BB60FB7903F1FF33032BFB
:101F300000F2BC8001A252F823F000BF4720080045
:101F40006B2008008F2008004D1F080041F6B96380
:101F5000C0F2080398474FF44043C4F20A034FF01D
:101F60000002C3F818234FF44043C4F20A034FF0B1
:101F70000002C3F828234FF44043C4F20A0341F29D
:101F80003012C3F808214FF44043C4F20A034FF45F
:101F90004042C4F20A02D2F8082142F00202C3F819
:101FA00008214FF44043C4F20A03D3F8383103F454
:101FB0008023002B14BF00230123DBB2002BF0D1C0
:101FC0004FF44043C4F20A034FF44042C4F20A0201
:101FD000D26942F00402DA614FF00003FB730DE0B6
:101FE000FB7BBA68D218F97B4AF69843C0F2080323
:101FF0005B5C1370FB7B03F10103FB73FB7B342BF6
:102000008CBF00230123DBB2002BE9D14FF4404306
:10201000C4F20A034FF44042C4F20A02126842F4C6
:1020200000421A604FF44043C4F20A034FF0010229
:10203000C3F868214FF44043C4F20A034FF48042CE
:10204000C3F82822FEE741F6B963C0F208039847B7
:102050004FF44043C4F20A034FF44042C4F20A0270
:10206000126842F400521A60FEE741F6B963C0F20A
:10207000080398474FF44043C4F20A034FF4404228
:10208000C4F20A02126842F480421A60FEE741F686
:10209000B963C0F2080398474FF44043C4F20A03FF
:1020A0004FF27F02C7F607625A61FEE707F1100799
:1020B000BD4680BD80B584B000AF4FF44043C4F24C
:1020C0000A035B6803F00803002B0CBF0023012305
:1020D000DBB2002B3CD04FF44043C4F20A034FF470
:1020E0004042C4F20A02126822F07F021A604FF4E2
:1020F0004043C4F20A034FF44042C4F20A02126899
:1021000042F080021A604FF0000042F2320143F6C2
:102110000D13C0F2080398474CF2F013C4F20A03FF
:102120004FF004021A604FF44043C4F20A034FF424
:1021300080529A6140F64053C2F207034FF000020A
:102140001A604FF44043C4F20A034FF008029A6049
:102150004FF44043C4F20A035B6803F48043002B4E
:102160000CBF00230123DBB2002B1ED04CF26813FE
:10217000C4F20A034FF002021A604FF0020041F26B
:10218000A973C0F2080398470346002B0CBF002335
:102190000123DBB2002B08D040F61050C2F207003A
:1021A00040F66563C0F2080398474FF44043C4F219
:1021B0000A035B6803F00403002B0CBF0023012318
:1021C000DBB2002B06D04FF44043C4F20A034FF0B9
:1021D00004029A604FF44043C4F20A035B6803F4BC
:1021E0008053002B0CBF00230123DBB2002B00F037
:1021F000BC8143F69123C0F2080398470346002BA5
:1022000014BF00230123DBB2002B40F0AE8107F1A5
:1022100004034FF0000019464FF0080243F6C14393
:10222000C0F20803984743F6AD23C0F2080398476D
:102230003B79BB73BB7B5BB2002B05DA43F6012312
:10224000C0F20803984704E043F64123C0F20803B4
:1022500098474FF00103FB73BB7B03F06003002B37
:1022600040F05F817B797B737B7B002B39D13B799D
:10227000002B12D14FF000004FF0000143F609434C
:10228000C0F2080398474FF000004FF0000143F6FA
:102290000943C0F20803984759E140F63F53C2F2A0
:1022A00007031B78012B09D14FF000004FF001010B
:1022B00043F60943C0F20803984708E04FF00000D6
:1022C0004FF0000143F60943C0F2080398474FF06E
:1022D00000004FF0000143F60943C0F2080398479D
:1022E00035E17B7B012B40D1BB79012B23D140F61B
:1022F0003E53C2F207031B78012B09D14FF00000B7
:102300004FF0010143F60943C0F20803984708E083
:102310004FF000004FF0000143F60943C0F20803FC
:1023200098474FF000004FF0000143F60943C0F218
:10233000080398470BE140F63F53C2F207034FF002
:1023400000021A704FF000004FF0000143F60943FD
:10235000C0F2080398474FF000004FF0000143F629
:102360000943C0F208039847F1E07B7B032B57D168
:10237000BB79012B0FD140F63E53C2F207034FF059
:1023800001021A704FF000004FF0000143F60943BC
:10239000C0F208039847BB79002B0FD140F63F539A
:1023A000C2F207034FF001021A704FF000004FF025
:1023B000000143F60943C0F208039847BB79022B9A
:1023C00040F0C5803B79002B40F0C1803B8903F091
:1023D0000F03002B40F0BB804FF44043C4F20A03CC
:1023E0004FF44042C4F20A02526922F001025A61DB
:1023F0004FF44043C4F20A034FF44042C4F20A02CD
:10240000126842F400621A603B894FEA13239BB2C0
:10241000DBB2184641F61573C0F20803984796E000
:102420007B7B052B0CD143F60123C0F208039847B0
:10243000BB79184643F64D63C0F20803984786E01F
:102440007B7B062B0AD107F10403184641F625537E
:10245000C0F2080398470346FB7378E07B7B072BA9
:1024600003D14FF00003FB7371E07B7B082B0ED18F
:1024700040F64053C2F207031B68DBB24FF0000086
:10248000194643F60943C0F2080398475FE07B7B97
:10249000092B29D1BB7B03F01F03002B20D14AF667
:1024A0007040C0F208004FF0050143F67913C0F206
:1024B00008039847BB791A4640F64053C2F2070317
:1024C0001A604CF2F813C4F20A034FF002021A60C9
:1024D0004FF44043C4F20A034FF480429A6136E05D
:1024E0004FF00003FB7332E07B7B0A2B0ED140F6EA
:1024F0004853C2F207031B68DBB24FF000001946D5
:1025000043F60943C0F20803984720E07B7B0B2B7E
:102510001DD1BB791A4640F64853C2F207031A6030
:1025200015E043F60123C0F2080398477B8918465B
:1025300041F6D513C0F20803984707F10403184683
:1025400041F6DD23C0F2080398470346FB73FB7B8B
:10255000002B05D043F64123C0F20803984704E05E
:1025600043F65153C0F20803984707F11007BD46E0
:1025700080BD00BF80B582B000AF7860786843F658
:102580007953C0F2080398470346002B0CBF002381
:102590000123DBB2002B05D0786843F6FD53C0F26F
:1025A0000803984707F10807BD4680BD80B582B093
:1025B00000AF786042F2B500C0F2080043F2BD639C
:1025C000C0F20803984743F2DD63C0F2080398475E
:1025D0000346002B14BF00230123DBB2002B06D0DF
:1025E00040F64453C2F207034FF001021A607B68C1
:1025F000184607F10807BD4680BD00BF80B582B010
:1026000000AF786040F64453C2F207031B68002B0A
:102610000CBF00230123DBB2002B0ED043F68D0349
:10262000C0F20803984740F64053C2F207034FF048
:1026300000021A604FF0010301E04FF0000318465A
:1026400007F10807BD4680BD80B582B000AF786055
:1026500039607B68012B0DD13A684FF6FF739A42BF
:1026600008D140F65850C2F2070042F2AD53C0F212
:102670000803984707F10807BD4680BD80B500AF45
:102680004FF001004FF6FF7142F24963C0F20803B8
:10269000984780BD80B582B000AF4FF46063C4F24C
:1026A0000E03DB6C7B604FF000033B601FE07B6838
:1026B00003F00103002B11D040F65C53C2F2070374
:1026C0003A6853F82230002B09D040F65C53C2F22E
:1026D00007033A6853F82230984700E000BF3B6890
:1026E00003F101033B607B684FEA53037B603B6867
:1026F0001F2BDCD907F10807BD4680BD80B582B02D
:1027000000AF4FF48053C4F20E03DB6C7B604FF0DC
:1027100000033B601FE07B6803F00103002B11D036
:1027200040F6DC53C2F207033A6853F82230002B1C
:1027300009D040F6DC53C2F207033A6853F822305E
:10274000984700E000BF3B6803F101033B607B68F2
:102750004FEA53037B603B681F2BDCD907F1080766
:10276000BD4680BD80B582B000AF4FF49053C4F237
:102770000E03DB6C7B604FF000033B601FE07B6867
:1027800003F00103002B11D040F65C63C2F2070393
:102790003A6853F82230002B09D040F65C63C2F24D
:1027A00007033A6853F82230984700E000BF3B68BF
:1027B00003F101033B607B684FEA53037B603B6896
:1027C0001F2BDCD907F10807BD4680BD80B582B05C
:1027D00000AF4FF4A053C4F20E03DB6C7B604FF0EC
:1027E00000033B601FE07B6803F00103002B11D066
:1027F00040F6DC63C2F207033A6853F82230002B3C
:1028000009D040F6DC63C2F207033A6853F822307D
:10281000984700E000BF3B6803F101033B607B6821
:102820004FEA53037B603B681F2BDCD907F1080795
:10283000BD4680BD80B584B000AF786043F26D5373
:10284000C0F20803984702467B68D318FB6004E097
:1028500040F20523C0F20803984743F26D53C0F2DB
:10286000080398470246FB689A42F1D307F1100724
:10287000BD4680BD80B483B000AF4FF00003FB7154
:102880000BE0FA7940F66473C2F207034FF00001DF
:102890009954FB7903F10103FB71FB794E2BF0D9BD
:1028A00007F10C07BD4680BC704700BF90B583B0F0
:1028B00000AF786039604AF69052C0F20802796839
:1028C0000B464FEAC3035B1A4FEA8303D31803F1A5
:1028D00008031B79002B00F0DC803B68012B7CD0C7
:1028E000012B02D3022B3CD0D1E04AF69052C0F229
:1028F000080279680B464FEAC3035B1A4FEA830369
:10290000D31803F108031B68184643F2F923C0F2F9
:10291000080398474AF69052C0F2080279680B46BD
:102920004FEAC3035B1A4FEA8303D31818684AF6C9
:102930009052C0F2080279680B464FEAC3035B1A53
:102940004FEA8303D31803F104031B684FF003011C
:102950001A464FF0000343F2C114C0F20804A04726
:102960009AE04AF69052C0F2080279680B464FEAA4
:10297000C3035B1A4FEA8303D31803F108031B68F0
:10298000184643F2F923C0F2080398474AF69052DA
:10299000C0F2080279680B464FEAC3035B1A4FEA9C
:1029A0008303D31818684AF69052C0F20802796877
:1029B0000B464FEAC3035B1A4FEA8303D31803F1B4
:1029C00004031B684FF003011A464FF0010343F262
:1029D000C114C0F20804A0475EE04AF69052C0F26B
:1029E000080279680B464FEAC3035B1A4FEA830378
:1029F000D31818684AF69052C0F2080279680B465C
:102A00004FEAC3035B1A4FEA8303D31803F10403AD
:102A10001C684AF69052C0F2080279680B464FEAE9
:102A2000C3035B1A4FEA8303D31803F110031B6837
:102A30004FF00501224643F2C114C0F20804A0473A
:102A40004AF69052C0F2080279680B464FEAC30377
:102A50005B1A4FEA8303D3181B689B69B3F1FF3FEE
:102A600019D14AF69052C0F2080279680B464FEA33
:102A7000C3035B1A4FEA8303D31803F108031B68EF
:102A8000184643F2A133C0F20803984703E000BFA1
:102A900002E000BF00E000BF07F10C07BD4690BD9B
:102AA00090B585B002AF786039604AF69052C0F2B6
:102AB000080279680B464FEAC3035B1A4FEA8303A7
:102AC000D31803F108031B79002B71D04AF69052FA
:102AD000C0F2080279680B464FEAC3035B1A4FEA5B
:102AE0008303D31818684AF69052C0F20802796836
:102AF0000B464FEAC3035B1A4FEA8303D31803F173
:102B000004031B68194643F29523C0F20803984753
:102B10000346002B23D14AF69052C0F2080279688E
:102B20000B464FEAC3035B1A4FEA8303D3181868B6
:102B30004AF69052C0F2080279680B464FEAC30386
:102B40005B1A4FEA8303D31803F104031B68194689
:102B50003A6843F22D03C0F20803984729E04AF689
:102B60009052C0F2080279680B464FEAC3035B1A21
:102B70004FEA8303D31818684AF69052C0F208024D
:102B800079680B464FEAC3035B1A4FEA8303D318F5
:102B900003F104031B684FF00102009219463A68E2
:102BA0004FF0000343F25914C0F20804A04700E0BC
:102BB00000BF07F10C07BD4690BD00BF80B582B0D5
:102BC00000AF4BF6C813C0F208037B6040F200036D
:102BD000C2F207033B607A683B689A4213D00BE06D
:102BE0007B681A683B681A603B6803F104033B602A
:102BF0007B6803F104037B603A6840F6E023C2F28D
:102C000007039A42ECD340F6E023C2F207033B608D
:102C100007E03B684FF000021A603B6803F10403D1
:102C20003B603A6841F22053C2F207039A42F0D364
:102C300040F20003C0F208037B604FF46D43CEF214
:102C400000037A6822F0604222F07F029A607A687C
:102C50006FF060439A4212D97A684FF6FF73C2F25E
:102C60000F039A420BD84FF46D43CEF200034FF49A
:102C70006D42CEF20002926842F000529A6046F233
:102C80008D73C0F20803984742F68563C0F20803CB
:102C90009847FEE780B400AF4FF42063C4F20E0300
:102CA0004FF480621A604FF44063C4F20E034FF495
:102CB00080621A604FF4C063C4F20E031B6A03F013
:102CC0008073002B12D14FF4C063C4F20E0340F6A0
:102CD0000902C0F237021A6200BF4FF4C063C4F2A7
:102CE0000E039B6E03F00103002BF6D04FF4C0637C
:102CF000C4F20E0340F60902C0F237121A6200BF96
:102D00004FF4C063C4F20E039B6E03F48033002BB8
:102D1000F6D04FF4C063C4F20E034FF4C062C4F2A5
:102D20000E02126B22F0030242F001021A6300BF8E
:102D30004FF4C063C4F20E039B6E03F00803002B34
:102D4000F6D04FF4C063C4F20E0343F60172C2F230
:102D50000D029A6200BF4FF4C063C4F20E039B6E73
:102D600003F00203002BF6D04FF4C063C4F20E034D
:102D70004FF011021A6300BF4FF4C063C4F20E0398
:102D80009B6E03F00803002BF6D04FF4C063C4F22F
:102D90000E034FF012021A6300BF4FF4C063C4F277
:102DA0000E039B6E03F00803002BF6D040F2B40331
:102DB000C2F207034FF43D42C0F201521A60BD4611
:102DC00080BC704780B500AF40F2B803C2F2070381
:102DD0001B6818464FF0010142F6AD03C0F208032C
:102DE000984746F23D13C0F20803984740F610504A
:102DF000C2F207004FF4E13140F65163C0F208031C
:102E000098474FF47A7042F63503C0F208039847AA
:102E100080BD00BF80B500AF40F61050C2F2070081
:102E20004AF6D041C0F2080140F22553C0F208032F
:102E3000984740F2B803C2F207031B6818464FF0E8
:102E4000010142F6A123C0F2080398474FF4FA703B
:102E500042F63503C0F20803984740F2B803C2F2C5
:102E600007031B6818464FF0000142F6A123C0F289
:102E7000080398474FF4FA7042F63503C0F208038E
:102E8000984780BD80B500AF46F27523C0F20803B5
:102E900098474FF0010042F63503C0F20803984707
:102EA00040F65850C2F2070042F2FD53C0F2080348
:102EB000984742F6C553C0F20803984700E000BFA8
:102EC00042F61563C0F20803984740F20003C0F2CF
:102ED0000003002BF3D040F20003C0F20003984738
:102EE000EDE700BF80B487B000AFF860B9607A60EA
:102EF000FB70FB684FF001021A60FB684FF00002A4
:102F00005A60FB6840F20222C3F82021FB684FF0B0
:102F10000002C3F80421FB684FF00002C3F814213B
:102F20007B684FEA4303BA68B2FBF3F303F1FF3364
:102F30007B61FB685A687B694FEA03234FEA0343CE
:102F40004FEA1343F9784FEA014101F470210B4332
:102F50001A43FB685A604FF00003184607F11C073C
:102F6000BD4680BC704700BF80B483B000AF7860BE
:102F700013460A46FA70BB707B685A68F978BB78CA
:102F80004FEAC313DBB20B431A437B685A6007F165
:102F90000C07BD4680BC704780B485B000AFF860B8
:102FA0007A600A46FA72BB72FB685A68BB7A4FEACB
:102FB000037303F040517B681943FB7A4FEA0363C4
:102FC00003F070630B431A43FB685A6007F1140760
:102FD000BD4680BC704700BF80B483B000AF78604E
:102FE0007B684FF6FF725A6107F10C07BD4680BC43
:102FF000704700BF80B483B000AF786039607B68F1
:103000003A689A6207F10C07BD4680BC704700BF62
:1030100080B483B000AF786039607B683A685A64E6
:1030200007F10C07BD4680BC704700BF80B485B077
:1030300000AFF860B9607A607B68002B03D0FB6852
:10304000BA685A6602E0FB68BA681A6607F11407A4
:10305000BD4680BC704700BF80B487B000AFF86049
:103060000B467A60FB72FB687A685A64FB7A052B20
:1030700025D801A252F823F0C7300800913008008B
:10308000AD300800C7300800C7300800C73008005E
:10309000FB681B6F7B61FB681A6F7B686FEA03013B
:1030A0007B690B401A40FB681A6708E0FB681B6FDE
:1030B0007B617A687B691A43FB681A6700BFFB680B
:1030C0007A685A6000E000BF07F11C07BD4680BC6B
:1030D000704700BF80B584B000AFF860B9607A6017
:1030E000F868B96843F21103C0F2080398477B6897
:1030F00003F00103F868B9681A4643F22D03C0F2E1
:10310000080398477B6803F00A03002B03D0FB6891
:10311000BA681A6202E0FB68BA685A627B6803F018
:103120000203002B04D0FB68BA68C3F8802008E0D3
:103130007B6803F00803002B03D0FB68BA68C3F870
:103140008020FB68BA685A61FB68BA681A6007F1A8
:103150001007BD4680BD00BF80B584B000AFF860E9
:10316000B9607A603B60F868B96843F21103C0F255
:1031700008039847F868B968BA6943F22D03C0F2AA
:10318000080398473B68002B03D0FB68BA681A65B0
:1031900002E0FB68BA685A657B68002B03D0FB68C5
:1031A000BA681A6302E0FB68BA685A63FB68BA68D7
:1031B0001A61FB68BA681A6007F11007BD4680BD46
:1031C00090B587B002AFF8607A603B600B46FB7247
:1031D000FB7A03F1FF33042B51D801A252F823F0FC
:1031E000F5310800F53108002D3208003F320800A3
:1031F0003F320800FB7AF86819467A6843F25903AF
:10320000C0F208039847F868796843F21103C0F2E6
:10321000080398473B6803F00103F86879681A4689
:1032200043F22D03C0F2080398472BE0F868796851
:103230003A6843F2D503C0F20803984722E0FB7ACC
:10324000052B14BF00230123DBB21A463B6803F0B1
:103250000403002B0CBF00230123DBB2396801F00B
:10326000010100290CBF00210121C9B20091F868B9
:10327000796843F25914C0F20804A04702E04FF005
:10328000000301E04FF00103184607F11407BD46A3
:1032900090BD00BF80B483B000AF786039607B68B8
:1032A0009A683B681340002B08D07B689A693B689A
:1032B0001340002B02D04FF0010301E04FF0000358
:1032C000184607F10C07BD4680BC704780B400AFBC
:1032D0004FF4C063C4F20E034FF44412DA6100BF2E
:1032E0004FF4C063C4F20E039B6E03F04003002B47
:1032F000F6D0BD4680BC704780B483B000AF786024
:103300007B682C2B02D94FF0010343E07B681F2B15
:103310001CD84FF4C063C4F20E039A697B684FF067
:10332000010101FA03F31A407B684FF0010101FA31
:1033300003F39A422CD04FF4C063C4F20E037A68B0
:103340004FF0010101FA02F21A6121E07B68A3F15A
:1033500020037B604FF4C063C4F20E03D3F808214E
:103360007B684FF0010101FA03F31A407B684FF0CC
:10337000010101FA03F39A420AD04FF4C063C4F288
:103380000E037A684FF0010101FA02F2C3F800213E
:103390004FF00003184607F10C07BD4680BC70478C
:1033A00080B483B000AF78607B682C2B02D94FF0DB
:1033B000010343E07B681F2B1CD84FF4C063C4F2A9
:1033C0000E039A697B684FF0010101FA03F31A407A
:1033D0007B684FF0010101FA03F39A422CD14FF4BC
:1033E000C063C4F20E037A684FF0010101FA02F2E1
:1033F0005A6121E07B68A3F120037B604FF4C06336
:10340000C4F20E03D3F808217B684FF0010101FAE2
:1034100003F31A407B684FF0010101FA03F39A426B
:103420000AD14FF4C063C4F20E037A684FF0010171
:1034300001FA02F2C3F804214FF00003184607F125
:103440000C07BD4680BC704780B483B000AF786085
:103450004FF4C063C4F20E037A684FEA022202F40A
:10346000706242F001029A6307F10C07BD4680BC0E
:10347000704700BF80B400AF4FF4C063C4F20E03C6
:103480004FF020021A60BD4680BC704790B587B0EF
:1034900000AFF860B9607A60BB68022B12D94AF6B7
:1034A000F840C0F208004FF040014AF68052C0F2E6
:1034B00008024AF62453C0F2080346F2D164C0F26F
:1034C0000804A047BB684FEA8313FA68D3187B61EE
:1034D0007B694FF002021A607B694FF0FF329A62FB
:1034E0007B691B6A7B697A685A6007F11C07BD46D5
:1034F00090BD00BF90B585B000AF786039603B6883
:10350000022B12D94AF6F840C0F208004FF05C01D5
:103510004AF67452C0F208024AF62453C0F2080375
:1035200046F2D164C0F20804A0473B684FEA831317
:103530007A68D318FB60FB684FF005021A6007F148
:103540001407BD4690BD00BF80B400AF40F6C07305
:10355000C2F207031B6803F1010240F6C073C2F216
:1035600007031A60BD4680BC704700BF80B400AF3F
:1035700040F6C073C2F207031B681846BD4680BC04
:10358000704700BF80B500AF40F6C473C2F20703B6
:103590001B68002B05D040F6C473C2F207031B68FA
:1035A000984780BD80B483B000AF0346FB714FF4F1
:1035B0006143CEF2000397F907204FEA5212F979DE
:1035C00001F01F014FF0010000FA01F143F8221051
:1035D00007F10C07BD4680BC704700BF80B483B0C4
:1035E00000AF03463960FB7197F90730002B10DA02
:1035F0004FF46D43CEF20003FA7902F00F02A2F10C
:1036000004013A68D2B24FEA0212D2B25B181A76BB
:103610000DE04FF46143CEF2000397F907103A68CA
:10362000D2B24FEA0212D2B25B1883F8002307F13C
:103630000C07BD4680BC704780B483B000AF40F239
:10364000BC03C2F207031B687B6072B6BFF35F8FD7
:1036500040F2BC03C2F207034FF000021A607B681D
:10366000184607F10C07BD4680BC704780B483B094
:1036700000AF78607B68184607F10C07BD4680BC38
:10368000704700BF80B582B000AF7860786843F2C1
:103690006D63C0F2080398470346002B09D040F23F
:1036A000BC03C2F207034FF001021A60BFF35F8F41
:1036B00062B607F10807BD4680BD00BF80B483B085
:1036C00000AF786040F6C473C2F207037A681A60EC
:1036D00007F10C07BD4680BC704700BF80B582B0C3
:1036E00000AF4FF000037B6015E040F6C873C2F2F4
:1036F00007037A684FF0000143F8221040F6F07398
:10370000C2F207037A684FF0000143F822107B6889
:1037100003F101037B607B68092BE6D94FF0280099
:1037200043F2F923C0F20803984743F2CD23C0F2D5
:10373000080398474FF0000043F24943C0F20803E2
:10374000984743F27543C0F2080398474FF02800AA
:103750004FF0000143F2DD53C0F2080398474FF0E9
:10376000280043F2A553C0F2080398474FF44043A2
:10377000C4F20A034FF44042C4F20A02D2F800280D
:1037800022F08072C3F800284FF44043C4F20A03C9
:103790004FF44042C4F20A02D2F8002842F000720C
:1037A000C3F800284FF44043C4F20A034FF44042E8
:1037B000C4F20A02D2F8002822F08072C3F800286E
:1037C0004FF44043C4F20A034FF44042C4F20A02E9
:1037D000D2F8002822F48052C3F800284FF4404366
:1037E000C4F20A034FF44042C4F20A02D2F800289D
:1037F00042F48052C3F800284FF44043C4F20A0355
:103800004FF44042C4F20A02D2F8002842F40042C7
:10381000C3F800284FF44043C4F20A034FF4404277
:10382000C4F20A02D2F8002822F48042C3F8002829
:103830004FF44043C4F20A034FF44042C4F20A0278
:10384000126822F480521A604FF44043C4F20A0313
:103850004FF44042C4F20A02126822F440621A6035
:103860004FF44043C4F20A034FF44042C4F20A0248
:10387000D2F8002842F48042C3F800284FF0000339
:10388000184607F10807BD4680BD00BF80B582B06D
:1038900000AF43F23963C0F20803984778604FF4F1
:1038A0004043C4F20A034FF44042C4F20A02D2F881
:1038B000002822F48042C3F8002800BF4FF44043A0
:1038C000C4F20A03D3F8043803F48043002BF5D084
:1038D0004FF44043C4F20A034FF44042C4F20A02D8
:1038E000126822F480721A604FF44043C4F20A0353
:1038F0004FF008029A61786843F28563C0F20803CA
:10390000984707F10807BD4680BD00BF80B483B06B
:1039100000AF786039607B6803F00F037B604FF481
:103920004043C4F20A037A6802F14002396843F85E
:1039300022104FF44043C4F20A034FF44042C4F251
:103940000A02D1697A684FF0010000FA02F20A43D4
:10395000DA617B684FEA83024CF23013C4F20A0347
:10396000D3181B6803F48023002B00D1FEE707F176
:103970000C07BD4680BC704780B485B000AF78604E
:1039800039604FF00103FB6030E04FF44043C4F274
:103990000A03FA684FEA820279688A181168FA689D
:1039A00002F1400243F822104FF44043C4F20A03EC
:1039B0004FF44042C4F20A02D169FA684FF00100A4
:1039C00000FA02F20A43DA61FB684FEA83024CF222
:1039D0003013C4F20A03D3181B6803F48023002BAE
:1039E00000D1FEE7FB6803F10103FB60FA683B6866
:1039F0009A42CAD307F11407BD4680BC704700BF86
:103A000080B400AF00BF4FF44043C4F20A03D3F8C0
:103A1000303103F00103002BF5D0BD4680BC704768
:103A200080B400AF00BF4FF44043C4F20A03D3F8A0
:103A3000303103F00203002BF5D0BD4680BC704747
:103A400080B400AF4FF44043C4F20A034FF00102C8
:103A5000C3F8602140F6C873C2F207034FF00002BA
:103A60001A60BD4680BC704780B400AF4FF440433D
:103A7000C4F20A034FF00202C3F8602140F6F0736B
:103A8000C2F207034FF000021A60BD4680BC7047C7
:103A900080B400AF4FF44043C4F20A03D3F830318E
:103AA00003F004031846BD4680BC704780B400AFE5
:103AB0004FF44043C4F20A034FF00402C3F86021FC
:103AC000BD4680BC704700BF80B588B000AFF860CD
:103AD000B9607A60BB68FB61FB684FEAC33303F1EE
:103AE000005303F5C013BB6100BF4FF44043C4F261
:103AF0000A03FA6802F14C0253F8223003F0010382
:103B0000002BF2D0FB68002B15D140F6C873C2F22F
:103B10000703FA6853F822207B68D318402B13D987
:103B200040F6C873C2F20703FA6853F82230C3F1B3
:103B300040037B6008E040F6C873C2F20703FA68EE
:103B40004FF0000143F822104FF000037B6140F674
:103B5000C873C2F20703FA6853F82230BA69D3185F
:103B6000BB610FE0FB691A78BB691A70BB6903F18E
:103B70000103BB61FB6903F10103FB617B6903F195
:103B800001037B617A697B689A42EBD340F6C87384
:103B9000C2F20703FA6853F822207B69D11840F675
:103BA000C873C2F20703FA6843F82210FB68002BBF
:103BB0000ED140F6C873C2F20703FA6853F82230F8
:103BC000402B1BD143F64123C0F20803984715E070
:103BD0004FF44043C4F20A03FA6802F158024FF06E
:103BE000010143F822104FF44043C4F20A03FA687B
:103BF00002F188024FF4804143F822107B68184696
:103C000007F12007BD4680BD80B485B000AF786065
:103C10000B46FB707B684FEAC33303F1005303F597
:103C2000C013FB6040F6C873C2F207037A6853F80A
:103C30002230FA68D318FA781A7040F6C873C2F2C4
:103C400007037A6853F8223003F1010140F6C87384
:103C5000C2F207037A6843F8221007F11407BD4641
:103C600080BC704780B485B000AF78607B684FEA55
:103C7000C33303F1005303F5C013FB6040F6F07348
:103C8000C2F207037A6853F82230FA68D3181B7817
:103C9000FB7240F6F073C2F207037A6853F82230E1
:103CA00003F1010140F6F073C2F207037A6843F8AA
:103CB0002210FB7A184607F11407BD4680BC7047F6
:103CC00080B489B000AFF860B9607A60FB684FEAF1
:103CD000C33303F1005303F5C013FB61BB68BB6141
:103CE0004FF000037B6140F6F073C2F20703FA68FD
:103CF00053F82230FA69D318FB610FE0FB691A7898
:103D0000BB691A70BB6903F10103BB61FB6903F175
:103D10000103FB617B6903F101037B617A697B68C5
:103D20009A42EBD340F6F073C2F20703FA6853F8F5
:103D300022207B69D11840F6F073C2F20703FA68BB
:103D400043F8221007F12407BD4680BC704700BF2E
:103D500080B400AF4FF44043C4F20A034FF00102B5
:103D6000DA614FF44043C4F20A034FF40022C3F86F
:103D7000F021BD4680BC704780B483B000AF78604E
:103D80004FF44043C4F20A037A6802F14C0253F83C
:103D900022204FF00003C7F6F07313404FEA13538D
:103DA000184607F10C07BD4680BC704780B483B04D
:103DB00000AF78604FF44043C4F20A037A6802F11E
:103DC00058024FF0020143F822104FF44043C4F26E
:103DD0000A037A6802F188024FF4804143F8221006
:103DE00040F6F073C2F207037A684FF0000143F81F
:103DF000221007F10C07BD4680BC704780B483B029
:103E000000AF78604FF44043C4F20A037A6802F1CD
:103E100058024FF0010143F822104FF44043C4F21E
:103E20000A037A6802F188024FF4804143F82210B5
:103E300040F6C873C2F207037A684FF0000143F8F6
:103E4000221007F10C07BD4680BC704780B483B0D8
:103E500000AF78604FF44043C4F20A034FF440428D
:103E6000C4F20A02126822F07F017A6802F07F022F
:103E70000A431A604FF44043C4F20A034FF440422D
:103E8000C4F20A02126842F080021A6007F10C07BD
:103E9000BD4680BC704700BF80B483B000AF78607F
:103EA0007B684FF400425A6007F10C07BD4680BCA6
:103EB000704700BF80B483B000AF0346FB714FF47E
:103EC0006143CEF2000397F907204FEA5212F979C5
:103ED00001F01F014FF0010000FA01F143F8221038
:103EE00007F10C07BD4680BC704700BF80B485B0A9
:103EF00000AF786040F2CC03C2F207031B681F2BAF
:103F00001FD840F2CC03C2F207031B684FF0010236
:103F100002FA03F3FB604FF4C063C4F20E039A6924
:103F2000FB681A40FB689A420CBF00230123DBB2F6
:103F3000002B29D04FF4C063C4F20E03FA681A6153
:103F400022E040F2CC03C2F207031B68A3F1200376
:103F50004FF0010202FA03F3BB604FF4C063C4F2F6
:103F60000E03D3F80821BB681A40BB689A420CBF05
:103F700000230123DBB2002B06D04FF4C063C4F250
:103F80000E03BA68C3F8002107F11407BD4680BCD0
:103F9000704700BF80B485B000AF786040F2CC03BA
:103FA000C2F207031B681F2B1FD840F2CC03C2F2DA
:103FB00007031B684FF0010202FA03F3FB604FF4A2
:103FC000C063C4F20E039A69FB681A40FB689A4208
:103FD00014BF00230123DBB2002B29D04FF4C063B0
:103FE000C4F20E03FA685A6122E040F2CC03C2F236
:103FF00007031B68A3F120034FF0010202FA03F349
:10400000BB604FF4C063C4F20E03D3F80821BB6851
:104010001A40BB689A4214BF00230123DBB2002B75
:1040200006D04FF4C063C4F20E03BA68C3F804218B
:1040300007F11407BD4680BC704700BF80B485B04F
:1040400000AF786040F2D403C2F207031B681F2B55
:104050001FD840F2D403C2F207031B684FF00102DD
:1040600002FA03F3FB604FF4C063C4F20E039A69D3
:10407000FB681A40FB689A420CBF00230123DBB2A5
:10408000002B29D04FF4C063C4F20E03FA681A6102
:1040900022E040F2D403C2F207031B68A3F120031D
:1040A0004FF0010202FA03F3BB604FF4C063C4F2A5
:1040B0000E03D3F80821BB681A40BB689A420CBFB4
:1040C00000230123DBB2002B06D04FF4C063C4F2FF
:1040D0000E03BA68C3F8002107F11407BD4680BC7F
:1040E000704700BF80B485B000AF786040F2D40361
:1040F000C2F207031B681F2B1FD840F2D403C2F281
:1041000007031B684FF0010202FA03F3FB604FF450
:10411000C063C4F20E039A69FB681A40FB689A42B6
:1041200014BF00230123DBB2002B29D04FF4C0635E
:10413000C4F20E03FA685A6122E040F2D403C2F2DC
:1041400007031B68A3F120034FF0010202FA03F3F7
:10415000BB604FF4C063C4F20E03D3F80821BB6800
:104160001A40BB689A4214BF00230123DBB2002B24
:1041700006D04FF4C063C4F20E03BA68C3F804213A
:1041800007F11407BD4680BC704700BF80B483B000
:1041900000AF78607B68184607F10C07BD4680BC0D
:1041A000704700BF80B483B000AF78607B6818466A
:1041B00007F10C07BD4680BC704700BF80B483B0D8
:1041C00000AF78607B68184607F10C07BD4680BCDD
:1041D000704700BF90B583B000AF786013460A46C1
:1041E000FA70BB70BB789BB2FA78786811461A46B1
:1041F0004FF0010344F20D24C0F20804A0477B688D
:10420000184607F10C07BD4690BD00BF80B582B0CF
:1042100000AF7860F9703A80BB70FA78BB78786844
:1042200011461A4644F24D23C0F2080398473A88D3
:10423000BB78786811461A4644F20133C0F208038D
:10424000984707F10807BD4680BD00BF80B582B022
:1042500000AF786013460A46FA70BB70FB78012BFA
:1042600002D0022B2ED046E040F2E803C2F2070350
:104270001B684FF000721A6140F2E803C2F20703B4
:104280001B684FF000721A60BB7883F00103DBB249
:10429000002B30D040F2E803C2F207031B689B6991
:1042A000B3F1FF3F14BF00230123DBB2002B22D068
:1042B00041F23C00C2F2070043F69573C0F20803D6
:1042C000984718E041F23C00C2F2070043F6ED6364
:1042D000C0F20803984740F2E803C2F207031B68E4
:1042E0004FF000725A6140F2E803C2F207031B6804
:1042F0004FF000721A6007F10807BD4680BD00BF8D
:1043000080B483B000AF786013460A467A807B7031
:104310007B8803F00203002B08D040F2E803C2F2CE
:1043200007031B684FF000725A6607E040F2E8038B
:10433000C2F207031B684FF000721A667B8803F015
:104340000403002B08D040F2E803C2F207031B6805
:104350004FF000721A6507E040F2E803C2F207036B
:104360001B684FF000725A657B8803F01003002B26
:1043700011D040F2E803C2F207031B684FF000724D
:104380001A6240F2E803C2F207031B684FF00072A2
:10439000C3F880201EE07B8803F02003002B11D09F
:1043A00040F2E803C2F207031B684FF000721A6282
:1043B00040F2E803C2F207031B684FF00072C3F833
:1043C000842007E040F2E803C2F207031B684FF0C5
:1043D00000725A6207F10C07BD4680BC704700BFEF
:1043E00080B483B000AF786040F2E803C2F2070304
:1043F0001B684FF000721A6307F10C07BD4680BCC2
:10440000704700BF80B483B000AF786040F2E8032B
:10441000C2F207031B684FF000725A6307F10C07E2
:10442000BD4680BC704700BF80B483B000AF7860E9
:104430007B68184607F10C07BD4680BC704700BF7B
:1044400090B583B000AF786013460A46FA70BB702F
:10445000BB789BB2FA78786811461A464FF0010390
:1044600044F27944C0F20804A0477B68184607F17B
:104470000C07BD4690BD00BF80B582B000AF78602C
:10448000F9703A80BB70FA78BB78786811461A46A2
:1044900044F2B943C0F2080398473A88BB78786879
:1044A00011461A4644F26D53C0F20803984707F1CB
:1044B0000807BD4680BD00BF80B582B000AF786000
:1044C00013460A46FA70BB70FB78012B02D0022B10
:1044D0002ED046E040F2EC03C2F207031B684FF017
:1044E00080521A6140F2EC03C2F207031B684FF0DE
:1044F00080521A60BB7883F00103DBB2002B30D00E
:1045000040F2EC03C2F207031B689B69B3F1FF3F63
:1045100014BF00230123DBB2002B22D041F2440060
:10452000C2F2070044F2E503C0F20803984718E01E
:1045300041F24400C2F2070044F23D03C0F2080316
:10454000984740F2EC03C2F207031B684FF0805219
:104550005A6140F2EC03C2F207031B684FF080522D
:104560001A6007F10807BD4680BD00BF80B483B064
:1045700000AF786013460A467A807B707B8803F030
:104580000203002B08D040F2EC03C2F207031B68C1
:104590004FF080525A6607E040F2EC03C2F2070384
:1045A0001B684FF080521A667B8803F00403002BCF
:1045B00008D040F2EC03C2F207031B684FF08052B0
:1045C0001A6507E040F2EC03C2F207031B684FF0E4
:1045D00080525A657B8803F01003002B11D040F203
:1045E000EC03C2F207031B684FF080521A6240F2DC
:1045F000EC03C2F207031B684FF08052C3F880201F
:104600001EE07B8803F02003002B11D040F2EC0366
:10461000C2F207031B684FF080521A6240F2EC03AB
:10462000C2F207031B684FF08052C3F8842007E0F2
:1046300040F2EC03C2F207031B684FF080525A624B
:1046400007F10C07BD4680BC704700BF80B483B043
:1046500000AF786040F2EC03C2F207031B684FF032
:1046600080521A6307F10C07BD4680BC704700BF3B
:1046700080B483B000AF786040F2EC03C2F207036D
:104680001B684FF080525A6307F10C07BD4680BC8F
:10469000704700BF80B483B000AF78607B68184675
:1046A00007F10C07BD4680BC704700BF90B583B0D2
:1046B00000AF786013460A46FA70BB70BB789BB2B5
:1046C000FA78786811461A464FF0010344F2E5641F
:1046D000C0F20804A0477B68184607F10C07BD46E6
:1046E00090BD00BF80B582B000AF7860F9703A80AD
:1046F000BB70FA78BB78786811461A4644F2257385
:10470000C0F2080398473A88BB78786811461A4681
:1047100044F2D973C0F20803984707F10807BD4671
:1047200080BD00BF80B582B000AF786013460A46F6
:10473000FA70BB70FB78012B02D0022B2ED046E022
:1047400040F2F003C2F207031B684FF080621A6167
:1047500040F2F003C2F207031B684FF080621A6058
:10476000BB7883F00103DBB2002B30D040F2F003C2
:10477000C2F207031B689B69B3F1FF3F14BF00231C
:104780000123DBB2002B22D041F24C00C2F2070021
:1047900044F2E503C0F20803984718E041F24C00E8
:1047A000C2F2070044F23D03C0F20803984740F20A
:1047B000F003C2F207031B684FF080625A6140F2B7
:1047C000F003C2F207031B684FF080621A6007F122
:1047D0000807BD4680BD00BF80B483B000AF7860DD
:1047E00013460A467A807B707B8803F00203002B15
:1047F00008D040F2F003C2F207031B684FF080625A
:104800005A6607E040F2F003C2F207031B684FF05C
:1048100080621A667B8803F00403002B08D040F204
:10482000F003C2F207031B684FF080621A6507E0CD
:1048300040F2F003C2F207031B684FF080625A6532
:104840007B8803F01003002B11D040F2F003C2F27A
:1048500007031B684FF080621A6240F2F003C2F255
:1048600007031B684FF08062C3F880201EE07B883E
:1048700003F02003002B11D040F2F003C2F2070333
:104880001B684FF080621A6240F2F003C2F2070325
:104890001B684FF08062C3F8842007E040F2F00309
:1048A000C2F207031B684FF080625A6207F10C07DF
:1048B000BD4680BC704700BF80B483B000AF786055
:1048C00040F2F003C2F207031B684FF080621A63E4
:1048D00007F10C07BD4680BC704700BF80B483B0B1
:1048E00000AF786040F2F003C2F207031B684FF09C
:1048F00080625A6307F10C07BD4680BC704700BF59
:1049000080B483B000AF78607B68184607F10C076D
:10491000BD4680BC704700BF90B583B000AF7860E3
:1049200013460A46FA70BB70BB789BB2FA78786877
:1049300011461A464FF0010344F65114C0F2080420
:10494000A0477B68184607F10C07BD4690BD00BF25
:1049500080B582B000AF7860F9703A80BB70FA78A9
:10496000BB78786811461A4644F69113C0F20803E2
:1049700098473A88BB78786811461A4644F645232A
:10498000C0F20803984707F10807BD4680BD00BF85
:1049900080B582B000AF786013460A46FA70BB70EB
:1049A000FB78012B02D0022B2ED046E040F2F4031C
:1049B000C2F207031B684FF000721A6140F2F40361
:1049C000C2F207031B684FF000721A60BB7883F0D5
:1049D0000103DBB2002B30D040F2F403C2F2070334
:1049E0001B689B69B3F1FF3F14BF00230123DBB2B7
:1049F000002B22D041F25400C2F2070044F2E5033A
:104A0000C0F20803984718E041F25400C2F20700D0
:104A100044F23D03C0F20803984740F2F403C2F2A7
:104A200007031B684FF000725A6140F2F403C2F2B0
:104A300007031B684FF000721A6007F10807BD46B4
:104A400080BD00BF80B483B000AF786013460A46D3
:104A50007A807B707B8803F00203002B08D040F241
:104A6000F403C2F207031B684FF000725A6607E0B6
:104A700040F2F403C2F207031B684FF000721A669B
:104A80007B8803F00403002B08D040F2F403C2F249
:104A900007031B684FF000721A6507E040F2F40349
:104AA000C2F207031B684FF000725A657B8803F05F
:104AB0001003002B11D040F2F403C2F207031B686D
:104AC0004FF000721A6240F2F403C2F207031B684F
:104AD0004FF00072C3F880201EE07B8803F02003B3
:104AE000002B11D040F2F403C2F207031B684FF011
:104AF00000721A6240F2F403C2F207031B684FF01F
:104B00000072C3F8842007E040F2F403C2F2070306
:104B10001B684FF000725A6207F10C07BD4680BC5B
:104B2000704700BF80B483B000AF78607B681846E0
:104B300007F10C07BD4680BC704700BF90B583B03D
:104B400000AF786013460A46FA70BB70BB789BB220
:104B5000FA78786811461A464FF0010344F6753426
:104B6000C0F20804A0477B68184607F10C07BD4651
:104B700090BD00BF80B582B000AF7860F9703A8018
:104B8000BB70FA78BB78786811461A4644F6B5339C
:104B9000C0F2080398473A88BB78786811461A46ED
:104BA00044F66943C0F20803984707F10807BD4679
:104BB00080BD00BF80B582B000AF786013460A4662
:104BC000FA70BB70FB78012B02D0022B2ED046E08E
:104BD00040F2F803C2F207031B684FF080721A61BB
:104BE00040F2F803C2F207031B684FF080721A60AC
:104BF000BB7883F00103DBB2002B30D040F2F80326
:104C0000C2F207031B689B69B3F1FF3F14BF002387
:104C10000123DBB2002B22D041F25C00C2F207007C
:104C200044F2E503C0F20803984718E041F25C0043
:104C3000C2F2070044F23D03C0F20803984740F275
:104C4000F803C2F207031B684FF080725A6140F20A
:104C5000F803C2F207031B684FF080721A6007F175
:104C60000807BD4680BD00BF80B483B000AF786048
:104C700013460A467A807B707B8803F00203002B80
:104C800008D040F2F803C2F207031B684FF08072AD
:104C90005A6607E040F2F803C2F207031B684FF0C0
:104CA00080721A667B8803F00403002B08D040F260
:104CB000F803C2F207031B684FF080721A6507E021
:104CC00040F2F803C2F207031B684FF080725A6586
:104CD0007B8803F01003002B11D040F2F803C2F2DE
:104CE00007031B684FF080721A6240F2F803C2F2A9
:104CF00007031B684FF08072C3F880201EE07B889A
:104D000003F02003002B11D040F2F803C2F2070396
:104D10001B684FF080721A6240F2F803C2F2070378
:104D20001B684FF08072C3F8842007E040F2F8035C
:104D3000C2F207031B684FF080725A6207F10C073A
:104D4000BD4680BC704700BF80B483B000AF7860C0
:104D50007B68184607F10C07BD4680BC704700BF52
:104D600090B583B000AF786013460A46FA70BB7006
:104D7000BB789BB2FA78786811461A464FF0010367
:104D800044F69954C0F20804A0477B68184607F11E
:104D90000C07BD4690BD00BF80B582B000AF786003
:104DA000F9703A80BB70FA78BB78786811461A4679
:104DB00044F6D953C0F2080398473A88BB7878681C
:104DC00011461A4644F68D63C0F20803984707F16E
:104DD0000807BD4680BD00BF80B582B000AF7860D7
:104DE00013460A46FA70BB70FB78012B02D0022BE7
:104DF0002ED046E040F2FC03C2F207031B684FF4DA
:104E000000021A6140F2FC03C2F207031B684FF470
:104E100000021A60BB7883F00103DBB2002B30D0B4
:104E200040F2FC03C2F207031B689B69B3F1FF3F2A
:104E300014BF00230123DBB2002B22D041F2640017
:104E4000C2F2070044F2E503C0F20803984718E0F5
:104E500041F26400C2F2070044F23D03C0F20803CD
:104E6000984740F2FC03C2F207031B684FF40002AC
:104E70005A6140F2FC03C2F207031B684FF40002C0
:104E80001A6007F10807BD4680BD00BF80B483B03B
:104E900000AF786013460A467A807B707B8803F007
:104EA0000203002B08D040F2FC03C2F207031B6888
:104EB0004FF400025A6607E040F2FC03C2F2070317
:104EC0001B684FF400021A667B8803F00403002B72
:104ED00008D040F2FC03C2F207031B684FF4000243
:104EE0001A6507E040F2FC03C2F207031B684FF4A7
:104EF00000025A657B8803F01003002B11D040F2AA
:104F0000FC03C2F207031B684FF400021A6240F26E
:104F1000FC03C2F207031B684FF40002C3F88020B1
:104F20001EE07B8803F02003002B11D040F2FC032D
:104F3000C2F207031B684FF400021A6240F2FC033E
:104F4000C2F207031B684FF40002C3F8842007E095
:104F500040F2FC03C2F207031B684FF400025A62DE
:104F600007F10C07BD4680BC704700BF80B483B01A
:104F700000AF78607B68184607F10C07BD4680BC1F
:104F8000704700BF90B583B000AF786013460A4603
:104F9000FA70BB70BB789BB2FA78786811461A46F3
:104FA0004FF0010344F6BD74C0F20804A0477B68CB
:104FB000184607F10C07BD4690BD00BF80B582B012
:104FC00000AF7860F9703A80BB70FA78BB78786887
:104FD00011461A4644F6FD73C0F2080398473A8812
:104FE000BB78786811461A4645F2B103C0F208034F
:104FF000984707F10807BD4680BD00BF80B582B065
:1050000000AF786013460A46FA70BB70FB78012B3C
:1050100002D0022B2ED046E040F20013C2F207036A
:105020001B684FF480021A6140F20013C2F20703BA
:105030001B684FF480021A60BB7883F00103DBB277
:10504000002B30D040F20013C2F207031B689B69AB
:10505000B3F1FF3F14BF00230123DBB2002B22D0AA
:1050600041F26C00C2F2070044F2E503C0F208030B
:10507000984718E041F26C00C2F2070044F23D0389
:10508000C0F20803984740F20013C2F207031B68FE
:105090004FF480025A6140F20013C2F207031B680A
:1050A0004FF480021A6007F10807BD4680BD00BFBB
:1050B00080B483B000AF786013460A467A807B7074
:1050C0007B8803F00203002B08D040F20013C2F2E9
:1050D00007031B684FF480025A6607E040F2001392
:1050E000C2F207031B684FF480021A667B8803F044
:1050F0000403002B08D040F20013C2F207031B6820
:105100004FF480021A6507E040F20013C2F2070371
:105110001B684FF480025A657B8803F01003002B54
:1051200011D040F20013C2F207031B684FF4800253
:105130001A6240F20013C2F207031B684FF48002A8
:10514000C3F880201EE07B8803F02003002B11D0E1
:1051500040F20013C2F207031B684FF480021A6288
:1051600040F20013C2F207031B684FF48002C3F839
:10517000842007E040F20013C2F207031B684FF4DB
:1051800080025A6207F10C07BD4680BC704700BF21
:1051900080B483B000AF78607B68184607F10C07D5
:1051A000BD4680BC704700BF80B483B000AF78605C
:1051B0007B68184607F10C07BD4680BC704700BFEE
:1051C00080B483B000AF78607B68184607F10C07A5
:1051D000BD4680BC704700BF80B483B000AF78602C
:1051E0007B68184607F10C07BD4680BC704700BFBE
:1051F00080B483B000AF78607B68184607F10C0775
:10520000BD4680BC704700BF80B483B000AF7860FB
:105210007B68184607F10C07BD4680BC704700BF8D
:1052200080B483B000AF78607B68184607F10C0744
:10523000BD4680BC704700BF80B483B000AF7860CB
:105240007B68184607F10C07BD4680BC704700BF5D
:1052500080B483B000AF78607B68184607F10C0714
:10526000BD4680BC704700BF80B483B000AF78609B
:105270007B68184607F10C07BD4680BC704700BF2D
:1052800080B483B000AF78607B68184607F10C07E4
:10529000BD4680BC704700BF80B483B000AF78606B
:1052A0007B68184607F10C07BD4680BC704700BFFD
:1052B00080B483B000AF78607B68184607F10C07B4
:1052C000BD4680BC704700BF80B483B000AF78603B
:1052D0007B68184607F10C07BD4680BC704700BFCD
:1052E00080B483B000AF78607B68184607F10C0784
:1052F000BD4680BC704700BF80B483B000AF78600B
:105300007B68184607F10C07BD4680BC704700BF9C
:1053100080B483B000AF78607B68184607F10C0753
:10532000BD4680BC704700BF80B483B000AF7860DA
:105330007B68184607F10C07BD4680BC704700BF6C
:1053400080B483B000AF78607B68184607F10C0723
:10535000BD4680BC704700BF80B483B000AF7860AA
:105360007B68184607F10C07BD4680BC704700BF3C
:1053700080B483B000AF78607B68184607F10C07F3
:10538000BD4680BC704700BF80B483B000AF78607A
:105390007B68184607F10C07BD4680BC704700BF0C
:1053A00080B483B000AF78607B68184607F10C07C3
:1053B000BD4680BC704700BF80B483B000AF78604A
:1053C0007B68184607F10C07BD4680BC704700BFDC
:1053D00080B483B000AF78607B68184607F10C0793
:1053E000BD4680BC704700BF80B483B000AF78601A
:1053F0007B68184607F10C07BD4680BC704700BFAC
:1054000080B483B000AF78607B68184607F10C0762
:10541000BD4680BC704700BF80B483B000AF7860E9
:105420007B68184607F10C07BD4680BC704700BF7B
:1054300080B483B000AF78607B68184607F10C0732
:10544000BD4680BC704700BF80B483B000AF7860B9
:105450007B68184607F10C07BD4680BC704700BF4B
:1054600080B483B000AF78607B68184607F10C0702
:10547000BD4680BC704700BF80B483B000AF786089
:105480007B68184607F10C07BD4680BC704700BF1B
:1054900080B483B000AF78607B68184607F10C07D2
:1054A000BD4680BC704700BF80B483B000AF786059
:1054B0007B68184607F10C07BD4680BC704700BFEB
:1054C00080B483B000AF78607B68184607F10C07A2
:1054D000BD4680BC704700BF80B483B000AF786029
:1054E0007B68184607F10C07BD4680BC704700BFBB
:1054F00080B483B000AF78607B68184607F10C0772
:10550000BD4680BC704700BF80B483B000AF7860F8
:105510007B68184607F10C07BD4680BC704700BF8A
:1055200080B483B000AF78607B68184607F10C0741
:10553000BD4680BC704700BF80B483B000AF7860C8
:105540007B68184607F10C07BD4680BC704700BF5A
:1055500080B483B000AF78607B68184607F10C0711
:10556000BD4680BC704700BF80B483B000AF786098
:105570007B68184607F10C07BD4680BC704700BF2A
:1055800080B483B000AF78607B68184607F10C07E1
:10559000BD4680BC704700BF80B483B000AF786068
:1055A0007B68184607F10C07BD4680BC704700BFFA
:1055B00080B483B000AF78607B68184607F10C07B1
:1055C000BD4680BC704700BF80B483B000AF786038
:1055D0007B68184607F10C07BD4680BC704700BFCA
:1055E00080B483B000AF78607B68184607F10C0781
:1055F000BD4680BC704700BF80B483B000AF786008
:105600007B68184607F10C07BD4680BC704700BF99
:1056100080B483B000AF78607B68184607F10C0750
:10562000BD4680BC704700BF80B483B000AF7860D7
:105630007B68184607F10C07BD4680BC704700BF69
:1056400080B483B000AF78607B68184607F10C0720
:10565000BD4680BC704700BF80B483B000AF7860A7
:105660007B68184607F10C07BD4680BC704700BF39
:1056700080B483B000AF78607B68184607F10C07F0
:10568000BD4680BC704700BF80B483B000AF786077
:105690007B68184607F10C07BD4680BC704700BF09
:1056A00080B483B000AF78607B68184607F10C07C0
:1056B000BD4680BC704700BF80B483B000AF786047
:1056C0007B68184607F10C07BD4680BC704700BFD9
:1056D00080B483B000AF78607B68184607F10C0790
:1056E000BD4680BC704700BF80B483B000AF786017
:1056F0007B68184607F10C07BD4680BC704700BFA9
:1057000080B483B000AF78607B68184607F10C075F
:10571000BD4680BC704700BF80B483B000AF7860E6
:105720007B68184607F10C07BD4680BC704700BF78
:1057300080B483B000AF78607B68184607F10C072F
:10574000BD4680BC704700BF80B483B000AF7860B6
:105750007B68184607F10C07BD4680BC704700BF48
:1057600080B483B000AF78607B68184607F10C07FF
:10577000BD4680BC704700BF80B483B000AF786086
:105780007B68184607F10C07BD4680BC704700BF18
:1057900080B483B000AF78607B68184607F10C07CF
:1057A000BD4680BC704700BF80B483B000AF786056
:1057B0007B68184607F10C07BD4680BC704700BFE8
:1057C00080B483B000AF78607B68184607F10C079F
:1057D000BD4680BC704700BF80B483B000AF786026
:1057E0007B68184607F10C07BD4680BC704700BFB8
:1057F00080B483B000AF78607B68184607F10C076F
:10580000BD4680BC704700BF80B483B000AF7860F5
:105810007B68184607F10C07BD4680BC704700BF87
:1058200080B500AF41F2C820C2F207004FF000017E
:105830004FF03C0246F63543C0F20803984741F268
:10584000C823C2F2070341F2EF221A8041F2083363
:10585000C2F2070341F2EF221A8044F2E403C4F2D9
:1058600008034FF49A42C5F249421A604FF480404F
:10587000C4F208004FF000014FF4404243F28D4360
:10588000C0F20803984744F21C03C4F208034FF423
:1058900052721A6044F22403C4F208034FF010025B
:1058A0001A604FF01E0043F6B563C0F20803984734
:1058B0004FF01E0043F2F923C0F2080398474FF45B
:1058C0008040C4F208004FF0000143F2F543C0F2FB
:1058D0000803984745F67123C0F20803984780BD36
:1058E00080B500AF44F22003C4F208031B681A46D7
:1058F00041F2C423C2F207031A6041F2C823C2F284
:1059000007031A6941F2C823C2F20703DB68D21801
:1059100041F2C823C2F207031A6141F2C823C2F25E
:1059200007031B69002BD4BF00230123DBB2002B2C
:1059300018D041F2C823C2F207031A6941F2C82302
:10594000C2F207039B68D21A41F2C823C2F20703CE
:105950001A6141F2A420C2F2070044F2E133C0F21E
:105960000803984741F2C823C2F20703DA6941F2FB
:10597000C823C2F207039B69D21841F2C823C2F2BE
:105980000703DA6141F2C823C2F20703DB69002B87
:10599000D4BF00230123DBB2002B18D041F2C8236F
:1059A000C2F20703DA6941F2C823C2F207039B6817
:1059B000D21A41F2C823C2F20703DA6141F2A820E9
:1059C000C2F2070044F24D63C0F20803984741F267
:1059D000C823C2F207039A6A41F2C823C2F207033E
:1059E0005B6AD21841F2C823C2F207039A6241F2FD
:1059F000C823C2F207039B6A002BD4BF00230123F4
:105A0000DBB2002B18D041F2C823C2F207039A6A16
:105A100041F2C823C2F207039B68D21A41F2C8239D
:105A2000C2F207039A6241F2AC20C2F2070044F6C8
:105A3000B903C0F20803984741F2A420C2F207005C
:105A400044F20543C0F20803984741F2A820C2F28D
:105A5000070044F27163C0F20803984741F2AC209A
:105A6000C2F2070044F6DD03C0F20803984780BD88
:105A700080B400AF41F20833C2F207034FF00102D5
:105A80009A7041F20833C2F2070348F2A062C0F2F2
:105A900001021A6141F20833C2F207034FF47A722D
:105AA0005A6141F20833C2F207034FF47A429A81F5
:105AB000BD4680BC704700BF80B582B000AF786043
:105AC00039607B68012B40F028833A684FF6FF73FA
:105AD0009A4240F0228341F23000C2F2070044F2C1
