:0200000280007C
:10000000F02A0720C1040800A5010800A501080086
:10001000A5010800A5010800A501080000000000D6
:10002000000000000000000000000000A90108001E
:10003000A501080000000000B9010800C90108007E
:10004000A5010800A5010800A5010800A5010800F8
:10005000A5010800A5010800A5010800A5010800E8
:10006000A5010800A501080000000000B503080074
:10007000ED030800250408005D04080000000000EE
:1000800000000000A5010800A5010800A501080066
:10009000A5010800A5010800A5010800A5010800A8
:1000A000A501080000000000A5010800A501080046
:1000B000A5010800A5010800A5010800A501080088
:1000C000A5010800A5010800A5010800A501080078
:1000D000A5010800A5010800A5010800A501080068
:1000E000C5050800A5010800A5010800A501080034
:1000F000A501080008B50548054B1B1A062B00D8BA
:1001000008BD044B002BFBD09847F9E7A00D080071
:10011000A30D08000000000008B50748074B1B1A94
:100120009B1003EBD373591000D108BD044A002A79
:10013000FBD09047F9E700BFA00D0800A00D080014
:100140000000000010B5064C237843B9FFF7D2FF3A
:10015000044B13B10448AFF300800123237010BD9A
:100160008008072000000000A00D080008B5084B1B
:100170001BB108480849AFF300800848036813B171
:10018000074B03B19847BDE80840FFF7C5BF00BF64
:1001900000000000A00D080084080720A00D080042
:1001A00000000000FEE700BF08B540F2F913C0F2FE
:1001B0000803984708BD00BF08B540F2F913C0F224
:1001C0000803984708BD00BF08B540F2F113C0F21C
:1001D0000803984748B940F25933C0F208039847DA
:1001E00040F2A553C0F20803984708BD704700BF0E
:1001F0004FF00000704700BFFEE700BF2DE9F84F49
:1002000080460E464FF0000425464FF00A0B40F2A0
:10021000493AC0F2080A4FF02E0908EB04033046B1
:1002200019795A46D04707463046494640F2C1231D
:10023000C0F208039847C0192D1804F10104032CDB
:10024000EBD1304698F807104FF00A0240F24933DC
:10025000C0F2080398472818BDE8F88F30B4044668
:10026000044D05600171427183719DF80830C371BE
:1002700030BC7047680D080010B582B04FF0000325
:10028000009340F69C00C2F2070019461A4640F25D
:100290005D24C0F20804A04702B010BD08B54FF0BD
:1002A000010040F29543C0F20803984740F2000372
:1002B000C0F2000313B11C46A047FDE7FEE700BFF4
:1002C00008B503681B68984708BD00BFF0B58BB040
:1002D00007464FF000038DF82430012A98BF0A2208
:1002E0000DF12304B1FBF2F303FB1211CDB226464C
:1002F000092D94BF30353735EDB2257004F1FF3448
:100300001946002BEED14FF0000066B1304640F6A2
:100310009D23C0F20803984702463B685B68384655
:1003200031469847FFE70BB0F0BD00BF08B522B9D2
:1003300003681B68C9B2984708BDD2B240F2CD230A
:10034000C0F20803984708BD08B540F22D33C0F24B
:100350000803984708BD00BF08B540F23803C2F251
:1003600007031B68B3F1FF3F09D003F1FF3240F2EE
:100370003803C2F207031A600AB9014B984708BD57
:100380000100072040F6A403C2F207031B6843B92B
:1003900040F6A403C2F2070342F6F022C2F20702BB
:1003A0001A6040F6A403C2F207031A681018186016
:1003B0001046704770B54FF46063C4F20E03DD6CF5
:1003C0004FF0000440F6A806C2F2070615F0010F30
:1003D00004D006F10403E35803B198474FEA5505EA
:1003E00004F10404802CF1D170BD00BF70B54FF44E
:1003F0008053C4F20E03DD6C4FF0000440F6A806F3
:10040000C2F2070615F0010F04D006F18403E35889
:1004100003B198474FEA550504F10404802CF1D14B
:1004200070BD00BF70B54FF49053C4F20E03DD6C85
:100430004FF0000440F6A806C2F2070615F0010FBF
:1004400004D006F58273E35803B198474FEA550587
:1004500004F10404802CF1D170BD00BF70B54FF4DD
:10046000A053C4F20E03DD6C4FF0000440F6A80662
:10047000C2F2070615F0010F04D006F5C273E35867
:1004800003B198474FEA550504F10404802CF1D1DB
:1004900070BD00BF70B5054640F2B953C0F2080305
:1004A0009847451940F2B954C0F2080440F2ED16DD
:1004B000C0F2080600E0B047A0478542FBD870BDF7
:1004C00010B540F6A052C0F2080240F20003C2F29A
:1004D00007039A4203D02B4B2B4A9A4204D32B4B4F
:1004E0002B4A9A4218D327E02A4B2B4CE41A24F0CB
:1004F000030404F104044FF0000340F20000C2F2D0
:10050000070040F6A051C0F208015A581A5003F1F2
:100510000403A342F9D1E2E7204B2149C91A21F093
:10052000030140F68002C2F207028A184FF0000170
:1005300043F8041F9342FBD140F20003C0F20803CA
:1005400023F0604121F07F014FF46D42CEF20002B2
:10055000916003F16043B3F5801F3FBF4FF46D43DB
:10056000CEF200039A6842F0005238BF9A6040F21F
:100570001563C0F20803984740F29D23C0F20803B8
:100580009847FEE78008072000000720EC0A0720B4
:100590008008072004000720830807207C08072024
:1005A000E70A072040F6AC23C2F207031A6802F1FB
:1005B00001021A60704700BF40F6AC23C2F2070385
:1005C0001868704708B540F6B023C2F207031B68ED
:1005D00003B1984708BD00BF01460020024603460C
:1005E00000F064BA70B5094B094C0025E41AA41058
:1005F00003EB840602E072599047013C043D002C55
:10060000F9D1BDE8704000F0C3BB00BF9C0D0800ED
:10061000A00D080070B50E4B0E4D0024ED1AAD1064
:100620001E4603E056F8242090470134AC42F9D12D
:1006300000F0A2FB084D094B0024ED1AAD101E4638
:1006400003E056F8242090470134AC42F9D170BD44
:10065000840D0800840D0800900D0800840D08002A
:10066000024B0146186800F00BB800BF400007209D
:10067000024B0146186800F0BFBA00BF40000720D7
:100680002DE9F04701F10B04162C064603D934F08E
:10069000070401D502E010248C4202D20C233360FF
:1006A000D3E1304600F0E8F9B4F5FC7F14D2A04B5A
:1006B000E20803EBC203DD689D4205D105F10803A2
:1006C0006D6902329D4244D0EA68A9686B68CA60CD
:1006D00023F00303916059E0620A01D1E2081BE0B4
:1006E000042A02D8A209383216E0142A01D85B3253
:1006F00012E0542A02D8220B6E320DE0B2F5AA7F26
:1007000002D8E20B773207E040F254539A4202D803
:10071000A20C7C3200E07E22854B03EBC203DD6835
:1007200014E0696821F00301081B0F2801DD013A7C
:100730000EE0002809DBEB68AA68D3609A606B18AA
:100740005A6842F001025A608BE1ED689D42E8D19F
:10075000013277490D6901F10807BD4267D06B6826
:1007600023F00303181B0F280CDD2B1940F00102A6
:1007700044F001046C604B610B61DF609F605A6064
:1007800018506EE100284F610F6101DBEB18D7E7CD
:10079000B3F5007F0FD2DB089810012707FA00F7A6
:1007A00048683843486001EBC3018B68E960AB607F
:1007B000DD608D603BE0580A042802D89809383083
:1007C00016E0142801D85B3012E0542802D8180B28
:1007D0006E300DE0B0F5AA7F02D8D80B773007E075
:1007E00040F25451884202D8980C7C3000E07E20C0
:1007F000DFF83CE10EEBC007B968B9420DD1012327
:10080000801003FA00F0DEF804300343CEF8043021
:100810000B4608E08968B94204D0486820F003001C
:100820008342F7D3CB68EB60A960CD609D60012166
:10083000931001FA03F33E4949688B425DD80B429D
:1008400005D122F003025B0004320B42FBD0384892
:1008500000EBC20CE6461746DEF80C502CE0696847
:1008600021F00308C4EB08010F2913DD2B1944F014
:100870000104EA686C6055F8080F5950C260906036
:100880002B4A536113610832DA609A6041F0010229
:100890005A600CE000290EDB05EB08035A6842F0B1
:1008A00001025A60EB6855F8082FD3609A60304611
:1008B00000F0E3F8D9E0ED687545D0D10137B9070C
:1008C00005F1080EC8D16146950704D1426822EAB5
:1008D0000302426005E0A1F108050968013AA94256
:1008E000F2D041685B008B4207D833B13A4601E051
:1008F00004325B000B42ABD1FAE70D4B9F687A687C
:1009000022F00309A1451A4604D3C4EB09030F2BB7
:1009100000F39D80074B07EB090A1B6804EB0308F3
:10092000D2F80834013307D108F110080CE000BFF9
:1009300070040720B40A072008F5805808F10F0852
:1009400028F47F6828F00F083046414600F096F8FA
:10095000421C05466BD0504502D2454B9F4266D1A2
:10096000444A5545536843445360414A07D12905D9
:1009700005D19368C84448F001025A604CE0D2F8AF
:100980000824013203D13A4BC3F8085404E0CAEBFF
:10099000050A384A5344536015F007031CBFC3F1DE
:1009A0000803ED18A84403F580534FEA0858A3EB59
:1009B00018584146304600F061F82E4A431C5368EF
:1009C00004BF4FF00008284643445360401B284BA7
:1009D000404440F001009F429D6068601CD0B9F126
:1009E0000F0F02D801236B6021E07B68A9F10C098D
:1009F00029F0070903F0010349EA03037B6005229C
:100A000007EB0903B9F10F0F5A609A6004D9304619
:100A100007F1080100F0F0F8164A5368D16A8B42DA
:100A200088BFD362126B934284BF124A1363104B88
:100A30009B685A6822F00302A242C4EB020301D36E
:100A40000F2B04DC304600F018F800250DE0084AB2
:100A500044F00101956843F001032C19696094602A
:100A60006360304600F009F808352846BDE8F08795
:100A700070040720B40A07207047704738B5064C49
:100A80000023054608462360FFF77CFC431C02D187
:100A9000236803B12B6038BDE80A0720034613F82A
:100AA000012B002AFBD1181A013870472DE9F843B1
:100AB0009846234B06461C680F46D4F848019146D9
:100AC00018B904F5A670C4F8480141681F2916DD5D
:100AD0001C4B1BB94FF0FF30BDE8F8834FF4C870D2
:100AE000FFF7BEFD0028F5D0D4F848110025456079
:100AF0000160C4F84801C0F88851C0F88C51B6B103
:100B00004468012202FA04F2D0F8881100EB840351
:100B10001143022EC3F88890C0F888111C46C3F810
:100B2000088104D1D0F88C311A43C0F88C21436875
:100B30009A1C013340F8227043600020BDE8F8831E
:100B4000700D080061060800024B13B10248FFF760
:100B500043BD704700000000E5050800F8B5234DCF
:100B60000E460446FFF788FFAB685F6827F003076F
:100B700007F6EF739E1B26F47F6626F00F06A6F598
:100B80008056B6F5805F04DA2046FFF776FF002036
:100B9000F8BD00212046FFF771FFAB68DB199842D2
:100BA000F2D171422046FFF769FF013010D10021D8
:100BB0002046FFF763FFAB68C21A0F2AE4DD0C4939
:100BC00042F0010209685A60401A0A490860DBE7EE
:100BD000AB68BF1B47F001075F60064B20461A68F1
:100BE000961B1E60FFF749FF0120F8BD7004072027
:100BF00078080720B80A0720F8B506460D460029F0
:100C000000F0A580FFF738FF55F804CC504FA5F150
:100C100008032CF001029C18B96860688C4220F02F
:100C200003000CF001011CD1821839B955F8081CD9
:100C30005B1A98685218D968C160886042F0010157
:100C4000596043498B60434B1B689A4204D3424B23
:100C500030461968FFF782FF3046BDE8F840FFF7DD
:100C60000CBF606059B955F8085C08375B1B521916
:100C70009D68BD4205D0DF68EF60BD6002E00021E5
:100C800000E0012125186D6815F0010F0FD1121831
:100C900049B9A068314DA84205D1EB60AB60D8607E
:100CA0009860012103E0E068A468E060846042F09D
:100CB000010058609A500029CED1B2F5007F0CD2C5
:100CC000D2089010012404FA00F42149486801EB8D
:100CD000C20220434860916834E0540A042C02D8D0
:100CE0009409383416E0142C01D85B3412E0542CEB
:100CF00002D8140B6E340DE0B4F5AA7F02D8D40BE1
:100D0000773407E040F254518C4202D8940C7C3482
:100D100000E07E240E4D05EBC400816881420BD1BA
:100D20000122A41002FA04F46A6822436A600A46A7
:100D300008E08968814204D04C6824F00304A24290
:100D4000F7D3CA68DA6099609360CB6084E7F8BD36
:100D5000700407207C080720B40A072078040720C5
:100D60000000000000000000FD010800000000007D
:100D70004800072043000000F8B500BFF8BC08BCDD
:100D80009E467047490B08006D0108007902080073
:100D9000F8B500BFF8BC08BC9E4670474501080086
:100DA00072B64FF42063C4F20E039A684FF4867251
:100DB000C5F600225A609B6844F24023C0F20F033C
:100DC000013BFDD14FF4D053C4F20E034FF00502A6
:100DD000CAF200521A60FEE7FFFFFFFF00000000AA
:100DE0004800072000000000000000003403072036
:100DF0009C030720040407200000000000000000FE
:100E000000000000000000000000000000000000E2
:100E1000000000000000000000000000740D080049
:100E200000000000000000000000000000000000C2
:100E300000000000000000000000000000000000B2
:100E400000000000000000000000000000000000A2
:100E50000000000000000000000000000000000092
:100E60000000000000000000000000000000000082
:100E70000000000000000000000000000000000072
:100E80000000000000000000000000000000000062
:100E900001000000000000000E33CDAB34126DE6FF
:100EA000ECDE05000B000000000000000000000068
:100EB0000000000000000000000000000000000032
:100EC0000000000000000000000000000000000022
:100ED0000000000000000000000000000000000012
:100EE0000000000000000000000000000000000002
:101210000000000000000000700407207004072098
:101220007804072078040720800407208004072022
:1012300088040720880407209004072090040720D2
:101240009804072098040720A0040720A004072082
:10125000A8040720A8040720B0040720B004072032
:10126000B8040720B8040720C0040720C0040720E2
:10127000C8040720C8040720D0040720D004072092
:10128000D8040720D8040720E0040720E004072042
:10129000E8040720E8040720F0040720F0040720F2
:1012A000F8040720F80407200005072000050720A0
:1012B000080507200805072010050720100507204E
:1012C00018050720180507202005072020050720FE
:1012D00028050720280507203005072030050720AE
:1012E000380507203805072040050720400507205E
:1012F000480507204805072050050720500507200E
:1013000058050720580507206005072060050720BD
:10131000680507206805072070050720700507206D
:10132000780507207805072080050720800507201D
:1013300088050720880507209005072090050720CD
:101340009805072098050720A0050720A00507207D
:10135000A8050720A8050720B0050720B00507202D
:10136000B8050720B8050720C0050720C0050720DD
:10137000C8050720C8050720D0050720D00507208D
:10138000D8050720D8050720E0050720E00507203D
:10139000E8050720E8050720F0050720F0050720ED
:1013A000F8050720F805072000060720000607209B
:1013B0000806072008060720100607201006072049
:1013C00018060720180607202006072020060720F9
:1013D00028060720280607203006072030060720A9
:1013E0003806072038060720400607204006072059
:1013F0004806072048060720500607205006072009
:1014000058060720580607206006072060060720B8
:101410006806072068060720700607207006072068
:101420007806072078060720800607208006072018
:1014300088060720880607209006072090060720C8
:101440009806072098060720A0060720A006072078
:10145000A8060720A8060720B0060720B006072028
:10146000B8060720B8060720C0060720C0060720D8
:10147000C8060720C8060720D0060720D006072088
:10148000D8060720D8060720E0060720E006072038
:10149000E8060720E8060720F0060720F0060720E8
:1014A000F8060720F8060720000707200007072096
:1014B0000807072008070720100707201007072044
:1014C00018070720180707202007072020070720F4
:1014D00028070720280707203007072030070720A4
:1014E0003807072038070720400707204007072054
:1014F0004807072048070720500707205007072004
:1015000058070720580707206007072060070720B3
:101510006807072068070720700707207007072063
:101520007807072078070720800707208007072013
:1015300088070720880707209007072090070720C3
:101540009807072098070720A0070720A007072073
:10155000A8070720A8070720B0070720B007072023
:10156000B8070720B8070720C0070720C0070720D3
:10157000C8070720C8070720D0070720D007072083
:10158000D8070720D8070720E0070720E007072033
:10159000E8070720E8070720F0070720F0070720E3
:1015A000F8070720F8070720000807200008072091
:1015B000080807200808072010080720100807203F
:1015C00018080720180807202008072020080720EF
:1015D000280807202808072030080720300807209F
:1015E000380807203808072040080720400807204F
:1015F00048080720480807205008072050080720FF
:1016000058080720580807206008072060080720AE
:101610006808072068080720FFFFFFFF000002009E
:00000001FF
