:0200000280007C
:10000000F82E0720490E0800A5010800A5010800E8
:10001000A5010800A5010800A501080000000000D6
:10002000000000000000000000000000A90108001E
:10003000A501080000000000B9010800C90108007E
:10004000A5010800A5010800A5010800A5010800F8
:10005000A5010800A5010800A5010800A5010800E8
:10006000CD1E0800A501080000000000D10B08000B
:10007000090C0800410C0800790C08000000000081
:1000800000000000E51E0800FD1E0800A501080094
:10009000151F0800A5010800A5010800A50108001A
:1000A000A501080000000000A5010800A501080046
:1000B000A5010800A5010800A5010800A501080088
:1000C000A5010800A5010800A5010800A501080078
:1000D000A5010800A5010800A5010800A501080068
:1000E000D91D0800A5010800A5010800A501080008
:1000F000A501080008B50548054B1B1A062B00D8BA
:1001000008BD044B002BFBD09847F9E7187708008F
:100110001B7708000000000008B50748074B1B1AB2
:100120009B1003EBD373591000D108BD044A002A79
:10013000FBD09047F9E700BF187708001877080050
:100140000000000010B5064C237843B9FFF7D2FF3A
:10015000044B13B10448AFF300800123237010BD9A
:10016000A8090720000000001877080008B5084B10
:100170001BB108480849AFF300800848036813B171
:10018000074B03B19847BDE80840FFF7C5BF00BF64
:100190000000000018770800AC0907201877080055
:1001A00000000000FEE700BF08B540F20123C0F2E6
:1001B0000803984708BD00BF08B540F20123C0F20C
:1001C0000803984708BD00BF08B540F2F913C0F214
:1001D0000803984748B940F21163C0F208039847F2
:1001E00041F6B953C0F20803984708BD80B400AF88
:1001F000FEE700BF704700BF4FF00000704700BF30
:10020000FEE700BF80B483B000AF78607B68044A2B
:100210001A607B68184607F10C07BD4680BC704722
:10022000A065080080B582B000AF7860F970BA7040
:100230007B707B68184640F20523C0F2080398479C
:100240007B680A4A1A607B68FA781A717B68BA7808
:100250005A717B687A789A717B683A7CDA717B682C
:10026000184607F10807BD4680BD00BF7865080045
:1002700080B584B000AF786039604FF00003FB6058
:100280004FF00003BB6020E07A68BB68D3181B798D
:10029000386819464FF00A0240F2F943C0F20803E9
:1002A00098470346FA68D318FB6038684FF02E0170
:1002B00040F2D143C0F2080398470346FA68D318C6
:1002C000FB60BB6803F10103BB60BB68022BCCBFC2
:1002D00000230123DBB2002BD6D17B68DB793868A1
:1002E00019464FF00A0240F2F943C0F2080398475A
:1002F0000346FA68D318FB60FB68184607F110073D
:10030000BD4680BD90B585B002AF786039607B682E
:10031000012B16D13A684FF6FF739A4211D14FF074
:100320000003009340F6C410C2F207004FF0000132
:100330004FF000024FF0000340F22524C0F2080401
:10034000A04707F10C07BD4690BD00BF80B500AFC8
:100350004FF001004FF6FF7140F20533C0F2080381
:10036000984780BD80B500AF40F28C03C2F207030E
:100370001B6818464FF0010140F6FD43C0F2080328
:10038000984741F6F553C0F20803984780BD00BF77
:1003900080B500AF40F28C03C2F207031B68184619
:1003A0004FF0010140F6DD53C0F2080398474FF4C7
:1003B000FA7040F6B143C0F20803984740F28C034C
:1003C000C2F207031B6818464FF0000140F6DD53E8
:1003D000C0F2080398474FF4FA7040F6B143C0F2F8
:1003E0000803984780BD00BF80B500AF41F62D736C
:1003F000C0F2080398474FF0010040F6B143C0F245
:100400000803984740F26533C0F20803984700E0BC
:1004100000BF40F29133C0F20803984740F2000356
:10042000C0F20003002BF3D040F20003C0F200033F
:100430009847EDE790B583B000AF786039603B68CE
:10044000002B02D14FF0000310E07B681B6803F122
:1004500004031C68386842F64F43C0F2080398470B
:100460000346786839681A46A0470346184607F1DC
:100470000C07BD4690BD00BF80B586B000AFF860E8
:10048000B9607A604FF000037B610FE0FB681B6886
:100490001B68BA681278B96801F10101B960F8689F
:1004A0001146984703467A69D3187B617B68002B15
:1004B0000CBF00230123DBB27A6802F1FF327A60BD
:1004C000002BE3D17B69184607F11807BD4680BDB4
:1004D00080B582B000AF78600B46FB707B681B680C
:1004E0001B68FA787868114698470346184607F162
:1004F0000807BD4680BD00BF80B584B000AFF8607E
:100500000B467A60FB72FB7AF86819467A6840F20B
:100510002553C0F2080398470346184607F1100711
:10052000BD4680BD80B584B000AFF860B9607A6028
:100530007B68002B09D1FB681B681B68BA68D2B2C4
:10054000F8681146984703460AE07B68DBB2F86812
:10055000B9681A4640F26D53C0F208039847034643
:10056000184607F11007BD4680BD00BF80B590B0AA
:1005700000AFF860B9601346FB7107F1140303F193
:100580002003FB63FB6B4FF000021A70FB79012B19
:1005900002D84FF00A03FB71BB68BB63FB79BA68F2
:1005A000B2FBF3F3BB60BB6BDAB2BB68DBB2F979C9
:1005B00001FB03F3DBB2D31A87F83730FB6B03F18F
:1005C000FF33FB6397F83730092B05D897F837309E
:1005D00003F13003DBB204E097F8373003F137035F
:1005E000DBB2FA6B1370BB68002B0CBF0023012336
:1005F000DBB2002BD0D1F868F96B40F23543C0F282
:10060000080398470346184607F14007BD4680BDDA
:1006100080B500AF40F29003C2F207031B68B3F14C
:10062000FF3F18D040F29003C2F207031B6803F1AA
:10063000FF3240F29003C2F207031A6040F29003C7
:10064000C2F207031B68002B06D140F20103C2F27D
:100650000703984700E000BF80BD00BF80B582B0AF
:1006600000AF78607B6818464FF000014FF0400201
:1006700042F6ED03C0F2080398477B684FF0000292
:100680001A647B684FF000025A647B68184607F1D1
:100690000807BD4680BD00BF80B485B000AF78605C
:1006A0000B46FB707B681B6C03F1010303F03F03F7
:1006B000FB607B685A6CFB689A4207D07B681B6CB6
:1006C0007A68F978D1547B68FA681A6407F11407DC
:1006D000BD4680BC704700BF40F6CC13C2F2070392
:1006E0001B6843B940F6CC13C2F2070342F6F86226
:1006F000C2F207021A6040F6CC13C2F207031A686E
:1007000010181860104670474FF0FF30704700BF58
:100710004FF400534B604FF0000070474FF0010062
:10072000704700BF4FF00000704700BF4FF000005F
:10073000704700BF30B4002A0FDD8D184FF40064FD
:10074000C4F20E04636913F0020FFBD011F8013BF1
:10075000E361A942F6D1104601E04FF0000030BC41
:10076000704700BF08B5014646F2E850C0F20800E5
:1007700042F61B13C0F208039847FEE7704700BF1C
:100780004FF0FF30704700BF80B483B000AF786097
:100790007B68064A1A607B684FF000025A607B68EB
:1007A000184607F10C07BD4680BC7047C0650800BD
:1007B00080B582B000AF78607B68184640F28973DC
:1007C000C0F2080398477B68054A1A607B684FF4BB
:1007D0007A729A607B68184607F10807BD4680BDAB
:1007E0006066080080B483B000AF78604FF001030A
:1007F000184607F10C07BD4680BC704780B582B033
:1008000000AF78607B68184640F2B173C0F208030D
:1008100098477B68034A1A607B68184607F1080707
:10082000BD4680BD3866080080B584B000AFF86072
:10083000B9603B601346FB71FB68184640F2FD73DC
:10084000C0F208039847FB68094A1A60FB68BA6956
:100850001A61FB68BA685A61FB68FA791A76FB6814
:100860003A68DA61FB68184607F11007BD4680BD9B
:100870001066080080B483B000AF78607B681B69A5
:100880001B6C03F140027B681B695B6CD31A03F09D
:100890003F03184607F10C07BD4680BC704700BFF8
:1008A00080B483B000AF78607B681B691A6C7B688A
:1008B0001B695B6C9A4202D14FF0FF3305E07B6805
:1008C0001A697B681B695B6CD35C184607F10C07DF
:1008D000BD4680BC704700BF80B485B000AF786073
:1008E0007B681B691A6C7B681B695B6C9A4202D13E
:1008F0004FF0FF3311E07B681A697B681B695B6C02
:10090000D35CFB737B681B697A681269526C02F1D5
:10091000010202F03F025A64FB7B184607F11407FC
:10092000BD4680BC704700BF80B483B000AF786024
:100930007B685B695B6903F00203002B14BF002333
:100940000123DBB2002BF3D107F10C07BD4680BCBD
:10095000704700BF80B483B000AF78600B46FB7077
:100960007B685B695B6903F00203002B14BF002303
:100970000123DBB2002BF3D17B685B69FA78DA6183
:100980004FF00103184607F10C07BD4680BC7047C5
:1009900080B584B000AF78607B685B695B69FB60A1
:1009A000FB6803F00103002B0CD07B681A697B689D
:1009B0005B699B69DBB21046194640F29963C0F24D
:1009C00008039847FB6803F02003002B04D1FB6861
:1009D00003F04003002B07D07B685B697A6852699B
:1009E000126842F480721A6007F11007BD4680BD9C
:1009F00080B483B000AF78604FF00103184607F170
:100A00000C07BD4680BC704780B584B000AFF8606D
:100A1000B9603B601346FB71FB68184640F2FD73FA
:100A2000C0F208039847FB68094A1A60FB68BA6974
:100A30001A61FB68BA685A61FB68FA791A76FB6832
:100A40003A68DA61FB68184607F11007BD4680BDB9
:100A50008066080080B483B000AF78607B681B6953
:100A60001B6C03F140027B681B695B6CD31A03F0BB
:100A70003F03184607F10C07BD4680BC704700BF16
:100A800080B483B000AF78607B681B691A6C7B68A8
:100A90001B695B6C9A4202D14FF0FF3305E07B6823
:100AA0001A697B681B695B6CD35C184607F10C07FD
:100AB000BD4680BC704700BF80B485B000AF786091
:100AC0007B681B691A6C7B681B695B6C9A4202D15C
:100AD0004FF0FF3311E07B681A697B681B695B6C20
:100AE000D35CFB737B681B697A681269526C02F1F4
:100AF000010202F03F025A64FB7B184607F114071B
:100B0000BD4680BC704700BF80B483B000AF786042
:100B10007B685B695B6903F00203002B14BF002351
:100B20000123DBB2002BF3D107F10C07BD4680BCDB
:100B3000704700BF80B483B000AF78600B46FB7095
:100B40007B685B695B6903F00203002B14BF002321
:100B50000123DBB2002BF3D17B685B69FA78DA61A1
:100B60004FF00103184607F10C07BD4680BC7047E3
:100B700080B584B000AF78607B685B695B69FB60BF
:100B8000FB6803F00103002B0CD07B681A697B68BB
:100B90005B699B69DBB21046194640F29963C0F26B
:100BA00008039847FB6803F02003002B04D1FB687F
:100BB00003F04003002B07D07B685B697A685269B9
:100BC000126842F480721A6007F11007BD4680BDBA
:100BD00070B54FF46063C4F20E03DD6C4FF0000497
:100BE00040F6D016C2F2070615F0010F04D006F148
:100BF0000403E35803B198474FEA550504F1040490
:100C0000802CF1D170BD00BF70B54FF48053C4F299
:100C10000E03DD6C4FF0000440F6D016C2F207065A
:100C200015F0010F04D006F18403E35803B198478F
:100C30004FEA550504F10404802CF1D170BD00BFCA
:100C400070B54FF49053C4F20E03DD6C4FF0000406
:100C500040F6D016C2F2070615F0010F04D006F5D3
:100C60008273E35803B198474FEA550504F1040431
:100C7000802CF1D170BD00BF70B54FF4A053C4F209
:100C80000E03DD6C4FF0000440F6D016C2F20706EA
:100C900015F0010F04D006F5C273E35803B198476D
:100CA0004FEA550504F10404802CF1D170BD00BF5A
:100CB00070B5054641F6CD53C0F208039847451973
:100CC00041F6CD54C0F2080440F2F516C0F2080611
:100CD00000E0B047A0478542FBD870BD40F6D43154
:100CE000C2F2070101F1030301F152014FF00002CA
:100CF00003F8012F8B42FBD1704700BF70B504464B
:100D000046F6F023C0F20803C0EBC00203EB8203F7
:100D10001B7B002B61D0012939D011B102295CD194
:100D20001AE046F6F025C0F20805C0EBC0044FEA11
:100D300084042E19B06841F62923C0F208039847AD
:100D400028594FF0030172684FF0000341F67D14FB
:100D5000C0F20804A04770BD46F6F025C0F20805B1
:100D6000C0EBC0044FEA84042E19B06841F6292371
:100D7000C0F20803984728594FF0030172684FF0FA
:100D8000010341F67D14C0F20804A04770BD46F689
:100D9000F023C0F20803C0EBC0024FEA82029D18A4
:100DA0009E5830464FF005016A682B6941F67D1563
:100DB000C0F20805A847B369B3F1FF3F0DD146F66D
:100DC000F023C0F20803C4EBC40403EB8403986867
:100DD00041F6AD23C0F20803984770BD70B582B0EC
:100DE0000D4646F6F023C0F20803C0EBC00403EB47
:100DF00084031B7B33B346F6F023C0F208034FEAAB
:100E000084001A181E5854683046214641F61123B2
:100E1000C0F20803984740B9304621462A4641F6B9
:100E2000B903C0F2080398470CE04FF001030093A8
:100E3000304621462A464FF0000341F63914C0F2ED
:100E40000804A04702B070BD10B547F21872C0F296
:100E5000080240F20003C2F207039A4203D02B4B70
:100E60002B4A9A4204D32B4B2B4A9A4218D327E0A1
:100E70002A4B2B4CE41A24F0030404F104044FF031
:100E8000000340F20000C2F2070047F21871C0F2FE
:100E900008015A581A5003F10403A342F9D1E2E7BA
:100EA000204B2149C91A21F0030140F6A812C2F2D1
:100EB00007028A184FF0000143F8041F9342FBD148
:100EC00040F20003C0F2080323F0604121F07F01EB
:100ED0004FF46D42CEF20002916003F16043B3F52E
:100EE000801F3FBF4FF46D43CEF200039A6842F07B
:100EF000005238BF9A6042F24543C0F20803984757
:100F000040F2E933C0F208039847FEE7A80907203A
:100F100000000720F80E0720A8090720040007207A
:100F2000AB090720A4090720F30E07204FF4206324
:100F3000C4F20E034FF480621A604FF44063C4F2AF
:100F40000E031A604FF4C063C4F20E031B6A13F061
:100F5000807F10D14FF4C063C4F20E0340F6090243
:100F6000C0F237021A624FF4C062C4F20E02936EEE
:100F700013F0010FFBD04FF4C063C4F20E0340F630
:100F80000902C0F237121A624FF4C062C4F20E02B4
:100F9000936E13F4803FFBD04FF4C063C4F20E0392
:100FA0001A6B22F0030242F001021A634FF4C0628E
:100FB000C4F20E02936E13F0080FFBD04FF4C0631F
:100FC000C4F20E0343F60172C2F20D029A624FF4AC
:100FD000C062C4F20E02936E13F0020FFBD04FF406
:100FE000C063C4F20E034FF011021A634FF4C062E3
:100FF000C4F20E02936E13F0080FFBD04FF4C063DF
:10100000C4F20E034FF012021A634FF4C062C4F22E
:101010000E02936E13F0080FFBD040F29403C2F25D
:1010200007034FF43D42C0F201521A60704700BFFF
:1010300080B485B000AFF860B9607A60FA68BB68C8
:101040004FEA8313D3185B6823F470227B681A433A
:10105000F968BB684FEA8313CB185A6007F114078D
:10106000BD4680BC704700BF80B485B000AFF8605B
:10107000B9607A60FA68BB684FEA8313D3185B687B
:1010800023F070627B681A43F968BB684FEA8313E8
:10109000CB185A6007F11407BD4680BC704700BFEB
:1010A00080B485B000AFF860B9607A60BA687B68D8
:1010B0009A4201D1FB6810E0BA687B689A4206D96F
:1010C000BA687B68D31AFA6822FA03F305E07A68F3
:1010D000BB68D31AFA6802FA03F3184607F114073B
:1010E000BD4680BC704700BF80B500AF4FF0080020
:1010F0004FF0000140F6DD53C0F2080398474FF06F
:1011000003004FF0640141F21513C0F20803984741
:1011100080BD00BFB0B58EB002AF7860396046F6D2
:10112000F022C0F2080279680B464FEAC3035B1A4B
:101130004FEA8303D31803F114031B68FB62FB6AB5
:1011400003F00203002B00F0CE8046F6F022C0F23E
:10115000080279680B464FEAC3035B1A4FEA830320
:10116000D31803F118035B7887F82B3097F92B30ED
:10117000102B04D097F92B30112B40F0B48097F945
:101180002B30102B0CBF00230123DBB27B624FF40A
:101190000040C4F20C0041F6A503C0F208039847D2
:1011A0000346002B14BF00230123DBB2002B41D0E8
:1011B0004FF0260041F62923C0F2080398474FF468
:1011C0000040C4F20C0041F2E973C0F208039847F2
:1011D0004FF40040C4F20C004FF0000141F2F173F3
:1011E000C0F2080398474FF40040C4F20C004FF0DF
:1011F00000014FF0000241F62D03C0F208039847AA
:101200004FF40040C4F20C004FF008014FF0000210
:101210004FF0100341F65D04C0F20804A0474FF4FC
:101220000040C4F20C004FF4857141F6A903C0F2EE
:10123000080398474FF40040C4F20C00796A41F665
:101240001503C0F2080398474FF40040C4F20C00A5
:1012500041F6A503C0F20803984702467B6A4FF0A7
:10126000010101FA03F31340002B14BF00230123F3
:10127000DBB2002B09D04FF40040C4F20C00796AB5
:1012800041F69103C0F20803984740F29C03C2F272
:1012900007031B68386819464FF00C0241F2A1039E
:1012A000C0F20803984738604FF40040C4F20C00C5
:1012B000396841F61103C0F20803984700BF4FF4A4
:1012C0000040C4F20C0041F60D03C0F20803984739
:1012D000034603F00203002B14BF00230123DBB2FB
:1012E000002BECD13AE2FB6A03F00803002B00F07C
:1012F000D98040F29C03C2F207031B683868194684
:101300004FF0080241F2A103C0F208039847386089
:1013100040F63843C2F207031B78002B1CD14FF074
:10132000240041F62923C0F2080398474EF21840E2
:10133000C0F203004FF000014FF43D42C0F20152F1
:1013400041F64143C0F20803984740F63843C2F2E1
:1013500007034FF001021A7046F6F022C0F20802AD
:1013600079680B464FEAC3035B1A4FEA8303D3182D
:1013700003F118039B785BB23B6240F63C43C2F238
:1013800007037A689B181B78002B7DD146F6F02264
:10139000C0F2080279680B464FEAC3035B1A4FEAB2
:1013A0008303D318186846F6F022C0F20802796861
:1013B0000B464FEAC3035B1A4FEA8303D31803F1CA
:1013C00008031D7946F6F022C0F2080279680B4640
:1013D0004FEAC3035B1A4FEA8303D31803F10403F4
:1013E0001C6846F6F022C0F2080279680B464FEA04
:1013F000C3035B1A4FEA8303D31803F110031B687E
:101400002946224641F67D14C0F20804A0474FF059
:10141000000300934FF48040C4F20900396A4FF092
:101420000B024FF0000341F6D134C0F20804A0478C
:101430004FF48040C4F20900396A4FF0FF0241F6D0
:10144000AD43C0F2080398473B689BB24FF480401D
:10145000C4F20900396A1A4641F6D943C0F20803BA
:1014600098474FF48040C4F20900396A41F6295385
:10147000C0F20803984740F63C43C2F207037A687B
:101480009B184FF001021A703B689BB24FF48040EA
:10149000C4F20900396A1A4641F6D943C0F208037A
:1014A00098475BE1FB6A03F01003002B00F02981F1
:1014B0004AF21043FB6140F29C03C2F207031B682F
:1014C000386819464FF0080241F2A103C0F2080340
:1014D000984738603B684AF2104202FB03F33B60D6
:1014E0003A6848F28103C8F28003A3FB02134FEA73
:1014F000D3133B6046F6F022C0F2080279680B462F
:101500004FEAC3035B1A4FEA8303D31803F11803AE
:10151000DB78FB7697F91B2046F2BC63C0F2080328
:1015200053F822307B6197F91B2046F20473C0F216
:10153000080353F822303B6197F91B2040F2A003C7
:10154000C2F2070353F82230FB6097F91B2046F2E2
:101550004C73C0F2080353F82230BB6040F68C4352
:10156000C2F20703BA689B181B78002B1CD1BB681A
:1015700003F11B03184641F62923C0F208039847DC
:10158000F86879694FF44442C0F60A2241F63553AF
:10159000C0F208039847F86879694AF2104241F6A8
:1015A000B153C0F2080398473B68002B16D13B6942
:1015B000002B09D0F86879694FF4202241F23103F9
:1015C000C0F2080398472FE0F86879694FF020626D
:1015D00041F26903C0F20803984725E03B69002BFC
:1015E00011D0F86879693A6841F6A153C0F208034E
:1015F0009847F86879694FF4C02241F23103C0F28C
:101600000803984710E0F86879693A6841F6A953E9
:10161000C0F208039847F86879694FF0C06241F258
:101620006903C0F20803984740F63C43C2F207033F
:101630007A689B181B78002B49D146F6F022C0F23D
:10164000080279680B464FEAC3035B1A4FEA83032B
:10165000D318186846F6F022C0F2080279680B46E3
:101660004FEAC3035B1A4FEA8303D31803F108035D
:101670001D7946F6F022C0F2080279680B464FEA5F
:10168000C3035B1A4FEA8303D31803F104031C68F6
:1016900046F6F022C0F2080279680B464FEAC3030F
:1016A0005B1A4FEA8303D31803F110031B68294622
:1016B000224641F67D14C0F20804A04740F63C43A0
:1016C000C2F207037A689B184FF001021A7040F6C5
:1016D0008C43C2F20703BA689B181B78002B3CD1DD
:1016E000F868796941F67153C0F20803984740F6EB
:1016F0008C43C2F20703BA689B184FF001021A70BC
:101700002BE078684FF0010140F6FD43C0F208037A
:10171000984740F29C03C2F207031B6838681946D9
:101720004FF0080241F2A103C0F208039847386065
:101730003B687F2B08D878684FF0000140F6DD53F6
:10174000C0F20803984709E078684FF0010140F6BD
:10175000DD53C0F20803984700E000BF07F13007EF
:10176000BD46B0BD30B44FF0010404604FF000043A
:10177000446040F20225C0F82051C0F80441C0F88E
:10178000144145684FEA4202B1FBF2F101F1FF3228
:101790004FEA02624FEA034303F4702343EA124222
:1017A00015434560204630BC704700BF436819436D
:1017B0004FEAC212D3B219434160704710B4446873
:1017C00022434FEA016101F0706422434FEA037340
:1017D00003F040531A43426010BC70474FF6FF734A
:1017E00043617047816270474FF0010303607047A7
:1017F00021B1436843F01003436003E0436823F0E2
:10180000100343604FF00000704700BF006B70474B
:1018100001627047436801299FBF23F4981343EA8C
:1018200001414160002088BF0120704721B1436819
:1018300043F02003436003E0436823F02003436048
:1018400022B1436843F04003436003E0436823F060
:10185000400343604FF00000704700BF10B444687D
:1018600024F07C5424F47F444FEA016144EA11449B
:1018700012B144F4001401E024F400144FEA0363AD
:1018800003F07C531C4344604FF0000010BC7047D1
:1018900001299FBF012303FA01F10161002088BFE4
:1018A0000120704780697047C0F894104FF0000025
:1018B000704700BF416470470AB1416670470166D6
:1018C000704700BF426405290ED8DFE801F00E031F
:1018D0000A0E0E0E036F016F0B4023EA020303672B
:1018E00002E0036F134303674260704770B504461C
:1018F0000D46164641F6B503C0F208039847204648
:10190000294606F0010241F6B903C0F208039847E0
:1019100016F00A0F14BF2562656216F0020F18BF99
:10192000C4F8805004D116F0080F18BFC4F88050D6
:101930006561256070BD00BF2DE9F04104460D468C
:101940001746984641F6B506C0F20806B04720464D
:101950002946069A41F6B906C0F20806B047B8F122
:10196000000F01D0256500E065650FB1256300E03B
:10197000656325612560BDE8F08100BF2DE9F04178
:1019800082B007460D461646984601F1FF34042CF6
:1019900038D8DFE804F003031B25250041F6C50312
:1019A000C0F2080398473846314641F6B503C0F205
:1019B000080398473846314608F0010241F6B9035A
:1019C000C0F2080398474FF001001DE0114642465F
:1019D00041F6ED03C0F2080398474FF0010013E011
:1019E00008F0010300931146052D14BF00220122C7
:1019F000C8F3800341F63914C0F20804A0474FF041
:101A0000010001E04FF0000002B0BDE8F08100BF2E
:101A10008368194205D0836919420CBF0020012058
:101A200070474FF0000070472C2835D81F2817D872
:101A30004FF4C063C4F20E039A694FF0010303FA36
:101A400000F31A4093422AD04FF0010303FA00F04A
:101A50004FF4C063C4F20E0318614FF000007047EA
:101A60004FF4C063C4F20E03D3F80821A0F12000A4
:101A70004FF0010303FA00F31A40934212D04FF0E3
:101A8000010303FA00F04FF4C063C4F20E03C3F87D
:101A900000014FF0000070474FF0010070474FF019
:101AA000000070474FF00000704700BF2C2835D869
:101AB0001F2817D84FF4C063C4F20E039A694FF081
:101AC000010303FA00F31A4093422AD14FF00103B5
:101AD00003FA00F04FF4C063C4F20E0358614FF0F4
:101AE000000070474FF4C063C4F20E03D3F808211E
:101AF000A0F120004FF0010303FA00F31A409342D3
:101B000012D14FF0010303FA00F04FF4C063C4F2A6
:101B10000E03C3F804014FF0000070474FF00100BE
:101B200070474FF0000070474FF00000704700BF53
:101B3000F0B58DB005460E4601AC46F29477C0F282
:101B400008070FCF0FC40FCF0FC497E8070084E832
:101B50000700B54210D346F68800C0F208004FF0E7
:101B60006B0107F10C0246F6A003C0F2080342F233
:101B70008934C0F20804A047019AB6FBF2F2B2FB26
:101B8000F5F2FF2A19D94FF0000303F10103DBB28C
:101B90000CA901EB830252F82C2CB6FBF2F2B2FB3B
:101BA000F5F2FF2A94BF002401240A2B88BF0024E9
:101BB000002CEAD10A2B02D905E04FF0000342EADB
:101BC000032398B201E04FF000000DB0F0BD00BF5C
:101BD00070B5049E4FF00104C0F8004233F48074E5
:101BE00006D012484FF09701114A124B124CA047F1
:101BF00036F4007406D00D484FF098010C4A0F4B94
:101C00000D4CA047C4684FF0010505FA01F52542C7
:101C100003D08560C4682542FCD113431E4301F103
:101C200010014FEA4111465070BD00BF886808009E
:101C3000D8670800B068080089230800DC6808003D
:101C400070B50D4616464FF0000470B1114641F6CE
:101C50003133C0F208039847044630B90F484FF0BB
:101C6000DC010F4A0F4B104CA04785B12846314686
:101C700041F63133C0F20803984744EA004430B9D2
:101C800006484FF0E401064A064B074CA0474FF4C4
:101C90008043C4F209031C6070BD00BF886808005F
:101CA0000C680800C06908008923080010B4C368E4
:101CB0004FF0010404FA01F41C4203BF00EB411190
:101CC000C1F80C2201F5027100EB411018BFC0F8F9
:101CD000102210BC704700BF10B500EB411303F594
:101CE00002735B689A4206D90B484FF488710B4A1D
:101CF0000B4B0C4CA047C3684FF0010404FA01F4ED
:101D00001C4203BF103100EB4110426000EB411058
:101D100018BFC0F8082210BD8868080024680800B1
:101D2000CC690800892308004FF0010303FA01F190
:101D30004160704710B5022906D909484FF04001AB
:101D4000084A094B094CA0474FEA811143184FF04C
:101D5000020444504FF0FF319962196A5A6010BD75
:101D6000906A08006C6A0800A86A080089230800C5
:101D700010B5022906D906484FF05C01054A064B0A
:101D8000064CA0474FEA81114FF00503435010BDA8
:101D9000906A08007C6A0800A86A08008923080085
:101DA00000EB81114A61704700EB81118A61704735
:101DB00000EB8111CA61704740F61853C2F2070365
:101DC0001A6802F101021A60704700BF40F618530A
:101DD000C2F207031868704708B540F61C53C2F2F8
:101DE00007031B6803B1984708BD00BF4FF40043C9
:101DF0004360704780B500AF41F2E903C0F20803C9
:101E0000984700BF80BD00BF80B483B000AF0346D9
:101E10003960FB7197F90730002B10DA4FF46D43EE
:101E2000CEF20003FA7902F00F02A2F104013A683F
:101E3000D2B24FEA0212D2B25B181A760DE04FF41A
:101E40006143CEF2000397F907103A68D2B24FEA25
:101E50000212D2B25B1883F8002307F10C07BD46CB
:101E600080BC704780B582B000AF78607A686FF050
:101E70007F439A4202D94FF0010322E04EF2100351
:101E8000CEF200037A6822F07F4202F1FF325A60FC
:101E90004FF0FF304FF00F0141F60963C0F2080325
:101EA00098474EF21003CEF200034FF000029A6002
:101EB0004EF21003CEF200034FF007021A604FF00B
:101EC0000003184607F10807BD4680BD80B500AF86
:101ED00040F66850C2F2070040F69113C0F20803C2
:101EE000984780BD80B500AF40F66060C2F2070041
:101EF00040F67133C0F20803984780BD80B500AF4B
:101F000040F68060C2F2070040F67133C0F2080369
:101F1000984780BD80B500AF40F6A060C2F20700D0
:101F200040F67133C0F20803984780BD90B583B086
:101F300000AF40F62D73C0F20803984740F29403B7
:101F4000C2F207031A6844F6D353C1F26203A3FB3B
:101F500002134FEA9313184641F66563C0F2080373
:101F600098470346002B0CBF00230123DBB2002B54
:101F700000D0FEE741F65020C4F20E0041F6ED53CA
:101F8000C0F20803984742F24543C0F2080398475D
:101F90004FF000037B600CE07B6818464FF00001B7
:101FA00040F6DD53C0F2080398477B6803F1010354
:101FB0007B607B684E2B8CBF00230123DBB2002BA0
:101FC000EAD14FF46063C4F20E034FF0FF32C3F85E
:101FD000A0204FF48053C4F20E034FF0FF32C3F839
:101FE000A0204FF49053C4F20E034FF0FF32C3F819
:101FF000A0204FF4A053C4F20E034FF0FF32C3F8F9
:10200000A02046F6F023C0F20803D3F8DC0846F619
:10201000F023C0F2080393F8E81846F6F023C0F264
:102020000803D3F8E02846F6F023C0F20803D3F8FB
:10203000EC3841F67D14C0F20804A0474FF00000D0
:102040004FF0010140F6DD53C0F20803984746F611
:10205000F023C0F20803D3F8F80846F6F023C0F2E4
:10206000080393F8041946F6F023C0F20803D3F8E6
:10207000FC2846F6F023C0F20803D3F8083941F6ED
:102080007D14C0F20804A04746F6F023C0F208030E
:10209000D3F8140946F6F023C0F2080393F8201988
:1020A00046F6F023C0F20803D3F8182946F6F023C9
:1020B000C0F20803D3F8243941F67D14C0F20804B5
:1020C000A04746F6F023C0F20803D3F8300946F6DD
:1020D000F023C0F2080393F83C1946F6F023C0F24F
:1020E0000803D3F8342946F6F023C0F20803D3F8E6
:1020F000403941F67D14C0F20804A04746F6F023AB
:10210000C0F20803D3F84C0946F6F023C0F20803E6
:1021100093F8581946F6F023C0F20803D3F8502973
:1021200046F6F023C0F20803D3F85C3941F67D147B
:10213000C0F20804A04746F6F023C0F20803D3F823
:10214000D80946F6F023C0F2080393F8E41946F6DE
:10215000F023C0F20803D3F8DC2946F6F023C0F2DE
:102160000803D3F8E83941F67D14C0F20804A0470B
:1021700046F6F023C0F20803D3F8F40946F6F0233C
:10218000C0F2080393F8001A46F6F023C0F20803E1
:10219000D3F8F82946F6F023C0F20803D3F8043A3E
:1021A00041F67D14C0F20804A0474FF0250041F627
:1021B0002923C0F20803984740F29403C2F20703B0
:1021C0001B684FF00000C4F20C0019464FF4345263
:1021D000C0F231124FF00C0341F26574C0F20804F2
:1021E000A0474FF00000C4F20C004FF000014FF484
:1021F00040124FF0010341F2BD74C0F20804A04741
:102200004FF00000C4F20C004FF000014FF000024C
:1022100041F2AD73C0F2080398474FF00000C4F2DA
:102220000C004FF0FF3141F2E573C0F2080398470C
:102230004FF00000C4F20C0041F2DD73C0F208035D
:10224000984740F6DD43C0F20803984707F10C07B2
:10225000BD4690BD90B585B002AF786039607B68AF
:10226000012B40F081803A684FF6FF739A427BD190
:1022700040F62050C2F2070040F25D63C0F208034E
:10228000984740F62053C2F20703009340F6685087
:10229000C2F207004FF40061C4F20E014FF00802D1
:1022A0004FF0080340F62904C0F20804A04740F6A6
:1022B0008850C2F2070040F25D63C0F208039847FD
:1022C00040F6D050C2F2070040F25D63C0F208034E
:1022D000984740F61860C2F2070040F25D63C0F212
:1022E0000803984740F68853C2F20703009340F66C
:1022F0006060C2F207004FF40041C4F209014FF0E0
:1023000011024FF0110340F60924C0F20804A0475F
:1023100040F6D053C2F20703009340F68060C2F249
:1023200007004FF44041C4F209014FF012024FF090
:10233000120340F60924C0F20804A04740F61863CF
:10234000C2F20703009340F6A060C2F207004FF408
:102350008041C4F20A014FF014024FF0140340F61A
:102360000924C0F20804A04707F10C07BD4690BD40
:1023700080B500AF4FF001004FF6FF7142F25523D8
:10238000C0F20803984780BD1FB50546084800689D
:10239000C0680AB1074C01E0074C22468DE81200E4
:1023A000029206491A462B4600F03AF801F09AFECE
:1023B000E8000720387508007375080045750800A7
:1023C00008B513460022FFF7DFFF00BF01460020DB
:1023D0000246034601F02EBE70B5094B094C00259C
:1023E000E41AA41003EB840602E072599047013C02
:1023F000043D002CF9D1BDE8704005F019B900BFCB
:102400003C760800407608000CB407B504AB53F8DE
:10241000042B019300F05AFCBDE80E4002B0704757
:102420000EB403B5014603AB054853F8042B00680E
:10243000019300F04BFCBDE80C4003B0704700BFB7
:10244000E800072070B50E4B0E4D0024ED1AAD10BC
:102450001E4603E056F8242090470134AC42F9D1DF
:1024600005F0D8F8084D094B0024ED1AAD101E46B2
:1024700003E056F8242090470134AC42F9D170BDF6
:1024800020760800207608003076080020760800C4
:10249000024B0146186800F00BB800BFE8000720A7
:1024A000024B0146186802F055B800BFE80007204B
:1024B0002DE9F04701F10B04162C064603D934F040
:1024C000070401D502E010248C4202D20C233360B1
:1024D000D3E1304600F012FAB4F5FC7F14D2A04BE1
:1024E000E20803EBC203DD689D4205D105F1080354
:1024F0006D6902329D4244D0EA68A9686B68CA607F
:1025000023F00303916059E0620A01D1E2081BE065
:10251000042A02D8A209383216E0142A01D85B3204
:1025200012E0542A02D8220B6E320DE0B2F5AA7FD7
:1025300002D8E20B773207E040F254539A4202D8B5
:10254000A20C7C3200E07E22854B03EBC203DD68E7
:1025500014E0696821F00301081B0F2801DD013A2E
:102560000EE0002809DBEB68AA68D3609A606B185C
:102570005A6842F001025A608BE1ED689D42E8D151
:10258000013277490D6901F10807BD4267D06B68D8
:1025900023F00303181B0F280CDD2B1940F0010258
:1025A00044F001046C604B610B61DF609F605A6016
:1025B00018506EE100284F610F6101DBEB18D7E77F
:1025C000B3F5007F0FD2DB089810012707FA00F758
:1025D00048683843486001EBC3018B68E960AB6031
:1025E000DD608D603BE0580A042802D89809383035
:1025F00016E0142801D85B3012E0542802D8180BDA
:102600006E300DE0B0F5AA7F02D8D80B773007E026
:1026100040F25451884202D8980C7C3000E07E2071
:10262000DFF83CE10EEBC007B968B9420DD10123D8
:10263000801003FA00F0DEF804300343CEF80430D3
:102640000B4608E08968B94204D0486820F00300CE
:102650008342F7D3CB68EB60A960CD609D60012118
:10266000931001FA03F33E4949688B425DD80B424F
:1026700005D122F003025B0004320B42FBD0384844
:1026800000EBC20CE6461746DEF80C502CE06968F9
:1026900021F00308C4EB08010F2913DD2B1944F0C6
:1026A0000104EA686C6055F8080F5950C2609060E8
:1026B0002B4A536113610832DA609A6041F00102DB
:1026C0005A600CE000290EDB05EB08035A6842F063
:1026D00001025A60EB6855F8082FD3609A603046C3
:1026E00000F00DF9D9E0ED687545D0D10137B90793
:1026F00005F1080EC8D16146950704D1426822EA67
:102700000302426005E0A1F108050968013AA94207
:10271000F2D041685B008B4207D833B13A4601E002
:1027200004325B000B42ABD1FAE70D4B9F687A682D
:1027300022F00309A1451A4604D3C4EB09030F2B69
:1027400000F39D80074B07EB090A1B6804EB0308A5
:10275000D2F80834013307D108F110080CE000BFAB
:1027600018050720C00E072008F5805808F10F084B
:1027700028F47F6828F00F083046414600F04CFAF4
:10278000421C05466BD0504502D2454B9F4266D154
:10279000444A5545536843445360414A07D129058B
:1027A00005D19368C84448F001025A604CE0D2F861
:1027B0000824013203D13A4BC3F8085404E0CAEBB1
:1027C000050A384A5344536015F007031CBFC3F190
:1027D0000803ED18A84403F580534FEA0858A3EB0B
:1027E00018584146304600F017FA2E4A431C5368E9
:1027F00004BF4FF00008284643445360401B284B59
:10280000404440F001009F429D6068601CD0B9F1D7
:102810000F0F02D801236B6021E07B68A9F10C093E
:1028200029F0070903F0010349EA03037B6005224D
:1028300007EB0903B9F10F0F5A609A6004D93046CB
:1028400007F1080101F086FE164A5368D16A8B42EF
:1028500088BFD362126B934284BF124A1363104B3A
:102860009B685A6822F00302A242C4EB020301D320
:102870000F2B04DC304600F042F800250DE0084A3A
:1028800044F00101956843F001032C1969609460DC
:102890006360304600F033F808352846BDE8F0871D
:1028A00018050720C00E072010B5002302E0CC5CFD
:1028B000C45401339342FAD110BD814210B511D2F4
:1028C0008C18A0420ED253428118E418CB1801E0B4
:1028D000A15C995412F1FF32FAD210BDCC5CC45401
:1028E000013300E000239342F8D110BD8218034663
:1028F00001E003F8011B9342FBD17047704770471A
:102900000EB403B503AB53F8042B8168019300F0B8
:1029100089FEBDE80C4003B070470FB407B5064907
:1029200004AB086853F8042B8168019300F07AFE29
:10293000BDE80E4004B07047E80007202DE9F84FCD
:10294000814616460C4621B91146BDE8F84FFFF7FF
:10295000AFBDFFF7D3FF06F10B0754F8045C162F49
:10296000A4F1080B25F0030803D937F0070701D5B8
:1029700002E01027B74204D20C23C9F80030002629
:1029800044E1B84580F21981A24A0BEB0803916833
:102990008B4206D05A6822F001029A185268D0077A
:1029A00026D45A688B4222F0030000EB080A18D1A3
:1029B00007F1100292451DDB964B0BEB0705C7EBA9
:1029C0000A0A9D604AF001036B6054F8043C4846D3
:1029D00003F001031F4344F8047CFFF790FF2646F1
:1029E00014E1BA4506DBDA689B68DA609360E5E0DB
:1029F00000200346EA0700F1918054F8085CC5EB1B
:102A00000B056A6822F00302002B51D002EB080A82
:102A10008B42824445D107F110039A4548DB2E468C
:102A200056F8082FEB68D3609A60A8F10402242AB4
:102A300025D8132A1BD923681B2AAB606368EB6077
:102A400003D805F11003083412E0A368242A2B618F
:102A5000E3686B6103D005F11803103408E02369C3
:102A6000AB6163691834EB6105F1200300E0334684
:102A700022681A6062685A60A2689A6003E0304671
:102A80002146FFF71AFF634AEB19C7EB0A0A936066
:102A90004AF001025A606B6803F001031F436F6044
:102AA00087E0BA4504DBDA689B68DA60936003E08C
:102AB00002EB080ABA4531DB284650F8082FEB68CC
:102AC000D3609A60A8F10402242A23D8132A1AD9C1
:102AD00023681B2AAB606368EB6003D805F1100024
:102AE000083410E0A368242A2B61E3686B6103D0EB
:102AF00005F11800103406E0236905F12000AB61F0
:102B000063691834EB612368036063684360A368FA
:102B1000836054E02146FFF7D0FE50E0314648463E
:102B2000FFF7C6FC064600B943E054F8043CA0F1A8
:102B3000080223F001035B449A4205D150F8043C9B
:102B400023F0030AC24439E0A8F10402242A29D858
:102B5000132A1ED923681B2A03606368436004D8C4
:102B600000F1080304F1080215E0A368242A836039
:102B7000E368C36004D000F1100304F110020AE01E
:102B8000236904F1180203616369436100F11803CA
:102B900001E0034622461168196051685960926845
:102BA0009A6002E02146FFF788FE4846214601F080
:102BB000D1FC4846FFF7A3FE28E0C2465D46C7EBBE
:102BC0000A030F2B6A6811D902F00102E9191743B1
:102BD00043F001026F60CB184A605A68484642F0E1
:102BE00001025A60083101F0B5FC0AE002F001026E
:102BF0004AEA02026A6005EB0A035A6842F00102DF
:102C00005A604846FFF77BFE05F108063046BDE8EE
:102C1000F88F00BF1805072038B5064C002305467D
:102C200008462360FDF758FD431C02D1236803B119
:102C30002B6038BDF40E072010F8012B11F8013B72
:102C4000012A28BF9A42F7D0A2EB0300704703463F
:102C500013F8012B002AFBD1181A01387047000025
:102C600093682DE9F04781460F4614461BB953601F
:102C70001846BDE8F0874B6E9B0420D5156818E018
:102C800055F8043C55F808AC4FEA9308002608E0D4
:102C900048465AF826103A4601F09CFB431C10D0D7
:102CA00001364645F4DBA3684FEA8808C8EB030306
:102CB000A360A3680835002BE2D1184601E001F0BB
:102CC000FDFC0023A3606360BDE8F0872DE9F04FB1
:102CD000ADF2D44D0E4615461C46029018B1836BDA
:102CE0000BB901F0FBFAB38903F4005212B232B906
:102CF00043F40053B381736E23F400537366B389B6
:102D000003F008031BB23BB133692BB1B28902F067
:102D10001A030A2B44D10AE00298314601F02EF939
:102D20000028F3D04FF0FF30049000F067BCF38927
:102D3000190435D4ADF87630F36922F002022193FC
:102D4000736AADF87420239334AB726E1A931E939A
:102D50004FF480631C931F930023339220930298B7
:102D60001AA92A462346FFF7B1FF0028049009DB81
:102D70001AA9029801F0BEF90499002818BF4FF073
:102D8000FF310491BDF8743003F040031BB2002BF7
:102D900000F03484B38943F04003B38100F02EBCCB
:102DA000002334AA0D920F930E9303950793049377
:102DB0009346039B1D4613F8012B1AB9039AAF1AC9
:102DC00003D11DE0252AF5D1F8E7039B8BE88800A5
:102DD0000F9BDB190F930E9B0133072B0E9302DC25
:102DE0000BF1080B09E0029831460DAAFFF738FFF6
:102DF000002840F0FC830DF1D00B0498C01904901A
:102E00002B78002B00F0EC83013500230021039583
:102E10008DF82F104FF0FF3A06931D460A2004E06C
:102E2000634602E014464FF0FF3A039A12F801CBD2
:102E30000392BCF1630F00F0C18034DCBCF1390FA8
:102E40001EDCBCF1310F80F29A80BCF12B0FE7D071
:102E50000ADCBCF1230F61D0BCF12A0F61D0BCF1B8
:102E6000200F40F01B8255E0BCF12E0F64D0BCF166
:102E7000300F00F08180BCF12D0F40F00F8258E040
:102E8000BCF14F0F00F0F18004DCBCF1440F40F0C6
:102E900005829BE0BCF1550F00F03581BCF1580F65
:102EA00040F0FC8132E0BCF16F0F00F0E08013DCF9
:102EB000BCF1690F27D007DCBCF1640F23D0BCF153
:102EC000680F40F0EB8169E0BCF16C0F69D0BCF198
:102ED0006E0F40F0E381A7E0BCF1730F00F0F880C3
:102EE00008DCBCF1700F00F0E380BCF1710F40F022
:102EF000D58160E0BCF1750F00F00781BCF1780F5F
:102F000040F0CC811DE18DF82F3063E08DF82F303B
:102F1000A34B19E1002B08BF202386E745F00105EC
:102F200083E7221D2468002C069413DA614206917F
:102F3000144645F0040578E7039A12F801CBBCF17A
:102F40002A0F03920FD1D4F800A0221DBAF1000F6E
:102F5000FFF668AF144668E7039900FB0A2A11F8E8
:102F600001CB039101E04FF0000AACF13002092AD5
:102F7000F2D94AEAEA7A5CE745F0800555E7039919
:102F80000022ACF1300C00FB02C211F801CBACF115
:102F90003007092F0391F4D906924AE745F040051E
:102FA00043E703990A786C2A02D10131039102E0C8
:102FB00045F0100539E745F0200536E72368002283
:102FC0008DF840308DF82F20043472E18DF82F30C9
:102FD00045F01005AA0607D5073424F0070303F1CE
:102FE0000804D3E9008911E015F0100F04F104037F
:102FF00001D0226806E015F0400F226802D00FFAD7
:1030000082F800E090464FEAE8791C46B8F1000FDC
:1030100079F1000380F2C8802D23D8F1000869EB14
:1030200049098DF82F30BFE015F0200F8DF82F30B3
:1030300004F1040205D0049B2168D8170B60486096
:1030400004E0EB0604D52368049818601446B0E643
:1030500015F0400F226814BF0499049804F104038A
:1030600014BF118010601C46A3E645F0100515F052
:10307000200308D0073424F0070303F10804D3E940
:103080000089002388E015F0100104F1040200D04B
:1030900008E015F0400305D0B4F800804FF00009B7
:1030A0001446EEE721684FF000098846144673E0A5
:1030B00023683C49984630238DF8303078234FF010
:1030C000000945F002058DF831300434079162E0C3
:1030D00023461F6800220434BAF1000F8DF82F2018
:1030E00038460CDB0021524601F036FD002800F086
:1030F000E680C7EB0009D14500F3E480E3E0FFF789
:10310000A6FD8146DFE045F01005AF0607D5073480
:1031100024F0070303F10804D3E900890FE015F058
:10312000100F04F1040300D004E0680602D5B4F8DF
:10313000008001E0226890464FF000091C46012300
:103140002AE08DF82F30174BA906079307D50734CF
:1031500024F0070303F10804D3E900890FE015F018
:10316000100F04F1040300D004E06A0602D5B4F89D
:10317000008001E0226890464FF000091C46EF07EE
:1031800009D558EA090006D030238DF830308DF883
:1031900031C045F00205022300218DF82F1004E014
:1031A0009A750800AB7508000123BAF1000FA8BF9B
:1031B00025F0800558EA090202D1BAF1000F5FD06C
:1031C000012B21D0022B44D00DF16703072008EA20
:1031D000000202F130014FEAD80242EA49724FEA96
:1031E000D900C9B2904681461F461970013B58EA82
:1031F0000902EBD1E8073A464BD5302949D01F46A2
:10320000302302F8013C44E0B9F1000F08BFB8F1E7
:103210000A0F03D208F1300310AF36E00DF1670357
:103220000593404649460A22002301F003FF059812
:10323000303200F8012949460A220023059F0590F3
:10324000404601F0F7FE8046894658EA0901E8D178
:103250001FE00DF1670C0F20079908EA00028A1899
:10326000137867460CF801394FEA181343EA0973DB
:103270004FEA19129846914658EA0902EBD108E044
:1032800033B9E90704D510AF302307F8273F00E032
:103290001AAF0DF16809C7EB090916E08DF82F3058
:1032A000BCF1000F00F09C8100238DF840C08DF828
:1032B0002F304FF001094FF0000A10AF05E0D14662
:1032C000824602E0D1464FF0000AD145ACBF4B46E2
:1032D000534605939DF82F3013B1059B0133059399
:1032E00015F00203089302D0059B0233059315F0F5
:1032F0008403099345D10698059BC3EB000CBCF1F0
:10330000000F20DC3DE00F9ACBF8008010320F92C6
:103310000E9ACBF804300132072A0E9202DC0BF130
:10332000080B0DE0029831460DAA8DE80810FFF752
:1033300097FC9DE80810002840F059810DF1D00B52
:10334000ACF1100C02E0DFF890821023BCF1100FFA
:10335000D9DCA14B8BE808100F9B63440F930E9BA5
:103360000133072B0E9302DC0BF1080B09E00298E6
:1033700031460DAAFFF774FC002840F038810DF1AA
:10338000D00B9DF82F200DF12F03CAB1CBF80030E0
:103390000123CBF804300F9B01330F930E9B0133B5
:1033A000072B0E9302DC0BF1080B09E00298314663
:1033B0000DAAFFF755FC002840F019810DF1D00B44
:1033C000089BD3B10CABCBF800300223CBF8043010
:1033D0000F9B02330F930E9B0133072B0E9302DCDE
:1033E0000BF1080B09E0029831460DAAFFF738FCF3
:1033F000002840F0FC800DF1D00B099B802B45D1BB
:103400000698059BC3EB000CBCF1000F20DC3DE0EF
:103410000F9ACBF8008010320F920E9ACBF804303E
:103420000132072A0E9202DC0BF1080B0DE0029824
:1034300031460DAA8DE80810FFF712FC9DE8081030
:10344000002840F0D4800DF1D00BACF1100C02E05C
:10345000DFF888811023BCF1100FD9DC5F4B8BE8BB
:1034600008100F9B63440F930E9B0133072B0E93A1
:1034700002DC0BF1080B09E0029831460DAAFFF7B8
:10348000EFFB002840F0B3800DF1D00BC9EB0A032D
:10349000002B1BDC37E00F9A8BE8000510320F92EF
:1034A0000E9A0132072A0E9202DC0BF1080B0BE098
:1034B000029831460DAA0093FFF7D2FB009B00282B
:1034C00040F095800DF1D00B103B03E0DFF80C814C
:1034D0004FF0100A102BDEDC404A8BE80C000F9AEC
:1034E000D3180F930E9B0133072B0E9302DC0BF1C5
:1034F000080B08E0029831460DAAFFF7B1FB00283F
:1035000075D10DF1D00B0F9B8BE880024B440F93CC
:103510000E9B0133072B0E9302DC0BF1080307E02F
:10352000029831460DAAFFF79BFB00285FD134AB10
:103530006A070BD40498059B06998B42ACBFC01850
:1035400040180F9B0490002B37D03CE0069805995B
:10355000C1EB0009B9F1000F17DCEBE70F9A83E824
:10356000A00010320F920E9A0132072A0E9201DC4F
:10357000083307E0029831460DAAFFF771FB0028D7
:1035800035D134ABA9F1100901E0134D1027B9F181
:10359000100FE3DC104A83E804020F9B4B440F93A7
:1035A0000E9B0133072B0E93C4DD029831460DAA02
:1035B000FFF756FB0028BDD019E000220E920DF156
:1035C000D00BFFF7F6BB029831460DAAFFF748FB78
:1035D0000028F2D00BE000BF7A7508008A75080059
:1035E0000F9B23B1029831460DAAFFF739FBB3892F
:1035F00003F040031BB2002B7FF494AB049835B06A
:103600000DF5806DBDE8F08F30B51346044A0546D0
:103610000C46106829462246BDE83040FFF756BBED
:10362000E80007202DE9F04FADF2D44D0E461546C7
:103630001C46029018B1836B0BB900F04FFEB389A2
:1036400003F4005212B232B943F40053B381736EE3
:1036500023F400537366B38903F008031BB23BB134
:1036600033692BB1B28902F01A030A2B44D10AE064
:103670000298314600F082FC0028F3D04FF0FF3072
:10368000049000F067BCF389190435D4ADF87630A6
:10369000F36922F002022193736AADF87420239338
:1036A00034AB726E1A931E934FF480631C931F9376
:1036B00000233392209302981AA92A462346FFF743
:1036C000B1FF0028049009DB1AA9029800F012FD4E
:1036D0000499002818BF4FF0FF310491BDF87430F1
:1036E00003F040031BB2002B00F03484B38943F095
:1036F0004003B38100F02EBC002334AA0D920F9337
:103700000E930395079304939346039B1D4613F86A
:10371000012B1AB9039AAF1A03D11DE0252AF5D15E
:10372000F8E7039B8BE888000F9BDB190F930E9B38
:103730000133072B0E9302DC0BF1080B09E0029812
:1037400031460DAAFFF78CFA002840F0FC830DF1FA
:10375000D00B0498C01904902B78002B00F0EC8358
:1037600001350023002103958DF82F104FF0FF3A0B
:1037700006931D460A2004E0634602E014464FF01B
:10378000FF3A039A12F801CB0392BCF1630F00F0E9
:10379000C18034DCBCF1390F1EDCBCF1310F80F28A
:1037A0009A80BCF12B0FE7D00ADCBCF1230F61D06B
:1037B000BCF12A0F61D0BCF1200F40F01B8255E014
:1037C000BCF12E0F64D0BCF1300F00F08180BCF151
:1037D0002D0F40F00F8258E0BCF14F0F00F0F18048
:1037E00004DCBCF1440F40F005829BE0BCF1550FB6
:1037F00000F03581BCF1580F40F0FC8132E0BCF1A3
:103800006F0F00F0E08013DCBCF1690F27D007DCFC
:10381000BCF1640F23D0BCF1680F40F0EB8169E08C
:10382000BCF16C0F69D0BCF16E0F40F0E381A7E0F2
:10383000BCF1730F00F0F88008DCBCF1700F00F0F1
:10384000E380BCF1710F40F0D58160E0BCF1750FF1
:1038500000F00781BCF1780F40F0CC811DE18DF8BC
:103860002F3063E08DF82F30A34B19E1002B08BFF8
:10387000202386E745F0010583E7221D2468002CFC
:10388000069413DA61420691144645F0040578E780
:10389000039A12F801CBBCF12A0F03920FD1D4F88E
:1038A00000A0221DBAF1000FFFF668AF144668E7CA
:1038B000039900FB0A2A11F801CB039101E04FF0B4
:1038C000000AACF13002092AF2D94AEAEA7A5CE746
:1038D00045F0800555E703990022ACF1300C00FB60
:1038E00002C211F801CBACF13007092F0391F4D9D2
:1038F00006924AE745F0400543E703990A786C2AA7
:1039000002D10131039102E045F0100539E745F09D
:10391000200536E7236800228DF840308DF82F20EF
:10392000043472E18DF82F3045F01005AA0607D552
:10393000073424F0070303F10804D3E9008911E0F8
:1039400015F0100F04F1040301D0226806E015F011
:10395000400F226802D00FFA82F800E090464FEA4A
:10396000E8791C46B8F1000F79F1000380F2C880B5
:103970002D23D8F1000869EB49098DF82F30BFE0FD
:1039800015F0200F8DF82F3004F1040205D0049BB0
:103990002168D8170B60486004E0EB0604D5236863
:1039A000049818601446B0E615F0400F226814BF62
:1039B0000499049804F1040314BF118010601C469C
:1039C000A3E645F0100515F0200308D0073424F0D5
:1039D000070303F10804D3E90089002388E015F008
:1039E000100104F1040200D008E015F0400305D0F6
:1039F000B4F800804FF000091446EEE721684FF05C
:103A000000098846144673E023683C4998463023F1
:103A10008DF8303078234FF0000945F002058DF81D
:103A200031300434079162E023461F6800220434D9
:103A3000BAF1000F8DF82F2038460CDB00215246DA
:103A400001F08AF8002800F0E680C7EB0009D145B4
:103A500000F3E480E3E0FFF7FAF88146DFE045F0A9
:103A60001005AF0607D5073424F0070303F1080457
:103A7000D3E900890FE015F0100F04F1040300D022
:103A800004E0680602D5B4F8008001E022689046A0
:103A90004FF000091C4601232AE08DF82F30174B08
:103AA000A906079307D5073424F0070303F1080498
:103AB000D3E900890FE015F0100F04F1040300D0E2
:103AC00004E06A0602D5B4F8008001E0226890465E
:103AD0004FF000091C46EF0709D558EA090006D047
:103AE00030238DF830308DF831C045F002050223C7
:103AF00000218DF82F1004E09A750800AB750800BE
:103B00000123BAF1000FA8BF25F0800558EA090289
:103B100002D1BAF1000F5FD0012B21D0022B44D08B
:103B20000DF16703072008EA000202F130014FEAB5
:103B3000D80242EA49724FEAD900C9B2904681469A
:103B40001F461970013B58EA0902EBD1E8073A46D3
:103B50004BD5302949D01F46302302F8013C44E0C0
:103B6000B9F1000F08BFB8F10A0F03D208F1300312
:103B700010AF36E00DF167030593404649460A222F
:103B8000002301F057FA0598303200F80129494620
:103B90000A220023059F0590404601F04BFA80461B
:103BA000894658EA0901E8D11FE00DF1670C0F20A2
:103BB000079908EA00028A18137867460CF8013959
:103BC0004FEA181343EA09734FEA191298469146CF
:103BD00058EA0902EBD108E033B9E90704D510AF80
:103BE000302307F8273F00E01AAF0DF16809C7EB53
:103BF000090916E08DF82F30BCF1000F00F09C8110
:103C000000238DF840C08DF82F304FF001094FF0A0
:103C1000000A10AF05E0D146824602E0D1464FF0DF
:103C2000000AD145ACBF4B46534605939DF82F3053
:103C300013B1059B0133059315F00203089302D0DD
:103C4000059B0233059315F08403099345D106982B
:103C5000059BC3EB000CBCF1000F20DC3DE00F9A8C
:103C6000CBF8008010320F920E9ACBF8043001325C
:103C7000072A0E9202DC0BF1080B0DE00298314688
:103C80000DAA8DE80810FEF7EBFF9DE8081000284C
:103C900040F059810DF1D00BACF1100C02E0DFF8CF
:103CA00090821023BCF1100FD9DCA14B8BE80810D7
:103CB0000F9B63440F930E9B0133072B0E9302DC83
:103CC0000BF1080B09E0029831460DAAFEF7C8FF78
:103CD000002840F038810DF1D00B9DF82F200DF118
:103CE0002F03CAB1CBF800300123CBF804300F9B6F
:103CF00001330F930E9B0133072B0E9302DC0BF164
:103D0000080B09E0029831460DAAFEF7A9FF00282A
:103D100040F019810DF1D00B089BD3B10CABCBF85F
:103D200000300223CBF804300F9B02330F930E9B1D
:103D30000133072B0E9302DC0BF1080B09E002980C
:103D400031460DAAFEF78CFF002840F0FC800DF1F3
:103D5000D00B099B802B45D10698059BC3EB000C2B
:103D6000BCF1000F20DC3DE00F9ACBF80080103250
:103D70000F920E9ACBF804300132072A0E9202DC21
:103D80000BF1080B0DE0029831460DAA8DE80810E2
:103D9000FEF766FF9DE80810002840F0D4800DF182
:103DA000D00BACF1100C02E0DFF888811023BCF1DD
:103DB000100FD9DC5F4B8BE808100F9B63440F9307
:103DC0000E9B0133072B0E9302DC0BF1080B09E06D
:103DD000029831460DAAFEF743FF002840F0B38059
:103DE0000DF1D00BC9EB0A03002B1BDC37E00F9A57
:103DF0008BE8000510320F920E9A0132072A0E92BC
:103E000002DC0BF1080B0BE0029831460DAA00937F
:103E1000FEF726FF009B002840F095800DF1D00BA7
:103E2000103B03E0DFF80C814FF0100A102BDEDCB2
:103E3000404A8BE80C000F9AD3180F930E9B013366
:103E4000072B0E9302DC0BF1080B08E002983146B9
:103E50000DAAFEF705FF002875D10DF1D00B0F9BC1
:103E60008BE880024B440F930E9B0133072B0E937C
:103E700002DC0BF1080307E0029831460DAAFEF7B9
:103E8000EFFE00285FD134AB6A070BD40498059B82
:103E900006998B42ACBFC01840180F9B0490002BB2
:103EA00037D03CE006980599C1EB0009B9F1000F45
:103EB00017DCEBE70F9A83E8A00010320F920E9AFE
:103EC0000132072A0E9201DC083307E002983146DE
:103ED0000DAAFEF7C5FE002835D134ABA9F11009B3
:103EE00001E0134D1027B9F1100FE3DC104A83E80D
:103EF00004020F9B4B440F930E9B0133072B0E9331
:103F0000C4DD029831460DAAFEF7AAFE0028BDD0F6
:103F100019E000220E920DF1D00BFFF7F6BB0298CC
:103F200031460DAAFEF79CFE0028F2D00BE000BF40
:103F3000BC750800CC7508000F9B23B10298314670
:103F40000DAAFEF78DFEB38903F040031BB2002BD0
:103F50007FF494AB049835B00DF5806DBDE8F08F1B
:103F600030B51346044A05460C46106829462246D9
:103F7000BDE83040FFF756BBE800072038B52C4BB2
:103F8000054618680C4618B1826B0AB900F0A6F90C
:103F9000A38903F0080212B20ABB03F0100212B2A6
:103FA00012B94FF0FF3038BD03F004031BB293B1D8
:103FB000216B41B104F14003994202D0284600F040
:103FC000C9FA00232363A38923F02403A3810023D8
:103FD000636023692360A38943F00803A3812369F5
:103FE0004BB9A38903F42073B3F5007F03D02846AF
:103FF000214600F045FDA38913F0010205D00023FE
:10400000A36063695B42A36107E003F002031BB294
:104010000BB9636900E01346A360236933B9A08933
:1040200000F0800000B20028BBD138BD002038BDB0
:10403000E80007202DE9F8439846234B06461C6804
:104040000F46D4F84801914618B904F5A670C4F893
:10405000480141681F2916DD1C4B1BB94FF0FF308A
:10406000BDE8F8834FF4C870FEF712FA0028F5D0C7
:10407000D4F84811002545600160C4F84801C0F833
:104080008851C0F88C51B6B14468012202FA04F29A
:10409000D0F8881100EB84031143022EC3F88890F6
:1040A000C0F888111C46C3F8088104D1D0F88C31BF
:1040B0001A43C0F88C2143689A1C013340F82270DF
:1040C00043600020BDE8F88374750800912408005F
:1040D000024B13B10248FEF779B9704700000000A7
:1040E000D923080008B5062000F0C7FD0120FCF721
:1040F00039FB00002DE9F0410C46054618B1836BF1
:104100000BB900F0EBF8A28902B926E002F008032F
:104110001BB2002B62D142F40063A3816368002BC1
:1041200002DCE36B002B18DDA66AB6B102F4805204
:10413000002312B22F682B600AB1226D10E0012318
:104140002846E169B0470246013009D12B683BB1EE
:104150001D2B01D0162B56D12F600020BDE8F08119
:10416000A38903F004031BB22BB16368D21A236B3B
:104170000BB1E36BD21AE1690023A66A2846B04767
:10418000411C05D12B681BB11D2B01D0162B1FD153
:10419000A38923F40062A2810022626003F48053A9
:1041A00022691BB2226023B1421C01D12B6803B9E2
:1041B0002065216B2F600029CFD004F14003994284
:1041C00002D0284600F0C6F900202063BDE8F08147
:1041D000A38943F04003A381BDE8F0812669002E46
:1041E000BBD023682660C6EB030893070CBF636946
:1041F0000023A36012E0676A2846E169324643461D
:10420000B847002807DCA3894FF0FF3043F0400394
:10421000A381BDE8F0813618C0EB0808B8F1000FA3
:10422000E9DC9AE7014620B9044B0549186800F01B
:10423000BFBB044B1868FFF75DBF00BF7475080073
:10424000F5400800E8000720002070470020704774
:10425000014900F08BBB00BF9B4F0800002310B545
:10426000044603604360836081814366C2810361C9
:1042700043618361194600F15C000822FEF736FBBA
:10428000044BE4612362044B6362044BA362044B5E
:10429000E36210BDE14C0800074D0800434D0800E3
:1042A000674D080070B568254D430E4605F10C01B9
:1042B000FEF7FEF8044640B100F10C00002184E84E
:1042C0004200A0602A46FEF711FB204670BD024B5B
:1042D0001868FFF7BDBF00BF7475080038B5836B61
:1042E0000446EBB90F4A0125C2630322C0F8E42259
:1042F00000F53B72C0F8E0328563C0F8E822042183
:104300001A464068FFF7AAFFA06809212A46FFF76E
:10431000A5FFE06812210222BDE83840FFF79EBFEA
:1043200038BD00BF51420800F8B51D4B07461E6856
:10433000B36B13B93046FFF7D1FF06F53876B46892
:10434000736803E0B4F90C508DB16834013BF9D5C2
:1043500033680BB13668F2E738460421FFF7A2FF55
:1043600030600028F6D10C233B60044615E04FF680
:10437000FF73E3810123A38165662560A560656005
:1043800025616561A56104F15C0029460822FEF7FC
:10439000ADFA256365636564A5642046F8BD00BF7A
:1043A000747508007047704770477047024B0349A7
:1043B000186800F0DBBA00BFE80007204942080097
:1043C000024B0349186800F0D1BA00BFE80007208B
:1043D0004D42080093892DE9F341144603F400523D
:1043E00012B280460E4632B943F40053A381636E85
:1043F00043F40053636600F025FB012806D12EB17B
:10440000FF2E03D88DF8046007460EE03246404682
:1044100001A904F15C0300F005FD421C074604D12C
:10442000A38943F04003A38130E0002528E0A2687F
:1044300001AB013A002AA26019DAA1698A420CDBB9
:104440005B5D22681370236819780A2903D0013351
:104450000020236012E0404601E0595D40462246BC
:1044600000F086FCB0F1FF335842584106E0226864
:104470005B5D137023680133236000E020B90135D0
:10448000BD42D4D1304601E04FF0FF30BDE8FC81A1
:10449000F8B5084C074620680E4618B1856B0DB973
:1044A000FFF71CFF206839463246BDE8F840FFF7A9
:1044B00091BF00BFE8000720F8B5234D0E46044623
:1044C000FEF71CFAAB685F6827F0030707F6EF7387
:1044D0009E1B26F47F6626F00F06A6F58056B6F5DD
:1044E000805F04DA2046FEF70AFA0020F8BD0021BA
:1044F0002046FEF791FBAB68DB199842F2D171427E
:104500002046FEF789FB013010D100212046FEF73E
:1045100083FBAB68C21A0F2AE4DD0C4942F00102AA
:1045200009685A60401A0A490860DBE7AB68BF1B9C
:1045300047F001075F60064B20461A68961B1E6015
:10454000FEF7DDF90120F8BD180507202009072036
:10455000C40E0720F8B506460D46002900F0A580D8
:10456000FEF7CCF955F804CC504FA5F108032CF018
:1045700001029C18B96860688C4220F003000CF0BE
:1045800001011CD1821839B955F8081C5B1A9868CA
:104590005218D968C160886042F0010159604349EE
:1045A0008B60434B1B689A4204D3424B30461968D8
:1045B000FFF782FF3046BDE8F840FEF7A0B9606023
:1045C00059B955F8085C08375B1B52199D68BD4204
:1045D00005D0DF68EF60BD6002E0002100E001214E
:1045E00025186D6815F0010F0FD1121849B9A06890
:1045F000314DA84205D1EB60AB60D86098600121D5
:1046000003E0E068A468E060846042F00100586064
:104610009A500029CED1B2F5007F0CD2D20890106A
:10462000012404FA00F42149486801EBC202204346
:104630004860916834E0540A042C02D89409383454
:1046400016E0142C01D85B3412E0542C02D8140B61
:104650006E340DE0B4F5AA7F02D8D40B773407E0AE
:1046600040F254518C4202D8940C7C3400E07E24F9
:104670000E4D05EBC400816881420BD10122A410CC
:1046800002FA04F46A6822436A600A4608E089680C
:10469000814204D04C6824F00304A242F7D3CA68D4
:1046A000DA6099609360CB6084E7F8BD1805072055
:1046B00024090720C00E07202005072093682DE954
:1046C000F74F06460C4691460BB900204CE18B890A
:1046D00003F008031BB20BB10B695BB930462146EE
:1046E000FFF74CFC30B1A38943F04003A3810923B9
:1046F000336037E1B4F80CA0D9F800800AF0020C5E
:104700000FFA8CF33BB923E0D8F800A0D8F8047076
:1047100008F1080802E04FF0000A5746002FF3D0D6
:10472000B7F5806F34BF3B464FF480633046E16994
:104730005246656AA847002840F31081D9F808302E
:1047400082443F1A181AC9F808000028E6D1BCE7CD
:104750001AF0010A0BD09B4601931F469A46A1E02E
:10476000D8F800A0D8F8045008F1080800E0554631
:10477000002DF5D0A289D4F808B002F4007109B276
:10478000002952D05D4540D312F4906F3BD063694D
:10479000032043432169276802207F1A019793FB76
:1047A000F0F7019802F48062431C5B1912B29F4239
:1047B00038BF1F46304682B13946FDF779FE834641
:1047C00000B913E0019A2169FEF76EF8A28922F47C
:1047D000906242F08002A2810BE03A46FEF7AEF80A
:1047E000834630B930462169FFF7B4FE0C233360AD
:1047F000B4E0019A67610BEB0203BF1AC4F810B072
:104800002360AB46A7605D4500D2AB465A462068A0
:104810005146FEF752F8A268CBEB0202A260226872
:1048200002EB0B032360AB4629E02068226990422B
:104830000ED95D450CD951465A46FEF73EF822681E
:1048400030465A4422602146FFF754FCB8B185E057
:1048500063699D4208D3676A3046E1695246B847AA
:10486000B0F1000B0BDC79E02A465146FEF725F843
:10487000A268AB46521BA260226852192260D9F886
:104880000820DA44CBEB0203CBEB0505C9F808306E
:10489000002B7FF46DAF18E7002598E880040195A0
:1048A00008F10808BAF1000FF6D0019D75B9384635
:1048B0000A21524600F050F920B100F1010CC7EB7B
:1048C0000C0B01E00AF1010B01250195206822691A
:1048D000D34534BF5B4653469042A568D4F814E0F4
:1048E0000FD97544AB420CDD39462A46FDF7E5FF8A
:1048F000236830465B1923602146FFF7FBFBC0B1FC
:104900002CE0734508DB656A3046E1693A46734638
:10491000A847051E0DDC21E01A4639460093FDF735
:10492000CCFF009BA2681D46D21AA2602268D21852
:104930002260BBEB050B06D130462146FFF7DAFBC0
:1049400060B9CDF804B0D9F808307F19C5EB0A0A70
:104950005D1BC9F80850002DA4D1B6E6A38943F029
:104960004003A3814FF0FF30BDE8FE8F2DE9F041F9
:104970000446884604F53874FFF714FD002610E05D
:10498000A56867680AE0B5F90C3033B1B5F90E30A7
:10499000013302D02846C04706436835013FF2D5AF
:1049A0002468002CECD1FFF7FEFC3046BDE8F08116
:1049B0002DE9F8438046894608F53874FFF7F2FC84
:1049C000002611E0A56867680BE0B5F90C303BB133
:1049D000B5F90E30013303D040462946C847064397
:1049E0006835013FF1D52468002CEBD1FFF7DBFCE3
:1049F0003046BDE8F883000010B514460AB90C48EB
:104A000010BD10460B49FEF717F90028F7D02046D5
:104A10000749FEF711F90028F1D020460649FEF7B4
:104A20000BF9034B00280CBF1846002010BD00BF37
:104A300078750800DC750800737508000048704739
:104A400028090720014B186A704700BF2809072072
:104A5000004870474C090720002070470048704705
:104A60006C0907200A460349034608681946FFF700
:104A7000C3BF00BFE8000720004870476C0907204B
:104A8000F0B58B8991B003F002031BB206460C46C9
:104A900003B13FE0B1F90E1000290DDAA389002718
:104AA00003F080052DB243F40063002D0CBF4FF4DA
:104AB00080654025A38120E001AA00F075FA002856
:104AC000ECDB029B03F47043B3F5005257425741AD
:104AD000B3F5004F0BD1A36A1D4A934207D1A389B6
:104AE0004FF4806543F48063A381E56405E0A38906
:104AF0004FF4806543F40063A38130462946FDF7F7
:104B0000D7FC70B9A38903F4007212B2EAB943F07A
:104B10000203A38104F14303236023610123636142
:104B200013E00C4BF363A389206043F08003A3815F
:104B3000206165614FB13046B4F90E1000F046FABD
:104B400018B1A38943F00103A38111B0F0BD00BFE8
:104B5000434D08005142080010B5C9B203468218FF
:104B600003E0047801338C4203D093421846F8D115
:104B7000002010BD38B5D0F8DC5204460DB100203D
:104B800038BD8021FDF794FCC4F8DC0240B12B460F
:104B90002946D4F8DC22D1500433802BF9D1EEE73A
:104BA0004FF0FF3038BD1F2970B504460D4616463C
:104BB00002D9162303600DE0D0F8DC3233B1D4F80B
:104BC000DC3253F8250043F8256070BDFFF7D2FFB3
:104BD0000028F4D04FF0FF3070BD1F2938B50546CE
:104BE0000C4604D9162303604FF0FF3038BDD0F8CF
:104BF000DC2212B152F821304BB9284600F06EF891
:104C0000224601462846BDE8384000F055B8012B41
:104C10000AD0591C03D116230360012038BD00259A
:104C200042F8245020469847002038BD1F2938B547
:104C300005460C4602D94FF0FF3038BDD0F8DC32C3
:104C40002BB1D5F8DC2252F824302BB90FE0FFF756
:104C500091FF0028F5D0EEE7581C0AD0012B0AD0AE
:104C60000025204642F824509847284638BD0120A8
:104C700038BD022038BD032038BD024B01461868FC
:104C8000FFF7ABBFE80007200A4603490346086860
:104C90001946FFF788BF00BFE8000720014B1868DE
:104CA000FFF768BFE8000720024B01461868FFF7CE
:104CB000BDBF00BFE800072038B5074C00230546FC
:104CC000084611462360FBF759FD431C02D12368B7
:104CD00003B12B6038BD00BFF40E0720FBF750BDB9
:104CE00010B50C46B1F90E1000F092F9002803DB64
:104CF000236D1B18236510BDA38923F48053A38162
:104D000010BD002070472DE9F0411D468B890746F4
:104D100003F480731BB20C4616462BB1B1F90E108A
:104D20000022022300F062F9A389B4F90E1023F4E3
:104D30008053A381384632462B46BDE8F04100F04F
:104D4000C7B810B50C46B1F90E1000F04FF9431C6E
:104D5000A38903D123F48053A38110BD43F480536E
:104D6000A381206510BDB1F90E1000F0C3B800009A
:104D700070B50D461446064618B1836B0BB9FFF7A4
:104D8000ADFAA369A360A38903F008031BB20BB1BA
:104D900023695BB930462146FFF7F0F830B1A389AB
:104DA00043F04003A3810923336017E0A389EDB2E8
:104DB00003F4005212B232B943F40053A381636E7C
:104DC00023F40053636623692068C01A636998421C
:104DD00007DB30462146FFF78DF910B14FF0FF3564
:104DE00015E0A3680130013BA360236803F8015B71
:104DF00023606369984204D0A389DB0707D50A2D95
:104E000005D130462146FFF775F90028E6D128463E
:104E100070BD0A460249034608681946FFF7A8BF55
:104E2000E80007202DE9F0411D46104B86B00446EE
:104E300090460E461F6839B9FFF700FE00950346FD
:104E400003A92046324606E0FFF7F8FD0095034629
:104E5000314620464246B847431C03D100232B600D
:104E60008A23236006B0BDE8F08100BFA4090720B3
:104E700030B51346044A05460C46106829462246BA
:104E8000BDE83040FFF7CEBFE800072049B1FF2A58
:104E900004D98A2303604FF0FF3070470A70012065
:104EA0007047084670472DE9F3419846074B054681
:104EB0000F4616461C68FFF7C1FDCDF8008003467B
:104EC000394628463246A047BDE8FC81A4090720A0
:104ED00038B5074C054600202060084611461A46A2
:104EE000FBF728FC431C02D1236803B12B6038BDBB
:104EF000F40E072038B5064C00230546084623600B
:104F0000FBF702FC431C02D1236803B12B6038BDC0
:104F1000F40E072070B505460C4600293AD0FFF77D
:104F200041FA25B1AB6B13B92846FFF7D7F9B4F9AD
:104F30000C6006B92BE028462146FFF7DBF8E36A50
:104F400006463BB12846E169984736EA200628BF65
:104F50004FF0FF36A38903F080031BB21BB1284634
:104F60002169FFF7F7FA216B41B104F1400399423F
:104F700002D02846FFF7EEFA00232363616C21B1CB
:104F80002846FFF7E7FA002363640023A381FFF7B5
:104F90000AFA00E00E46304670BD024B0146186822
:104FA000FFF7B8BFE800072038B5074C00230546D7
:104FB000084611462360FBF7ABFB431C02D1236874
:104FC00003B12B6038BD00BFF40E072038B5064C86
:104FD0000023054608462360FBF7A0FB431C02D1D3
:104FE000236803B12B6038BDF40E072038B5074C99
:104FF000054600202060084611461A46FBF792FB42
:10500000431C02D1236803B12B6038BDF40E072086
:1050100038B5074C054600202060084611461A4660
:10502000FBF784FB431C02D1236803B12B6038BD1E
:10503000F40E07204BB942B9002908BF002802D05E
:105040004FF0FF31084600F03BB882B0EC462DE946
:10505000005000F01DF8DDF804E002B00CBC704711
:105060002DE9F0411646984604460D4600F02AF810
:1050700006FB01FCA6FB002300FB08C7FB18A21AD5
:1050800065EB0303069CC4E90023BDE8F08100BF83
:105090002DE9F041904606460F461D4600F076F990
:1050A00000FB05F3A0FB084508FB0138069B4544BF
:1050B000341B67EB0505C3E90045BDE8F08100BF7F
:1050C000704700BF2DE9F00F002400291D46C0F2F3
:1050D0000681002DC0F2FE8080460F4694461E4693
:1050E000DBBB8A4248D9B2FA82F343B1C3F120054F
:1050F00020FA05F501FA03F19A4098402943150C6E
:10510000B1FBF5F61FFA82FC05FB16110CFB06F746
:10511000030C43EA01439F4208D9711E9B1880F09B
:1051200028819F4240F22581023E9B18DB1BB3FB86
:10513000F5F105FB11330CFB01FC80B240EA0340A2
:10514000844506D94B1E821802D20239944500D8F4
:10515000194641EA0641002503E08B4244D9002567
:1051600029460A462B4614B1524263EB43031046CC
:105170001946BDE8F00F704712B90123B3FBF2F2F4
:10518000B2FA82F6002E40F0B080891A130C1FFA92
:1051900082FC0125B1FBF3F703FB17110CFB07F8A9
:1051A0004FEA104949EA0146B04506D9791EB618BA
:1051B00002D2B04500F2E7800F46C8EB0606B6FB08
:1051C000F3F103FB11630CFB01FC80B240EA0343E3
:1051D0009C4506D94E1E9B1802D202399C4500D828
:1051E000314641EA0741BCE7B3FA83F5002D00F0F0
:1051F000B980C5F1200103FA05F622FA01F327FA76
:1052000001F207FA05F720FA01F11E434FEA1648AA
:10521000B2FBF8F91FFA86FA08FB19220AFB09FB10
:105220000F433B0C43EA024293450CFA05FC0BD9B1
:10523000921909F1FF3380F0A280934584BFA9F150
:105240000209921940F29B80CBEB0202B2FBF8F10B
:1052500008FB11220AFB01FABFB247EA02439A4552
:1052600008D94A1E9B1980F086809A4540F28380B7
:1052700002399B1941EA09410F0C1FFA8CF808FB0F
:1052800007F68AB24FEA1C4C08FB02F80CFB0262DC
:105290000CFB07FC02EB1842964288BF0CF5803CE1
:1052A000CAEB03030CEB124C634510D300FA05F56F
:1052B0001FFA88F814BF0023012308EB024295422D
:1052C0002CBF002503F00105002D3FF44AAF013942
:1052D000002546E7E443524263EB4303FCE64042C9
:1052E00061EB41014FF0FF34F3E6B240C6F1200913
:1052F00021FA09F720FA09F901FA06F1130CB7FBB4
:10530000F3F81FFA82FC03FB18770CFB08F549EA57
:1053100001094FEA194141EA0747B040BD4209D9A6
:10532000BF1808F1FF312CD2BD4284BFA8F102089A
:10533000BF1826D97F1BB7FBF3F503FB15710CFBD8
:1053400005F61FFA89F949EA01418E4206D96F1E16
:10535000891812D28E4210D9023D8918891B45EA5C
:10536000084517E70121BB4228BF82427FF6F9AE0C
:10537000F5E60E46DAE611467CE73D46EEE799464D
:1053800062E78846D6E7023FB61816E72DE9F00334
:10539000144605460E46DBBB8A4246D9B2FA82F372
:1053A00043B1C3F1200220FA02F201FA03F69C4055
:1053B0009D401643230CB6FBF3F1A7B203FB116625
:1053C00007FB01F2280C40EA0646B24208D9481E03
:1053D000361980F00F81B24240F20C810239361941
:1053E000B61AB6FBF3F203FB126307FB02F7ADB28A
:1053F00045EA03439F4207D9501E1B1980F0F880ED
:10540000023A9F4240F2F48042EA0140002146E025
:105410008B4242D8B3FA83F4002C43D18B4228BF8D
:1054200082423AD82146012039E012B90123B3FB68
:10543000F2F4B4FA84F2002A40F09B800A1B230C99
:10544000A7B20121B2FBF3F603FB162207FB06F01D
:105450004FEA154C4CEA0242904207D9121906F164
:10546000FF3C02D2904200F2DC806646121AB2FB88
:10547000F3F003FB102307FB00F7ADB245EA03434B
:105480009F4207D9421E1B1980F0B68002389F4206
:1054900040F2B28040EA064001E000210846BDE843
:1054A000F0037047C4F1200722FA07FC03FA04F363
:1054B00021FA07F620FA07F501FA04F14CEA030392
:1054C0001F0CB6FBF7F81FFA83F907FB186609FBF8
:1054D00008FC29430D0C45EA0646B44502FA04F2DD
:1054E00005D9F61808F1FF35C0F08F80A846CCEB3F
:1054F0000606B6FBF7FC07FB1C6609FB0CF989B234
:1055000041EA0645A94504D9ED180CF1FF3175D3E0
:105510008C464CEA084C97B24FEA1C4607FB06F152
:10552000120C1FFA8CF307FB03F702FB031302FBB9
:1055300006F203EB1743994288BF02F58032C9EBAC
:10554000050502EB134295420FD300FA04F1BFB2F6
:1055500014BF0022012207EB034399422CBF002114
:1055600002F001016046002999D00CF1FF300021C2
:1055700095E79440C2F1200321FA03F620FA03F9DB
:1055800001FA02F1230CB6FBF3FCA7B203FB1C6685
:1055900007FB0CF849EA01094FEA194141EA0646BE
:1055A000B04500FA02F509D936190CF1FF3234D2B0
:1055B000B04584BFACF1020C36192ED9C8EB0606F3
:1055C000B6FBF3F003FB106207FB00F81FFA89F942
:1055D00049EA0242904506D9411E12191FD2904550
:1055E0001DD902381219C8EB020240EA0C4129E722
:1055F000024609E70146F3E610464BE7A94584BF9A
:10560000ACF1020CED1884D882E7B44584BFA8F150
:105610000208F6183FF66BAF68E79446CEE70846F7
:10562000E1E7023E121921E703685A004CBF43F03C
:10563000004323F00043C018704700BF2DE9F04F2E
:10564000064683B0914611B301390191884600277F
:1056500007EB080404EBD474641006EBC40B584643
:10566000FFF7E2FF019B651CA342824606EBC500E3
:1056700015D0FFF7D9FF0138CA4504D9BC420BD079
:1056800004F1FF38E4E7484502D22F46E0E78B46B5
:10569000584603B0BDE8F08F4FF0000BF8E7CA455D
:1056A000ECD8F5E7012807D0022807D0044B0028E2
:1056B0000CBF1846002070470248704702487047E8
:1056C000455D08003D5D0800355D0800036810B5C4
:1056D0000446D80706D4990704F1480009D500F01C
:1056E000B5FC23685A0709D518070ED5D90613D576
:1056F00010BD00F0A3FC23685A07F5D404F1D000D4
:1057000000F0ACFC23681807F0D404F5D87000F062
:10571000ADFC2368D906EBD404F50C70BDE810404D
:1057200000F0E8BC30B5254B83B004468D1E002B3D
:105730003CD0284601A9AFF300800346002B21D0BE
:105740002A460199FFF77AFF0546F0B1FFF76CFF93
:105750006B68A064012B11D0281D002B22DBFFF702
:1057600063FF0023E06423650368002B10DBFFF771
:105770005BFF00232061184603B030BD0023236186
:105780000523F8E723610923F5E720610923F2E700
:10579000C3F30360FFF786FF206100280CBF0923D5
:1057A0000023E8E70123E0642365DDE7044B054AB5
:1057B0001846D31ADB100193C2E700BF00000000B7
:1057C0004076080018770800036803B11B181846D4
:1057D000704700BF09207047704700BF2DE9F047B0
:1057E000ADF5916D03AD0C1D064617460FCC0FC5E8
:1057F0000FCC0FC50FCC0FC594E80F0002ACD6F844
:105800000C80D6F8189085E80F0000233046216CF4
:1058100023609F4214BF0A270927FFF783FF05462D
:1058200095B1A36B3246636401208DE8100247F006
:1058300010013346C047002818BF0925284622B06A
:105840000DF5806DBDE8F087236C21464FF4107292
:10585000736192A8FDF728F8314692AA3369384659
:105860009847A09B82460094012063643946CDF896
:10587000049032463346C04790B9204692A94FF46F
:105880001072FDF711F8BAF1080F06D13046216CFD
:10589000FFF748FF09270546C2E7BAF1070F01D015
:1058A0000925CBE72846216CFFF796FF03A800F0F7
:1058B000B9FB00BF70B504460D462046296CFFF7C2
:1058C00031FF064650B92A6C0120626123692146E6
:1058D0002A4698470828F0D0072801D0FEF702FC96
:1058E0003046296CFFF778FF281D00F09BFB00BFB6
:1058F000406C7047F0B5CB6BADF5117D0B6401AC1E
:105900000D1D0F4606460FCD0FC40FCD0FC40FCD92
:105910000FC495E80F0084E80F004FF0FF330093A9
:1059200030461099FFF7FEFE58B9336931466A4692
:10593000984708280446F3D06846FFF7C7FE062CB0
:1059400003D009200DF5117DF0BD30463946FFF733
:10595000B1FF00BF30B4DD6B0446C16082611946FF
:1059600000221D6430BCFFF739BF00BF70B543692A
:10597000C66804460D460B6426B10122FFF72EFFD0
:10598000FEF7B0FB0369214602202A469847072804
:1059900003D0082808D0FEF7A5FB3046296CFFF796
:1059A0001BFF281D00F03EFB20462946FFF782FF23
:1059B000C26810B42AB1CC6B00220C6410BCFFF793
:1059C0000DBF10BCFFF796BF704700BF08B58368D6
:1059D00001460BB10120984708BD00BF79B90F2AD5
:1059E00098BF002B0CBF0023012301BF00EB8202F4
:1059F00052681846009B0CBF1A60022070470429A9
:105A00008CBF02200120704700B585B00A4603AB69
:105A1000002100930B46FFF7E1FF039805B000BD9E
:105A200079B90F2A98BF002B02BF009900EB8202C0
:105A300009680CBF0023012306BF184651600220ED
:105A4000704704298CBF02200120704710B584B034
:105A500004AB0C4643F8042D0021009322460B466C
:105A6000FFF7DEFF04B010BD2DE9F04FCE6C0C4601
:105A700056F8041B8BB01D46174600F0030807912B
:105A80000896E3B909028DF82530032307918DF8B4
:105A90002430236DB8F1020F08BFA66B13F0010389
:105AA0001BD000220192022D40F3B380FFF792FE3B
:105AB000002800F0B58009200BB0BDE8F08F022B64
:105AC000E7DC0B0CDAB209048DF8253002230791CC
:105AD0008DF8243006EB8206DBE700F0080004F1C5
