:0200000280007C
:10000000F82C07209D080800A5010800A50108009C
:10001000A5010800A5010800A501080000000000D6
:10002000000000000000000000000000A90108001E
:10003000A501080000000000B9010800C90108007E
:10004000A5010800A5010800A5010800A5010800F8
:10005000A5010800A5010800A5010800A5010800E8
:10006000C10D0800A50108000000000025060800D9
:100070005D06080095060800CD0608000000000097
:1000800000000000D90D0800ED0D0800A5010800D2
:10009000010E0800A5010800A5010800A50108003F
:1000A000A501080000000000A5010800A501080046
:1000B000A5010800A5010800A5010800A501080088
:1000C000A5010800A5010800A5010800A501080078
:1000D000A5010800A5010800A5010800A501080068
:1000E000A50D0800A5010800A5010800A50108004C
:1000F000A501080008B50548054B1B1A062B00D8BA
:1001000008BD044B002BFBD09847F9E7E02208001C
:10011000E32208000000000008B50748074B1B1A3F
:100120009B1003EBD373591000D108BD044A002A79
:10013000FBD09047F9E700BFE0220800E02208006A
:100140000000000010B5064C237843B9FFF7D2FF3A
:10015000044B13B10448AFF300800123237010BD9A
:100160008808072000000000E022080008B5084BBE
:100170001BB108480849AFF300800848036813B171
:10018000074B03B19847BDE80840FFF7C5BF00BF64
:1001900000000000E02208008C080720E022080090
:1001A00000000000FEE700BF08B540F2F913C0F2FE
:1001B0000803984708BD00BF08B540F2F913C0F224
:1001C0000803984708BD00BF08B540F2F113C0F21C
:1001D0000803984748B940F20943C0F2080398471A
:1001E00040F68553C0F20803984708BD704700BF2A
:1001F0004FF00000704700BFFEE700BF2DE9F84F49
:1002000080460E464FF0000425464FF00A0B40F2A0
:10021000F93AC0F2080A4FF02E0908EB0403304601
:1002200019795A46D04707463046494640F271335D
:10023000C0F208039847C0192D1804F10104032CDB
:10024000EBD1304698F807104FF00A0240F2F9332C
:10025000C0F2080398472818BDE8F88F30B4044668
:10026000044D05600171427183719DF80830C371BE
:1002700030BC70472818080010B582B04FF000035A
:10028000009340F6A400C2F2070019461A4640F255
:100290005D24C0F20804A04702B010BD08B540F2CA
:1002A0003803C2F2070318684FF0010140F251739E
:1002B000C0F20803984708BD70B540F23806C2F294
:1002C000070630684FF0010140F63105C0F208051D
:1002D000A8474FF4FA7040F20574C0F20804A04732
:1002E00030684FF00001A8474FF4FA70A04770BD86
:1002F00008B540F61563C0F2080398474FF00100B7
:1003000040F20573C0F20803984740F29D23C0F203
:100310000803984740F2B923C0F20803984740F217
:100320000003C0F200033BB11D4640F2B924C0F205
:100330000804A847A047FCE740F2B924C0F208042B
:10034000A047FDE7F8B506460F4614465AB14FF0F0
:10035000000533681B68304617F8011B98472D18B5
:10036000013CF6D101E04FF000052846F8BD00BF82
:1003700008B503681B68984708BD00BFF0B58BB08F
:1003800007464FF000038DF82430012A98BF0A2257
:100390000DF12304B1FBF2F303FB1211CDB226469B
:1003A000092D94BF30353735EDB2257004F1FF3497
:1003B0001946002BEED14FF0000066B1304641F2F5
:1003C0005D53C0F20803984702463B685B683846B5
:1003D00031469847FFE70BB0F0BD00BF08B522B922
:1003E00003681B68C9B2984708BDD2B240F27D339A
:1003F000C0F20803984708BD08B540F2DD33C0F2EB
:100400000803984708BD00BF08B540F23C03C2F29C
:1004100007031B68B3F1FF3F09D003F1FF3240F23D
:100420003C03C2F207031A600AB9014B984708BDA2
:100430000100072010B504464FF000014FF04002C4
:1004400041F22953C0F2080398474FF00003236498
:100450006364204610BD00BF10B4026C02F10103BA
:1004600003F03F03446C9C421CBF8154036410BCE6
:10047000704700BF40F6AC03C2F207031B6843B9E4
:1004800040F6AC03C2F2070342F6F842C2F207029A
:100490001A6040F6AC03C2F207031A68101818601D
:1004A000104670474FF00100704700BF0369186C99
:1004B0005B6CC01A00F03F00704700BF03695A6CC4
:1004C000196C914214BF985C4FF0FF30704700BF29
:1004D00003695A6C196C91421FBF985C013202F09B
:1004E0003F025A6408BF4FF0FF30704742695369BA
:1004F00013F0020FFBD070474269536913F0020FEB
:10050000FBD0D1614FF00100704700BF30B404460A
:100510004FF0000545604FF47A758560044D056025
:10052000029D056141610276C36130BC704700BF26
:100530003818080038B5054643695C6914F0010FA6
:1005400007D099690069C9B240F25943C0F2080363
:10055000984714F0600F1FBF6B691A6842F48072ED
:100560001A6038BD4FF00100704700BF0369186C76
:100570005B6CC01A00F03F00704700BF03695A6C03
:10058000196C914214BF985C4FF0FF30704700BF68
:1005900003695A6C196C91421FBF985C013202F0DA
:1005A0003F025A6408BF4FF0FF30704742695369F9
:1005B00013F0020FFBD070474269536913F0020F2A
:1005C000FBD0D1614FF00100704700BF30B404464A
:1005D0004FF0000545604FF47A758560044D056065
:1005E000029D056141610276C36130BC704700BF66
:1005F0006018080038B5054643695C6914F0010FBE
:1006000007D099690069C9B240F25943C0F20803A2
:10061000984714F0600F1FBF6B691A6842F480722C
:100620001A6038BD70B54FF46063C4F20E03DD6C20
:100630004FF0000440F6B006C2F2070615F0010FB5
:1006400004D006F10403E35803B198474FEA550577
:1006500004F10404802CF1D170BD00BF70B54FF4DB
:100660008053C4F20E03DD6C4FF0000440F6B00678
:10067000C2F2070615F0010F04D006F18403E35817
:1006800003B198474FEA550504F10404802CF1D1D9
:1006900070BD00BF70B54FF49053C4F20E03DD6C13
:1006A0004FF0000440F6B006C2F2070615F0010F45
:1006B00004D006F58273E35803B198474FEA550515
:1006C00004F10404802CF1D170BD00BF70B54FF46B
:1006D000A053C4F20E03DD6C4FF0000440F6B006E8
:1006E000C2F2070615F0010F04D006F5C273E358F5
:1006F00003B198474FEA550504F10404802CF1D169
:1007000070BD00BF70B5054640F69953C0F20803AE
:100710009847451940F69954C0F2080440F2ED1686
:10072000C0F2080600E0B047A0478542FBD870BD84
:1007300040F6B421C2F2070101F1030301F15201B5
:100740004FF0000203F8012F8B42FBD1704700BF2E
:1007500070B5044641F68003C0F20803C0EBC00246
:1007600003EB82031B7B002B61D0012939D011B12F
:1007700002295CD11AE041F68005C0F20805C0EB01
:10078000C0044FEA84042E19B06840F67D43C0F2DD
:100790000803984728594FF0030172684FF000038F
:1007A00040F6D134C0F20804A04770BD41F6800580
:1007B000C0F20805C0EBC0044FEA84042E19B068EB
:1007C00040F67D43C0F20803984728594FF00301D3
:1007D00072684FF0010340F6D134C0F20804A0471C
:1007E00070BD41F68003C0F20803C0EBC0024FEABF
:1007F00082029D189E5830464FF005016A682B69A9
:1008000040F6D135C0F20805A847B369B3F1FF3F00
:100810000DD141F68003C0F20803C4EBC40403EB1E
:100820008403986840F60153C0F20803984770BDEE
:1008300070B582B00D4641F68003C0F20803C0EBEC
:10084000C00403EB84031B7B33B341F68003C0F287
:1008500008034FEA84001A181E585468304621468F
:1008600040F66543C0F20803984740B93046214638
:100870002A4640F60D33C0F2080398470CE04FF0CB
:1008800001030093304621462A464FF0000340F60C
:100890008D34C0F20804A04702B070BD10B542F21A
:1008A000E022C0F2080240F20003C2F207039A42BB
:1008B00003D02B4B2B4A9A4204D32B4B2B4A9A4200
:1008C00018D327E02A4B2B4CE41A24F0030404F13C
:1008D00004044FF0000340F20000C2F2070042F2AD
:1008E000E021C0F208015A581A5003F10403A34250
:1008F000F9D1E2E7204B2149C91A21F0030140F662
:100900008802C2F207028A184FF0000143F8041F60
:100910009342FBD140F20003C0F2080323F0604190
:1009200021F07F014FF46D42CEF20002916003F19D
:100930006043B3F5801F3FBF4FF46D43CEF2000319
:100940009A6842F0005238BF9A6041F2C503C0F283
:100950000803984740F2F123C0F208039847FEE7E6
:100960008808072000000720F40C072088080720CB
:10097000040007208B08072084080720EF0C0720BD
:100980004FF42063C4F20E034FF480621A604FF4F8
:100990004063C4F20E031A604FF4C063C4F20E0346
:1009A0001B6A13F0807F10D14FF4C063C4F20E03B2
:1009B00040F60902C0F237021A624FF4C062C4F274
:1009C0000E02936E13F0010FFBD04FF4C063C4F21C
:1009D0000E0340F60902C0F237121A624FF4C062E9
:1009E000C4F20E02936E13F4803FFBD04FF4C06349
:1009F000C4F20E031A6B22F0030242F001021A63E2
:100A00004FF4C062C4F20E02936E13F0080FFBD0D5
:100A10004FF4C063C4F20E0343F60172C2F20D023A
:100A20009A624FF4C062C4F20E02936E13F0020F8A
:100A3000FBD04FF4C063C4F20E034FF011021A63EF
:100A40004FF4C062C4F20E02936E13F0080FFBD095
:100A50004FF4C063C4F20E034FF012021A634FF456
:100A6000C062C4F20E02936E13F0080FFBD040F286
:100A70004003C2F207034FF43D42C0F201521A6034
:100A8000704700BF30B44FF0010404604FF0000421
:100A9000446040F20225C0F82051C0F80441C0F87B
:100AA000144145684FEA4202B1FBF2F101F1FF3215
:100AB0004FEA02624FEA034303F4702343EA12420F
:100AC00015434560204630BC704700BF436819435A
:100AD0004FEAC212D3B219434160704710B4446860
:100AE00022434FEA016101F0706422434FEA03732D
:100AF00003F040531A43426010BC70474FF6FF7337
:100B00004361704781627047416470470AB1416632
:100B100070470166704700BF426405290ED8DFE8C0
:100B200001F00E030A0E0E0E036F016F0B4023EA55
:100B30000203036702E0036F1343036742607047D9
:100B400070B504460D46164640F60933C0F2080358
:100B500098472046294606F0010240F60D33C0F2C0
:100B60000803984716F00A0F14BF2562656216F055
:100B7000020F18BFC4F8805004D116F0080F18BF38
:100B8000C4F880506561256070BD00BF2DE9F0415B
:100B900004460D461746984640F60936C0F2080648
:100BA000B04720462946069A40F60D36C0F20806A0
:100BB000B047B8F1000F01D0256500E065650FB1C1
:100BC000256300E0656325612560BDE8F08100BF15
:100BD0002DE9F04182B007460D461646984601F1D0
:100BE000FF34042C38D8DFE804F003031B2525006C
:100BF00040F61933C0F2080398473846314640F6AC
:100C00000933C0F2080398473846314608F001021C
:100C100040F60D33C0F2080398474FF001001DE085
:100C20001146424640F64133C0F2080398474FF060
:100C3000010013E008F0010300931146052D14BFD5
:100C400000220122C8F3800340F68D34C0F208046C
:100C5000A0474FF0010001E04FF0000002B0BDE8F6
:100C6000F08100BF8368194205D0836919420CBF27
:100C70000020012070474FF0000070472C2835D825
:100C80001F2817D84FF4C063C4F20E039A694FF0BF
:100C9000010303FA00F31A4093422AD04FF00103F4
:100CA00003FA00F04FF4C063C4F20E0318614FF072
:100CB000000070474FF4C063C4F20E03D3F808215C
:100CC000A0F120004FF0010303FA00F31A40934211
:100CD00012D04FF0010303FA00F04FF4C063C4F2E6
:100CE0000E03C3F800014FF0000070474FF0010001
:100CF00070474FF0000070474FF00000704700BF92
:100D00002C2835D81F2817D84FF4C063C4F20E031F
:100D10009A694FF0010303FA00F31A4093422AD173
:100D20004FF0010303FA00F04FF4C063C4F20E0366
:100D300058614FF0000070474FF4C063C4F20E03D7
:100D4000D3F80821A0F120004FF0010303FA00F3CB
:100D50001A40934212D14FF0010303FA00F04FF40E
:100D6000C063C4F20E03C3F804014FF000007047E3
:100D70004FF0010070474FF0000070474FF0000047
:100D8000704700BF40F61433C2F207031A6802F13D
:100D900001021A60704700BF40F61433C2F2070325
:100DA0001868704708B540F61833C2F207031B688D
:100DB00003B1984708BD00BF4FF40043436070473C
:100DC00008B540F61C30C2F2070040F23553C0F2BD
:100DD0000803984708BD00BF08B5034840F2F55323
:100DE000C0F20803984708BD3C0B072008B503482C
:100DF00040F2F553C0F20803984708BD5C0B07208A
:100E000008B5034840F2F553C0F20803984708BDFF
:100E10007C0B07202DE9F04140F68113C0F2080356
:100E2000984740F24003C2F207031A6844F6D353CE
:100E3000C1F26203A3FB02134FEA931202F1FF32E5
:100E40004EF21003CEF200035A604FF46D42CEF220
:100E500000024FF0F00182F823104FF000049C6074
:100E60004FF007021A6041F65020C4F20E0040F61F
:100E7000B953C0F20803984741F2C503C0F2080312
:100E800098472046264640F63105C0F2080531460F
:100E9000A84704F1010420464F2CF8D14FF46065B7
:100EA000C4F20E054FF0FF36C5F8A0604FF480572E
:100EB000C4F20E07C7F8A0604FF49053C4F20E03BB
:100EC000C3F8A0604FF4A058C4F20E08C8F8A060A0
:100ED00028464FF001014FF440724FF0000340F6F6
:100EE000D134C0F20804A0474FF000004FF00101D8
:100EF00040F63103C0F20803984728464FF001013D
:100F00004FF440624FF00003A04728464FF0010124
:100F10004FF440524FF00003A04740464FF002010B
:100F20004FF030024FF00003A04738464FF0010168
:100F30004FF440624FF00003A04728464FF00101F4
:100F40004FF003024FF00003A04738464FF0010175
:100F50004FF440424FF00003A0474FF0250040F609
:100F60007D43C0F2080398474FF00004C4F20C041C
:100F700040F24003C2F20703204619684FF434528E
:100F8000C0F231124FF00C0340F68525C0F208057F
:100F9000A84720464FF000014FF440124FF00103E4
:100FA00040F6DD25C0F20805A84720464FF00001B5
:100FB0000A4640F6CD23C0F2080398472046314642
:100FC00040F60533C0F208039847204640F6FD235B
:100FD000C0F20803984740F23173C0F20803984703
:100FE000BDE8F0812DE9F04182B040F61C34C2F238
:100FF000070404F18006304640F23545C0F208058A
:10100000A847009620464FF40061C4F20E014FF04D
:101010000802134640F20D56C0F20806B04704F12C
:10102000C8084046A84704F588773846A84704F51D
:10103000AC763046A847CDF8008004F120004FF48C
:101040000041C4F209014FF01102134640F2CD55A0
:10105000C0F20805A847009704F140004FF4404152
:10106000C4F209014FF012021346A847009604F19A
:1010700060004FF48041C4F20A014FF0140213469D
:10108000A84702B0BDE8F0810146002002460346B1
:1010900000F06CBA70B5094B094C0025E41AA41095
:1010A00003EB840602E072599047013C043D002C9A
:1010B000F9D1BDE8704001F00BB900BFDC22080097
:1010C000E022080070B50E4B0E4D0024ED1AAD1055
:1010D0001E4603E056F8242090470134AC42F9D173
:1010E00001F0E8F8084D094B0024ED1AAD101E463A
:1010F00003E056F8242090470134AC42F9D170BD8A
:10110000C0220800C0220800D0220800C022080027
:10111000024B0146186800F00BB800BF48000720DA
:10112000024B0146186800F0C7BA00BF480007200C
:101130002DE9F04701F10B04162C064603D934F0D3
:10114000070401D502E010248C4202D20C23336044
:10115000D3E1304600F0F0F9B4F5FC7F14D2A04B97
:10116000E20803EBC203DD689D4205D105F10803E7
:101170006D6902329D4244D0EA68A9686B68CA6012
:1011800023F00303916059E0620A01D1E2081BE0F9
:10119000042A02D8A209383216E0142A01D85B3298
:1011A00012E0542A02D8220B6E320DE0B2F5AA7F6B
:1011B00002D8E20B773207E040F254539A4202D849
:1011C000A20C7C3200E07E22854B03EBC203DD687B
:1011D00014E0696821F00301081B0F2801DD013AC2
:1011E0000EE0002809DBEB68AA68D3609A606B18F0
:1011F0005A6842F001025A608BE1ED689D42E8D1E5
:10120000013277490D6901F10807BD4267D06B686B
:1012100023F00303181B0F280CDD2B1940F00102EB
:1012200044F001046C604B610B61DF609F605A60A9
:1012300018506EE100284F610F6101DBEB18D7E712
:10124000B3F5007F0FD2DB089810012707FA00F7EB
:1012500048683843486001EBC3018B68E960AB60C4
:10126000DD608D603BE0580A042802D898093830C8
:1012700016E0142801D85B3012E0542802D8180B6D
:101280006E300DE0B0F5AA7F02D8D80B773007E0BA
:1012900040F25451884202D8980C7C3000E07E2005
:1012A000DFF83CE10EEBC007B968B9420DD101236C
:1012B000801003FA00F0DEF804300343CEF8043067
:1012C0000B4608E08968B94204D0486820F0030062
:1012D0008342F7D3CB68EB60A960CD609D600121AC
:1012E000931001FA03F33E4949688B425DD80B42E3
:1012F00005D122F003025B0004320B42FBD03848D8
:1013000000EBC20CE6461746DEF80C502CE069688C
:1013100021F00308C4EB08010F2913DD2B1944F059
:101320000104EA686C6055F8080F5950C26090607B
:101330002B4A536113610832DA609A6041F001026E
:101340005A600CE000290EDB05EB08035A6842F0F6
:1013500001025A60EB6855F8082FD3609A60304656
:1013600000F0EBF8D9E0ED687545D0D10137B90749
:1013700005F1080EC8D16146950704D1426822EAFA
:101380000302426005E0A1F108050968013AA9429B
:10139000F2D041685B008B4207D833B13A4601E096
:1013A00004325B000B42ABD1FAE70D4B9F687A68C1
:1013B00022F00309A1451A4604D3C4EB09030F2BFD
:1013C00000F39D80074B07EB090A1B6804EB030839
:1013D000D2F80834013307D108F110080CE000BF3F
:1013E00078040720BC0C072008F5805808F10F0886
:1013F00028F47F6828F00F083046414600F09EF838
:10140000421C05466BD0504502D2454B9F4266D1E7
:10141000444A5545536843445360414A07D129051E
:1014200005D19368C84448F001025A604CE0D2F8F4
:101430000824013203D13A4BC3F8085404E0CAEB44
:10144000050A384A5344536015F007031CBFC3F123
:101450000803ED18A84403F580534FEA0858A3EB9E
:1014600018584146304600F069F82E4A431C53682C
:1014700004BF4FF00008284643445360401B284BEC
:10148000404440F001009F429D6068601CD0B9F16B
:101490000F0F02D801236B6021E07B68A9F10C09D2
:1014A00029F0070903F0010349EA03037B600522E1
:1014B00007EB0903B9F10F0F5A609A6004D930465F
:1014C00007F1080100F0F8F8164A5368D16A8B4218
:1014D00088BFD362126B934284BF124A1363104BCE
:1014E0009B685A6822F00302A242C4EB020301D3B4
:1014F0000F2B04DC304600F020F800250DE0084AF0
:1015000044F00101956843F001032C19696094606F
:101510006360304600F011F808352846BDE8F087D2
:1015200078040720BC0C07208218034601E003F86A
:10153000011B9342FBD170477047704738B5064C8A
:101540000023054608462360FEF794FF431C02D1A2
:10155000236803B12B6038BDF00C0720034613F855
:10156000012B002AFBD1181A013870472DE9F843E6
:101570009846234B06461C680F46D4F8480191460E
:1015800018B904F5A670C4F8480141681F2916DD92
:101590001C4B1BB94FF0FF30BDE8F8834FF4C87007
:1015A000FFF7B6FD0028F5D0D4F8481100254560B6
:1015B0000160C4F84801C0F88851C0F88C51B6B138
:1015C0004468012202FA04F2D0F8881100EB840387
:1015D0001143022EC3F88890C0F888111C46C3F846
:1015E000088104D1D0F88C311A43C0F88C214368AB
:1015F0009A1C013340F8227043600020BDE8F88354
:10160000AC22080011110800024B13B10248FFF789
:101610003BBD70470000000095100800F8B5234D51
:101620000E460446FFF788FFAB685F6827F00307A4
:1016300007F6EF739E1B26F47F6626F00F06A6F5CD
:101640008056B6F5805F04DA2046FFF776FF00206B
:10165000F8BD00212046FFF771FFAB68DB19984207
:10166000F2D171422046FFF769FF013010D100210D
:101670002046FFF763FFAB68C21A0F2AE4DD0C496E
:1016800042F0010209685A60401A0A490860DBE723
:10169000AB68BF1B47F001075F60064B20461A6826
:1016A000961B1E60FFF749FF0120F8BD7804072054
:1016B00080080720C00C0720F8B506460D46002913
:1016C00000F0A580FFF738FF55F804CC504FA5F186
:1016D00008032CF001029C18B96860688C4220F065
:1016E00003000CF001011CD1821839B955F8081C0F
:1016F0005B1A98685218D968C160886042F001018D
:10170000596043498B60434B1B689A4204D3424B58
:1017100030461968FFF782FF3046BDE8F840FFF712
:101720000CBF606059B955F8085C08375B1B52194B
:101730009D68BD4205D0DF68EF60BD6002E000211A
:1017400000E0012125186D6815F0010F0FD1121866
:1017500049B9A068314DA84205D1EB60AB60D860B3
:101760009860012103E0E068A468E060846042F0D2
:10177000010058609A500029CED1B2F5007F0CD2FA
:10178000D2089010012404FA00F42149486801EBC2
:10179000C20220434860916834E0540A042C02D805
:1017A0009409383416E0142C01D85B3412E0542C20
:1017B00002D8140B6E340DE0B4F5AA7F02D8D40B16
:1017C000773407E040F254518C4202D8940C7C34B8
:1017D00000E07E240E4D05EBC400816881420BD1F0
:1017E0000122A41002FA04F46A6822436A600A46DD
:1017F00008E08968814204D04C6824F00304A242C6
:10180000F7D3CA68DA6099609360CB6084E7F8BD6B
:101810007804072084080720BC0C072080040720D8
:101820000000000000000000FD01080000000000B2
:101830000000000000000000F90408004503080053
:10184000AD040800D1040800BD040800ED04080040
:10185000A5040800000000000000000000000000D7
:10186000B9050800450308006D050800910508004A
:101870007D050800AD0508006505080000000000B2
:10188000000E0E40000100000B00000001000000EF
:101890000000000004000000FFFFFFFF000E0E40EC
:1018A000000200000B00000001000000000000002A
:1018B00004000000FFFFFFFF00100E4000000002C8
:1018C0000C000000020000000000000014000000F6
:1018D000FFFFFF0000120E40000000100D0000008E
:1018E000020000000000000014000000FFFFFF0ED7
:1018F00000120E40000000040D0000000200000075
:101900000000000014000000FFFFFF0D00120E4059
:10191000000000020D0000000200000000000000B6
:1019200014000000FFFFFF0C00120E400000000139
:101930000D00000002000000000000000C0000008C
:10194000FFFF07FF00120E40000080000D000000A6
:1019500002000000000000000C000000FFFF06FF76
:1019600000120E40000040000D00000002000000C8
:10197000000000000C000000FFFF05FF00120E40F9
:10198000000020000D000000020000000000000028
:101990000C000000FFFF04FF00120E4000000020BA
:1019A0000D00000002000000000000001400000014
:1019B000FFFFFF0F00140E40800000000E0000002B
:1019C000020000000000000014000000FFFFFF10F4
:1019D00000140E40000100000E0000000200000094
:1019E0000000000014000000FFFFFF1100100E4077
:1019F000000000080C0000000200000000000000D1
:101A000014000000FFFFFF0100140E401000000052
:101A10000E000000020000000000000004000000B2
:101A2000FFFFFFFF00140E40200000000E0000002A
:101A3000020000000000000004000000FFFFFFFFA4
:101A4000000E0E40002000000B000000010000000E
:101A50000000000004000000FFFFFFFF000E0E402A
:101A6000001000000B00000001000000000000005A
:101A700004000000FFFFFFFF000E0E400008000002
:101A80000B00000001000000000000000400000046
:101A9000FFFFFFFF000E0E40000400000B000000DF
:101AA000010000000000000004000000FFFFFFFF35
:101AB00000100E40001000000C00000001000000AB
:101AC0000000000004000000FFFFFFFF00100E40B8
:101AD000002000000C0000000100000000000000D9
:101AE00004000000FFFFFFFF00100E400000000494
:101AF0000C000000040000000000000004000000D2
:101B0000FFFFFFFF000E0E40004000000B00000032
:101B1000040000000000000004000000FFFFFFFFC1
:101B2000000E0E40008000000B00000004000000CA
:101B30000000000004000000FFFFFFFF00140E4043
:101B4000010000000E000000040000000000000082
:101B500004000000FFFFFFFF00140E400200000021
:101B60000E0000000400000000000000040000005F
:101B7000FFFFFFFF00140E40040000000E000000F5
:101B8000040000000000000004000000FFFFFFFF51
:101B900000140E40080000000E00000004000000C9
:101BA0000000000004000000FFFFFFFF00140E40D3
:101BB000400000000E0000000400000000000000D3
:101BC00004000000FFFFFFFF00140E4000020000B1
:101BD0000E000000040000000000000004000000EF
:101BE000FFFFFFFF000E0E40800000000B00000012
:101BF000040000000000000004000000FFFFFFFFE1
:101C000000140E40000400000E000000040000005C
:101C10000000000004000000FFFFFFFF00120E4064
:101C2000020000000D0000000400000000000000A1
:101C300004000000FFFFFFFF00120E400400000040
:101C40000D0000000400000000000000040000007F
:101C5000FFFFFFFF00120E40080000000D00000013
:101C6000040000000000000004000000FFFFFFFF70
:101C700000120E40100000000D00000004000000E3
:101C80000000000004000000FFFFFFFF00120E40F4
:101C9000200000000D000000040000000000000013
:101CA00004000000FFFFFFFF00120E404000000094
:101CB0000D0000000400000000000000040000000F
:101CC000FFFFFFFF00120E40800000000D0000002B
:101CD000040000000000000004000000FFFFFFFF00
:101CE00000120E40000100000D0000000400000082
:101CF0000000000004000000FFFFFFFF00120E4084
:101D0000000200000D0000000400000000000000C0
:101D100004000000FFFFFFFF000E0E40000008005F
:101D20000B000000040000000000000004000000A0
:101D3000FFFFFFFF000E0E40000010000B00000030
:101D4000040000000000000004000000FFFFFFFF8F
:101D500000120E40000008000D000000040000000A
:101D60000000000004000000FFFFFFFF00120E4013
:101D7000000004000D00000004000000000000004E
:101D800004000000FFFFFFFF00120E4000000200F1
:101D90000D0000000400000000000000040000002E
:101DA000FFFFFFFF00120E40000001000D000000C9
:101DB000040000000000000004000000FFFFFFFF1F
:101DC00000120E40008000000D0000000400000022
:101DD0000000000004000000FFFFFFFF00120E40A3
:101DE000004000000D0000000400000000000000A2
:101DF00004000000FFFFFFFF00120E400020000063
:101E00000D000000040000000000000004000000BD
:101E1000FFFFFFFF00120E40001000000D00000049
:101E2000040000000000000004000000FFFFFFFFAE
:101E300000100E40000020000C0000000400000014
:101E40000000000004000000FFFFFFFF00100E4034
:101E5000004000000C000000040000000000000032
:101E600004000000FFFFFFFF000E0E400000010015
:101E70000B00000003000000000000000200000052
:101E80000007FFFF000E0E40000000010B000000E5
:101E90000300000000000000020000000106FFFF38
:101EA000000E0E40000080000B0000000300000048
:101EB00000000000020000000205FFFF000E0E40BF
:101EC000000040000B0000000300000000000000C4
:101ED000020000000304FFFF000E0E40400000005F
:101EE0000B000000030000000000000002000000E2
:101EF0000403FF05000E0E40100000000B00000060
:101F00000300000000000000020000000502FFFFC7
:101F1000000E0E40080000000B000000030000004F
:101F200000000000020000000601FF03000E0E404A
:101F3000040000000B00000003000000000000008F
:101F4000020000000700FF0200100E400000020027
:101F50000C00000003000000000000000200000070
:101F6000080AFFFF00100E40000004000C000000F3
:101F7000030000000000000002000000090BFFFF4A
:101F800000100E40000008000C00000003000000DC
:101F900000000000020000000A0CFFFF00100E40CD
:101FA000000010000C000000030000000000000012
:101FB000020000000B0DFFFF00100E40008000002B
:101FC0000C00000003000000000000000200000000
:101FD0000C10FFFF00100E40000001000C0000007C
:101FE0000300000000000000020000000D11FFFFD0
:101FF000000E0E40020000000B0000000100000077
:1020000000000000040000000EFFFFFF000E0E4065
:10201000010000000B0000000100000000000000B3
:10202000040000000FFFFFFF000E0E400000020042
:102030000B00000001000000000000000400000090
:10204000FFFFFFFF000E0E40000004000B00000029
:10205000010000000000000004000000FFFFFFFF7F
:1020600000120E40000000400D00000004000000BF
:102070000000000004000000FFFFFFFF000E0E4004
:10208000000020000B000000040000000000000021
:1020900004000000FFFFFFFF000E0E4000000002E2
:1020A0000B00000001000000000000000400000020
:1020B000FFFFFFFF000E0E40000000040B000000B9
:1020C000010000000000000004000000FFFFFFFF0F
:1020D000000E0E40000000080B0000000100000090
:1020E0000000000004000000FFFFFFFF000E0E4094
:1020F000000000100B0000000100000000000000C4
:1021000004000000FFFFFFFF00100E4000008000F1
:102110000C000000020000000000000004000000AD
:10212000FFFFFFFF000E0E40000006000B00000046
:10213000010000000000000005000000FFFFFFFF9D
:1021400000100E40003000000C00000001000000F4
:102150000000000005000000FFFFFFFF000E0E4022
:10216000000300000B000000010000000000000060
:1021700005000000FFFFFFFF000E0E40000C0000F6
:102180000B0000000100000000000000050000003E
:10219000FFFFFFFF000E0E40003000000B000000AC
:1021A000010000000000000005000000FFFFFFFF2D
:1021B00000140E40300000000E000000020000007D
:1021C0000000000005000000FFFFFFFF00100E40B0
:1021D000000C00000C0000000100000000000000E6
:1021E00004000000FFFFFFFF00100E400000200071
:1021F0000C000000020000000000000004000000CD
:10220000FFFFFFFF000E0E40000000200B0000004B
:10221000010000000000000004000000FFFFFFFFBD
:1022200000100E40008000000C00000001000000C3
:102230000000000004000000FFFFFFFF00100E4040
:10224000004000000C000000010000000000000041
:1022500004000000FFFFFFFF000E0E40030000001F
:102260000B0000000100000000000000050000005D
:10227000FFFFFFFF00100E4000C000000C00000038
:10228000010000000000000005000000FFFFFFFF4C
:10229000000000000000000000000000000000003E
:1022A0000000000000000000FFFFFFFF50000720BB
:1022B00043000000F8B500BFF8BC08BC9E4670475C
:1022C000091608006D01080079020800E50F0800F2
:1022D000F8B500BFF8BC08BC9E4670474501080031
:1022E00072B64FF42063C4F20E039A684FF48672FC
:1022F000C5F600225A609B6844F24023C0F20F03E7
:10230000013BFDD14FF4D053C4F20E034FF0050250
:10231000CAF200521A60FEE70D000000FFFFFFFF47
:1023200000093D00000000005000072000000000F0
:10233000000000003C030720A40307200C04072032
:10234000000000000000000000000000000000008D
:10235000000000000000000000000000000000007D
:1023600000000000B0220800000000000000000093
:10237000000000000000000000000000000000005D
:10238000000000000000000000000000000000004D
:10239000000000000000000000000000000000003D
:1023A000000000000000000000000000000000002D
:1023B000000000000000000000000000000000001D
:1023C000000000000000000000000000000000000D
:1023D00000000000000000000100000000000000FC
:1023E0000E33CDAB34126DE6ECDE05000B000000C1
:1023F00000000000000000000000000000000000DD
:1024000000000000000000000000000000000000CC
:1024100000000000000000000000000000000000BC
:1024200000000000000000000000000000000000AC
:1027600078040720780407208004072080040720CD
:10277000880407208804072090040720900407207D
:102780009804072098040720A0040720A00407202D
:10279000A8040720A8040720B0040720B0040720DD
:1027A000B8040720B8040720C0040720C00407208D
:1027B000C8040720C8040720D0040720D00407203D
:1027C000D8040720D8040720E0040720E0040720ED
:1027D000E8040720E8040720F0040720F00407209D
:1027E000F8040720F804072000050720000507204B
:1027F00008050720080507201005072010050720F9
:1028000018050720180507202005072020050720A8
:102810002805072028050720300507203005072058
:102820003805072038050720400507204005072008
:1028300048050720480507205005072050050720B8
:102840005805072058050720600507206005072068
:102850006805072068050720700507207005072018
:1028600078050720780507208005072080050720C8
:102870008805072088050720900507209005072078
:102880009805072098050720A0050720A005072028
:10289000A8050720A8050720B0050720B0050720D8
:1028A000B8050720B8050720C0050720C005072088
:1028B000C8050720C8050720D0050720D005072038
:1028C000D8050720D8050720E0050720E0050720E8
:1028D000E8050720E8050720F0050720F005072098
:1028E000F8050720F8050720000607200006072046
:1028F00008060720080607201006072010060720F4
:1029000018060720180607202006072020060720A3
:102910002806072028060720300607203006072053
:102920003806072038060720400607204006072003
:1029300048060720480607205006072050060720B3
:102940005806072058060720600607206006072063
:102950006806072068060720700607207006072013
:1029600078060720780607208006072080060720C3
:102970008806072088060720900607209006072073
:102980009806072098060720A0060720A006072023
:10299000A8060720A8060720B0060720B0060720D3
:1029A000B8060720B8060720C0060720C006072083
:1029B000C8060720C8060720D0060720D006072033
:1029C000D8060720D8060720E0060720E0060720E3
:1029D000E8060720E8060720F0060720F006072093
:1029E000F8060720F8060720000707200007072041
:1029F00008070720080707201007072010070720EF
:102A0000180707201807072020070720200707209E
:102A1000280707202807072030070720300707204E
:102A200038070720380707204007072040070720FE
:102A300048070720480707205007072050070720AE
:102A4000580707205807072060070720600707205E
:102A5000680707206807072070070720700707200E
:102A600078070720780707208007072080070720BE
:102A7000880707208807072090070720900707206E
:102A80009807072098070720A0070720A00707201E
:102A9000A8070720A8070720B0070720B0070720CE
:102AA000B8070720B8070720C0070720C00707207E
:102AB000C8070720C8070720D0070720D00707202E
:102AC000D8070720D8070720E0070720E0070720DE
:102AD000E8070720E8070720F0070720F00707208E
:102AE000F8070720F807072000080720000807203C
:102AF00008080720080807201008072010080720EA
:102B00001808072018080720200807202008072099
:102B10002808072028080720300807203008072049
:102B200038080720380807204008072040080720F9
:102B300048080720480807205008072050080720A9
:102B40005808072058080720600807206008072059
:102B50006808072068080720700807207008072009
:082B6000FFFFFFFF000002006F
:00000001FF
