:0200000280007C
:10000000682E0720490E0800A5010800A501080078
:10001000A5010800A5010800A501080000000000D6
:10002000000000000000000000000000A90108001E
:10003000A501080000000000B9010800C90108007E
:10004000A5010800A5010800A5010800A5010800F8
:10005000A5010800A5010800A5010800A5010800E8
:100060000D160800A501080000000000D10B0800D3
:10007000090C0800410C0800790C08000000000081
:1000800000000000251608003D160800A501080024
:1000900055160800A5010800A5010800A5010800E3
:1000A000A501080000000000A5010800A501080046
:1000B000A5010800A501080021110800A5010800FC
:1000C000A5010800A5010800A5010800A501080078
:1000D000A5010800A5010800A5010800A501080068
:1000E00019150800A5010800A5010800A5010800D0
:1000F000A501080008B50548054B1B1A062B00D8BA
:1001000008BD044B002BFBD09847F9E7F4690800C1
:10011000F76908000000000008B50748074B1B1AE4
:100120009B1003EBD373591000D108BD044A002A79
:10013000FBD09047F9E700BFF4690800F4690800B4
:100140000000000010B5064C237843B9FFF7D2FF3A
:10015000044B13B10448AFF300800123237010BD9A
:100160007009072000000000F469080008B5084B7A
:100170001BB108480849AFF300800848036813B171
:10018000074B03B19847BDE80840FFF7C5BF00BF64
:1001900000000000F469080074090720F4690800F1
:1001A00000000000FEE700BF08B540F20123C0F2E6
:1001B0000803984708BD00BF08B540F20123C0F20C
:1001C0000803984708BD00BF08B540F2F913C0F214
:1001D0000803984748B940F21163C0F208039847F2
:1001E00041F2F943C0F20803984708BD80B400AF5C
:1001F000FEE700BF704700BF4FF00000704700BF30
:10020000FEE700BF80B483B000AF78607B68044A2B
:100210001A607B68184607F10C07BD4680BC704722
:10022000485C080080B582B000AF7860F970BA70A1
:100230007B707B68184640F20523C0F2080398479C
:100240007B680A4A1A607B68FA781A717B68BA7808
:100250005A717B687A789A717B683A7CDA717B682C
:10026000184607F10807BD4680BD00BF205C0800A6
:1002700080B584B000AF786039604FF00003FB6058
:100280004FF00003BB6020E07A68BB68D3181B798D
:10029000386819464FF00A0240F2F943C0F20803E9
:1002A00098470346FA68D318FB6038684FF02E0170
:1002B00040F2D143C0F2080398470346FA68D318C6
:1002C000FB60BB6803F10103BB60BB68022BCCBFC2
:1002D00000230123DBB2002BD6D17B68DB793868A1
:1002E00019464FF00A0240F2F943C0F2080398475A
:1002F0000346FA68D318FB60FB68184607F110073D
:10030000BD4680BD90B585B002AF786039607B682E
:10031000012B16D13A684FF6FF739A4211D14FF074
:100320000003009340F68C10C2F207004FF000016A
:100330004FF000024FF0000340F22524C0F2080401
:10034000A04707F10C07BD4690BD00BF80B500AFC8
:100350004FF001004FF6FF7140F20533C0F2080381
:10036000984780BD80B500AF40F2A003C2F20703FA
:100370001B6818464FF0010140F6FD43C0F2080328
:10038000984741F23553C0F20803984780BD00BF3B
:1003900080B500AF40F2A003C2F207031B68184605
:1003A0004FF0010140F6DD53C0F2080398474FF4C7
:1003B000FA7040F6B143C0F20803984740F2A00338
:1003C000C2F207031B6818464FF0000140F6DD53E8
:1003D000C0F2080398474FF4FA7040F6B143C0F2F8
:1003E0000803984780BD00BF80B500AF41F26D6340
:1003F000C0F2080398474FF0010040F6B143C0F245
:100400000803984740F26533C0F20803984700E0BC
:1004100000BF40F29133C0F20803984740F2000356
:10042000C0F20003002BF3D040F20003C0F200033F
:100430009847EDE790B583B000AF786039603B68CE
:10044000002B02D14FF0000310E07B681B6803F122
:1004500004031C68386842F28F33C0F208039847DF
:100460000346786839681A46A0470346184607F1DC
:100470000C07BD4690BD00BF80B586B000AFF860E8
:10048000B9607A604FF000037B610FE0FB681B6886
:100490001B68BA681278B96801F10101B960F8689F
:1004A0001146984703467A69D3187B617B68002B15
:1004B0000CBF00230123DBB27A6802F1FF327A60BD
:1004C000002BE3D17B69184607F11807BD4680BDB4
:1004D00080B582B000AF78600B46FB707B681B680C
:1004E0001B68FA787868114698470346184607F162
:1004F0000807BD4680BD00BF80B584B000AFF8607E
:100500000B467A60FB72FB7AF86819467A6840F20B
:100510002553C0F2080398470346184607F1100711
:10052000BD4680BD80B584B000AFF860B9607A6028
:100530007B68002B09D1FB681B681B68BA68D2B2C4
:10054000F8681146984703460AE07B68DBB2F86812
:10055000B9681A4640F26D53C0F208039847034643
:10056000184607F11007BD4680BD00BF80B590B0AA
:1005700000AFF860B9601346FB7107F1140303F193
:100580002003FB63FB6B4FF000021A70FB79012B19
:1005900002D84FF00A03FB71BB68BB63FB79BA68F2
:1005A000B2FBF3F3BB60BB6BDAB2BB68DBB2F979C9
:1005B00001FB03F3DBB2D31A87F83730FB6B03F18F
:1005C000FF33FB6397F83730092B05D897F837309E
:1005D00003F13003DBB204E097F8373003F137035F
:1005E000DBB2FA6B1370BB68002B0CBF0023012336
:1005F000DBB2002BD0D1F868F96B40F23543C0F282
:10060000080398470346184607F14007BD4680BDDA
:1006100080B500AF40F2A403C2F207031B68B3F138
:10062000FF3F18D040F2A403C2F207031B6803F196
:10063000FF3240F2A403C2F207031A6040F2A4039F
:10064000C2F207031B68002B06D140F20103C2F27D
:100650000703984700E000BF80BD00BF80B582B0AF
:1006600000AF78607B6818464FF000014FF0400201
:1006700042F22D03C0F2080398477B684FF0000256
:100680001A647B684FF000025A647B68184607F1D1
:100690000807BD4680BD00BF80B485B000AF78605C
:1006A0000B46FB707B681B6C03F1010303F03F03F7
:1006B000FB607B685A6CFB689A4207D07B681B6CB6
:1006C0007A68F978D1547B68FA681A6407F11407DC
:1006D000BD4680BC704700BF40F69413C2F20703CA
:1006E0001B6843B940F69413C2F2070342F66862EE
:1006F000C2F207021A6040F69413C2F207031A68A6
:1007000010181860104670474FF0FF30704700BF58
:100710004FF400534B604FF0000070474FF0010062
:10072000704700BF4FF00000704700BF4FF000005F
:10073000704700BF30B4002A0FDD8D184FF40064FD
:10074000C4F20E04636913F0020FFBD011F8013BF1
:10075000E361A942F6D1104601E04FF0000030BC41
:10076000704700BF08B5014645F69040C0F208004A
:1007700042F25B03C0F208039847FEE7704700BFF0
:100780004FF0FF30704700BF80B483B000AF786097
:100790007B68064A1A607B684FF000025A607B68EB
:1007A000184607F10C07BD4680BC7047685C08001E
:1007B00080B582B000AF78607B68184640F28973DC
:1007C000C0F2080398477B68054A1A607B684FF4BB
:1007D0007A729A607B68184607F10807BD4680BDAB
:1007E000085D080080B483B000AF78604FF001036B
:1007F000184607F10C07BD4680BC704780B582B033
:1008000000AF78607B68184640F2B173C0F208030D
:1008100098477B68034A1A607B68184607F1080707
:10082000BD4680BDE05C080080B584B000AFF860D4
:10083000B9603B601346FB71FB68184640F2FD73DC
:10084000C0F208039847FB68094A1A60FB68BA6956
:100850001A61FB68BA685A61FB68FA791A76FB6814
:100860003A68DA61FB68184607F11007BD4680BD9B
:10087000B85C080080B483B000AF78607B681B6907
:100880001B6C03F140027B681B695B6CD31A03F09D
:100890003F03184607F10C07BD4680BC704700BFF8
:1008A00080B483B000AF78607B681B691A6C7B688A
:1008B0001B695B6C9A4202D14FF0FF3305E07B6805
:1008C0001A697B681B695B6CD35C184607F10C07DF
:1008D000BD4680BC704700BF80B485B000AF786073
:1008E0007B681B691A6C7B681B695B6C9A4202D13E
:1008F0004FF0FF3311E07B681A697B681B695B6C02
:10090000D35CFB737B681B697A681269526C02F1D5
:10091000010202F03F025A64FB7B184607F11407FC
:10092000BD4680BC704700BF80B483B000AF786024
:100930007B685B695B6903F00203002B14BF002333
:100940000123DBB2002BF3D107F10C07BD4680BCBD
:10095000704700BF80B483B000AF78600B46FB7077
:100960007B685B695B6903F00203002B14BF002303
:100970000123DBB2002BF3D17B685B69FA78DA6183
:100980004FF00103184607F10C07BD4680BC7047C5
:1009900080B584B000AF78607B685B695B69FB60A1
:1009A000FB6803F00103002B0CD07B681A697B689D
:1009B0005B699B69DBB21046194640F29963C0F24D
:1009C00008039847FB6803F02003002B04D1FB6861
:1009D00003F04003002B07D07B685B697A6852699B
:1009E000126842F480721A6007F11007BD4680BD9C
:1009F00080B483B000AF78604FF00103184607F170
:100A00000C07BD4680BC704780B584B000AFF8606D
:100A1000B9603B601346FB71FB68184640F2FD73FA
:100A2000C0F208039847FB68094A1A60FB68BA6974
:100A30001A61FB68BA685A61FB68FA791A76FB6832
:100A40003A68DA61FB68184607F11007BD4680BDB9
:100A5000285D080080B483B000AF78607B681B69B4
:100A60001B6C03F140027B681B695B6CD31A03F0BB
:100A70003F03184607F10C07BD4680BC704700BF16
:100A800080B483B000AF78607B681B691A6C7B68A8
:100A90001B695B6C9A4202D14FF0FF3305E07B6823
:100AA0001A697B681B695B6CD35C184607F10C07FD
:100AB000BD4680BC704700BF80B485B000AF786091
:100AC0007B681B691A6C7B681B695B6C9A4202D15C
:100AD0004FF0FF3311E07B681A697B681B695B6C20
:100AE000D35CFB737B681B697A681269526C02F1F4
:100AF000010202F03F025A64FB7B184607F114071B
:100B0000BD4680BC704700BF80B483B000AF786042
:100B10007B685B695B6903F00203002B14BF002351
:100B20000123DBB2002BF3D107F10C07BD4680BCDB
:100B3000704700BF80B483B000AF78600B46FB7095
:100B40007B685B695B6903F00203002B14BF002321
:100B50000123DBB2002BF3D17B685B69FA78DA61A1
:100B60004FF00103184607F10C07BD4680BC7047E3
:100B700080B584B000AF78607B685B695B69FB60BF
:100B8000FB6803F00103002B0CD07B681A697B68BB
:100B90005B699B69DBB21046194640F29963C0F26B
:100BA00008039847FB6803F02003002B04D1FB687F
:100BB00003F04003002B07D07B685B697A685269B9
:100BC000126842F480721A6007F11007BD4680BDBA
:100BD00070B54FF46063C4F20E03DD6C4FF0000497
:100BE00040F69816C2F2070615F0010F04D006F180
:100BF0000403E35803B198474FEA550504F1040490
:100C0000802CF1D170BD00BF70B54FF48053C4F299
:100C10000E03DD6C4FF0000440F69816C2F2070692
:100C200015F0010F04D006F18403E35803B198478F
:100C30004FEA550504F10404802CF1D170BD00BFCA
:100C400070B54FF49053C4F20E03DD6C4FF0000406
:100C500040F69816C2F2070615F0010F04D006F50B
:100C60008273E35803B198474FEA550504F1040431
:100C7000802CF1D170BD00BF70B54FF4A053C4F209
:100C80000E03DD6C4FF0000440F69816C2F2070622
:100C900015F0010F04D006F5C273E35803B198476D
:100CA0004FEA550504F10404802CF1D170BD00BF5A
:100CB00070B5054641F20D53C0F208039847451937
:100CC00041F20D54C0F2080440F2F516C0F20806D5
:100CD00000E0B047A0478542FBD870BD40F69C318C
:100CE000C2F2070101F1030301F152014FF00002CA
:100CF00003F8012F8B42FBD1704700BF70B504464B
:100D000045F6CC53C0F20803C0EBC00203EB8203EC
:100D10001B7B002B61D0012939D011B102295CD194
:100D20001AE045F6CC55C0F20805C0EBC0044FEA06
:100D300084042E19B06841F28533C0F20803984745
:100D400028594FF0030172684FF0000341F2D92493
:100D5000C0F20804A04770BD45F6CC55C0F20805A6
:100D6000C0EBC0044FEA84042E19B06841F2853309
:100D7000C0F20803984728594FF0030172684FF0FA
:100D8000010341F2D924C0F20804A04770BD45F622
:100D9000CC53C0F20803C0EBC0024FEA82029D1898
:100DA0009E5830464FF005016A682B6941F2D925FB
:100DB000C0F20805A847B369B3F1FF3F0DD145F66E
:100DC000CC53C0F20803C4EBC40403EB840398685B
:100DD00041F20943C0F20803984770BD70B582B074
:100DE0000D4645F6CC53C0F20803C0EBC00403EB3C
:100DF00084031B7B33B345F6CC53C0F208034FEAA0
:100E000084001A181E5854683046214641F26D334A
:100E1000C0F20803984740B9304621462A4641F2BD
:100E20001523C0F2080398470CE04FF0010300932C
:100E3000304621462A464FF0000341F29524C0F285
:100E40000804A04702B070BD10B546F6F412C0F217
:100E5000080240F20003C2F207039A4203D02B4B70
:100E60002B4A9A4204D32B4B2B4A9A4218D327E0A1
:100E70002A4B2B4CE41A24F0030404F104044FF031
:100E8000000340F20000C2F2070046F6F411C0F27F
:100E900008015A581A5003F10403A342F9D1E2E7BA
:100EA000204B2149C91A21F0030140F67012C2F209
:100EB00007028A184FF0000143F8041F9342FBD148
:100EC00040F20003C0F2080323F0604121F07F01EB
:100ED0004FF46D42CEF20002916003F16043B3F52E
:100EE000801F3FBF4FF46D43CEF200039A6842F07B
:100EF000005238BF9A6041F68533C0F20803984724
:100F000040F2E933C0F208039847FEE77009072072
:100F100000000720680E0720700907200400072042
:100F2000730907206C090720630E07204FF4206324
:100F3000C4F20E034FF480621A604FF44063C4F2AF
:100F40000E031A604FF4C063C4F20E031B6A13F061
:100F5000807F10D14FF4C063C4F20E0340F6090243
:100F6000C0F237021A624FF4C062C4F20E02936EEE
:100F700013F0010FFBD04FF4C063C4F20E0340F630
:100F80000902C0F237121A624FF4C062C4F20E02B4
:100F9000936E13F4803FFBD04FF4C063C4F20E0392
:100FA0001A6B22F0030242F001021A634FF4C0628E
:100FB000C4F20E02936E13F0080FFBD04FF4C0631F
:100FC000C4F20E0343F60172C2F20D029A624FF4AC
:100FD000C062C4F20E02936E13F0020FFBD04FF406
:100FE000C063C4F20E034FF011021A634FF4C062E3
:100FF000C4F20E02936E13F0080FFBD04FF4C063DF
:10100000C4F20E034FF012021A634FF4C062C4F22E
:101010000E02936E13F0080FFBD040F2A803C2F249
:1010200007034FF43D42C0F201521A60704700BFFF
:1010300080B483B000AF0346FB714FF46143CEF23E
:10104000000397F907204FEA5212F97901F01F01C6
:101050004FF0010000FA01F143F8221007F10C07EC
:10106000BD4680BC704700BF80B500AF40F6004071
:10107000C2F207004FF000014FF03C0242F22D0394
:10108000C0F20803984740F60043C2F2070341F25A
:10109000EF221A8040F64043C2F2070341F2EF22EA
:1010A0001A8044F2E403C4F208034FF49A42C5F2F2
:1010B00049421A604FF48040C4F208004FF000012A
:1010C0004FF4404241F28D43C0F20803984744F286
:1010D0001C03C4F208034FF452721A6044F2240352
:1010E000C4F208034FF010021A604FF01E0041F2E4
:1010F0003103C0F2080398474FF01E0041F28533D8
:10110000C0F2080398474FF48040C4F208004FF043
:10111000000141F2C943C0F20803984780BD00BFF7
:1011200080B500AF44F22003C4F208031B681A46DE
:1011300040F68443C2F207031A6040F68043C2F2CD
:1011400007031B68002B14BF00230123DBB2002B15
:1011500007D040F68043C2F207034FF001021A6045
:1011600006E040F68043C2F207034FF000021A6027
:1011700040F68043C2F207031B684FF00300194694
:1011800040F6DD53C0F20803984780BD30B44FF0FD
:10119000010404604FF00004446040F20225C0F8EE
:1011A0002051C0F80441C0F8144145684FEA42029A
:1011B000B1FBF2F101F1FF324FEA02624FEA034361
:1011C00003F4702343EA124215434560204630BCC5
:1011D000704700BF436819434FEAC212D3B21943A4
:1011E0004160704710B4446822434FEA016101F046
:1011F000706422434FEA037303F040531A43426082
:1012000010BC70474FF6FF734361704781627047AF
:10121000416470470AB1416670470166704700BF7C
:10122000426405290ED8DFE801F00E030A0E0E0E07
:10123000036F016F0B4023EA0203036702E0036FB1
:10124000134303674260704770B504460D46164667
:1012500041F21123C0F2080398472046294606F0C0
:10126000010241F21523C0F20803984716F00A0F55
:1012700014BF2562656216F0020F18BFC4F88050D3
:1012800004D116F0080F18BFC4F8805065612560BE
:1012900070BD00BF2DE9F04104460D461746984643
:1012A00041F21126C0F20806B04720462946069AA8
:1012B00041F21526C0F20806B047B8F1000F01D080
:1012C000256500E065650FB1256300E06563256174
:1012D0002560BDE8F08100BF2DE9F04182B00746EE
:1012E0000D461646984601F1FF34042C38D8DFE845
:1012F00004F003031B25250041F22123C0F208035B
:1013000098473846314641F21123C0F20803984706
:101310003846314608F0010241F21523C0F20803B5
:1013200098474FF001001DE01146424641F2492323
:10133000C0F2080398474FF0010013E008F00103E2
:1013400000931146052D14BF00220122C8F380032B
:1013500041F29524C0F20804A0474FF0010001E0DB
:101360004FF0000002B0BDE8F08100BF8368194271
:1013700005D0836919420CBF0020012070474FF04F
:10138000000070472C2835D81F2817D84FF4C063A9
:10139000C4F20E039A694FF0010303FA00F31A40F6
:1013A00093422AD04FF0010303FA00F04FF4C063D8
:1013B000C4F20E0318614FF0000070474FF4C06391
:1013C000C4F20E03D3F80821A0F120004FF001036E
:1013D00003FA00F31A40934212D04FF0010303FACC
:1013E00000F04FF4C063C4F20E03C3F800014FF0E5
:1013F000000070474FF0010070474FF00000704749
:101400004FF00000704700BF2C2835D81F2817D890
:101410004FF4C063C4F20E039A694FF0010303FA5C
:1014200000F31A4093422AD14FF0010303FA00F06F
:101430004FF4C063C4F20E0358614FF000007047D0
:101440004FF4C063C4F20E03D3F80821A0F12000CA
:101450004FF0010303FA00F31A40934212D14FF008
:10146000010303FA00F04FF4C063C4F20E03C3F8A3
:1014700004014FF0000070474FF0010070474FF03B
:10148000000070474FF00000704700BF10B5022900
:1014900006D909484FF04001084A094B094CA047BA
:1014A0004FEA811143184FF0020444504FF0FF31CE
:1014B0009962196A5A6010BD6C5D0800485D0800A9
:1014C000845D0800C91A080010B5022906D906482B
:1014D0004FF05C01054A064B064CA0474FEA8111CC
:1014E0004FF00503435010BD6C5D0800585D0800C7
:1014F000845D0800C91A080040F68843C2F2070359
:101500001A6802F101021A60704700BF40F6884372
:10151000C2F207031868704708B540F68C43C2F260
:1015200007031B6803B1984708BD00BF4FF4004391
:101530004360704780B500AF41F26903C0F2080311
:10154000984700BF80BD00BF80B483B000AF0346A2
:101550003960FB7197F90730002B10DA4FF46D43B7
:10156000CEF20003FA7902F00F02A2F104013A6808
:10157000D2B24FEA0212D2B25B181A760DE04FF4E3
:101580006143CEF2000397F907103A68D2B24FEAEE
:101590000212D2B25B1883F8002307F10C07BD4694
:1015A00080BC704780B582B000AF78607A686FF019
:1015B0007F439A4202D94FF0010322E04EF210031A
:1015C000CEF200037A6822F07F4202F1FF325A60C5
:1015D0004FF0FF304FF00F0141F24953C0F20803C2
:1015E00098474EF21003CEF200034FF000029A60CB
:1015F0004EF21003CEF200034FF007021A604FF0D4
:101600000003184607F10807BD4680BD80B500AF4E
:1016100040F6D840C2F2070040F69113C0F208032A
:10162000984780BD80B500AF40F6D050C2F20700A9
:1016300040F67133C0F20803984780BD80B500AF13
:1016400040F6F050C2F2070040F67133C0F20803D2
:10165000984780BD80B500AF40F61060C2F2070029
:1016600040F67133C0F20803984780BD90B583B04F
:1016700000AF40F62D73C0F20803984740F2A8036C
:10168000C2F207031A6844F6D353C1F26203A3FB04
:1016900002134FEA9313184641F2A553C0F2080310
:1016A00098470346002B0CBF00230123DBB2002B1D
:1016B00000D0FEE741F65020C4F20E0041F22D5357
:1016C000C0F20803984741F68533C0F208039847F3
:1016D0004FF000037B600CE07B6818464FF0000180
:1016E00040F6DD53C0F2080398477B6803F101031D
:1016F0007B607B684E2BCCBF00230123DBB2002B29
:10170000EAD14FF46063C4F20E034FF0FF32C3F826
:10171000A0204FF48053C4F20E034FF0FF32C3F801
:10172000A0204FF49053C4F20E034FF0FF32C3F8E1
:10173000A0204FF4A053C4F20E034FF0FF32C3F8C1
:10174000A02045F6CC53C0F20803D3F8DC0845F6D8
:10175000CC53C0F2080393F8E81845F6CC53C0F216
:101760000803D3F8E02845F6CC53C0F20803D3F8B9
:10177000EC3841F2D924C0F20804A0474FF0000031
:101780004FF0010140F6DD53C0F20803984745F6DB
:10179000CC53C0F20803D3F8F80845F6CC53C0F296
:1017A000080393F8041945F6CC53C0F20803D3F8A4
:1017B000FC2845F6CC53C0F20803D3F8083941F2AF
:1017C000D924C0F20804A04745F6CC53C0F2080360
:1017D000D3F8140945F6CC53C0F2080393F8201946
:1017E00045F6CC53C0F20803D3F8182945F6CC537C
:1017F000C0F20803D3F8243941F2D924C0F2080416
:10180000A04745F6CC53C0F20803D3F8300945F69B
:10181000CC53C0F2080393F83C1945F6CC53C0F200
:101820000803D3F8342945F6CC53C0F20803D3F8A3
:10183000403941F2D924C0F20804A04745F6CC5300
:10184000C0F20803D3F84C0945F6CC53C0F20803A4
:1018500093F8581945F6CC53C0F20803D3F8502931
:1018600045F6CC53C0F20803D3F85C3941F2D924D1
:10187000C0F20804A04745F6CC53C0F20803D3F8E1
:10188000D80945F6CC53C0F2080393F8E41945F69D
:10189000CC53C0F20803D3F8DC2945F6CC53C0F290
:1018A0000803D3F8E83941F2D924C0F20804A0476C
:1018B00045F6CC53C0F20803D3F8F40945F6CC53EF
:1018C000C0F2080393F8001A45F6CC53C0F208039F
:1018D000D3F8F82945F6CC53C0F20803D3F8043AFC
:1018E00041F2D924C0F20804A0474FF0250041F28C
:1018F0008533C0F20803984740F2A803C2F20703F9
:101900001B684FF00000C4F20C0019464FF434522B
:10191000C0F231124FF00C0341F28D14C0F20804F2
:10192000A0474FF00000C4F20C004FF000014FF44C
:1019300040124FF0010341F2E514C0F20804A04741
:101940004FF00000C4F20C004FF000014FF0000215
:1019500041F2D513C0F2080398474FF00000C4F2DB
:101960000C004FF0FF3141F20D23C0F208039847FD
:101970004FF00000C4F20C0041F20523C0F208034E
:10198000984740F6DD43C0F20803984707F10C077B
:10199000BD4690BD90B585B002AF786039607B6878
:1019A000012B40F081803A684FF6FF739A427BD159
:1019B00040F69040C2F2070040F25D63C0F20803B7
:1019C000984740F69043C2F20703009340F6D84090
:1019D000C2F207004FF40061C4F20E014FF008029A
:1019E0004FF0080340F62904C0F20804A04740F66F
:1019F000F840C2F2070040F25D63C0F20803984766
:101A000040F64050C2F2070040F25D63C0F20803A6
:101A1000984740F68850C2F2070040F25D63C0F27A
:101A20000803984740F6F843C2F20703009340F6D4
:101A3000D050C2F207004FF40041C4F209014FF048
:101A400011024FF0110340F60924C0F20804A04728
:101A500040F64053C2F20703009340F6F050C2F242
:101A600007004FF44041C4F209014FF012024FF059
:101A7000120340F60924C0F20804A04740F6885338
:101A8000C2F20703009340F61060C2F207004FF461
:101A90008041C4F20A014FF014024FF0140340F6E3
:101AA0000924C0F20804A04707F10C07BD4690BD09
:101AB00080B500AF4FF001004FF6FF7141F695136E
:101AC000C0F20803984780BD1FB505460848006866
:101AD000C0680AB1074C01E0074C22468DE81200AD
:101AE000029206491A462B4600F03AF801F056FEDB
:101AF000B0000720146808004F680800216808003B
:101B000008B513460022FFF7DFFF00BF01460020A3
:101B10000246034601F0EABD70B5094B094C0025A9
:101B2000E41AA41003EB840602E072599047013CCA
:101B3000043D002CF9D1BDE8704004F0E7BE00BFC1
:101B4000186908001C6908000CB407B504AB53F809
:101B5000042B019300F05AFCBDE80E4002B0704720
:101B60000EB403B5014603AB054853F8042B0068D7
:101B7000019300F04BFCBDE80C4003B0704700BF80
:101B8000B000072070B50E4B0E4D0024ED1AAD10BD
:101B90001E4603E056F8242090470134AC42F9D1A8
:101BA00004F0A6FE084D094B0024ED1AAD101E46A8
:101BB00003E056F8242090470134AC42F9D170BDBF
:101BC000FC680800FC6808000C690800FC68080054
:101BD000024B0146186800F00BB800BFB0000720A8
:101BE000024B0146186802F01DB800BFB000072084
:101BF0002DE9F04701F10B04162C064603D934F009
:101C0000070401D502E010248C4202D20C23336079
:101C1000D3E1304600F012FAB4F5FC7F14D2A04BA9
:101C2000E20803EBC203DD689D4205D105F108031C
:101C30006D6902329D4244D0EA68A9686B68CA6047
:101C400023F00303916059E0620A01D1E2081BE02E
:101C5000042A02D8A209383216E0142A01D85B32CD
:101C600012E0542A02D8220B6E320DE0B2F5AA7FA0
:101C700002D8E20B773207E040F254539A4202D87E
:101C8000A20C7C3200E07E22854B03EBC203DD68B0
:101C900014E0696821F00301081B0F2801DD013AF7
:101CA0000EE0002809DBEB68AA68D3609A606B1825
:101CB0005A6842F001025A608BE1ED689D42E8D11A
:101CC000013277490D6901F10807BD4267D06B68A1
:101CD00023F00303181B0F280CDD2B1940F0010221
:101CE00044F001046C604B610B61DF609F605A60DF
:101CF00018506EE100284F610F6101DBEB18D7E748
:101D0000B3F5007F0FD2DB089810012707FA00F720
:101D100048683843486001EBC3018B68E960AB60F9
:101D2000DD608D603BE0580A042802D898093830FD
:101D300016E0142801D85B3012E0542802D8180BA2
:101D40006E300DE0B0F5AA7F02D8D80B773007E0EF
:101D500040F25451884202D8980C7C3000E07E203A
:101D6000DFF83CE10EEBC007B968B9420DD10123A1
:101D7000801003FA00F0DEF804300343CEF804309C
:101D80000B4608E08968B94204D0486820F0030097
:101D90008342F7D3CB68EB60A960CD609D600121E1
:101DA000931001FA03F33E4949688B425DD80B4218
:101DB00005D122F003025B0004320B42FBD038480D
:101DC00000EBC20CE6461746DEF80C502CE06968C2
:101DD00021F00308C4EB08010F2913DD2B1944F08F
:101DE0000104EA686C6055F8080F5950C2609060B1
:101DF0002B4A536113610832DA609A6041F00102A4
:101E00005A600CE000290EDB05EB08035A6842F02B
:101E100001025A60EB6855F8082FD3609A6030468B
:101E200000F00DF9D9E0ED687545D0D10137B9075B
:101E300005F1080EC8D16146950704D1426822EA2F
:101E40000302426005E0A1F108050968013AA942D0
:101E5000F2D041685B008B4207D833B13A4601E0CB
:101E600004325B000B42ABD1FAE70D4B9F687A68F6
:101E700022F00309A1451A4604D3C4EB09030F2B32
:101E800000F39D80074B07EB090A1B6804EB03086E
:101E9000D2F80834013307D108F110080CE000BF74
:101EA000E0040720300E072008F5805808F10F08DD
:101EB00028F47F6828F00F083046414600F04CFABD
:101EC000421C05466BD0504502D2454B9F4266D11D
:101ED000444A5545536843445360414A07D1290554
:101EE00005D19368C84448F001025A604CE0D2F82A
:101EF0000824013203D13A4BC3F8085404E0CAEB7A
:101F0000050A384A5344536015F007031CBFC3F158
:101F10000803ED18A84403F580534FEA0858A3EBD3
:101F200018584146304600F017FA2E4A431C5368B1
:101F300004BF4FF00008284643445360401B284B21
:101F4000404440F001009F429D6068601CD0B9F1A0
:101F50000F0F02D801236B6021E07B68A9F10C0907
:101F600029F0070903F0010349EA03037B60052216
:101F700007EB0903B9F10F0F5A609A6004D9304694
:101F800007F1080101F04EFE164A5368D16A8B42F0
:101F900088BFD362126B934284BF124A1363104B03
:101FA0009B685A6822F00302A242C4EB020301D3E9
:101FB0000F2B04DC304600F042F800250DE0084A03
:101FC00044F00101956843F001032C1969609460A5
:101FD0006360304600F033F808352846BDE8F087E6
:101FE000E0040720300E072010B5002302E0CC5C8F
:101FF000C45401339342FAD110BD814210B511D2BD
:102000008C18A0420ED253428118E418CB1801E07C
:10201000A15C995412F1FF32FAD210BDCC5CC454C9
:10202000013300E000239342F8D110BD821803462B
:1020300001E003F8011B9342FBD1704770477047E2
:102040000EB403B503AB53F8042B8168019300F081
:1020500065FEBDE80C4003B070470FB407B50649F4
:1020600004AB086853F8042B8168019300F056FE16
:10207000BDE80E4004B07047B00007202DE9F84FCE
:10208000814616460C4621B91146BDE8F84FFFF7C8
:10209000AFBDFFF7D3FF06F10B0754F8045C162F12
:1020A000A4F1080B25F0030803D937F0070701D581
:1020B00002E01027B74204D20C23C9F800300026F2
:1020C00044E1B84580F21981A24A0BEB08039168FC
:1020D0008B4206D05A6822F001029A185268D00743
:1020E00026D45A688B4222F0030000EB080A18D16C
:1020F00007F1100292451DDB964B0BEB0705C7EB72
:102100000A0A9D604AF001036B6054F8043C48469B
:1021100003F001031F4344F8047CFFF790FF2646B9
:1021200014E1BA4506DBDA689B68DA609360E5E0A3
:1021300000200346EA0700F1918054F8085CC5EBE3
:102140000B056A6822F00302002B51D002EB080A4B
:102150008B42824445D107F110039A4548DB2E4655
:1021600056F8082FEB68D3609A60A8F10402242A7D
:1021700025D8132A1BD923681B2AAB606368EB6040
:1021800003D805F11003083412E0A368242A2B6158
:10219000E3686B6103D005F11803103408E023698C
:1021A000AB6163691834EB6105F1200300E033464D
:1021B00022681A6062685A60A2689A6003E030463A
:1021C0002146FFF71AFF634AEB19C7EB0A0A93602F
:1021D0004AF001025A606B6803F001031F436F600D
:1021E00087E0BA4504DBDA689B68DA60936003E055
:1021F00002EB080ABA4531DB284650F8082FEB6895
:10220000D3609A60A8F10402242A23D8132A1AD989
:1022100023681B2AAB606368EB6003D805F11000EC
:10222000083410E0A368242A2B61E3686B6103D0B3
:1022300005F11800103406E0236905F12000AB61B8
:1022400063691834EB612368036063684360A368C3
:10225000836054E02146FFF7D0FE50E03146484607
:10226000FFF7C6FC064600B943E054F8043CA0F171
:10227000080223F001035B449A4205D150F8043C64
:1022800023F0030AC24439E0A8F10402242A29D821
:10229000132A1ED923681B2A03606368436004D88D
:1022A00000F1080304F1080215E0A368242A836002
:1022B000E368C36004D000F1100304F110020AE0E7
:1022C000236904F1180203616369436100F1180393
:1022D00001E003462246116819605168596092680E
:1022E0009A6002E02146FFF788FE4846214601F049
:1022F00099FC4846FFF7A3FE28E0C2465D46C7EBBF
:102300000A030F2B6A6811D902F00102E919174379
:1023100043F001026F60CB184A605A68484642F0A9
:1023200001025A60083101F07DFC0AE002F001026E
:102330004AEA02026A6005EB0A035A6842F00102A7
:102340005A604846FFF77BFE05F108063046BDE8B7
:10235000F88F00BFE004072038B5064C002305467F
:1023600008462360FEF7B8F9431C02D1236803B185
:102370002B6038BD640E072010F8012B11F8013BCB
:10238000012A28BF9A42F7D0A2EB03007047034608
:1023900013F8012B002AFBD1181A013870470000EE
:1023A00093682DE9F04781460F4614461BB95360E8
:1023B0001846BDE8F0874B6E9B0420D5156818E0E1
:1023C00055F8043C55F808AC4FEA9308002608E09D
:1023D00048465AF826103A4601F064FB431C10D0D8
:1023E00001364645F4DBA3684FEA8808C8EB0303CF
:1023F000A360A3680835002BE2D1184601E001F084
:10240000C5FC0023A3606360BDE8F0872DE9F04FB1
:102410008946ADF2D44D14461E46834618B1836BEF
:102420000BB901F0C3FAB9F80C3003F4005212B240
:102430004AB943F40053A9F80C30D9F8643023F4B6
:102440000053C9F86430B9F80C3003F008031BB22C
:102450004BB1D9F8103033B1B9F80C2002F01A039F
:102460000A2B49D10AE05846494601F0DFF8002816
:10247000F2D04FF0FF30049000F03BBCB9F80E30C2
:10248000190439D4ADF87630D9F81C3022F00202A4
:102490002193D9F82430ADF87420239334ABD9F8C4
:1024A00064201A931E934FF480631C931F930023A0
:1024B0003392209358461AA922463346FFF7A6FFC7
:1024C0000028049009DB1AA9584601F001FA049982
:1024D000002818BF4FF0FF310491BDF8743003F0AD
:1024E00040031BB2002B00F00484B9F80C3043F019
:1024F0004003A9F80C30FCE3002334AA0D920F939B
:102500000E930394079304939046039B1C4613F881
:10251000012B1AB9039AA51A03D11DE0252AF5D17A
:10252000F8E7039B88E828000F9B5B190F930E9B2D
:102530000133072B0E9302DC08F1080809E0584626
:1025400049460DAAFFF72CFF002840F0CA830DF181
:10255000D0080498401904902378002B00F0BA8327
:1025600001340022002103948DF82F104FF0FF3C1E
:10257000069217460A2404E01A4602E01E464FF06F
:10258000FF3C039810F8013B0390632B00F0A680FA
:1025900026DC392B15DC312B80F282802B2BEBD003
:1025A00007DC232B4DD02A2B4ED0202B40F00E825F
:1025B00043E02E2B53D0302B6FD02D2B40F00682D2
:1025C0004AE04F2B00F0DD8003DC442B40F0FE811D
:1025D0008CE0552B00F02481582B40F0F78127E048
:1025E0006F2B00F0D0800EDC692B1ED005DC642B35
:1025F0001BD0682B40F0EA8160E06C2B61D06E2B21
:1026000040F0E4819CE0732B00F0EA8006DC702B44
:1026100000F0D780712B40F0D9815CE0752B00F081
:102620000181782B40F0D28116E18DF82F2061E0F6
:10263000A0498DF82F20079112E1002A08BF20221F
:102640009FE747F001079CE7331D3668002E06968A
:1026500011DA704206901E4647F0040791E703998D
:1026600011F8013B2A2B03910ED1D6F800C0331D7F
:10267000BCF1000F82DB1E4683E7039804FB0C1CB1
:1026800010F8013B039001E04FF0000CA3F1300182
:102690000929F2D94CEAEC7C77E747F0800770E72C
:1026A00003980021303B04FB013110F8013BA3F1FA
:1026B0003005092D0390F5D9069166E747F04007EC
:1026C0005FE703990B786C2B02D10131039102E093
:1026D00047F0100755E747F0200752E7336800221C
:1026E0008DF840308DF82F20043679E18DF82F20B9
:1026F00047F01007BA0607D5073626F0070303F19F
:102700000806D3E900450FE017F0100F06F10403A7
:1027100001D0326805E017F0400F326801D014B2E2
:1027200000E01446E5171E46002C75F1000080F20B
:10273000C5802D23644265EB45058DF82F30BDE043
:1027400017F0200F8DF82F2006F1040205D0049B0E
:102750003168D8170B60486004E0FB0604D5336885
:10276000049919601646D0E617F0400F326814BF7E
:102770000498049906F1040314BF108011601E46EA
:10278000C3E647F0100717F0200308D0073626F0FD
:10279000070303F10806D3E90045002385E017F09D
:1027A000100106F1040200D006E017F0400303D048
:1027B000348800251646F0E7316800250C46164699
:1027C00073E033683C4A1C4630238DF83030782360
:1027D000002547F002078DF831300436079263E098
:1027E0003346D3F800A000200436BCF1000F8DF86A
:1027F0002F00504610DB62460021CDF808C001F0E2
:1028000003FDDDF808C0002800F0F080CAEB0004EA
:10281000644500F3EE80EDE0FFF7B9FD0446E9E022
:1028200047F01007BD0607D5073626F0070303F16A
:102830000806D3E900450DE017F0100F06F1040378
:1028400000D003E07C0601D5348801E032681446EC
:1028500000251E46012328E017488DF82F200790F9
:10286000B80607D5073626F0070202F10806D2E9B6
:1028700000450DE017F0100F06F1040200D003E050
:10288000790601D5348801E031680C4600251646EA
:10289000FA0709D554EA050106D030228DF8302018
:1028A0008DF8313047F00207022300228DF82F20E7
:1028B00005E000BF76680800876808000123BCF1C6
:1028C000000FA8BF27F0800754EA050002D1BCF131
:1028D000000F6AD0012B1FD0022B47D00DF16703E8
:1028E0000720E10804EA000241EA4571E8083032B5
:1028F0000C460546D2B254EA05019A461A7003F115
:10290000FF33EDD1F80751465AD5302A58D09A46B0
:10291000302301F8013C53E0002D08BF0A2C05D2FA
:1029200030340DF1400A0AF8274F49E00DF16702F3
:102930000592204629460A220023CDF808C001F05E
:10294000CBFE059B303203F80129204629460A2296
:10295000DDF814A00593002301F0BEFE04460D46E9
:1029600054EA0500DDF808C0E3D129E00DF1670164
:1029700005910F20002104EA000205EA0103CDE9D8
:1029800000230799009BDDF814A0CA18137850465D
:1029900000F80139230943EA05732A091C46154644
:1029A00054EA05010590E4D10AE03BB9F90705D5E1
:1029B0000DF1400A30230AF8273F01E00DF1680AC3
:1029C0001AACCAEB0404CDF814C015E08DF82F2022
:1029D000002B00F07F8100228DF840308DF82F20F1
:1029E0000023012405930DF1400A05E0644605909B
:1029F00002E0644600230593059D9DF82F30AC420C
:102A0000A8BF254603B1013517F00203089318BF8C
:102A1000023517F0840309933CD10698431B002B21
:102A20001EDC37E01022C8F804200F9AA7491032A4
:102A30000F920E9AC8F800100132072A0E9202DC9B
:102A400008F108080BE0584649460DAA0293FFF723
:102A5000A7FC029B002840F044810DF1D008103BF8
:102A6000102BDFDC994A88E80C000F9AD3180F93DB
:102A70000E9B0133072B0E9302DC08F1080809E0D6
:102A8000584649460DAAFFF78BFC002840F02981E3
:102A90000DF1D0089DF82F200DF12F03CAB1C8F811
:102AA00000300123C8F804300F9B01330F930E9BB5
:102AB0000133072B0E9302DC08F1080809E05846A1
:102AC00049460DAAFFF76CFC002840F00A810DF181
:102AD000D008089BD3B10CABC8F800300223C8F86B
:102AE00004300F9B02330F930E9B0133072B0E9381
:102AF00002DC08F1080809E0584649460DAAFFF72C
:102B00004FFC002840F0ED800DF1D008099B802B90
:102B10003CD10698431B002B1EDC37E01022C8F87E
:102B200004200F9A6A4910320F920E9AC8F80010CA
:102B30000132072A0E9202DC08F108080BE0584621
:102B400049460DAA0293FFF72BFC029B002840F098
:102B5000C8800DF1D008103B102BDFDC5C4A88E800
:102B60000C000F9AD3180F930E9B0133072B0E9373
:102B700002DC08F1080809E0584649460DAAFFF7AB
:102B80000FFC002840F0AD800DF1D0080598031B24
:102B9000002B1EDC36E01022C8F804200F9A4C49A6
:102BA00010320F920E9AC8F800100132072A0E92C6
:102BB00002DC08F108080BE0584649460DAA0293CA
:102BC000FFF7EEFB029B002840F08B800DF1D00850
:102BD000103B102BDFDC3E4A88E80C000F9AD3181C
:102BE0000F930E9B0133072B0E9302DC08F10808AC
:102BF00008E0584649460DAAFFF7D2FB002870D1DD
:102C00000DF1D0080F9BC8F804401C190E9BC8F8A2
:102C100000A00133072B0F940E9302DC08F1080388
:102C200007E0584649460DAAFFF7BAFB002858D1DD
:102C300034AB7A070AD4049B06988542ACBF5B1973
:102C40001B1804930F9B002B33D037E006994F1BC2
:102C5000002F16DCEFE70F9A83E8100110320F9275
:102C60000E9A0132072A0E9201DC083307E058461B
:102C700049460DAAFFF794FB002832D134AB103F30
:102C800002E0124C4FF01008102FE4DC0F4A83E8EA
:102C900084000F9BDF190E9B0F970133072B0E93B8
:102CA000C9DD584649460DAAFFF77AFB0028C2D075
:102CB00017E000220E920DF1D00826E4584649464E
:102CC0000DAAFFF76DFB0028F3D00AE05668080054
:102CD000666808000F9B23B1584649460DAAFFF7C6
:102CE0005FFBB9F80C3003F040031BB2002B7FF4FC
:102CF000C0AB049835B00DF5806DBDE8F08F30B5F0
:102D00001346054A05460C46106829462246BDE88A
:102D10003040FFF77BBB00BFB00007202DE9F04F2C
:102D20008946ADF2D44D14461E46834618B1836BD6
:102D30000BB900F03BFEB9F80C3003F4005212B2AC
:102D40004AB943F40053A9F80C30D9F8643023F49D
:102D50000053C9F86430B9F80C3003F008031BB213
:102D60004BB1D9F8103033B1B9F80C2002F01A0386
:102D70000A2B49D10AE05846494600F057FC002882
:102D8000F2D04FF0FF30049000F03BBCB9F80E30A9
:102D9000190439D4ADF87630D9F81C3022F002028B
:102DA0002193D9F82430ADF87420239334ABD9F8AB
:102DB00064201A931E934FF480631C931F93002387
:102DC0003392209358461AA922463346FFF7A6FFAE
:102DD0000028049009DB1AA9584600F079FD0499EF
:102DE000002818BF4FF0FF310491BDF8743003F094
:102DF00040031BB2002B00F00484B9F80C3043F000
:102E00004003A9F80C30FCE3002334AA0D920F9381
:102E10000E930394079304939046039B1C4613F868
:102E2000012B1AB9039AA51A03D11DE0252AF5D161
:102E3000F8E7039B88E828000F9B5B190F930E9B14
:102E40000133072B0E9302DC08F1080809E058460D
:102E500049460DAAFFF7A4FA002840F0CA830DF1F5
:102E6000D0080498401904902378002B00F0BA830E
:102E700001340022002103948DF82F104FF0FF3C05
:102E8000069217460A2404E01A4602E01E464FF056
:102E9000FF3C039810F8013B0390632B00F0A680E1
:102EA00026DC392B15DC312B80F282802B2BEBD0EA
:102EB00007DC232B4DD02A2B4ED0202B40F00E8246
:102EC00043E02E2B53D0302B6FD02D2B40F00682B9
:102ED0004AE04F2B00F0DD8003DC442B40F0FE8104
:102EE0008CE0552B00F02481582B40F0F78127E02F
:102EF0006F2B00F0D0800EDC692B1ED005DC642B1C
:102F00001BD0682B40F0EA8160E06C2B61D06E2B07
:102F100040F0E4819CE0732B00F0EA8006DC702B2B
:102F200000F0D780712B40F0D9815CE0752B00F068
:102F30000181782B40F0D28116E18DF82F2061E0DD
:102F4000A0498DF82F20079112E1002A08BF202206
:102F50009FE747F001079CE7331D3668002E069671
:102F600011DA704206901E4647F0040791E7039974
:102F700011F8013B2A2B03910ED1D6F800C0331D66
:102F8000BCF1000F82DB1E4683E7039804FB0C1C98
:102F900010F8013B039001E04FF0000CA3F1300169
:102FA0000929F2D94CEAEC7C77E747F0800770E713
:102FB00003980021303B04FB013110F8013BA3F1E1
:102FC0003005092D0390F5D9069166E747F04007D3
:102FD0005FE703990B786C2B02D10131039102E07A
:102FE00047F0100755E747F0200752E73368002203
:102FF0008DF840308DF82F20043679E18DF82F20A0
:1030000047F01007BA0607D5073626F0070303F185
:103010000806D3E900450FE017F0100F06F104038E
:1030200001D0326805E017F0400F326801D014B2C9
:1030300000E01446E5171E46002C75F1000080F2F2
:10304000C5802D23644265EB45058DF82F30BDE02A
:1030500017F0200F8DF82F2006F1040205D0049BF5
:103060003168D8170B60486004E0FB0604D533686C
:10307000049919601646D0E617F0400F326814BF65
:103080000498049906F1040314BF108011601E46D1
:10309000C3E647F0100717F0200308D0073626F0E4
:1030A000070303F10806D3E90045002385E017F084
:1030B000100106F1040200D006E017F0400303D02F
:1030C000348800251646F0E7316800250C46164680
:1030D00073E033683C4A1C4630238DF83030782347
:1030E000002547F002078DF831300436079263E07F
:1030F0003346D3F800A000200436BCF1000F8DF851
:103100002F00504610DB62460021CDF808C001F0C8
:103110007BF8DDF808C0002800F0F080CAEB00045E
:10312000644500F3EE80EDE0FFF731F90446E9E095
:1031300047F01007BD0607D5073626F0070303F151
:103140000806D3E900450DE017F0100F06F104035F
:1031500000D003E07C0601D5348801E032681446D3
:1031600000251E46012328E017488DF82F200790E0
:10317000B80607D5073626F0070202F10806D2E99D
:1031800000450DE017F0100F06F1040200D003E037
:10319000790601D5348801E031680C4600251646D1
:1031A000FA0709D554EA050106D030228DF83020FF
:1031B0008DF8313047F00207022300228DF82F20CE
:1031C00005E000BF76680800876808000123BCF1AD
:1031D000000FA8BF27F0800754EA050002D1BCF118
:1031E000000F6AD0012B1FD0022B47D00DF16703CF
:1031F0000720E10804EA000241EA4571E80830329C
:103200000C460546D2B254EA05019A461A7003F1FB
:10321000FF33EDD1F80751465AD5302A58D09A4697
:10322000302301F8013C53E0002D08BF0A2C05D2E1
:1032300030340DF1400A0AF8274F49E00DF16702DA
:103240000592204629460A220023CDF808C001F045
:1032500043FA059B303203F80129204629460A2209
:10326000DDF814A00593002301F036FA04460D465C
:1032700054EA0500DDF808C0E3D129E00DF167014B
:1032800005910F20002104EA000205EA0103CDE9BF
:1032900000230799009BDDF814A0CA181378504644
:1032A00000F80139230943EA05732A091C4615462B
:1032B00054EA05010590E4D10AE03BB9F90705D5C8
:1032C0000DF1400A30230AF8273F01E00DF1680AAA
:1032D0001AACCAEB0404CDF814C015E08DF82F2009
:1032E000002B00F07F8100228DF840308DF82F20D8
:1032F0000023012405930DF1400A05E06446059082
:1033000002E0644600230593059D9DF82F30AC42F2
:10331000A8BF254603B1013517F00203089318BF73
:10332000023517F0840309933CD10698431B002B08
:103330001EDC37E01022C8F804200F9AA74910328B
:103340000F920E9AC8F800100132072A0E9202DC82
:1033500008F108080BE0584649460DAA0293FFF70A
:103360001FF8029B002840F044810DF1D008103B6B
:10337000102BDFDC994A88E80C000F9AD3180F93C2
:103380000E9B0133072B0E9302DC08F1080809E0BD
:10339000584649460DAAFFF703F8002840F0298156
:1033A0000DF1D0089DF82F200DF12F03CAB1C8F8F8
:1033B00000300123C8F804300F9B01330F930E9B9C
:1033C0000133072B0E9302DC08F1080809E0584688
:1033D00049460DAAFEF7E4FF002840F00A810DF1EE
:1033E000D008089BD3B10CABC8F800300223C8F852
:1033F00004300F9B02330F930E9B0133072B0E9368
:1034000002DC08F1080809E0584649460DAAFEF713
:10341000C7FF002840F0ED800DF1D008099B802BFC
:103420003CD10698431B002B1EDC37E01022C8F865
:1034300004200F9A6A4910320F920E9AC8F80010B1
:103440000132072A0E9202DC08F108080BE0584608
:1034500049460DAA0293FEF7A3FF029B002840F005
:10346000C8800DF1D008103B102BDFDC5C4A88E8E7
:103470000C000F9AD3180F930E9B0133072B0E935A
:1034800002DC08F1080809E0584649460DAAFEF793
:1034900087FF002840F0AD800DF1D0080598031B90
:1034A000002B1EDC36E01022C8F804200F9A4C498D
:1034B00010320F920E9AC8F800100132072A0E92AD
:1034C00002DC08F108080BE0584649460DAA0293B1
:1034D000FEF766FF029B002840F08B800DF1D008BC
:1034E000103B102BDFDC3E4A88E80C000F9AD31803
:1034F0000F930E9B0133072B0E9302DC08F1080893
:1035000008E0584649460DAAFEF74AFF002870D148
:103510000DF1D0080F9BC8F804401C190E9BC8F889
:1035200000A00133072B0F940E9302DC08F108036F
:1035300007E0584649460DAAFEF732FF002858D149
:1035400034AB7A070AD4049B06988542ACBF5B195A
:103550001B1804930F9B002B33D037E006994F1BA9
:10356000002F16DCEFE70F9A83E8100110320F925C
:103570000E9A0132072A0E9201DC083307E0584602
:1035800049460DAAFEF70CFF002832D134AB103F9C
:1035900002E0124C4FF01008102FE4DC0F4A83E8D1
:1035A00084000F9BDF190E9B0F970133072B0E939F
:1035B000C9DD584649460DAAFEF7F2FE0028C2D0E2
:1035C00017E000220E920DF1D00826E45846494635
:1035D0000DAAFEF7E5FE0028F3D00AE0986808007F
:1035E000A86808000F9B23B1584649460DAAFEF76C
:1035F000D7FEB9F80C3003F040031BB2002B7FF468
:10360000C0AB049835B00DF5806DBDE8F08F30B5D6
:103610001346054A05460C46106829462246BDE871
:103620003040FFF77BBB00BFB000072038B52E4B02
:10363000054618680C4618B1836B0BB900F0B6F953
:10364000A38903F0080212B20ABB03F0100212B2FF
:1036500012B909222A603FE003F004031BB293B1C0
:10366000216B41B104F14003994202D0284600F099
:10367000D9FA00232363A38923F02403A381002321
:10368000636023692360A38943F00803A38123694E
:103690004BB9A38903F42073B3F5007F03D0284608
:1036A000214600F045FDA38913F0010205D0002357
:1036B000A36063695B42A36107E003F002031BB2EE
:1036C0000BB9636900E01346A360236953B9A3896A
:1036D00003F0800000B230B143F04003A3814FF00B
:1036E000FF3038BD002038BDB00007202DE9F84379
:1036F0009846234B06461C680F46D4F8480191466D
:1037000018B904F5A670C4F8480141681F2916DDF0
:103710001C4B1BB94FF0FF30BDE8F8834FF4C87065
:10372000FEF756FA0028F5D0D4F848110025456078
:103730000160C4F84801C0F88851C0F88C51B6B196
:103740004468012202FA04F2D0F8881100EB8403E5
:103750001143022EC3F88890C0F888111C46C3F8A4
:10376000088104D1D0F88C311A43C0F88C21436809
:103770009A1C013340F8227043600020BDE8F883B2
:1037800050680800D11B0800024B13B10248FEF735
:10379000BDB9704700000000191B080008B50620DD
:1037A00000F0C3FD0120FCF7DDFF00008A892DE950
:1037B000F04102F008031BB205460C46002B63D112
:1037C00042F400638B814B68002B03DCCB6B002B36
:1037D00000DC18E0A66AB6B102F48052002312B2EF
:1037E0002F682B600AB1226D10E001232846E169A1
:1037F000B0470246013009D12B683BB11D2B01D0E7
:10380000162B56D12F600020BDE8F081A38903F06C
:1038100004031BB22BB16368D21A236B0BB1E36BA9
:10382000D21AE1690023A66A2846B047411C05D197
:103830002B681BB11D2B01D0162B1FD1A38923F49C
:103840000062A2810022626003F4805322691BB2ED
:10385000226023B1421C01D12B6803B92065216B82
:103860002F600029CFD004F14003994202D02846AE
:1038700000F0D8F900202063BDE8F081A38943F06F
:103880004003A381BDE8F0810E69002EBBD00B6818
:103890000E60C6EB030893070CBF4B6900238B60D7
:1038A00012E0676A2846E16932464346B847002875
:1038B00007DCA3894FF0FF3043F04003A381BDE84C
:1038C000F0813618C0EB0808B8F1000FE9DC9AE780
:1038D00038B50C46054618B1836B0BB900F066F895
:1038E000B4F90C0028B128462146BDE83840FFF75E
:1038F0005DBF38BD014620B9044B0549186800F08A
:10390000B2BB044B1868FFF7E3BF00BF5068080064
:10391000D1380800B0000720002070470020704711
:10392000014900F082BB00BF3F460800002310B5EC
:10393000044603604360836081814366C281036102
:1039400043618361194600F15C000822FEF76EFBBB
:10395000044BE4612362044B6362044BA362044B97
:10396000E36210BD91430800B7430800F343080029
:103970001744080070B568254D430E4605F10C014B
:10398000FEF736F9044640B100F10C00002184E84E
:103990004200A0602A46FEF749FB204670BD024B5C
:1039A0001868FFF7BDBF00BF5068080038B5836BCB
:1039B0000446EBB90F4A0125C2630322C0F8E42292
:1039C00000F53B72C0F8E0328563C0F8E8220421BC
:1039D0001A464068FFF7AAFFA06809212A46FFF7A8
:1039E000A5FFE06812210222BDE83840FFF79EBF24
:1039F00038BD00BF21390800F8B51D4B07461E68C9
:103A0000B36B13B93046FFF7D1FF06F53876B468CB
:103A1000736803E0B4F90C508DB16834013BF9D5FB
:103A200033680BB13668F2E738460421FFF7A2FF8E
:103A300030600028F6D10C233B60044615E04FF6B9
:103A4000FF73E3810123A38165662560A56065603E
:103A500025616561A56104F15C0029460822FEF735
:103A6000E5FA256365636564A5642046F8BD00BF7B
:103A7000506808007047704770477047024B034911
:103A8000186800F0D2BA00BFB0000720193908004A
:103A9000024B0349186800F0C8BA00BFB000072005
:103AA0001D39080093892DE9F341144603F40052AF
:103AB00012B280460E4632B943F40053A381636EBE
:103AC00043F40053636600F015FB012806D12EB1C4
:103AD000FF2E03D88DF8046007460EE032464046BC
:103AE00001A904F15C0300F0F1FC421C074604D17B
:103AF000A38943F04003A38130E0002528E0A268B9
:103B000001AB013A002AA26019DAA1698A420CDBF2
:103B10005B5D22681370236819780A2903D001338A
:103B20000020236012E0404601E0595D40462246F5
:103B300000F076FCB0F1FF335842584106E02268AD
:103B40005B5D137023680133236000E020B9013509
:103B5000BD42D4D1304601E04FF0FF30BDE8FC81DA
:103B6000F8B5084C074620680E4618B1856B0DB9AC
:103B7000FFF71CFF206839463246BDE8F840FFF7E2
:103B800091BF00BFB0000720F8B5234D0E46044694
:103B9000FEF754FAAB685F6827F0030707F6EF7388
:103BA0009E1B26F47F6626F00F06A6F58056B6F516
:103BB000805F04DA2046FEF742FA0020F8BD0021BB
:103BC0002046FEF7C9FBAB68DB199842F2D171427F
:103BD0002046FEF7C1FB013010D100212046FEF740
:103BE000BBFBAB68C21A0F2AE4DD0C4942F00102AC
:103BF00009685A60401A0A490860DBE7AB68BF1BD6
:103C000047F001075F60064B20461A68961B1E604E
:103C1000FEF715FA0120F8BDE0040720E8080720A8
:103C2000340E0720F8B506460D46002900F0A580A1
:103C3000FEF704FA55F804CC504FA5F108032CF018
:103C400001029C18B96860688C4220F003000CF0F7
:103C500001011CD1821839B955F8081C5B1A986803
:103C60005218D968C160886042F001015960434927
:103C70008B60434B1B689A4204D3424B3046196811
:103C8000FFF782FF3046BDE8F840FEF7D8B9606024
:103C900059B955F8085C08375B1B52199D68BD423D
:103CA00005D0DF68EF60BD6002E0002100E0012187
:103CB00025186D6815F0010F0FD1121849B9A068C9
:103CC000314DA84205D1EB60AB60D860986001210E
:103CD00003E0E068A468E060846042F0010058609E
:103CE0009A500029CED1B2F5007F0CD2D2089010A4
:103CF000012404FA00F42149486801EBC202204380
:103D00004860916834E0540A042C02D8940938348D
:103D100016E0142C01D85B3412E0542C02D8140B9A
:103D20006E340DE0B4F5AA7F02D8D40B773407E0E7
:103D300040F254518C4202D8940C7C3400E07E2432
:103D40000E4D05EBC400816881420BD10122A41005
:103D500002FA04F46A6822436A600A4608E0896845
:103D6000814204D04C6824F00304A242F7D3CA680D
:103D7000DA6099609360CB6084E7F8BDE0040720C7
:103D8000EC080720300E0720E804072093682DE98F
:103D9000F74F80460C4691460BB9002043E18B89D2
:103DA00003F008031BB25BB10B694BB1B4F80CA074
:103DB000D9F800600AF0020C0FFA8CF363B928E01E
:103DC00040462146FFF732FC0028EFD029E1D6F823
:103DD00000A07768083602E04FF0000A5746002F2F
:103DE000F5D0B7F5806F34BF3B464FF48063404653
:103DF000E1695246656AA847002840F30E81D9F868
:103E0000083082443F1A181AC9F808000028E6D181
:103E1000C3E71AF0010A09D09B4601931F469A4650
:103E20009FE0D6F800A07568083600E05546002DE2
:103E3000F7D0A289D4F808B002F4007109B20029C1
:103E400053D05D4541D312F4906F3CD06369032099
:103E500043432169276802207F1A019793FBF0F7FB
:103E6000019802F48062431C5B1912B29F4238BF72
:103E70001F46404682B13946FDF7BAFE834600B977
:103E800013E0019A2169FEF7AFF8A28922F490624B
:103E900042F08002A2810CE03A46FEF7EFF883463A
:103EA00038B940462169FFF7BDFE0C23C8F8003041
:103EB000B3E0019A67610BEB0203BF1AC4F810B0BC
:103EC0002360AB46A7605D4500D2AB465A462068EA
:103ED0005146FEF792F8A268CBEB0202A26022687C
:103EE00002EB0B032360AB4629E020682269904275
:103EF0000ED95D450CD951465A46FEF77EF8226828
:103F000040465A4422602146FFF7E2FCB8B184E003
:103F100063699D4208D3676A4046E1695246B847E3
:103F2000B0F1000B0BDC78E02A465146FEF765F84D
:103F3000A268AB46521BA260226852192260D9F8CF
:103F40000820DA44CBEB0203CBEB0505C9F80830B7
:103F5000002B7FF46CAF20E7002596E880040195E4
:103F60000836BAF1000FF7D0019D75B938460A211D
:103F7000524600F049F920B100F1010CC7EB0C0BDF
:103F800001E00AF1010B0125019520682269D34562
:103F900034BF5B4653469042A568D4F814E00FD96D
:103FA0007544AB420CDD39462A46FEF726F82368F5
:103FB00040465B1923602146FFF78AFCC0B12CE024
:103FC000734508DB656A4046E1693A467346A8478F
:103FD000051E0DDC21E01A4639460093FEF70DF868
:103FE000009BA2681D46D21AA2602268D2182260E5
:103FF000BBEB050B06D140462146FFF769FC60B9D3
:10400000CDF804B0D9F808307F19C5EB0A0A5D1B5A
:10401000C9F80850002DA4D1BFE6A38943F040039E
:10402000A3814FF0FF30BDE8FE8F2DE9F0418846B7
:1040300000F53874002611E0A56867680BE0AB89CD
:1040400043B1012B06D9B5F90E30013302D0284611
:10405000C04706436835013FF1D52468002CEBD1F9
:104060003046BDE8F0812DE9F8438046894600F5E9
:104070003874002612E0A56867680CE0AB894BB184
:10408000012B07D9B5F90E30013303D0404629463C
:10409000C84706436835013FF0D52468002CEAD1B3
:1040A0003046BDE8F883000010B514460AB90C4844
:1040B00010BD10460B49FEF75FF90028F7D02046E7
:1040C0000749FEF759F90028F1D020460649FEF7C6
:1040D00053F9034B00280CBF1846002010BD00BF49
:1040E00054680800B86808004F6808000048704726
:1040F000F0080720014B186A704700BFF00807203E
:104100000048704714090720002070470048704796
:10411000340907200A460349034608681946FFF791
:10412000C3BF00BFB0000720004870473409072014
:10413000F0B58B8991B003F002031BB206460C4622
:1041400003B13FE0B1F90E1000290DDAA389002771
:1041500003F080052DB243F40063002D0CBF4FF433
:1041600080654025A38120E001AA00F06FFA0028B5
:10417000ECDB029B03F47043B3F500525742574106
:10418000B3F5004F0BD1A36A1D4A934207D1A3890F
:104190004FF4806543F48063A381E56405E0A3895F
:1041A0004FF4806543F40063A38130462946FDF750
:1041B0001FFD70B9A38903F4007212B2EAB943F08B
:1041C0000203A38104F1430323602361012363619C
:1041D00013E00C4BF363A389206043F08003A381B9
:1041E000206165614FB13046B4F90E1000F040FA1D
:1041F00018B1A38943F00103A38111B0F0BD00BF42
:10420000F34308002139080010B5C9B203468218EB
:1042100003E0047801338C4203D093421846F8D16E
:10422000002010BD38B5D0F8DC5204460DB1002096
:1042300038BD8021FDF7DCFCC4F8DC0240B12B4620
:104240002946D4F8DC22D1500433802BF9D1EEE793
:104250004FF0FF3038BD1F2970B504460D46164695
:1042600002D9162303600DE0D0F8DC3233B1D4F864
:10427000DC3253F8250043F8256070BDFFF7D2FF0C
:104280000028F4D04FF0FF3070BD1F2938B5054627
:104290000C4604D9162303604FF0FF3038BDD0F828
:1042A000DC2212B152F821304BB9284600F06EF8EA
:1042B000224601462846BDE8384000F055B8012B9B
:1042C0000AD0591C03D116230360012038BD0025F4
:1042D00042F8245020469847002038BD1F2938B5A1
:1042E00005460C4602D94FF0FF3038BDD0F8DC321D
:1042F0002BB1D5F8DC2252F824302BB90FE0FFF7B0
:1043000091FF0028F5D0EEE7581C0AD0012B0AD007
:104310000025204642F824509847284638BD012001
:1043200038BD022038BD032038BD024B0146186855
:10433000FFF7ABBFB00007200A46034903460868F1
:104340001946FFF788BF00BFB0000720014B18686F
:10435000FFF768BFB0000720024B01461868FFF75F
:10436000BDBF00BFB000072038B5074C002305468D
:10437000084611462360FCF701FA431C02D123686A
:1043800003B12B6038BD00BF640E0720FCF7F8B9FD
:1043900010B50C46B1F90E1000F08CF9002803DBC3
:1043A000236D1B18236510BDA38923F48053A381BB
:1043B00010BD002070472DE9F0411D468B8907464E
:1043C00003F480731BB20C4616462BB1B1F90E10E4
:1043D0000022022300F05CF9A389B4F90E1023F443
:1043E0008053A381384632462B46BDE8F04100F0A9
:1043F000C3B810B50C46B1F90E1000F049F9431CD2
:10440000A38903D123F48053A38110BD43F48053C7
:10441000A381206510BDB1F90E1000F0BFB80000F7
:1044200070B50E461446054618B1836B0BB9FFF7FD
:10443000BDFAA369A360A38903F008031BB243B1CB
:10444000236933B1A389F6B203F4005212B24AB120
:104450000FE028462146FFF7E9F80028F2D04FF098
:10446000FF3628E043F40053A381636E23F4005326
:10447000636623692068C01A6369984205DB284691
:104480002146FFF725FA0028E9D1A3680130013B56
:10449000A360236803F8016B23606369984204D02A
:1044A000A389DB0707D50A2E05D128462146FFF749
:1044B0000FFA0028D3D1304670BD0A4602490346A0
:1044C00008681946FFF7ACBFB00007202DE9F0419E
:1044D0001D46104B86B0044690460E461F6839B9FB
:1044E000FFF704FE0095034603A92046324606E086
:1044F000FFF7FCFD00950346314620464246B8478B
:10450000431C03D100232B608A23236006B0BDE83F
:10451000F08100BF6C09072030B51346044A0546F8
:104520000C46106829462246BDE83040FFF7CEBF52
:10453000B000072049B1FF2A04D98A2303604FF055
:10454000FF3070470A7001207047084670472DE918
:10455000F3419846074B05460F4616461C68FFF781
:10456000C5FDCDF800800346394628463246A047AF
:10457000BDE8FC816C09072038B5074C05460020D2
:104580002060084611461A46FCF7D4F8431C02D1B5
:10459000236803B12B6038BD640E072038B5064C84
:1045A0000023054608462360FCF7AEF8431C02D101
:1045B000236803B12B6038BD640E072070B5054633
:1045C0000C4609B9002638E018B1836B0BB9FFF728
:1045D000EDF9B4F90C30002BF4D028462146FFF752
:1045E00077F9E36A06463BB12846E169984736EA1F
:1045F000200628BF4FF0FF36A38903F080031BB2CB
:104600001BB128462169FFF70DFB216B41B104F175
:104610004003994202D02846FFF704FB002323639E
:10462000616C21B12846FFF7FDFA00236364FFF7B0
:1046300021FA0023A381FFF71EFA304670BD024B1A
:1046400001461868FFF7BABFB000072038B5074C1D
:1046500000230546084611462360FCF759F8431C21
:1046600002D1236803B12B6038BD00BF640E072060
:1046700038B5064C0023054608462360FCF74EF883
:10468000431C02D1236803B12B6038BD640E0720A0
:1046900038B5074C054600202060084611461A46EA
:1046A000FCF740F8431C02D1236803B12B6038BDEE
:1046B000640E072038B5074C0546002020600846E8
:1046C00011461A46FCF732F8431C02D1236803B1A5
:1046D0002B6038BD640E07204BB942B9002908BFD2
:1046E000002802D04FF0FF31084600F03BB882B0FE
:1046F000EC462DE9005000F01DF8DDF804E002B0B2
:104700000CBC70472DE9F0411646984604460D460C
:1047100000F02AF806FB01FCA6FB002300FB08C7FB
:10472000FB18A21A65EB0303069CC4E90023BDE84D
:10473000F08100BF2DE9F041904606460F461D4628
:1047400000F076F900FB05F3A0FB084508FB0138F3
:10475000069B4544341B67EB0505C3E90045BDE8EE
:10476000F08100BF704700BF2DE9F00F0024002941
:104770001D46C0F20681002DC0F2FE8080460F4625
:1047800094461E46DBBB8A4248D9B2FA82F343B153
:10479000C3F1200520FA05F501FA03F19A4098408B
:1047A0002943150CB1FBF5F61FFA82FC05FB161127
:1047B0000CFB06F7030C43EA01439F4208D9711E24
:1047C0009B1880F028819F4240F22581023E9B1871
:1047D000DB1BB3FBF5F105FB11330CFB01FC80B2D5
:1047E00040EA0340844506D94B1E821802D20239A2
:1047F000944500D8194641EA0641002503E08B4262
:1048000044D9002529460A462B4614B1524263EB8F
:10481000430310461946BDE8F00F704712B9012353
:10482000B3FBF2F2B2FA82F6002E40F0B080891AA1
:10483000130C1FFA82FC0125B1FBF3F703FB1711E0
:104840000CFB07F84FEA104949EA0146B04506D982
:10485000791EB61802D2B04500F2E7800F46C8EBC9
:104860000606B6FBF3F103FB11630CFB01FC80B2FF
:1048700040EA03439C4506D94E1E9B1802D20239DA
:104880009C4500D8314641EA0741BCE7B3FA83F5BD
:10489000002D00F0B980C5F1200103FA05F622FAD7
:1048A00001F327FA01F207FA05F720FA01F11E4396
:1048B0004FEA1648B2FBF8F91FFA86FA08FB1922EC
:1048C0000AFB09FB0F433B0C43EA024293450CFAF7
:1048D00005FC0BD9921909F1FF3380F0A2809345B2
:1048E00084BFA9F10209921940F29B80CBEB02022E
:1048F000B2FBF8F108FB11220AFB01FABFB247EA4A
:1049000002439A4508D94A1E9B1980F086809A4531
:1049100040F2838002399B1941EA09410F0C1FFACA
:104920008CF808FB07F68AB24FEA1C4C08FB02F829
:104930000CFB02620CFB07FC02EB1842964288BF9C
:104940000CF5803CCAEB03030CEB124C634510D30F
:1049500000FA05F51FFA88F814BF0023012308EBBD
:10496000024295422CBF002503F00105002D3FF4C3
:104970004AAF0139002546E7E443524263EB430363
:10498000FCE6404261EB41014FF0FF34F3E6B240F8
:10499000C6F1200921FA09F720FA09F901FA06F10E
:1049A000130CB7FBF3F81FFA82FC03FB18770CFB20
:1049B00008F549EA01094FEA194141EA0747B040C1
:1049C000BD4209D9BF1808F1FF312CD2BD4284BFC6
:1049D000A8F10208BF1826D97F1BB7FBF3F503FB2C
:1049E00015710CFB05F61FFA89F949EA01418E425F
:1049F00006D96F1E891812D28E4210D9023D89182D
:104A0000891B45EA084517E70121BB4228BF8242BE
:104A10007FF6F9AEF5E60E46DAE611467CE73D464E
:104A2000EEE7994662E78846D6E7023FB61816E7F2
:104A30002DE9F003144605460E46DBBB8A4246D9F3
:104A4000B2FA82F343B1C3F1200220FA02F201FA72
:104A500003F69C409D401643230CB6FBF3F1A7B22E
:104A600003FB116607FB01F2280C40EA0646B2423E
:104A700008D9481E361980F00F81B24240F20C81ED
:104A800002393619B61AB6FBF3F203FB126307FBC1
:104A900002F7ADB245EA03439F4207D9501E1B19E6
:104AA00080F0F880023A9F4240F2F48042EA0140EE
:104AB000002146E08B4242D8B3FA83F4002C43D164
:104AC0008B4228BF82423AD82146012039E012B9F0
:104AD0000123B3FBF2F4B4FA84F2002A40F09B8085
:104AE0000A1B230CA7B20121B2FBF3F603FB16222B
:104AF00007FB06F04FEA154C4CEA0242904207D9F8
:104B0000121906F1FF3C02D2904200F2DC806646A8
:104B1000121AB2FBF3F003FB102307FB00F7ADB250
:104B200045EA03439F4207D9421E1B1980F0B68015
:104B300002389F4240F2B28040EA064001E0002184
:104B40000846BDE8F0037047C4F1200722FA07FCCD
:104B500003FA04F321FA07F620FA07F501FA04F143
:104B60004CEA03031F0CB6FBF7F81FFA83F907FBA7
:104B7000186609FB08FC29430D0C45EA0646B445B6
:104B800002FA04F205D9F61808F1FF35C0F08F805B
:104B9000A846CCEB0606B6FBF7FC07FB1C6609FB38
:104BA0000CF989B241EA0645A94504D9ED180CF182
:104BB000FF3175D38C464CEA084C97B24FEA1C463D
:104BC00007FB06F1120C1FFA8CF307FB03F702FB3D
:104BD000031302FB06F203EB1743994288BF02F569
:104BE0008032C9EB050502EB134295420FD300FA60
:104BF00004F1BFB214BF0022012207EB0343994224
:104C00002CBF002102F001016046002999D00CF16F
:104C1000FF30002195E79440C2F1200321FA03F60A
:104C200020FA03F901FA02F1230CB6FBF3FCA7B258
:104C300003FB1C6607FB0CF849EA01094FEA19411E
:104C400041EA0646B04500FA02F509D936190CF1D9
:104C5000FF3234D2B04584BFACF1020C36192ED9E4
:104C6000C8EB0606B6FBF3F003FB106207FB00F887
:104C70001FFA89F949EA0242904506D9411E1219E4
:104C80001FD290451DD902381219C8EB020240EA22
:104C90000C4129E7024609E70146F3E610464BE7D7
:104CA000A94584BFACF1020CED1884D882E7B44565
:104CB00084BFA8F10208F6183FF66BAF68E7944688
:104CC000CEE70846E1E7023E121921E703685A00E1
:104CD0004CBF43F0004323F00043C018704700BFAF
:104CE0002DE9F04F064683B0914611B30139019189
:104CF0008846002707EB080404EBD474641006EB25
:104D0000C40B5846FFF7E2FF019B651CA342824695
:104D100006EBC50015D0FFF7D9FF0138CA4504D905
:104D2000BC420BD004F1FF38E4E7484502D22F46DD
:104D3000E0E78B46584603B0BDE8F08F4FF0000B1C
:104D4000F8E7CA45ECD8F5E7012807D0022807D0D4
:104D5000044B00280CBF18460020704702487047DB
:104D600002487047E9530800E1530800D95308008E
:104D7000036810B50446D80706D4990704F1480023
:104D800009D500F0B5FC23685A0709D518070ED5D8
:104D9000D90613D510BD00F0A3FC23685A07F5D43B
:104DA00004F1D00000F0ACFC23681807F0D404F53F
:104DB000D87000F0ADFC2368D906EBD404F50C7074
:104DC000BDE8104000F0E8BC30B5254B83B0044688
:104DD0008D1E002B3CD0284601A9AFF3008003466E
:104DE000002B21D02A460199FFF77AFF0546F0B142
:104DF000FFF76CFF6B68A064012B11D0281D002BFE
:104E000022DBFFF763FF0023E06423650368002BC8
:104E100010DBFFF75BFF00232061184603B030BDB5
:104E2000002323610523F8E723610923F5E72061C7
:104E30000923F2E7C3F30360FFF786FF2061002830
:104E40000CBF09230023E8E70123E0642365DDE7C5
:104E5000044B054A1846D31ADB100193C2E700BF82
:104E6000000000001C690800F4690800036803B131
:104E70001B181846704700BF09207047704700BFD5
:104E80002DE9F047ADF5916D03AD0C1D06461746B3
:104E90000FCC0FC50FCC0FC50FCC0FC594E80F007A
:104EA00002ACD6F80C80D6F8189085E80F000023E5
:104EB0003046216C23609F4214BF0A270927FFF761
:104EC00083FF054695B1A36B3246636401208DE8EC
:104ED000100247F010013346C047002818BF0925CB
:104EE000284622B00DF5806DBDE8F087236C214681
:104EF0004FF41072736192A8FDF776F8314692AACA
:104F0000336938469847A09B824600940120636429
:104F10003946CDF8049032463346C04790B9204612
:104F200092A94FF41072FDF75FF8BAF1080F06D19D
:104F30003046216CFFF748FF09270546C2E7BAF162
:104F4000070F01D00925CBE72846216CFFF796FF14
:104F500003A800F0B9FB00BF70B504460D4620461B
:104F6000296CFFF731FF064650B92A6C01206261B7
:104F7000236921462A4698470828F0D0072801D0FF
:104F8000FEF70CFC3046296CFFF778FF281D00F077
:104F90009BFB00BF406C7047F0B5CB6BADF5117D4E
:104FA0000B6401AC0D1D0F4606460FCD0FC40FCD8F
:104FB0000FC40FCD0FC495E80F0084E80F004FF029
:104FC000FF33009330461099FFF7FEFE58B933695E
:104FD00031466A46984708280446F3D06846FFF7EA
:104FE000C7FE062C03D009200DF5117DF0BD30461B
:104FF0003946FFF7B1FF00BF30B4DD6B0446C16036
:105000008261194600221D6430BCFFF739BF00BF22
:1050100070B54369C66804460D460B6426B101228B
:10502000FFF72EFFFEF7BAFB0369214602202A464E
:105030009847072803D0082808D0FEF7AFFB304672
:10504000296CFFF71BFF281D00F03EFB2046294678
:10505000FFF782FFC26810B42AB1CC6B00220C6447
:1050600010BCFFF70DBF10BCFFF796BF704700BF25
:1050700008B5836801460BB10120984708BD00BF01
:1050800079B90F2A98BF002B0CBF0023012301BF61
:1050900000EB820252681846009B0CBF1A60022087
:1050A000704704298CBF02200120704700B585B0ED
:1050B0000A4603AB002100930B46FFF7E1FF03987C
:1050C00005B000BD79B90F2A98BF002B02BF009927
:1050D00000EB820209680CBF0023012306BF1846BB
:1050E00051600220704704298CBF022001207047C4
:1050F00010B584B004AB0C4643F8042D0021009396
:1051000022460B46FFF7DEFF04B010BD2DE9F04F3D
:10511000CE6C0C4656F8041B8BB01D46174600F0AB
:10512000030807910896E3B909028DF82530032397
:1051300007918DF82430236DB8F1020F08BFA66BDC
:1051400013F001031BD000220192022D40F3B38023
:10515000FFF792FE002800F0B58009200BB0BDE8F3
:10516000F08F022BE7DC0B0CDAB209048DF8253046
:10517000022307918DF8243006EB8206DBE700F06E
:10518000080004F15802C0B2019302920390AA46AB
:105190003568002D00F0FB80BAF1020F00F0878027
:1051A0003588B6F802900436A36C0F2129F0010B64
:1051B00038469B44FFF77AFF83451AD825F0010350
:1051C0009B4409F0010905F00105584545EA4905E8
:1051D0002CBF00200120012D14D02ED2B8F1000FD9
:1051E0000CBF002000F00100002840F0BD80043614
:1051F000CEE709F0010905F0010545EA490500205F
:10520000012DEAD1B8F1000F71D1A0B173683568F2
:105210009A1CA2D0029A0133069200F09B80301DA6
:10522000FFF724FEEA0F014606AB2046AFF30080ED
:10523000002840F0BF800836AAE7022D8DD13368E0
:1052400023F00045B8F1000F6AD150B3039A002A49
:1052500018BF002D25D1002D00F09C8006F1040B15
:10526000C1460496CDF81480029ED84603E0AB45B3
:10527000D94600F08E8040460696FFF7F7FD0022E3
:10528000014606AB2046AFF3008009F1010B08F19F
:1052900004080028EBD04D45049EDDF8148079D039
:1052A0003368002B54DB013506EB850670E7D6F832
:1052B0000490083678E7384607A900F001FB00287B
:1052C0007FF44BAF019B0820002B3FF447AF0F2129
:1052D0003846FFF7EBFE0E2102463846FFF708FF7F
:1052E00038460F213B4AFFF703FF072036E70D2121
:1052F0003846256AFFF7DAFE85429CD1A36A9E42B2
:1053000099D13046FFF7E2FC0F2102463846FFF7FD
:10531000EFFE384600212246FFF7EAFE07201DE790
:105320000D213846D4F82090FFF7C0FE8145B7D153
:10533000A36A9E42B4D10022331DE2620422A56218
:10534000226363633368002B2EDB01230193AAE7FA
:105350000436A8E738460D21FFF7A8FE2062069B19
:105360006362A6620620F9E63046FFF7AFFC04361A
:105370000546A6632046AFF3008000283FF4EDAE5B
:1053800038460F212A46FFF7B3FE0720E6E65546CA
:10539000DBE6049E38460D21FFF788FE069B20625F
:1053A0006362A6620620D9E605F10100A94606EB74
:1053B0008000A7E703460D2138460093FFF776FEED
:1053C000009B2062022BCAD1069A234643F82C2F59
:1053D0006362C6E7000000000223FFF797BE00BF2C
:1053E0000123FFF793BE00BF0023FFF78FBE00BF6E
:1053F000F0B5D36BADF5277D136417AC151D0746CB
:105400000E460FCD0FC40FCD0FC40FCD0FC495E8BE
:105410000F0084E80F004FF0FF331693269968467B
:10542000FFF7D2FC6A460C21B8B916A8FFF760FE58
:10543000314616A8B847694616AA70B90820049BD9
:105440009847092818BF05280446E7D116A8FFF792
:105450008FFC20460DF5277DF0BD0924F6E700BF3F
:105460002DE9F0410446E8B0042907D8DFE801F04F
:105470002C4644030A00032B00F0C380022068B0CE
:10548000BDE8F081102A98BF002BF7D12368D90618
:1054900000F1DB8002A8019200F088F9A06B019A6C
:1054A0000023012505FA03F111421EBF50F8041B29
:1054B00002AE46F823100133042BF3D1A06302A8F7
:1054C00000F06AF90020DAE7002BD7D1A56B96B27D
:1054D000012000FA03F131421EBF55F8047B04EBB2
:1054E00083014F600133102BF3D112F4005008BF39
:1054F000A563C4D00020C2E70120C0E703F0FB0190
:105500000129BBD1150C96B27219012B14BF2021B1
:1055100010219142B2D3B3F1010CDCF1000757EB3B
:105520000C070F2D94BF002101213942A6D1B046AE
:1055300021B9102A40F2AB80A2F11008B8F1000F97
:1055400018BF052B9AD10F2D0FD82268D0070CD584
:1055500022F00101052B2160204600F0AE8022F0F0
:10556000030240F8482B00F0BFF8B8F1000F02D05A
:10557000236859077BD4002F40F098800F2D6ED9F7
:10558000B8F1000F40F08C80A06B002E014610DDBA
:1055900046AA4FEA460C02EBC5060CF1FF31334632
:1055A0009A1B1258013943F8042B4A1CF8D100EB1E
:1055B0008C01B8F1000F16D068AB102D2CBF2E4611
:1055C000102603EBC6064FEA480CA6F502760CF14E
:1055D000FF33081F50F8042F013B46F8042B5A1CD8
:1055E000F8D101EB8C01002F53D10F2DA1633AD9D3
:1055F000B8F1000F3FF47EAF06A800F081F800205C
:105600003DE7150C96B27319102B3FF637AF2368A0
:10561000180734D426A800F09DF8A06B26AA7600BF
:1056200002EBC5050346721E4EB12B46591B0958A5
:10563000013A43F8041B511CF8D100EB860326A85D
:10564000A36300F065F8002019E723F0100323603E
:1056500004F50C70019200F0A9F8019A1AE746A827
:1056600000F04AF88CE746A800F042F8C0E7204670
:1056700023F0040340F8D03B00F046F87BE723F02A
:105680000803236004F5D87000F064F8C2E7884688
:1056900059E7043146A8A16300F022F80020EEE6A5
:1056A00006A800F031F8C5F110066DE746A800F035
:1056B0001BF8B8F1000FF6D166E741F0020140F89F
:1056C000481B00F019F850E700F1340191E8380068
:1056D0009C46A6464CF8045D90E8FF0FE54600BDE9
:1056E00090EC210B704700BF80EC210B704700BF8E
:1056F00090EC200B704700BF80EC200B704700BF80
:10570000D0EC200B704700BFC0EC200B704700BFEF
:10571000F0EC0201F0EC0211F0EC0221F0EC0231AD
:10572000F0EC0241F0EC0251F0EC0261F0EC02719D
:10573000F0EC0281F0EC0291F0EC02A1F0EC02B18D
:10574000F0EC02C1F0EC02D1F0EC02E1F0EC02F17D
:10575000704700BFE0EC0201E0EC0211E0EC022136
:10576000E0EC0231E0EC0241E0EC0251E0EC0261DD
:10577000E0EC0271E0EC0281E0EC0291E0EC02A1CD
:10578000E0EC02B1E0EC02C1E0EC02D1E0EC02E1BD
:10579000E0EC02F1704700BFB0FC0181B0FC019168
:1057A000B0FC01A1B0FC01B1704700BFA0FC0181B9
:1057B000A0FC0191A0FC01A1A0FC01B1704700BFB9
:1057C000EC4600B52DE900502DE9FF1F4FF0000316
:1057D0002DE90C0001A9FFF7DFFBDDF840E012B076
:1057E000704700BFEC4600B52DE900502DE9FF1FC2
:1057F0004FF000032DE90C0001A9FFF709FCDDF8CB
:1058000040E012B0704700BFEC4600B52DE90050F3
:105810002DE9FF1F4FF000032DE90C0001A9FFF750
:1058200019FCDDF840E012B0704700BFEC4600B54F
:105830002DE900502DE9FF1F4FF000032DE90C006A
:1058400001ABFFF7D9FBDDF840E012B0704700BFB5
:10585000EC4600B52DE900502DE9FF1F4FF0000385
:105860002DE90C0001AAFFF7C3FDDDF840E012B0FE
:10587000704700BF027A03461AB9427A42B9B02093
:105880007047013A00681A7202021A60000E7047EF
:105890004168013A427251F8040B032259601A72AE
:1058A000F2E700BF00B585B0002103AB00930C22E6
:1058B0000B46FFF7E5FB039805B000BDFFF7F2BF0D
:1058C0002DE9F043064685B00D464FF00008284606
:1058D000FFF7D0FFB028044600F0BE8020F07F0222
:1058E000D1B201B300F0F002802A79D0902A3AD0E8
:1058F000A02A46D0B02A5AD0C02A00F0898000F0F1
:10590000F803D02B0BD100F00704621C30460121B4
:1059100042F400220523FFF7A3FD0028D7D0092079
:1059200005B0BDE8F0834FEA800903AF04F04004FE
:105930000B465FFA89F9009730460D22E4B2FFF773
:105940009FFB09F10409039B4CB94B4403930021CD
:10595000009730460D220B46FFF7B4FBB7E7C9EBC3
:1059600003030393F3E700F00D030D2BD7D003AF30
:10597000002100F00F020B4600973046FFF780FB36
:10598000E5E7C2434FF47F6302F0070243FA02F2F5
:1059900000F00804E4B21A400CB142F48042002145
:1059A00030460B46FFF75CFD0028B8D18FE7B128E1
:1059B00076D0B22800F08780B32800F0B68000F0DF
:1059C000FC03B42B5ED000F0070201320121304607
:1059D00042F400220B46FFF743FD00289FD176E7F3
:1059E0002846FFF747FF24020443B4F5004F96D042
:1059F000220500213046120C0B462401FFF730FD32
:105A000000288CD114F4004F18BF4FF001085EE756
:105A1000C62800F09D80C72800F0A48000F0F8039D
:105A2000C02B00F0B280C82800F0BD80C9287FF4E8
:105A300076AF2846FFF71EFF00F00F03013300F09A
:105A4000F00243EA0232304601210523FFF708FD48
:105A500000287FF464AF3AE70020B8F1000F7FF42C
:105A60005FAF03AC41460E22434600943046FFF739
:105A700007FB0094304641460F224346FFF722FBC6
:105A800040464DE700F0030201320221304642F465
:105A900080220B46FFF7E4FC00287FF440AF16E7B6
:105AA0002846FFF7E7FE024600283FF438AF10F023
:105AB000F0017FF434AF30460B46FFF7D1FC0028ED
:105AC0007FF42DAF03E7002103AF0D220B460097B3
:105AD0003046FFF7D5FA2846FFF7CCFE20F07F03CB
