:0200000280007C
:10000000482E0720C90D0800A5010800A501080019
:10001000A5010800A5010800A501080000000000D6
:10002000000000000000000000000000A90108001E
:10003000A501080000000000B9010800C90108007E
:10004000A5010800A5010800A5010800A5010800F8
:10005000A5010800A5010800A5010800A5010800E8
:1000600029150800A501080000000000510B080038
:10007000890B0800C10B0800F90B08000000000004
:10008000000000004115080059150800A5010800EE
:1000900071150800A5010800A5010800A5010800C8
:1000A000A501080000000000A5010800A501080046
:1000B000A5010800A5010800B1100800A50108006D
:1000C000A5010800A5010800A5010800A501080078
:1000D000A5010800A5010800A5010800A501080068
:1000E00035140800A5010800A5010800A5010800B5
:1000F000A501080008B50548054B1B1A062B00D8BA
:1001000008BD044B002BFBD09847F9E70C2D0800E5
:100110000F2D08000000000008B50748074B1B1A08
:100120009B1003EBD373591000D108BD044A002A79
:10013000FBD09047F9E700BF0C2D08000C2D0800FC
:100140000000000010B5064C237843B9FFF7D2FF3A
:10015000044B13B10448AFF300800123237010BD9A
:10016000F0080720000000000C2D080008B5084B1F
:100170001BB108480849AFF300800848036813B171
:10018000074B03B19847BDE80840FFF7C5BF00BF64
:10019000000000000C2D0800F40807200C2D0800BA
:1001A00000000000FEE700BF08B540F20123C0F2E6
:1001B0000803984708BD00BF08B540F20123C0F20C
:1001C0000803984708BD00BF08B540F2F913C0F214
:1001D0000803984748B940F21163C0F208039847F2
:1001E00041F21543C0F20803984708BD80B400AF40
:1001F000FEE700BF704700BF4FF00000704700BF30
:10020000FEE700BF80B483B000AF78607B68044A2B
:100210001A607B68184607F10C07BD4680BC704722
:10022000B021080080B582B000AF7860F970BA7074
:100230007B707B68184640F20523C0F2080398479C
:100240007B680A4A1A607B68FA781A717B68BA7808
:100250005A717B687A789A717B683A7CDA717B682C
:10026000184607F10807BD4680BD00BF8821080079
:1002700080B584B000AF786039604FF00003FB6058
:100280004FF00003BB6020E07A68BB68D3181B798D
:10029000386819464FF00A0240F2F943C0F20803E9
:1002A00098470346FA68D318FB6038684FF02E0170
:1002B00040F2D143C0F2080398470346FA68D318C6
:1002C000FB60BB6803F10103BB60BB68022BCCBFC2
:1002D00000230123DBB2002BD6D17B68DB793868A1
:1002E00019464FF00A0240F2F943C0F2080398475A
:1002F0000346FA68D318FB60FB68184607F110073D
:10030000BD4680BD90B585B002AF786039607B682E
:10031000012B16D13A684FF6FF739A4211D14FF074
:100320000003009340F60C10C2F207004FF00001EA
:100330004FF000024FF0000340F22524C0F2080401
:10034000A04707F10C07BD4690BD00BF80B500AFC8
:100350004FF001004FF6FF7140F20533C0F2080381
:10036000984780BD80B500AF40F2A003C2F20703FA
:100370001B6818464FF0010140F67D43C0F20803A8
:10038000984741F25143C0F20803984780BD00BF2F
:1003900080B500AF40F2A003C2F207031B68184605
:1003A0004FF0010140F65D53C0F2080398474FF447
:1003B000FA7040F63143C0F20803984740F2A003B8
:1003C000C2F207031B6818464FF0000140F65D5368
:1003D000C0F2080398474FF4FA7040F63143C0F278
:1003E0000803984780BD00BF80B500AF41F2895334
:1003F000C0F2080398474FF0010040F63143C0F2C5
:100400000803984740F26533C0F20803984700E0BC
:1004100000BF40F29133C0F20803984740F2000356
:10042000C0F20003002BF3D040F20003C0F200033F
:100430009847EDE790B583B000AF786039603B68CE
:10044000002B02D14FF0000310E07B681B6803F122
:1004500004031C68386841F6B963C0F20803984782
:100460000346786839681A46A0470346184607F1DC
:100470000C07BD4690BD00BF80B586B000AFF860E8
:10048000B9607A604FF000037B610FE0FB681B6886
:100490001B68BA681278B96801F10101B960F8689F
:1004A0001146984703467A69D3187B617B68002B15
:1004B0000CBF00230123DBB27A6802F1FF327A60BD
:1004C000002BE3D17B69184607F11807BD4680BDB4
:1004D00080B582B000AF78600B46FB707B681B680C
:1004E0001B68FA787868114698470346184607F162
:1004F0000807BD4680BD00BF80B584B000AFF8607E
:100500000B467A60FB72FB7AF86819467A6840F20B
:100510002553C0F2080398470346184607F1100711
:10052000BD4680BD80B584B000AFF860B9607A6028
:100530007B68002B09D1FB681B681B68BA68D2B2C4
:10054000F8681146984703460AE07B68DBB2F86812
:10055000B9681A4640F26D53C0F208039847034643
:10056000184607F11007BD4680BD00BF80B590B0AA
:1005700000AFF860B9601346FB7107F1140303F193
:100580002003FB63FB6B4FF000021A70FB79012B19
:1005900002D84FF00A03FB71BB68BB63FB79BA68F2
:1005A000B2FBF3F3BB60BB6BDAB2BB68DBB2F979C9
:1005B00001FB03F3DBB2D31A87F83730FB6B03F18F
:1005C000FF33FB6397F83730092B05D897F837309E
:1005D00003F13003DBB204E097F8373003F137035F
:1005E000DBB2FA6B1370BB68002B0CBF0023012336
:1005F000DBB2002BD0D1F868F96B40F23543C0F282
:10060000080398470346184607F14007BD4680BDDA
:1006100080B500AF40F2A403C2F207031B68B3F138
:10062000FF3F18D040F2A403C2F207031B6803F196
:10063000FF3240F2A403C2F207031A6040F2A4039F
:10064000C2F207031B68002B06D140F20103C2F27D
:100650000703984700E000BF80BD00BF80B582B0AF
:1006600000AF78607B6818464FF000014FF0400201
:1006700041F68563C0F2080398477B684FF000029B
:100680001A647B684FF000025A647B68184607F1D1
:100690000807BD4680BD00BF80B485B000AF78605C
:1006A0000B46FB707B681B6C03F1010303F03F03F7
:1006B000FB607B685A6CFB689A4207D07B681B6CB6
:1006C0007A68F978D1547B68FA681A6407F11407DC
:1006D000BD4680BC704700BF40F61413C2F207034A
:1006E0001B6843B940F61413C2F2070342F648628E
:1006F000C2F207021A6040F61413C2F207031A6826
:10070000101818601046704780B483B000AF78604E
:100710007B68064A1A607B684FF000025A607B686B
:10072000184607F10C07BD4680BC7047D021080071
:1007300080B582B000AF78607B68184640F20973DC
:10074000C0F2080398477B68054A1A607B684FF43B
:100750007A729A607B68184607F10807BD4680BD2B
:100760005022080080B483B000AF78604FF00103DE
:10077000184607F10C07BD4680BC704780B582B0B3
:1007800000AF78607B68184640F23173C0F208030E
:1007900098477B68034A1A607B68184607F1080788
:1007A000BD4680BD2822080080B584B000AFF86047
:1007B000B9603B601346FB71FB68184640F27D73DD
:1007C000C0F208039847FB68094A1A60FB68BA69D7
:1007D0001A61FB68BA685A61FB68FA791A76FB6895
:1007E0003A68DA61FB68184607F11007BD4680BD1C
:1007F0000022080080B483B000AF78607B681B697A
:100800001B6C03F140027B681B695B6CD31A03F01D
:100810003F03184607F10C07BD4680BC704700BF78
:1008200080B483B000AF78607B681B691A6C7B680A
:100830001B695B6C9A4202D14FF0FF3305E07B6885
:100840001A697B681B695B6CD35C184607F10C075F
:10085000BD4680BC704700BF80B485B000AF7860F3
:100860007B681B691A6C7B681B695B6C9A4202D1BE
:100870004FF0FF3311E07B681A697B681B695B6C82
:10088000D35CFB737B681B697A681269526C02F156
:10089000010202F03F025A64FB7B184607F114077D
:1008A000BD4680BC704700BF80B483B000AF7860A5
:1008B0007B685B695B6903F00203002B14BF0023B4
:1008C0000123DBB2002BF3D107F10C07BD4680BC3E
:1008D000704700BF80B483B000AF78600B46FB70F8
:1008E0007B685B695B6903F00203002B14BF002384
:1008F0000123DBB2002BF3D17B685B69FA78DA6104
:100900004FF00103184607F10C07BD4680BC704745
:1009100080B584B000AF78607B685B695B69FB6021
:10092000FB6803F00103002B0CD07B681A697B681D
:100930005B699B69DBB21046194640F29963C0F2CD
:1009400008039847FB6803F02003002B04D1FB68E1
:1009500003F04003002B07D07B685B697A6852691B
:10096000126842F480721A6007F11007BD4680BD1C
:1009700080B483B000AF78604FF00103184607F1F0
:100980000C07BD4680BC704780B584B000AFF860EE
:10099000B9603B601346FB71FB68184640F27D73FB
:1009A000C0F208039847FB68094A1A60FB68BA69F5
:1009B0001A61FB68BA685A61FB68FA791A76FB68B3
:1009C0003A68DA61FB68184607F11007BD4680BD3A
:1009D0007022080080B483B000AF78607B681B6928
:1009E0001B6C03F140027B681B695B6CD31A03F03C
:1009F0003F03184607F10C07BD4680BC704700BF97
:100A000080B483B000AF78607B681B691A6C7B6828
:100A10001B695B6C9A4202D14FF0FF3305E07B68A3
:100A20001A697B681B695B6CD35C184607F10C077D
:100A3000BD4680BC704700BF80B485B000AF786011
:100A40007B681B691A6C7B681B695B6C9A4202D1DC
:100A50004FF0FF3311E07B681A697B681B695B6CA0
:100A6000D35CFB737B681B697A681269526C02F174
:100A7000010202F03F025A64FB7B184607F114079B
:100A8000BD4680BC704700BF80B483B000AF7860C3
:100A90007B685B695B6903F00203002B14BF0023D2
:100AA0000123DBB2002BF3D107F10C07BD4680BC5C
:100AB000704700BF80B483B000AF78600B46FB7016
:100AC0007B685B695B6903F00203002B14BF0023A2
:100AD0000123DBB2002BF3D17B685B69FA78DA6122
:100AE0004FF00103184607F10C07BD4680BC704764
:100AF00080B584B000AF78607B685B695B69FB6040
:100B0000FB6803F00103002B0CD07B681A697B683B
:100B10005B699B69DBB21046194640F29963C0F2EB
:100B200008039847FB6803F02003002B04D1FB68FF
:100B300003F04003002B07D07B685B697A68526939
:100B4000126842F480721A6007F11007BD4680BD3A
:100B500070B54FF46063C4F20E03DD6C4FF0000417
:100B600040F61816C2F2070615F0010F04D006F180
:100B70000403E35803B198474FEA550504F1040410
:100B8000802CF1D170BD00BF70B54FF48053C4F21A
:100B90000E03DD6C4FF0000440F61816C2F2070693
:100BA00015F0010F04D006F18403E35803B1984710
:100BB0004FEA550504F10404802CF1D170BD00BF4B
:100BC00070B54FF49053C4F20E03DD6C4FF0000487
:100BD00040F61816C2F2070615F0010F04D006F50C
:100BE0008273E35803B198474FEA550504F10404B2
:100BF000802CF1D170BD00BF70B54FF4A053C4F28A
:100C00000E03DD6C4FF0000440F61816C2F2070622
:100C100015F0010F04D006F5C273E35803B19847ED
:100C20004FEA550504F10404802CF1D170BD00BFDA
:100C300070B5054641F22943C0F2080398474519AB
:100C400041F22944C0F2080440F2F516C0F2080649
:100C500000E0B047A0478542FBD870BD40F61C318C
:100C6000C2F2070101F1030301F152014FF000024A
:100C700003F8012F8B42FBD1704700BF70B50446CB
:100C800042F29023C0F20803C0EBC00203EB8203E0
:100C90001B7B002B61D0012939D011B102295CD115
:100CA0001AE042F29025C0F20805C0EBC0044FEAFA
:100CB00084042E19B06841F20D33C0F2080398473E
:100CC00028594FF0030172684FF0000341F261248C
:100CD000C0F20804A04770BD42F29025C0F208059A
:100CE000C0EBC0044FEA84042E19B06841F20D3302
:100CF000C0F20803984728594FF0030172684FF07B
:100D0000010341F26124C0F20804A04770BD42F221
:100D10009023C0F20803C0EBC0024FEA82029D1884
:100D20009E5830464FF005016A682B6941F26125F3
:100D3000C0F20805A847B369B3F1FF3F0DD142F2F5
:100D40009023C0F20803C4EBC40403EB8403986847
:100D500041F29133C0F20803984770BD70B582B07C
:100D60000D4642F29023C0F20803C0EBC00403EB2F
:100D700084031B7B33B342F29023C0F208034FEA93
:100D800084001A181E5854683046214641F2F52353
:100D9000C0F20803984740B9304621462A4641F23E
:100DA0009D13C0F2080398470CE04FF00103009335
:100DB000304621462A464FF0000341F21D24C0F27E
:100DC0000804A04702B070BD10B542F60C52C0F244
:100DD000080240F20003C2F207039A4203D02B4BF1
:100DE0002B4A9A4204D32B4B2B4A9A4218D327E022
:100DF0002A4B2B4CE41A24F0030404F104044FF0B2
:100E0000000340F20000C2F2070042F60C51C0F2AB
:100E100008015A581A5003F10403A342F9D1E2E73A
:100E2000204B2149C91A21F0030140F6F002C2F219
:100E300007028A184FF0000143F8041F9342FBD1C8
:100E400040F20003C0F2080323F0604121F07F016B
:100E50004FF46D42CEF20002916003F16043B3F5AE
:100E6000801F3FBF4FF46D43CEF200039A6842F0FB
:100E7000005238BF9A6041F62123C0F20803984718
:100E800040F2E933C0F208039847FEE7F008072074
:100E900000000720480E0720F00807200400072064
:100EA000F3080720EC080720430E07204FF42063C7
:100EB000C4F20E034FF480621A604FF44063C4F230
:100EC0000E031A604FF4C063C4F20E031B6A13F0E2
:100ED000807F10D14FF4C063C4F20E0340F60902C4
:100EE000C0F237021A624FF4C062C4F20E02936E6F
:100EF00013F0010FFBD04FF4C063C4F20E0340F6B1
:100F00000902C0F237121A624FF4C062C4F20E0234
:100F1000936E13F4803FFBD04FF4C063C4F20E0312
:100F20001A6B22F0030242F001021A634FF4C0620E
:100F3000C4F20E02936E13F0080FFBD04FF4C0639F
:100F4000C4F20E0343F60172C2F20D029A624FF42C
:100F5000C062C4F20E02936E13F0020FFBD04FF486
:100F6000C063C4F20E034FF011021A634FF4C06263
:100F7000C4F20E02936E13F0080FFBD04FF4C0635F
:100F8000C4F20E034FF012021A634FF4C062C4F2AF
:100F90000E02936E13F0080FFBD040F2A803C2F2CA
:100FA00007034FF43D42C0F201521A60704700BF80
:100FB00080B483B000AF0346FB714FF46143CEF2BF
:100FC000000397F907204FEA5212F97901F01F0147
:100FD0004FF0010000FA01F143F8221007F10C076D
:100FE000BD4680BC704700BF80B500AF40F6E03022
:100FF000C2F207004FF000014FF03C0241F685635A
:10100000C0F20803984740F6E033C2F2070341F20A
:10101000EF221A8040F62043C2F2070341F2EF228A
:101020001A804FF48043C4F208034FF002021A60A2
:1010300044F22803C4F208034FF0FF321A6044F26E
:101040002003C4F208031B681A4640F66443C2F248
:1010500007031A6044F20403C4F208034CF20102CD
:101060001A6044F21C03C4F2080344F62002C0F2E2
:1010700001021A6044F22403C4F208034FF0100284
:101080001A604FF01E0040F6B173C0F20803984793
:101090004FF01E0041F20D33C0F2080398474FF4A1
:1010A0008043C4F208034FF005021A6080BD00BF00
:1010B00080B500AF44F22003C4F208031B681A464F
:1010C00040F66443C2F207031A6040F66043C2F27E
:1010D00007031B68002B07D140F66043C2F20703E9
:1010E0004FF001021A6006E040F66043C2F20703C7
:1010F0004FF000021A6040F66043C2F207031B681B
:101100004FF00300194640F65D53C0F208039847BC
:1011100080BD00BF30B44FF0010404604FF0000404
:10112000446040F20225C0F82051C0F80441C0F8E4
:10113000144145684FEA4202B1FBF2F101F1FF327E
:101140004FEA02624FEA034303F4702343EA124278
:1011500015434560204630BC704700BF43681943C3
:101160004FEAC212D3B219434160704710B44468C9
:1011700022434FEA016101F0706422434FEA037396
:1011800003F040531A43426010BC70474FF6FF73A0
:101190004361704781627047416470470AB141669C
:1011A00070470166704700BF426405290ED8DFE82A
:1011B00001F00E030A0E0E0E036F016F0B4023EABF
:1011C0000203036702E0036F134303674260704743
:1011D00070B504460D46164641F29913C0F2080355
:1011E00098472046294606F0010241F29D13C0F2BD
:1011F0000803984716F00A0F14BF2562656216F0BF
:10120000020F18BFC4F8805004D116F0080F18BFA1
:10121000C4F880506561256070BD00BF2DE9F041C4
:1012200004460D461746984641F29916C0F2080644
:10123000B04720462946069A41F29D16C0F208069C
:10124000B047B8F1000F01D0256500E065650FB12A
:10125000256300E0656325612560BDE8F08100BF7E
:101260002DE9F04182B007460D461646984601F139
:10127000FF34042C38D8DFE804F003031B252500D5
:1012800041F2A913C0F2080398473846314641F2AB
:101290009913C0F2080398473846314608F0010216
:1012A00041F29D13C0F2080398474FF001001DE082
:1012B0001146424641F2D113C0F2080398474FF05D
:1012C000010013E008F0010300931146052D14BF3F
:1012D00000220122C8F3800341F21D24C0F2080459
:1012E000A0474FF0010001E04FF0000002B0BDE860
:1012F000F08100BF8368194205D0836919420CBF91
:101300000020012070474FF0000070472C2835D88E
:101310001F2817D84FF4C063C4F20E039A694FF028
:10132000010303FA00F31A4093422AD04FF001035D
:1013300003FA00F04FF4C063C4F20E0318614FF0DB
:10134000000070474FF4C063C4F20E03D3F80821C5
:10135000A0F120004FF0010303FA00F31A4093427A
:1013600012D04FF0010303FA00F04FF4C063C4F24F
:101370000E03C3F800014FF0000070474FF001006A
:1013800070474FF0000070474FF00000704700BFFB
:101390002C2835D81F2817D84FF4C063C4F20E0389
:1013A0009A694FF0010303FA00F31A4093422AD1DD
:1013B0004FF0010303FA00F04FF4C063C4F20E03D0
:1013C00058614FF0000070474FF4C063C4F20E0341
:1013D000D3F80821A0F120004FF0010303FA00F335
:1013E0001A40934212D14FF0010303FA00F04FF478
:1013F000C063C4F20E03C3F804014FF0000070474D
:101400004FF0010070474FF0000070474FF00000B0
:10141000704700BF40F66843C2F207031A6802F142
:1014200001021A60704700BF40F66843C2F207032A
:101430001868704708B540F66C43C2F207031B6892
:1014400003B1984708BD00BF4FF4004343607047A5
:1014500080B500AF40F6E973C0F20803984700BFBB
:1014600080BD00BF80B483B000AF03463960FB711C
:1014700097F90730002B10DA4FF46D43CEF20003DA
:10148000FA7902F00F02A2F104013A68D2B24FEAEF
:101490000212D2B25B181A760DE04FF46143CEF21D
:1014A000000397F907103A68D2B24FEA0212D2B29B
:1014B0005B1883F8002307F10C07BD4680BC70471A
:1014C00080B582B000AF78607A686FF07F439A424F
:1014D00002D94FF0010322E04EF21003CEF20003D6
:1014E0007A6822F07F4202F1FF325A604FF0FF30FB
:1014F0004FF00F0141F26543C0F2080398474EF2E6
:101500001003CEF200034FF000029A604EF2100377
:10151000CEF200034FF007021A604FF000031846A6
:1015200007F10807BD4680BD80B500AF40F6B84062
:10153000C2F2070040F61113C0F20803984780BDBD
:1015400080B500AF40F6B050C2F2070040F6F1237C
:10155000C0F20803984780BD80B500AF40F6D05078
:10156000C2F2070040F6F123C0F20803984780BD9D
:1015700080B500AF40F6F050C2F2070040F6F1230C
:10158000C0F20803984780BD90B583B000AF40F625
:10159000AD63C0F20803984740F2A803C2F2070304
:1015A0001A6844F6D353C1F26203A3FB02134FEA55
:1015B0009313184641F2C143C0F20803984703460B
:1015C000002B0CBF00230123DBB2002B00D0FEE771
:1015D00041F65020C4F20E0041F24943C0F2080324
:1015E000984741F62123C0F2080398474FF00003C3
:1015F0007B600CE07B6818464FF0000140F65D53BD
:10160000C0F2080398477B6803F101037B607B68A5
:101610004E2BCCBF00230123DBB2002BEAD14FF4C9
:101620006063C4F20E034FF0FF32C3F8A0204FF402
:101630008053C4F20E034FF0FF32C3F8A0204FF4E2
:101640009053C4F20E034FF0FF32C3F8A0204FF4C2
:10165000A053C4F20E034FF0FF32C3F8A02042F2B1
:101660009023C0F20803D3F8DC0842F29023C0F2C2
:10167000080393F8E81842F29023C0F20803D3F865
:10168000E02842F29023C0F20803D3F8EC3841F28C
:101690006124C0F20804A0474FF000004FF00101A0
:1016A00040F65D53C0F20803984742F29023C0F21F
:1016B0000803D3F8F80842F29023C0F2080393F825
:1016C000041942F29023C0F20803D3F8FC2842F236
:1016D0009023C0F20803D3F8083941F26124C0F224
:1016E0000804A04742F29023C0F20803D3F814097B
:1016F00042F29023C0F2080393F8201942F290239B
:10170000C0F20803D3F8182942F29023C0F208036C
:10171000D3F8243941F26124C0F20804A04742F210
:101720009023C0F20803D3F8300942F29023C0F2AC
:10173000080393F83C1942F29023C0F20803D3F84F
:10174000342942F29023C0F20803D3F8403941F221
:101750006124C0F20804A04742F29023C0F20803BB
:10176000D3F84C0942F29023C0F2080393F85819B9
:1017700042F29023C0F20803D3F8502942F290239A
:10178000C0F20803D3F85C3941F26124C0F20804C6
:10179000A04742F29023C0F20803D3F8D80942F2DE
:1017A0009023C0F2080393F8E41942F29023C0F2A8
:1017B0000803D3F8DC2942F29023C0F20803D3F8DF
:1017C000E83941F26124C0F20804A04742F29023B4
:1017D000C0F20803D3F8F40942F29023C0F20803E0
:1017E00093F8001A42F29023C0F20803D3F8F829C4
:1017F00042F29023C0F20803D3F8043A41F2612484
:10180000C0F20804A0474FF0250041F20D33C0F2AA
:101810000803984740F2A803C2F207031B684FF081
:101820000000C4F20C0019464FF43452C0F23112D9
:101830004FF00C0341F21514C0F20804A0474FF01A
:101840000000C4F20C004FF000014FF440124FF0C2
:10185000010341F26D14C0F20804A0474FF00000EC
:10186000C4F20C004FF000014FF0000241F25D1392
:10187000C0F2080398474FF00000C4F20C004FF08C
:10188000FF3141F29513C0F2080398474FF0000072
:10189000C4F20C0041F28D13C0F20803984740F6E1
:1018A0005D43C0F20803984707F10C07BD4690BDA1
:1018B00090B585B002AF786039607B68012B40F04D
:1018C00081803A684FF6FF739A427BD140F67040B0
:1018D000C2F2070040F25D63C0F20803984740F689
:1018E0007043C2F20703009340F6B840C2F207000B
:1018F0004FF40061C4F20E014FF008024FF00803EC
:1019000040F2A974C0F20804A04740F6D840C2F2E1
:10191000070040F25D63C0F20803984740F620508C
:10192000C2F2070040F25D63C0F20803984740F638
:101930006850C2F2070040F25D63C0F208039847A6
:1019400040F6D843C2F20703009340F6B050C2F20B
:1019500007004FF40041C4F209014FF011024FF0AB
:10196000110340F68914C0F20804A04740F6205342
:10197000C2F20703009340F6D050C2F207004FF4C2
:101980004041C4F209014FF012024FF0120340F639
:101990008914C0F20804A04740F66853C2F2070356
:1019A000009340F6F050C2F207004FF48041C4F2B9
:1019B0000A014FF014024FF0140340F68914C0F2EC
:1019C0000804A04707F10C07BD4690BD80B500AFE5
:1019D0004FF001004FF6FF7141F6B103C0F208036A
:1019E000984780BD014600200246034600F06CBACD
:1019F00070B5094B094C0025E41AA41003EB8406CA
:101A000002E072599047013C043D002CF9D1BDE839
:101A1000704001F073B900BF082D08000C2D0800BC
:101A200070B50E4B0E4D0024ED1AAD101E4603E0AE
:101A300056F8242090470134AC42F9D101F050F916
:101A4000084D094B0024ED1AAD101E4603E056F870
:101A5000242090470134AC42F9D170BDEC2C080031
:101A6000EC2C0800FC2C0800EC2C0800024B014672
:101A7000186800F00BB800BFB0000720024B014609
:101A8000186800F0C7BA00BFB00007202DE9F04782
:101A900001F10B04162C064603D934F0070401D5D6
:101AA00002E010248C4202D20C233360D3E1304692
:101AB00000F0F0F9B4F5FC7F14D2A04BE20803EB80
:101AC000C203DD689D4205D105F108036D6902324C
:101AD0009D4244D0EA68A9686B68CA6023F003039A
:101AE000916059E0620A01D1E2081BE0042A02D8A1
:101AF000A209383216E0142A01D85B3212E0542AC7
:101B000002D8220B6E320DE0B2F5AA7F02D8E20BAA
:101B1000773207E040F254539A4202D8A20C7C324A
:101B200000E07E22854B03EBC203DD6814E06968A8
:101B300021F00301081B0F2801DD013A0EE0002807
:101B400009DBEB68AA68D3609A606B185A6842F0A8
:101B500001025A608BE1ED689D42E8D1013277497C
:101B60000D6901F10807BD4267D06B6823F00303DC
:101B7000181B0F280CDD2B1940F0010244F0010462
:101B80006C604B610B61DF609F605A6018506EE1C2
:101B900000284F610F6101DBEB18D7E7B3F5007F39
:101BA0000FD2DB089810012707FA00F7486838437E
:101BB000486001EBC3018B68E960AB60DD608D605C
:101BC0003BE0580A042802D89809383016E0142857
:101BD00001D85B3012E0542802D8180B6E300DE0AB
:101BE000B0F5AA7F02D8D80B773007E040F2545105
:101BF000884202D8980C7C3000E07E20DFF83CE17F
:101C00000EEBC007B968B9420DD10123801003FA69
:101C100000F0DEF804300343CEF804300B4608E051
:101C20008968B94204D0486820F003008342F7D3A2
:101C3000CB68EB60A960CD609D600121931001FA33
:101C400003F33E4949688B425DD80B4205D122F02F
:101C500003025B0004320B42FBD0384800EBC20C9D
:101C6000E6461746DEF80C502CE0696821F00308C0
:101C7000C4EB08010F2913DD2B1944F00104EA68B5
:101C80006C6055F8080F5950C26090602B4A536140
:101C900013610832DA609A6041F001025A600CE088
:101CA00000290EDB05EB08035A6842F001025A6076
:101CB000EB6855F8082FD3609A60304600F0EBF8D7
:101CC000D9E0ED687545D0D10137B90705F1080EA7
:101CD000C8D16146950704D1426822EA03024260F6
:101CE00005E0A1F108050968013AA942F2D041686E
:101CF0005B008B4207D833B13A4601E004325B0007
:101D00000B42ABD1FAE70D4B9F687A6822F00309CA
:101D1000A1451A4604D3C4EB09030F2B00F39D80A1
:101D2000074B07EB090A1B6804EB0308D2F80834D9
:101D3000013307D108F110080CE000BFE0040720D0
:101D4000100E072008F5805808F10F0828F47F6866
:101D500028F00F083046414600F09EF8421C054628
:101D60006BD0504502D2454B9F4266D1444A5545FF
:101D7000536843445360414A07D1290505D193680C
:101D8000C84448F001025A604CE0D2F808240132FD
:101D900003D13A4BC3F8085404E0CAEB050A384AA9
:101DA0005344536015F007031CBFC3F10803ED183B
:101DB000A84403F580534FEA0858A3EB185841464E
:101DC000304600F069F82E4A431C536804BF4FF0B8
:101DD0000008284643445360401B284B404440F0D1
:101DE00001009F429D6068601CD0B9F10F0F02D8BE
:101DF00001236B6021E07B68A9F10C0929F0070938
:101E000003F0010349EA03037B60052207EB0903A2
:101E1000B9F10F0F5A609A6004D9304607F10801F2
:101E200000F0F8F8164A5368D16A8B4288BFD36233
:101E3000126B934284BF124A1363104B9B685A681B
:101E400022F00302A242C4EB020301D30F2B04DCF5
:101E5000304600F020F800250DE0084A44F001016A
:101E6000956843F001032C19696094606360304603
:101E700000F011F808352846BDE8F087E004072097
:101E8000100E07208218034601E003F8011B93425D
:101E9000FBD170477047704738B5064C00230546A4
:101EA00008462360FEF718FC431C02D1236803B1E7
:101EB0002B6038BD440E0720034613F8012B002A7F
:101EC000FBD1181A013870472DE9F8439846234B87
:101ED00006461C680F46D4F84801914618B904F527
:101EE000A670C4F8480141681F2916DD1C4B1BB9B8
:101EF0004FF0FF30BDE8F8834FF4C870FFF7B6FD30
:101F00000028F5D0D4F84811002545600160C4F8D8
:101F10004801C0F88851C0F88C51B6B1446801221C
:101F200002FA04F2D0F8881100EB84031143022E68
:101F3000C3F88890C0F888111C46C3F8088104D102
:101F4000D0F88C311A43C0F88C2143689A1C0133B5
:101F500040F8227043600020BDE8F883D82C0800C8
:101F60006D1A0800024B13B10248FFF73BBD7047E2
:101F700000000000F1190800F8B5234D0E46044694
:101F8000FFF788FFAB685F6827F0030707F6EF737A
:101F90009E1B26F47F6626F00F06A6F58056B6F542
:101FA000805F04DA2046FFF776FF0020F8BD0021AD
:101FB0002046FFF771FFAB68DB199842F2D17142FE
:101FC0002046FFF769FF013010D100212046FFF7BE
:101FD00063FFAB68C21A0F2AE4DD0C4942F001022C
:101FE00009685A60401A0A490860DBE7AB68BF1B02
:101FF00047F001075F60064B20461A68961B1E607B
:10200000FFF749FF0120F8BDE0040720E80807209A
:10201000140E0720F8B506460D46002900F0A580ED
:10202000FFF738FF55F804CC504FA5F108032CF00A
:1020300001029C18B96860688C4220F003000CF023
:1020400001011CD1821839B955F8081C5B1A98682F
:102050005218D968C160886042F001015960434953
:102060008B60434B1B689A4204D3424B304619683D
:10207000FFF782FF3046BDE8F840FFF70CBF606015
:1020800059B955F8085C08375B1B52199D68BD4269
:1020900005D0DF68EF60BD6002E0002100E00121B3
:1020A00025186D6815F0010F0FD1121849B9A068F5
:1020B000314DA84205D1EB60AB60D860986001213A
:1020C00003E0E068A468E060846042F001005860CA
:1020D0009A500029CED1B2F5007F0CD2D2089010D0
:1020E000012404FA00F42149486801EBC2022043AC
:1020F0004860916834E0540A042C02D894093834BA
:1021000016E0142C01D85B3412E0542C02D8140BC6
:102110006E340DE0B4F5AA7F02D8D40B773407E013
:1021200040F254518C4202D8940C7C3400E07E245E
:102130000E4D05EBC400816881420BD10122A41031
:1021400002FA04F46A6822436A600A4608E0896871
:10215000814204D04C6824F00304A242F7D3CA6839
:10216000DA6099609360CB6084E7F8BDE0040720F3
:10217000EC080720100E0720E804072000000000EC
:102180000000000000000000710208000A04344E44
:102190004B4A4C363738393A3B3C3D3E3F40414252
:1021A00043444558590000000000000000000000B2
:1021B000ED010800000000006E616E00696E6600AF
:1021C0006F7666002E000000000000000000000096
:1021D000ED010800790408000A04344E4B4A4C36DD
:1021E0003738393A3B3C3D3E3F40414243444558F5
:1021F0005900000000000000000000000000000086
:10220000D508080079040800F507080059080800F7
:1022100021080800A9080800650708000000000060
:102220000000000000000000ED0108007904080033
:10223000ED010800ED010800ED010800ED010800C6
:10224000ED01080000000000000000000000000098
:10225000ED01080079040800ED010800ED01080017
:10226000ED010800ED010800000000000000000082
:10227000B50A080079040800D5090800390A0800E1
:10228000010A0800890A080071090800000000001E
:10229000000E0E40000100000B00000001000000D5
:1022A0000000000004000000FFFFFFFF000E0E40D2
:1022B000000200000B000000010000000000000010
:1022C00004000000FFFFFFFF00100E4000000002AE
:1022D0000C000000020000000000000014000000DC
:1022E000FFFFFF0000120E40000000100D00000074
:1022F000020000000000000014000000FFFFFF0EBD
:1023000000120E40000000040D000000020000005A
:102310000000000014000000FFFFFF0D00120E403F
:10232000000000020D00000002000000000000009C
:1023300014000000FFFFFF0C00120E40000000011F
:102340000D00000002000000000000000C00000072
:10235000FFFF07FF00120E40000080000D0000008C
:1023600002000000000000000C000000FFFF06FF5C
:1023700000120E40000040000D00000002000000AE
:10238000000000000C000000FFFF05FF00120E40DF
:10239000000020000D00000002000000000000000E
:1023A0000C000000FFFF04FF00120E4000000020A0
:1023B0000D000000020000000000000014000000FA
:1023C000FFFFFF0F00140E40800000000E00000011
:1023D000020000000000000014000000FFFFFF10DA
:1023E00000140E40000100000E000000020000007A
:1023F0000000000014000000FFFFFF1100100E405D
:10240000000000080C0000000200000000000000B6
:1024100014000000FFFFFF0100140E401000000038
:102420000E00000002000000000000000400000098
:10243000FFFFFFFF00140E40200000000E00000010
:10244000020000000000000004000000FFFFFFFF8A
:10245000000E0E40002000000B00000001000000F4
:102460000000000004000000FFFFFFFF000E0E4010
:10247000001000000B000000010000000000000040
:1024800004000000FFFFFFFF000E0E4000080000E8
:102490000B0000000100000000000000040000002C
:1024A000FFFFFFFF000E0E40000400000B000000C5
:1024B000010000000000000004000000FFFFFFFF1B
:1024C00000100E40001000000C0000000100000091
:1024D0000000000004000000FFFFFFFF00100E409E
:1024E000002000000C0000000100000000000000BF
:1024F00004000000FFFFFFFF00100E40000000047A
:102500000C000000040000000000000004000000B7
:10251000FFFFFFFF000E0E40004000000B00000018
:10252000040000000000000004000000FFFFFFFFA7
:10253000000E0E40008000000B00000004000000B0
:102540000000000004000000FFFFFFFF00140E4029
:10255000010000000E000000040000000000000068
:1025600004000000FFFFFFFF00140E400200000007
:102570000E00000004000000000000000400000045
:10258000FFFFFFFF00140E40040000000E000000DB
:10259000040000000000000004000000FFFFFFFF37
:1025A00000140E40080000000E00000004000000AF
:1025B0000000000004000000FFFFFFFF00140E40B9
:1025C000400000000E0000000400000000000000B9
:1025D00004000000FFFFFFFF00140E400002000097
:1025E0000E000000040000000000000004000000D5
:1025F000FFFFFFFF000E0E40800000000B000000F8
:10260000040000000000000004000000FFFFFFFFC6
:1026100000140E40000400000E0000000400000042
:102620000000000004000000FFFFFFFF00120E404A
:10263000020000000D000000040000000000000087
:1026400004000000FFFFFFFF00120E400400000026
:102650000D00000004000000000000000400000065
:10266000FFFFFFFF00120E40080000000D000000F9
:10267000040000000000000004000000FFFFFFFF56
:1026800000120E40100000000D00000004000000C9
:102690000000000004000000FFFFFFFF00120E40DA
:1026A000200000000D0000000400000000000000F9
:1026B00004000000FFFFFFFF00120E40400000007A
:1026C0000D000000040000000000000004000000F5
:1026D000FFFFFFFF00120E40800000000D00000011
:1026E000040000000000000004000000FFFFFFFFE6
:1026F00000120E40000100000D0000000400000068
:102700000000000004000000FFFFFFFF00120E4069
:10271000000200000D0000000400000000000000A6
:1027200004000000FFFFFFFF000E0E400000080045
:102730000B00000004000000000000000400000086
:10274000FFFFFFFF000E0E40000010000B00000016
:10275000040000000000000004000000FFFFFFFF75
:1027600000120E40000008000D00000004000000F0
:102770000000000004000000FFFFFFFF00120E40F9
:10278000000004000D000000040000000000000034
:1027900004000000FFFFFFFF00120E4000000200D7
:1027A0000D00000004000000000000000400000014
:1027B000FFFFFFFF00120E40000001000D000000AF
:1027C000040000000000000004000000FFFFFFFF05
:1027D00000120E40008000000D0000000400000008
:1027E0000000000004000000FFFFFFFF00120E4089
:1027F000004000000D000000040000000000000088
:1028000004000000FFFFFFFF00120E400020000048
:102810000D000000040000000000000004000000A3
:10282000FFFFFFFF00120E40001000000D0000002F
:10283000040000000000000004000000FFFFFFFF94
:1028400000100E40000020000C00000004000000FA
:102850000000000004000000FFFFFFFF00100E401A
:10286000004000000C000000040000000000000018
:1028700004000000FFFFFFFF000E0E4000000100FB
:102880000B00000003000000000000000200000038
:102890000007FFFF000E0E40000000010B000000CB
:1028A0000300000000000000020000000106FFFF1E
:1028B000000E0E40000080000B000000030000002E
:1028C00000000000020000000205FFFF000E0E40A5
:1028D000000040000B0000000300000000000000AA
:1028E000020000000304FFFF000E0E404000000045
:1028F0000B000000030000000000000002000000C8
:102900000403FF05000E0E40100000000B00000045
:102910000300000000000000020000000502FFFFAD
:10292000000E0E40080000000B0000000300000035
:1029300000000000020000000601FF03000E0E4030
:10294000040000000B000000030000000000000075
:10295000020000000700FF0200100E40000002000D
:102960000C00000003000000000000000200000056
:10297000080AFFFF00100E40000004000C000000D9
:10298000030000000000000002000000090BFFFF30
:1029900000100E40000008000C00000003000000C2
:1029A00000000000020000000A0CFFFF00100E40B3
:1029B000000010000C0000000300000000000000F8
:1029C000020000000B0DFFFF00100E400080000011
:1029D0000C000000030000000000000002000000E6
:1029E0000C10FFFF00100E40000001000C00000062
:1029F0000300000000000000020000000D11FFFFB6
:102A0000000E0E40020000000B000000010000005C
:102A100000000000040000000EFFFFFF000E0E404B
:102A2000010000000B000000010000000000000099
:102A3000040000000FFFFFFF000E0E400000020028
:102A40000B00000001000000000000000400000076
:102A5000FFFFFFFF000E0E40000004000B0000000F
:102A6000010000000000000004000000FFFFFFFF65
:102A700000120E40000000400D00000004000000A5
:102A80000000000004000000FFFFFFFF000E0E40EA
:102A9000000020000B000000040000000000000007
:102AA00004000000FFFFFFFF000E0E4000000002C8
:102AB0000B00000001000000000000000400000006
:102AC000FFFFFFFF000E0E40000000040B0000009F
:102AD000010000000000000004000000FFFFFFFFF5
:102AE000000E0E40000000080B0000000100000076
:102AF0000000000004000000FFFFFFFF000E0E407A
:102B0000000000100B0000000100000000000000A9
:102B100004000000FFFFFFFF00100E4000008000D7
:102B20000C00000002000000000000000400000093
:102B3000FFFFFFFF000E0E40000006000B0000002C
:102B4000010000000000000005000000FFFFFFFF83
:102B500000100E40003000000C00000001000000DA
:102B60000000000005000000FFFFFFFF000E0E4008
:102B7000000300000B000000010000000000000046
:102B800005000000FFFFFFFF000E0E40000C0000DC
:102B90000B00000001000000000000000500000024
:102BA000FFFFFFFF000E0E40003000000B00000092
:102BB000010000000000000005000000FFFFFFFF13
:102BC00000140E40300000000E0000000200000063
:102BD0000000000005000000FFFFFFFF00100E4096
:102BE000000C00000C0000000100000000000000CC
:102BF00004000000FFFFFFFF00100E400000200057
:102C00000C000000020000000000000004000000B2
:102C1000FFFFFFFF000E0E40000000200B00000031
:102C2000010000000000000004000000FFFFFFFFA3
:102C300000100E40008000000C00000001000000A9
:102C40000000000004000000FFFFFFFF00100E4026
:102C5000004000000C000000010000000000000027
:102C600004000000FFFFFFFF000E0E400300000005
:102C70000B00000001000000000000000500000043
:102C8000FFFFFFFF00100E4000C000000C0000001E
:102C9000010000000000000005000000FFFFFFFF32
:102CA0000000000000000000000000000000000024
:102CB0000000000000000000FFFFFFFF0A04344E88
:102CC0004B4A4C363738393A3B3C3D3E3F40414217
:102CD0004344455859000000B80007204300000055
:102CE000F8B500BFF8BC08BC9E467047651F0800D9
:102CF0006D0108004D030800CD190800F8B500BFAC
:0C2D0000F8BC08BC9E4670474501080066
:102D0C0080B485B000AF72B64FF00C03BB604FF0CF
:102D1C005A037B604FF42063C4F20E039B6803F0EC
:102D2C000103002B14BF00230123DBB2002BF1D1D4
:102D3C004FF42063C4F20E034FF48672C5F60022E2
:102D4C005A604FF42063C4F20E039B6803F0010336
:102D5C00002B14BF00230123DBB2002BF1D14FF069
:102D6C000003FB6003E0FB6803F10103FB60FA68FE
:102D7C0044F23F23C0F20F039A428CBF002301237D
:102D8C00DBB2002BEFD14FF0A5033B604FF4D053D7
:102D9C00C4F20E034FF00502CAF200521A60FEE7AD
:102DAC000D000000FFFFFFFF00093D0000000000C8
:102DBC00B80007200000000000000000A40307205A
:102DCC000C04072074040720000000000000000021
:102DDC0000000000000000000000000000000000E7
:102DEC00000000000000000000000000DC2C0800C7
:102DFC0000000000000000000000000000000000C7
:102E0C0000000000000000000000000000000000B6
:102E1C0000000000000000000000000000000000A6
:102E2C000000000000000000000000000000000096
:102E3C000000000000000000000000000000000086
:102E4C000000000000000000000000000000000076
:102E5C000000000000000000000000000000000066
:102E6C0001000000000000000E33CDAB34126DE603
:102E7C00ECDE05000B00000000000000000000006C
:102E8C000000000000000000000000000000000036
:102E9C000000000000000000000000000000000026
:102EAC000000000000000000000000000000000016
:102EBC000000000000000000000000000000000006
:1031EC000000000000000000E0040720E0040720BD
:1031FC00E8040720E8040720F0040720F004072067
:10320C00F8040720F8040720000507200005072014
:10321C0008050720080507201005072010050720C2
:10322C001805072018050720200507202005072072
:10323C002805072028050720300507203005072022
:10324C0038050720380507204005072040050720D2
:10325C004805072048050720500507205005072082
:10326C005805072058050720600507206005072032
:10327C0068050720680507207005072070050720E2
:10328C007805072078050720800507208005072092
:10329C008805072088050720900507209005072042
:1032AC009805072098050720A0050720A0050720F2
:1032BC00A8050720A8050720B0050720B0050720A2
:1032CC00B8050720B8050720C0050720C005072052
:1032DC00C8050720C8050720D0050720D005072002
:1032EC00D8050720D8050720E0050720E0050720B2
:1032FC00E8050720E8050720F0050720F005072062
:10330C00F8050720F805072000060720000607200F
:10331C0008060720080607201006072010060720BD
:10332C00180607201806072020060720200607206D
:10333C00280607202806072030060720300607201D
:10334C0038060720380607204006072040060720CD
:10335C00480607204806072050060720500607207D
:10336C00580607205806072060060720600607202D
:10337C0068060720680607207006072070060720DD
:10338C00780607207806072080060720800607208D
:10339C00880607208806072090060720900607203D
:1033AC009806072098060720A0060720A0060720ED
:1033BC00A8060720A8060720B0060720B00607209D
:1033CC00B8060720B8060720C0060720C00607204D
:1033DC00C8060720C8060720D0060720D0060720FD
:1033EC00D8060720D8060720E0060720E0060720AD
:1033FC00E8060720E8060720F0060720F00607205D
:10340C00F8060720F806072000070720000707200A
:10341C0008070720080707201007072010070720B8
:10342C001807072018070720200707202007072068
:10343C002807072028070720300707203007072018
:10344C0038070720380707204007072040070720C8
:10345C004807072048070720500707205007072078
:10346C005807072058070720600707206007072028
:10347C0068070720680707207007072070070720D8
:10348C007807072078070720800707208007072088
:10349C008807072088070720900707209007072038
:1034AC009807072098070720A0070720A0070720E8
:1034BC00A8070720A8070720B0070720B007072098
:1034CC00B8070720B8070720C0070720C007072048
:1034DC00C8070720C8070720D0070720D0070720F8
:1034EC00D8070720D8070720E0070720E0070720A8
:1034FC00E8070720E8070720F0070720F007072058
:10350C00F8070720F8070720000807200008072005
:10351C0008080720080807201008072010080720B3
:10352C001808072018080720200807202008072063
:10353C002808072028080720300807203008072013
:10354C0038080720380807204008072040080720C3
:10355C004808072048080720500807205008072073
:10356C005808072058080720600807206008072023
:10357C0068080720680807207008072070080720D3
:10358C007808072078080720800807208008072083
:10359C008808072088080720900807209008072033
:1035AC009808072098080720A0080720A0080720E3
:1035BC00A8080720A8080720B0080720B008072093
:1035CC00B8080720B8080720C0080720C008072043
:1035DC00C8080720C8080720D0080720D0080720F3
:1035EC00D8080720D8080720FFFFFFFF00000200C3
:00000001FF
