:0200000280007C
:10000000C82F0720D1170800A5010800A501080086
:10001000A5010800A5010800A501080000000000D6
:10002000000000000000000000000000A90108001E
:10003000A501080000000000B9010800C90108007E
:10004000A5010800A5010800A5010800A5010800F8
:10005000A5010800A5010800A5010800A5010800E8
:10006000A5210800A501080000000000591508009E
:1000700091150800C91508000116080000000000CD
:1000800000000000BD210800D1210800A5010800E2
:10009000E5210800A5010800A5010800A501080048
:1000A000A501080000000000A5010800A501080046
:1000B000A5010800A5010800A5010800A501080088
:1000C000A5010800A5010800A5010800A501080078
:1000D000A5010800A5010800A5010800A501080068
:1000E000211D0800A5010800A5010800A5010800C0
:1000F000A501080008B50548054B1B1A062B00D8BA
:1001000008BD044B002BFBD09847F9E77439080071
:10011000773908000000000008B50748074B1B1A94
:100120009B1003EBD373591000D108BD044A002A79
:10013000FBD09047F9E700BF743908007439080014
:100140000000000010B5064C237843B9FFF7D2FF3A
:10015000044B13B10448AFF300800123237010BD9A
:10016000B8080720000000007439080008B5084BE3
:100170001BB108480849AFF300800848036813B171
:10018000074B03B19847BDE80840FFF7C5BF00BF64
:100190000000000074390800BC080720743908000A
:1001A00000000000FEE700BF08B540F2F913C0F2FE
:1001B0000803984708BD00BF08B540F2F913C0F224
:1001C0000803984708BD00BF08B540F2F113C0F21C
:1001D0000803984748B940F22543C0F208039847FE
:1001E00041F60153C0F20803984708BD704700BFAD
:1001F0004FF00000704700BFFEE700BF2DE9F84F49
:1002000080460E464FF0000425464FF00A0B40F2A0
:10021000F93AC0F2080A4FF02E0908EB0403304601
:1002200019795A46D04707463046494640F271335D
:10023000C0F208039847C0192D1804F10104032CDB
:10024000EBD1304698F807104FF00A0240F2F9332C
:10025000C0F2080398472818BDE8F88F30B4044668
:10026000044D05600171427183719DF80830C371BE
:1002700030BC7047102C080010B582B04FF000035E
:10028000009340F6D400C2F2070019461A4640F225
:100290005D24C0F20804A04702B010BD08B540F2CA
:1002A0005403C2F2070318684FF0010141F285635D
:1002B000C0F20803984708BD70B540F25406C2F278
:1002C000070630684FF0010141F26575C0F208057C
:1002D000A8474FF4FA7041F23964C0F20804A0470D
:1002E00030684FF00001A8474FF4FA70A04770BD86
:1002F00008B542F2F913C0F2080398474FF0010025
:1003000041F23963C0F20803984740F29D23C0F2DE
:100310000803984740F2B923C0F20803984740F217
:100320000003C0F200033BB11D4640F2B924C0F205
:100330000804A847A047FCE740F2B924C0F208042B
:10034000A047FDE7F8B506460F4614465AB14FF0F0
:10035000000533681B68304617F8011B98472D18B5
:10036000013CF6D101E04FF000052846F8BD00BF82
:1003700008B503681B68984708BD00BFF0B58BB08F
:1003800007464FF000038DF82430012A98BF0A2257
:100390000DF12304B1FBF2F303FB1211CDB226469B
:1003A000092D94BF30353735EDB2257004F1FF3497
:1003B0001946002BEED14FF0000066B1304642F6F0
:1003C0004113C0F20803984702463B685B68384611
:1003D00031469847FFE70BB0F0BD00BF08B522B922
:1003E00003681B68C9B2984708BDD2B240F27D339A
:1003F000C0F20803984708BD08B540F2DD33C0F2EB
:100400000803984708BD00BF40F25803C2F2070333
:100410001860704740F25803C2F207034FF0FF32F2
:100420001A60704708B540F25803C2F207031B6810
:10043000B3F1FF3F09D003F1FF3240F25803C2F29B
:1004400007031A600AB9014B984708BD010007204D
:1004500010B504464FF000014FF0400242F60D1374
:10046000C0F2080398474FF00003236463642046FA
:1004700010BD00BF10B4026C02F1010303F03F0392
:10048000446C9C421CBF8154036410BC704700BF85
:1004900040F6DC03C2F207031B6843B940F6DC03F5
:1004A000C2F2070342F6C872C2F207021A6040F6AF
:1004B000DC03C2F207031A68101818601046704770
:1004C0004FF00100704700BF0369186C5B6CC01AE5
:1004D00000F03F00704700BF03695A6C196C9142ED
:1004E00014BF985C4FF0FF30704700BF03695A6C2F
:1004F000196C91421FBF985C013202F03F025A64AE
:1005000008BF4FF0FF3070474269536913F0020F84
:10051000FBD070474269536913F0020FFBD0D161E1
:100520004FF00100704700BF30B404464FF00005A3
:1005300045604FF47A758560044D0560029D056144
:1005400041610276C36130BC704700BF202C0800B7
:1005500038B5054643695C6914F0010F07D0996905
:100560000069C9B240F27543C0F20803984714F01D
:10057000600F1FBF6B691A6842F480721A6038BD41
:100580004FF00100704700BF0369186C5B6CC01A24
:1005900000F03F00704700BF03695A6C196C91422C
:1005A00014BF985C4FF0FF30704700BF03695A6C6E
:1005B000196C91421FBF985C013202F03F025A64ED
:1005C00008BF4FF0FF3070474269536913F0020FC4
:1005D000FBD070474269536913F0020FFBD0D16121
:1005E0004FF00100704700BF30B404464FF00005E3
:1005F00045604FF47A758560044D0560029D056184
:1006000041610276C36130BC704700BF482C0800CE
:1006100038B5054643695C6914F0010F07D0996944
:100620000069C9B240F27543C0F20803984714F05C
:10063000600F1FBF6B691A6842F480721A6038BD80
:1006400040F6E003C2F20703D3F80002D3F8043205
:10065000C01A4FEAC0504FEAD050704740F6E0034E
:10066000C2F20703D3F80022D3F804329A421FBF24
:1006700040F6E003C2F20703D3F80422985C08BFF7
:100680004FF0FF30704700BF10B582B002AB03F8E7
:10069000011D0268546819464FF00102A04702B0DC
:1006A00010BD00BF10B5044640F25C03C2F2070360
:1006B000DB7973B14FF0030040F63553C0F2080305
:1006C000984700280ADC4FF0010363604FF00000F8
:1006D00010BD4FF0010343604FF0000010BD00BF9C
:1006E00008B54FF0030041F2F143C0F20803984708
:1006F00008BD00BF38B5054640F6E003C2F2070367
:10070000D3F80022D3F804329A421ED040F6E00318
:10071000C2F20703D3F804229C5CD3F8042202F14E
:1007200001024FEAC2524FEAD252C3F804224FF0FC
:10073000020040F62543C0F20803984718B12B6821
:100740009B6928469847204638BD4FF0FF3038BD9A
:100750002DE9F041284B4FF0010153E8002F1AB169
:10076000BFF32F8FBDE8F08143E80012002AF4D1D7
:1007700040F6E003C2F20703D3F8004204F101049B
:100780004FEAC4544FEAD454D3F804329C4229D0DF
:100790004FF0020640F62547C0F2080740F6095818
:1007A000C0F2080840F6E005C2F207053046B84737
:1007B00038B94CF22823C4F20A034FF480421A607D
:1007C00010E03046C047D5F80032E854C5F8004282
:1007D00004F101044FEAC4544FEAD454D5F804326A
:1007E000A342E3D140F6E003C2F207034FF0000258
:1007F000C3F80822BDE8F081E80A072008B50378AD
:1008000003F1020303704FF0000042F66841C0F2AA
:1008100008014FF0420240F69D53C0F2080398478A
:1008200008BD00BF08B5037803F1020303704FF061
:10083000000004494FF0420240F69D53C0F2080305
:10084000984708BDAC2C080008B542780378A12B66
:1008500011D1212A47D14FF0000040F25C01C2F2D1
:1008600007014FF0070240F69D53C0F20803984776
:100870004FF0010008BD212B38D1202A0DD140F2C4
:100880005C00C2F207004FF0070140F6ED53C0F2E2
:10089000080398474FF0010008BD222A29D1827829
:1008A00040F25C03C2F20703DA711B68B3F5966F7E
:1008B00022D140F25C03C2F20703DB7913F0010F8F
:1008C00009D14FF0FA0040F20943C0F208039847FB
:1008D0004FF0010008BD40F21543C0F208039847ED
:1008E0004FF0010008BD4FF0000008BD4FF00000C0
:1008F00008BD4FF0000008BD4FF0010008BD00BF6B
:1009000040F6E003C2F207034FF00002C3F81022E2
:100910004FF47A72C3F81422014AC3F80C227047CC
:10092000F82C080070B504460E4603689B6898478B
:1009300005462368DB68204631469847E8B270BD1B
:1009400008B5037803F1010303704FF0000042F68D
:100950001851C0F208014FF0190240F69D53C0F241
:100960000803984708BD00BF08B54FF000000449D0
:100970004FF0650240F69D53C0F20803984708BD4A
:10098000342D080010B590B08DF80000144652B117
:100990004FF0000303F10103C81810F8010C0DF823
:1009A0000300A342F6D14FF00400694604F10102AE
:1009B00040F63553C0F20803984710B010BD00BF91
:1009C00042780378A12B06D1012A1CD0032A14BF38
:1009D000002001207047212B18D10B2A08D140F2AA
:1009E0006803C2F2070382781A704FF00100704763
:1009F0000A2A0ED140F26803C2F2070382785A70C5
:100A00004FF0010070474FF0010070474FF00000B9
:100A100070474FF0000070474FF0000202707047BF
:100A20004FF000024260014A02607047A82D0800A2
:100A300008B54FF002004FF0080240F68513C0F2EF
:100A40000803984708BD00BF08B501464FF00003F2
:100A50008372C372037343738373C37301F8083FD4
:100A600040F63123C0F20803984708BD70B506462A
:100A7000872984BF01F17804E4B220D811F0800FF7
:100A80000CD0A1F180014FF0010303FA01F1037AC8
:100A900023EA010303724FF0000410E042F61853FA
:100AA000C0F208035B1893F8A44024B314F0800F3D
:100AB0001FBF037A23F00203037204F07F0432465F
:100AC0004FF006034FF000011CB1957AA54208BF14
:100AD000917203F1FF3302F1010213F0FF03F3D12E
:100AE000304606F1080140F63123C0F2080398476A
:100AF0004FF0010070BD4FF0000070BD38B50346E7
:100B0000872984BF7831C9B225D811F0800F0BD066
:100B1000A1F180014FF0010202FA01F1027A1143C2
:100B200001724FF0000116E042F61852C0F20802BE
:100B3000511891F8A41029B94FF0010242604FF00A
:100B4000000038BD11F0800F1FBF027A42F0020290
:100B5000027201F07F019A7A8A422CD0D87A8842B8
:100B600029D0187B884226D0587B884223D0987B96
:100B7000884220D0D87B88421DD03AB14FF0010284
:100B8000D0B215469C18A47A34B902E04FF00005A3
:100B900028465D19A97206E000F10100C0B202F119
:100BA0000102062AECD1062805D14FF001025A6055
:100BB0004FF0000038BD184603F1080140F631231C
:100BC000C0F2080398474FF0010038BD10B540F659
:100BD0000034C2F20704204640F61923C0F208038D
:100BE000984704F1040040F62123C0F20803984717
:100BF00010BD00BF4FF44043C4F20A0303E05A683B
:100C000012F0010F0CD1D3F8302112F0010FF6D001
:100C10004FF44043C4F20A034FF00102C3F86021CD
:100C2000704700BF10B540F27003C2F207031C68A2
:100C300072B6BFF35F8F4FF000021A6000F00F0032
:100C400042F2FD03C0F2080398474CB140F2700332
:100C5000C2F207034FF001021A60BFF35F8F62B662
:100C600010BD00BF2DE9F8430D46164640F614337B
:100C7000C2F207031B68002B37D040F27003C2F2A8
:100C80000703D3F8009072B6BFF35F8F4FF00002F6
:100C90001A6000F00F07384642F2FD03C0F2080365
:100CA0009847B04238BF06468EB1344642F26D08CE
:100CB000C0F208083846C04705F8010B013CF9D1DD
:100CC00016E0384642F21513C0F208039847B9F10E
:100CD000000F16D040F27003C2F207034FF001027A
:100CE0001A60BFF35F8F62B60BE04FF0FF3608E08B
:100CF000384642F2FD03C0F2080398470028E6D1C7
:100D0000DFE73046BDE8F88300B583B000F00F00A0
:100D10000DF107014FF0010240F66543C0F20803F0
:100D2000984701280CBF9DF807004FF0FF3003B033
:100D300000BD00BF2DE9F0470746914640F6143349
:100D4000C2F207031B68CBB1D2B10E46144600F0C5
:100D50000F0A41F67178C0F20808002F14BF4FF453
:100D600000754025A54228BF2546641B50463146E4
:100D70002A46C0477619002CEFD101E04FF0FF3929
:100D80004846BDE8F08700BF40F61433C2F20703BF
:100D90004FF000025A609860704700BF2DE9F84399
:100DA0000E46914640F61433C2F207035A689B6818
:100DB0009A4211DAB9F1000F0ED04C464FF00005FF
:100DC000A84641F67177C0F20807404671192246DD
:100DD000B8472D18241AF8D140F61433C2F207038D
:100DE0005A684A445A604846BDE8F88338B5054613
:100DF0000C4641F6F563C0F2080398474FF0000037
:100E00002946224642F29503C0F20803984741F66C
:100E10002973C0F208039847204638BD08B5037906
:100E20002BB940F64903C0F20803984708BD022BCE
:100E300005D140F6C113C0F20803984708BD4FF032
:100E4000000008BD10B582B002AC4FF0000304F8FA
:100E5000013D204640F2FD73C0F20803984720464A
:100E600040F64113C0F2080398479DF8070002B00E
:100E700010BD00BF10B582B002AC4FF0000304F803
:100E8000013D204640F62503C0F20803984720465E
:100E900040F64113C0F2080398479DF8070002B0DE
:100EA00010BD00BF2DE9F04387B04FF44043C4F2BA
:100EB0000A035B6813F0080F28D04FF44044C4F2D3
:100EC0000A04236823F07F032360236843F0800330
:100ED00023604FF0000042F2320141F62563C0F278
:100EE000080398474CF2F013C4F20A034FF00402CF
:100EF0001A604FF48053A36140F61433C2F2070323
:100F00004FF000021A604FF00803A3604FF4404313
:100F1000C4F20A035B6813F4804F15D04CF26813D7
:100F2000C4F20A034FF00200186040F62543C0F2F5
:100F30000803984740B140F6EC20C2F2070040F2A7
:100F40005173C0F2080398474FF44043C4F20A03B8
:100F50005B6813F0040F1FBF4FF44043C4F20A0351
:100F600004229A604FF44043C4F20A035B6813F40E
:100F7000805F00F0B18241F64973C0F208039847E0
:100F8000002800F0A9824FF0000001A94FF00802EC
:100F900042F29503C0F20803984741F65D73C0F230
:100FA000080398479DF8044014F0800F19BF41F6DC
:100FB000E163C0F2080341F60973C0F208039847E1
:100FC00014F0600F40F062829DF8053043BB9DF83D
:100FD000043063B94FF00000014642F24504C0F20C
:100FE0000804A0474FF000000146A04764E240F625
:100FF0001433C2F207031B7B012B4FF000000CBF20
:101000000121014642F24503C0F2080398474FF020
:101010000000014642F24503C0F2080398474BE244
:10102000012B2ED19DF80630012B18D140F6143338
:10103000C2F207035B7B012B4FF000000CBF0121C4
:10104000014642F24503C0F2080398474FF0000002
:10105000014642F24503C0F2080398472CE240F6ED
:101060001433C2F207034FF000041C7320462146DC
:1010700042F24505C0F20805A84720462146A84788
:101080001AE2032B40F0BB809DF80630012B0ED1F5
:1010900040F61433C2F207034FF001025A734FF0C7
:1010A0000000014642F24503C0F2080398479DF84C
:1010B000063073B940F61433C2F207034FF0010251
:1010C0001A734FF00000014642F24503C0F20803D4
:1010D00098479DF80630022B40F0EE819DF80430D1
:1010E000002B40F0E981BDF8083013F00F0F40F0FD
:1010F000E3814FF44043C4F20A035A6922F001022B
:101100005A611A6842F400621A60BDF808304FEA6A
:10111000132303F1FF33032B00F2CB81DFE803F04D
:101120004D586302B64B98474FF44043C4F20A034C
:101130004FF00002C3F81823C3F8282341F23012FD
:10114000C3F80821D3F8082142F00202C3F80821AD
:101150004FF44043C4F20A03D3F8382112F4802F2D
:10116000FAD04FF44043C4F20A03DA6942F00402B1
:10117000DA614FF6FF73C2F21803A24C4FF0010080
:10118000CDF6E7704FF03401C2F21901E218125C9B
:1011900003F8012F8B42F9D14FF44043C4F20A0304
:1011A0001A6842F400421A604FF00102C3F8682145
:1011B0004FF48042C3F82822FEE7914B98474FF442
:1011C0004043C4F20A031A6842F400521A60FEE770
:1011D0008B4B98474FF44043C4F20A031A6842F419
:1011E00080421A60FEE7864B98474FF44043C4F2B2
:1011F0000A034FF27F02C7F607625A61FEE7052B2A
:101200000CD141F6E163C0F2080398479DF806004F
:1012100042F27D13C0F2080398474DE1062B40F0DF
:10122000DC809DF80740022C34D1BDF80A804FF0D5
:101230000000754FB847754EB04781464FF009041E
:1012400003A84FF000012246714B98478DF80C40DF
:101250004FF002038DF80D304FF001058DF811505D
:101260004FF0C0038DF813304FF0FA038DF81430AF
:10127000684B5B681B19ADF80E308DF81090404636
:10128000B8474FF0000003A92246634B9847B04788
:10129000284610E1BDF80A0040F68953C0F2080361
:1012A0009847222C07D14FF022005C4B9847003022
:1012B00018BF0120FFE0012C19D1BDF80A20082A2F
:1012C00005D14FF00101534B196155490DE0514BC8
:1012D000196942F64063C0F20803002903F11401C2
:1012E00018BF1946112A00F2F380D2B25DE0032C38
:1012F00018D19DF806301BB9494911F8283F0AE07A
:10130000022B03D1464911F82C3F04E0012B5BD19D
:10131000434911F8503FBDF80A20934240F2D8806B
:10132000D2B242E0062C06D1BDF80A20092A3FD8E5
:10133000D2B23C493AE0072C18BF002040F0BB80F5
:10134000BDF80A804FF000002F4FB847364EB04727
:1013500081464FF0090403A84FF0000122462C4BB0
:1013600098478DF80C404FF007038DF80D304FF083
:1013700001058DF811504FF0C0038DF813304FF078
:10138000FA038DF81430234B5B681B19ADF80E304F
:101390008DF810904046B8474FF0000003A9224650
:1013A0001D4B9847B047284685E081B112B900E04F
:1013B0001C490A784FF0000040F69D53C0F2080324
:1013C00098474FF0010076E04FF0000073E04FF0D7
:1013D000000070E04FF000006DE0072B72D0082B8A
:1013E00024D140F61433C2F2070319684FF000000D
:1013F000C9B242F24503C0F2080398475CE000BF5F
:10140000F50B0800BC2E0800890D0800450E0800E9
:101410000D290800140B07209D0D0800690908001C
:10142000402E0800A82E0800750E0800092B1AD1BE
:1014300014F01F0F46D12A484FF00501294B984759
:101440009DF80620284B1A604CF2F813C4F20A03E8
:101450004FF002021A604FF44043C4F20A034FF403
:1014600080429A6128E00A2B06D14FF000001E4B03
:10147000197D1E4B98471FE00B2B1DD140F61433EE
:10148000C2F207039DF806205A6115E041F6E163B8
:10149000C0F208039847BDF80A0040F68953C0F22D
:1014A0000803984701A840F61D63C0F20803984757
:1014B00001E04FF0010028B141F60973C0F20803C2
:1014C000984709E042F2E503C0F20803984703E0B9
:1014D00000297FF46EAF7DE707B0BDE8F08300BF61
:1014E000F42E08005D1E0800140B0720452008009C
:1014F00010B5044642F2FD03C0F20803984728B134
:10150000204642F24913C0F20803984710BD00BFBD
:1015100010B5044640F6A560C0F2080041F6355308
:10152000C0F20803984741F64153C0F208039847B8
:1015300030B940F61433C2F207034FF001029A614A
:10154000204610BD08B5034841F21153C0F208030C
:10155000984708BD300B072070B54FF46063C4F2A4
:101560000E03DD6C4FF0000440F63436C2F207067D
:1015700015F0010F04D006F10403E35803B19847B6
:101580004FEA550504F10404802CF1D170BD00BF71
:1015900070B54FF48053C4F20E03DD6C4FF00004BD
:1015A00040F63436C2F2070615F0010F04D006F1FA
:1015B0008403E35803B198474FEA550504F1040446
:1015C000802CF1D170BD00BF70B54FF49053C4F2C0
:1015D0000E03DD6C4FF0000440F63436C2F207060D
:1015E00015F0010F04D006F58273E35803B1984754
:1015F0004FEA550504F10404802CF1D170BD00BF01
:1016000070B54FF4A053C4F20E03DD6C4FF000042C
:1016100040F63436C2F2070615F0010F04D006F585
:10162000C273E35803B198474FEA550504F1040427
:10163000802CF1D170BD00BF70B5054641F6155341
:10164000C0F208039847451941F61554C0F2080442
:1016500040F2ED16C0F2080600E0B047A047854210
:10166000FBD870BD40F63851C2F2070101F1030307
:1016700001F152014FF0000203F8012F8B42FBD120
:10168000704700BF70B5044642F60873C0F2080305
:10169000C0EBC00203EB82031B7B002B61D001294E
:1016A00039D011B102295CD11AE042F60875C0F2B6
:1016B0000805C0EBC0044FEA84042E19B06841F657
:1016C000D133C0F20803984728594FF003017268DC
:1016D0004FF0000341F60534C0F20804A04770BD86
:1016E00042F60875C0F20805C0EBC0044FEA840456
:1016F0002E19B06841F6D133C0F208039847285933
:101700004FF0030172684FF0010341F60534C0F257
:101710000804A04770BD42F60873C0F20803C0EB8E
:10172000C0024FEA82029D189E5830464FF00501D4
:101730006A682B6941F60535C0F20805A847B36908
:10174000B3F1FF3F0DD142F60873C0F20803C4EBBA
:10175000C40403EB8403986841F65543C0F20803C0
:10176000984770BD70B582B00D4642F60873C0F25E
:101770000803C0EBC00403EB84031B7B33B342F6C6
:101780000873C0F208034FEA84001A181E58546800
:101790003046214641F69933C0F20803984740B9D4
:1017A000304621462A4641F64123C0F208039847B5
:1017B0000CE04FF001030093304621462A464FF0DB
:1017C000000341F6C124C0F20804A04702B070BD76
:1017D00010B543F67412C0F2080240F20003C2F2E0
:1017E00007039A4203D02B4B2B4A9A4204D32B4B2C
:1017F0002B4A9A4218D327E02A4B2B4CE41A24F0A8
:10180000030404F104044FF0000340F20000C2F2AC
:10181000070043F67411C0F208015A581A5003F138
:101820000403A342F9D1E2E7204B2149C91A21F070
:10183000030140F6B802C2F207028A184FF0000115
:1018400043F8041F9342FBD140F20003C0F20803A7
:1018500023F0604121F07F014FF46D42CEF200028F
:10186000916003F16043B3F5801F3FBF4FF46D43B8
:10187000CEF200039A6842F0005238BF9A6042F2FA
:10188000A943C0F20803984740F2F123C0F20803CD
:101890009847FEE7B808072000000720C80F072078
:1018A000B808072004000720BB080720B408072059
:1018B000C30F07204FF42063C4F20E034FF480627D
:1018C0001A604FF44063C4F20E031A604FF4C06311
:1018D000C4F20E031B6A13F0807F10D14FF4C06373
:1018E000C4F20E0340F60902C0F237021A624FF446
:1018F000C062C4F20E02936E13F0010FFBD04FF4DE
:10190000C063C4F20E0340F60902C0F237121A6235
:101910004FF4C062C4F20E02936E13F4803FFBD00A
:101920004FF4C063C4F20E031A6B22F0030242F0BC
:1019300001021A634FF4C062C4F20E02936E13F0F8
:10194000080FFBD04FF4C063C4F20E0343F60172DC
:10195000C2F20D029A624FF4C062C4F20E02936E9C
:1019600013F0020FFBD04FF4C063C4F20E034FF02C
:1019700011021A634FF4C062C4F20E02936E13F0A8
:10198000080FFBD04FF4C063C4F20E034FF01202F5
:101990001A634FF4C062C4F20E02936E13F0080F84
:1019A000FBD040F26C03C2F207034FF43D42C0F299
:1019B00001521A60704700BF30B44FF00104046058
:1019C0004FF00004446040F20225C0F82051C0F8F6
:1019D0000441C0F8144145684FEA4202B1FBF2F1FC
:1019E00001F1FF324FEA02624FEA034303F470232E
:1019F00043EA124215434560204630BC704700BFA1
:101A0000436819434FEAC212D3B219434160704789
:101A100010B4446822434FEA016101F0706422432C
:101A20004FEA037303F040531A43426010BC7047FF
:101A30004FF6FF734361704781627047416470479E
:101A40000AB1416670470166704700BF42640529CC
:101A50000ED8DFE801F00E030A0E0E0E036F016FC1
:101A60000B4023EA0203036702E0036F134303679B
:101A70004260704770B504460D46164641F63D2358
:101A8000C0F2080398472046294606F0010241F6B5
:101A90004123C0F20803984716F00A0F14BF2562CD
:101AA000656216F0020F18BFC4F8805004D116F01A
:101AB000080F18BFC4F880506561256070BD00BF75
:101AC0002DE9F04104460D461746984641F63D265D
:101AD000C0F20806B04720462946069A41F641263C
:101AE000C0F20806B047B8F1000F01D0256500E04C
:101AF00065650FB1256300E0656325612560BDE87C
:101B0000F08100BF2DE9F04182B007460D46164630
:101B1000984601F1FF34042C38D8DFE804F00303C1
:101B20001B25250041F64D23C0F20803984738468F
:101B3000314641F63D23C0F2080398473846314606
:101B400008F0010241F64123C0F2080398474FF024
:101B500001001DE01146424641F67523C0F208031C
:101B600098474FF0010013E008F00103009311467D
:101B7000052D14BF00220122C8F3800341F6C124C1
:101B8000C0F20804A0474FF0010001E04FF0000050
:101B900002B0BDE8F08100BF8368194205D08369B7
:101BA00019420CBF0020012070474FF00000704721
:101BB0004FF4C063C4F20E034FF44412DA614FF4E1
:101BC000C062C4F20E02936E13F0400FFBD0704758
:101BD0002C2835D81F2817D84FF4C063C4F20E0341
:101BE0009A694FF0010303FA00F31A4093422AD096
:101BF0004FF0010303FA00F04FF4C063C4F20E0388
:101C000018614FF0000070474FF4C063C4F20E0338
:101C1000D3F80821A0F120004FF0010303FA00F3EC
:101C20001A40934212D04FF0010303FA00F04FF430
:101C3000C063C4F20E03C3F800014FF00000704708
:101C40004FF0010070474FF0000070474FF0000068
:101C5000704700BF2C2835D81F2817D84FF4C06311
:101C6000C4F20E039A694FF0010303FA00F31A401D
:101C700093422AD14FF0010303FA00F04FF4C063FE
:101C8000C4F20E0358614FF0000070474FF4C06378
:101C9000C4F20E03D3F80821A0F120004FF0010395
:101CA00003FA00F31A40934212D14FF0010303FAF2
:101CB00000F04FF4C063C4F20E03C3F804014FF008
:101CC000000070474FF0010070474FF00000704770
:101CD0004FF00000704700BF4FEA002000F4706230
:101CE00042F001024FF4C063C4F20E039A637047DE
:101CF0004FF4C063C4F20E034FF020021A60704725
:101D000040F69853C2F207031A6802F101021A6002
:101D1000704700BF40F69853C2F207031868704737
:101D200008B540F69C53C2F207031B6803B19847FD
:101D300008BD00BF40F69C53C2F20703186070470D
:101D400008B54FF0000340F6A051C2F207011A4651
:101D500041F8232001EB8300826203F101030A2B87
:101D6000F6D14FF0280041F6D133C0F2080398476E
:101D700041F6B133C0F2080398474FF0000041F636
:101D8000D943C0F20803984741F6F143C0F2080373
:101D900098474FF46143CEF200034FF0000083F800
:101DA00028034FF480725A604FF44043C4F20A0390
:101DB000D3F8002822F08072C3F80028D3F8002856
:101DC00042F00072C3F80028D3F8002822F0807295
:101DD000C3F80028D3F8002822F48052C3F8002862
:101DE000D3F8002842F48052C3F80028D3F8002822
:101DF00042F40042C3F80028D3F8002822F48042BD
:101E0000C3F800281A6822F480521A601A6822F473
:101E100040621A60D3F8002842F48042C3F80028D8
:101E200008BD00BF00F00F004FF44043C4F20A03A6
:101E300000F1400243F82210DA694FF0010101FA83
:101E400000F10A43DA614CF23013C4F20A0353F88A
:101E5000203013F4802F00D1FEE770472DE9F00108
:101E600001293AD942684FF44043C4F20A03C3F847
:101E70000421DA6942F00202DA614CF23413C4F24E
:101E80000A031B6813F4802F14D112E004F1040C30
:101E9000656803F1400842F82850D56907FA03F84D
:101EA00048EA0505D561A419241A246814F4802F82
:101EB0000ED1FEE700F104044FF001034FF440425D
:101EC000C4F20A021F464CF23416C4F20A0600E0BD
:101ED000644603F101038B42D8D1BDE8F00170479D
:101EE0004FF44042C4F20A02D2F8303113F0010F2D
:101EF000FAD070474FF44042C4F20A02D2F83031AF
:101F000013F0020FFAD070474FF44043C4F20A03B3
:101F10004FF00102C3F8602140F6A053C2F207035C
:101F20004FF000021A6070474FF44043C4F20A03B6
:101F30004FF00202C3F8602140F6A053C2F207033B
:101F40004FF000029A6270474FF44043C4F20A0314
:101F5000D3F8300100F00400704700BF4FF4404355
:101F6000C4F20A034FF00402C3F86021704700BFB7
:101F700070B516464FEAC03303F1005303F5C013A2
:101F80004FF44042C4F20A0200F14C0452F82440DB
:101F900014F0010FF8D078B940F6A052C2F207024F
:101FA0001268B218402A0FD940F6A052C2F20702B6
:101FB0001668C6F1400607E040F6A052C2F20702DA
:101FC0004FF0000442F8204040F6A052C2F207024F
:101FD00052F820209B1856B101F1FF319D1911F8DC
:101FE000014F03F8014BAB42F9D1314601E04FF00C
:101FF000000140F6A053C2F2070353F820208A18CC
:1020000043F8202060B940F6A053C2F207031B68D2
:10201000402B15D141F60973C0F2080398470FE031
:102020004FF44043C4F20A0300F158024FF001019B
:1020300043F8221000F188004FF4804243F820203A
:10204000304670BD40F6A053C2F2070353F820207B
:1020500002EBC03202F1005202F5C012117053F8C7
:10206000202002F1010243F82020704740F6A053DF
:10207000C2F2070303EB80039A6A02EBC03000F15F
:10208000005000F5C01000789A6A02F101029A62CD
:10209000704700BF70B44FEAC03505F1005505F533
:1020A000C01540F6A054C2F2070404EB8004A36AF2
:1020B000EB1816464AB103F1FF338D1813F8014FA0
:1020C00001F8014BA942F9D101E04FF0000640F6BA
:1020D000A053C2F2070303EB8000836AF6188662FE
:1020E00070BC70474FF44043C4F20A034FF0010242
:1020F000DA614FF40022C3F8F02170474FF44043F7
:10210000C4F20A0300F14C0053F82000C0F30A5057
:10211000704700BF4FF44043C4F20A0300F1580275
:102120004FF0020143F8221000F188024FF4804181
:1021300043F8221040F6A053C2F2070303EB8003DA
:102140004FF000029A6270474FF44043C4F20A0312
:1021500000F158024FF0010143F8221000F188020B
:102160004FF4804143F8221040F6A053C2F2070317
:102170004FF0000243F82020704700BF4FF4404367
:10218000C4F20A031A6800F07F0022F07F020243C3
:102190001A601A6842F080021A6070474FF40043D8
:1021A0004360704708B540F6F050C2F2070040F2B5
:1021B0005153C0F20803984708BD00BF08B5034853
:1021C00040F21163C0F20803984708BD100E0720C3
:1021D00008B5034840F21163C0F20803984708BDF0
:1021E000300E072008B5034840F21163C0F208031F
:1021F000984708BD500E07202DE9F04141F6B50380
:10220000C0F20803984740F26C03C2F207031A6851
:1022100044F6D353C1F26203A3FB02134FEA9312B5
:1022200002F1FF324EF21003CEF200035A604FF477
:102230006D42CEF200024FF0F00182F823104FF011
:1022400000049C604FF007021A6041F65020C4F26F
:102250000E0042F29D13C0F20803984742F2A943D0
:10226000C0F208039847264641F26575C0F208059A
:1022700020463146A84704F101044F2CF8D14FF411
:102280006065C4F20E054FF0FF36C5F8A0604FF44C
:102290008057C4F20E07C7F8A0604FF49053C4F201
:1022A0000E03C3F8A0604FF4A058C4F20E08C8F89B
:1022B000A06028464FF001014FF440724FF0000338
:1022C00041F60534C0F20804A0474FF000004FF07B
:1022D000010141F26573C0F20803984728464FF0A8
:1022E00001014FF440624FF00003A04728464FF031
:1022F00001014FF440524FF00003A04740464FF019
:1023000002014FF030024FF00003A04738464FF073
:1023100001014FF440624FF00003A04728464FF000
:1023200001014FF003024FF00003A04738464FF081
:1023300001014FF440424FF00003A0474FF0250049
:1023400041F6D133C0F2080398474FF00004C4F2BD
:102350000C0440F26C03C2F20703204619684FF4E4
:102360003452C0F231124FF00C0341F6B915C0F2ED
:102370000805A84720464FF000014FF440124FF0E7
:10238000010341F61125C0F20805A84720464FF089
:1023900000010A4641F60123C0F20803984720468F
:1023A000314641F63923C0F208039847204641F6EA
:1023B0003123C0F20803984741F26563C0F2080375
:1023C0009847BDE8F08100BF2DE9F04182B040F6AA
:1023D000F054C2F2070404F18006304640F2514541
:1023E000C0F20805A847009620464FF40061C4F2E9
:1023F0000E014FF00802134640F22956C0F20806BB
:10240000B04704F1C8084046A84704F58877384625
:10241000A84704F5AC763046A847CDF8008004F113
:1024200020004FF40041C4F209014FF0110213469D
:1024300040F2E955C0F20805A847009704F14000B2
:102440004FF44041C4F209014FF012021346A8476D
:10245000009604F160004FF48041C4F20A014FF08D
:1024600014021346A84702B0BDE8F08101460020DF
:102470000246034600F06CBA70B5094B094C0025C2
:10248000E41AA41003EB840602E072599047013C61
:10249000043D002CF9D1BDE8704001F063BA00BFE3
:1024A000703908007439080070B50E4B0E4D0024C9
:1024B000ED1AAD101E4603E056F824209047013473
:1024C000AC42F9D101F03AFA084D094B0024ED1A5B
:1024D000AD101E4603E056F8242090470134AC426C
:1024E000F9D170BD4839080048390800643908003E
:1024F00048390800024B0146186800F00BB800BFCD
:1025000078000720024B0146186800F0C7BA00BFE8
:10251000780007202DE9F04701F10B04162C064640
:1025200003D934F0070401D502E010248C4202D212
:102530000C233360D3E1304600F0F0F9B4F5FC7FB2
:1025400014D2A04BE20803EBC203DD689D4205D123
:1025500005F108036D6902329D4244D0EA68A9681A
:102560006B68CA6023F00303916059E0620A01D1ED
:10257000E2081BE0042A02D8A209383216E0142A25
:1025800001D85B3212E0542A02D8220B6E320DE0E1
:10259000B2F5AA7F02D8E20B773207E040F254533B
:1025A0009A4202D8A20C7C3200E07E22854B03EBDB
:1025B000C203DD6814E0696821F00301081B0F28DD
:1025C00001DD013A0EE0002809DBEB68AA68D36060
:1025D0009A606B185A6842F001025A608BE1ED680C
:1025E0009D42E8D1013277490D6901F10807BD42EA
:1025F00067D06B6823F00303181B0F280CDD2B1921
:1026000040F0010244F001046C604B610B61DF603B
:102610009F605A6018506EE100284F610F6101DB26
:10262000EB18D7E7B3F5007F0FD2DB08981001272E
:1026300007FA00F748683843486001EBC3018B682C
:10264000E960AB60DD608D603BE0580A042802D889
:102650009809383016E0142801D85B3012E054286D
:1026600002D8180B6E300DE0B0F5AA7F02D8D80B57
:10267000773007E040F25451884202D8980C7C3001
:1026800000E07E20DFF83CE10EEBC007B968B942FC
:102690000DD10123801003FA00F0DEF8043003436B
:1026A000CEF804300B4608E08968B94204D0486887
:1026B00020F003008342F7D3CB68EB60A960CD60C4
:1026C0009D600121931001FA03F33E4949688B4252
:1026D0005DD80B4205D122F003025B0004320B42AD
:1026E000FBD0384800EBC20CE6461746DEF80C502B
:1026F0002CE0696821F00308C4EB08010F2913DD01
:102700002B1944F00104EA686C6055F8080F595021
:10271000C26090602B4A536113610832DA609A609C
:1027200041F001025A600CE000290EDB05EB0803C2
:102730005A6842F001025A60EB6855F8082FD360DE
:102740009A60304600F0EBF8D9E0ED687545D0D1DD
:102750000137B90705F1080EC8D16146950704D1C4
:10276000426822EA0302426005E0A1F10805096817
:10277000013AA942F2D041685B008B4207D833B1DD
:102780003A4601E004325B000B42ABD1FAE70D4B55
:102790009F687A6822F00309A1451A4604D3C4EB66
:1027A00009030F2B00F39D80074B07EB090A1B68F9
:1027B00004EB0308D2F80834013307D108F11008FC
:1027C0000CE000BFA8040720900F072008F58058F0
:1027D00008F10F0828F47F6828F00F0830464146BA
:1027E00000F09EF8421C05466BD0504502D2454B86
:1027F0009F4266D1444A5545536843445360414A19
:1028000007D1290505D19368C84448F001025A60F0
:102810004CE0D2F80824013203D13A4BC3F80854F3
:1028200004E0CAEB050A384A5344536015F0070325
:102830001CBFC3F10803ED18A84403F580534FEA09
:102840000858A3EB18584146304600F069F82E4A64
:10285000431C536804BF4FF00008284643445360AC
:10286000401B284B404440F001009F429D6068603F
:102870001CD0B9F10F0F02D801236B6021E07B68F7
:10288000A9F10C0929F0070903F0010349EA030340
:102890007B60052207EB0903B9F10F0F5A609A60BC
:1028A00004D9304607F1080100F0F8F8164A5368D9
:1028B000D16A8B4288BFD362126B934284BF124AA3
:1028C0001363104B9B685A6822F00302A242C4EBC8
:1028D000020301D30F2B04DC304600F020F8002562
:1028E0000DE0084A44F00101956843F001032C19FA
:1028F000696094606360304600F011F8083528463E
:10290000BDE8F087A8040720900F0720821803462F
:1029100001E003F8011B9342FBD1704770477047F9
:1029200038B5064C0023054608462360FDF7B0FD88
:10293000431C02D1236803B12B6038BDC40F0720AC
:10294000034613F8012B002AFBD1181A01387047EF
:102950002DE9F8439846234B06461C680F46D4F8E9
:102960004801914618B904F5A670C4F848014168B9
:102970001F2916DD1C4B1BB94FF0FF30BDE8F88353
:102980004FF4C870FFF7B6FD0028F5D0D4F8481111
:10299000002545600160C4F84801C0F88851C0F8BE
:1029A0008C51B6B14468012202FA04F2D0F88811C1
:1029B00000EB84031143022EC3F88890C0F88811FD
:1029C0001C46C3F8088104D1D0F88C311A43C0F8F2
:1029D0008C2143689A1C013340F822704360002028
:1029E000BDE8F88334390800F5240800024B13B120
:1029F0000248FFF73BBD7047000000007924080043
:102A0000F8B5234D0E460446FFF788FFAB685F68B4
:102A100027F0030707F6EF739E1B26F47F6626F068
:102A20000F06A6F58056B6F5805F04DA2046FFF75C
:102A300076FF0020F8BD00212046FFF771FFAB684C
:102A4000DB199842F2D171422046FFF769FF01304D
:102A500010D100212046FFF763FFAB68C21A0F2A8E
:102A6000E4DD0C4942F0010209685A60401A0A4943
:102A70000860DBE7AB68BF1B47F001075F60064BF0
:102A800020461A68961B1E60FFF749FF0120F8BD1B
:102A9000A8040720B0080720940F0720F8B50646C1
:102AA0000D46002900F0A580FFF738FF55F804CC4B
:102AB000504FA5F108032CF001029C18B96860681A
:102AC0008C4220F003000CF001011CD1821839B9AE
:102AD00055F8081C5B1A98685218D968C16088605C
:102AE00042F00101596043498B60434B1B689A4295
:102AF00004D3424B30461968FFF782FF3046BDE8E9
:102B0000F840FFF70CBF606059B955F8085C08370A
:102B10005B1B52199D68BD4205D0DF68EF60BD6048
:102B200002E0002100E0012125186D6815F0010F79
:102B30000FD1121849B9A068314DA84205D1EB60F8
:102B4000AB60D8609860012103E0E068A468E060B1
:102B5000846042F0010058609A500029CED1B2F54D
:102B6000007F0CD2D2089010012404FA00F421490D
:102B7000486801EBC20220434860916834E0540A7F
:102B8000042C02D89409383416E0142C01D85B3494
:102B900012E0542C02D8140B6E340DE0B4F5AA7F69
:102BA00002D8D40B773407E040F254518C4202D85B
:102BB000940C7C3400E07E240E4D05EBC40081684B
:102BC00081420BD10122A41002FA04F46A68224364
:102BD0006A600A4608E08968814204D04C6824F0A3
:102BE0000304A242F7D3CA68DA6099609360CB60AD
:102BF00084E7F8BDA8040720B4080720900F072039
:102C0000B0040720000000000000000000000000E9
:102C1000FD010800000000000000000000000000AE
:102C20001505080045030800C9040800ED04080064
:102C3000D904080009050800C104080000000000CC
:102C40000000000000000000D50508004503080052
:102C500089050800AD05080099050800C9050800A8
:102C60008105080000000000080B000202020100BC
:102C700009040000010202000005240010010524DF
:102C80000101010424020605240600010705810351
:102C900010001009040100020A00000007050202EA
:102CA000000200070583020002000000080B00027A
:102CB00002020100090400000102020000052400D4
:102CC0001001052401010104240206052406000167
:102CD0000705810310001009040100020A0000002A
:102CE00007050202400000070583024000000000C3
:102CF000000000000000000089060800A50608008A
:102D000041060800F50608005D060800E106080017
:102D10005107080000000000090402000103000040
:102D2000000921010100012265000705840340001C
:102D30000100000005010902A1010901A1008501AE
:102D40000509190129031500250195037501810263
:102D5000950175058103050109300931093815818F
:102D6000257F750895038106C0C005010906A101EC
:102D70008502050719E029E7150025017501950869
:102D80008102950175088103950675081500256572
:102D90000507190029658100C0000000000000003F
:102DA000000000000000000025090800450308009D
:102DB000FD0A08006D0A0800490A0800000000002A
:102DC000000000002A2B2800000000000000000086
:102DD0000000000000000000000000002C9EB4A0D5
:102DE000A1A2A434A6A7A5AE362D3738271E1F20D2
:102DF000212223242526B333B62EB7B89F84858697
:102E00008788898A8B8C8D8E8F90919293949596DA
:102E10009798999A9B9C9D2F3130A3AD3504050658
:102E20000708090A0B0C0D0E0F10111213141516BA
:102E30001718191A1B1C1DAFB1B0B5000000000017
:102E4000120100020200004041233E000001010285
:102E500000010000120100020000004041233E007A
:102E600000010102000100000403090422034100E3
:102E700072006400750069006E006F00200044005D
:102E800075006500200020002000200020000000C8
:102E90001803410072006400750069006E006F0045
:102EA00020004C004C0043000A06000200000040D5
:102EB0000100000000000000000000000000000011
:102EC0000000000000AAAAAAAAAAAAAAAAEEEEEEE8
:102ED000EEEEEEEEEEFEFFFFFFFFFFFFFFFFFFFF58
:102EE000FF7FBFDFEFF7FBFDFC7EBFDFEFF7FBFDF2
:102EF0007E000000322000003639000066300000FD
:102F00006631000036390000000E0E40000100005E
:102F10000B000000010000000000000004000000A1
:102F2000FFFFFFFF000E0E40000200000B0000003C
:102F3000010000000000000004000000FFFFFFFF90
:102F400000100E40000000020C0000000200000013
:102F50000000000014000000FFFFFF0000120E4000
:102F6000000000100D000000020000000000000042
:102F700014000000FFFFFF0E00120E4000000004CE
:102F80000D0000000200000000000000140000001E
:102F9000FFFFFF0D00120E40000000020D000000B8
:102FA000020000000000000014000000FFFFFF0C02
:102FB00000120E40000000010D00000002000000A1
:102FC000000000000C000000FFFF07FF00120E4091
:102FD000000080000D000000020000000000000062
:102FE0000C000000FFFF06FF00120E400000400032
:102FF0000D00000002000000000000000C000000B6
:10300000FFFF05FF00120E40000020000D00000031
:1030100002000000000000000C000000FFFF04FFA1
:1030200000120E40000000200D0000000200000011
:103030000000000014000000FFFFFF0F00140E400E
:10304000800000000E0000000200000000000000F0
:1030500014000000FFFFFF1000140E4000010000EC
:103060000E0000000200000000000000140000003C
:10307000FFFFFF1100100E40000000080C000000D0
:10308000020000000000000014000000FFFFFF012C
:1030900000140E40100000000E00000002000000AE
:1030A0000000000004000000FFFFFFFF00140E40BE
:1030B000200000000E0000000200000000000000E0
:1030C00004000000FFFFFFFF000E0E400020000084
:1030D0000B000000010000000000000004000000E0
:1030E000FFFFFFFF000E0E40001000000B0000006D
:1030F000010000000000000004000000FFFFFFFFCF
:10310000000E0E40000800000B000000010000004F
:103110000000000004000000FFFFFFFF000E0E4053
:10312000000400000B00000001000000000000008F
:1031300004000000FFFFFFFF00100E400010000021
:103140000C0000000100000000000000040000006E
:10315000FFFFFFFF00100E40002000000C000000E9
:10316000010000000000000004000000FFFFFFFF5E
:1031700000100E40000000040C00000004000000DD
:103180000000000004000000FFFFFFFF000E0E40E3
:10319000004000000B0000000400000000000000E0
:1031A00004000000FFFFFFFF000E0E400080000043
:1031B0000B000000040000000000000004000000FC
:1031C000FFFFFFFF00140E40010000000E00000092
:1031D000040000000000000004000000FFFFFFFFEB
:1031E00000140E40020000000E0000000400000069
:1031F0000000000004000000FFFFFFFF00140E406D
:10320000040000000E0000000400000000000000A8
:1032100004000000FFFFFFFF00140E400800000044
:103220000E00000004000000000000000400000088
:10323000FFFFFFFF00140E40400000000E000000E2
:10324000040000000000000004000000FFFFFFFF7A
:1032500000140E40000200000E00000004000000F8
:103260000000000004000000FFFFFFFF000E0E4002
:10327000800000000B0000000400000000000000BF
:1032800004000000FFFFFFFF00140E4000040000D8
:103290000E00000004000000000000000400000018
:1032A000FFFFFFFF00120E40020000000D000000B3
:1032B000040000000000000004000000FFFFFFFF0A
:1032C00000120E40040000000D0000000400000089
:1032D0000000000004000000FFFFFFFF00120E408E
:1032E000080000000D0000000400000000000000C5
:1032F00004000000FFFFFFFF00120E40100000005E
:103300000D000000040000000000000004000000A8
:10331000FFFFFFFF00120E40200000000D00000024
:10332000040000000000000004000000FFFFFFFF99
:1033300000120E40400000000D00000004000000DC
:103340000000000004000000FFFFFFFF00120E401D
:10335000800000000D0000000400000000000000DC
:1033600004000000FFFFFFFF00120E4000010000FC
:103370000D00000004000000000000000400000038
:10338000FFFFFFFF00120E40000200000D000000D2
:10339000040000000000000004000000FFFFFFFF29
:1033A000000E0E40000008000B00000004000000AA
:1033B0000000000004000000FFFFFFFF000E0E40B1
:1033C000000010000B0000000400000000000000DE
:1033D00004000000FFFFFFFF00120E400000080085
:1033E0000D000000040000000000000004000000C8
:1033F000FFFFFFFF00120E40000004000D00000060
:10340000040000000000000004000000FFFFFFFFB8
:1034100000120E40000002000D0000000400000039
:103420000000000004000000FFFFFFFF00120E403C
:10343000000001000D00000004000000000000007A
:1034400004000000FFFFFFFF00120E40008000009C
:103450000D00000004000000000000000400000057
:10346000FFFFFFFF00120E40004000000D000000B3
:10347000040000000000000004000000FFFFFFFF48
:1034800000120E40002000000D00000004000000AB
:103490000000000004000000FFFFFFFF00120E40CC
:1034A000001000000D0000000400000000000000FB
:1034B00004000000FFFFFFFF00100E40000020008E
:1034C0000C000000040000000000000004000000E8
:1034D000FFFFFFFF00100E40004000000C00000046
:1034E000040000000000000004000000FFFFFFFFD8
:1034F000000E0E40000001000B0000000300000061
:1035000000000000020000000007FFFF000E0E4058
:10351000000000010B00000003000000000000009C
:10352000020000000106FFFF000E0E4000008000B8
:103530000B0000000300000000000000020000007B
:103540000205FFFF000E0E40000040000B000000CF
:103550000300000000000000020000000304FFFF61
:10356000000E0E40400000000B00000003000000B1
:1035700000000000020000000403FF05000E0E40E2
:10358000100000000B00000003000000000000001D
:10359000020000000502FFFF000E0E4008000000C0
:1035A0000B0000000300000000000000020000000B
:1035B0000601FF03000E0E40040000000B00000097
:1035C0000300000000000000020000000700FF02EE
:1035D00000100E40000002000C000000030000007C
:1035E0000000000002000000080AFFFF00100E406B
:1035F000000004000C0000000300000000000000B8
:1036000002000000090BFFFF00100E400000080040
:103610000C00000003000000000000000200000099
:103620000A0CFFFF00100E40000010000C0000000C
:103630000300000000000000020000000B0DFFFF6F
:1036400000100E40008000000C000000030000008D
:1036500000000000020000000C10FFFF00100E40F0
:10366000000001000C00000003000000000000004A
:10367000020000000D11FFFF000E0E4002000000CE
:103680000B0000000100000000000000040000002A
:103690000EFFFFFF000E0E40010000000B000000B7
:1036A0000100000000000000040000000FFFFFFF09
:1036B000000E0E40000002000B00000001000000A0
:1036C0000000000004000000FFFFFFFF000E0E409E
:1036D000000004000B0000000100000000000000DA
:1036E00004000000FFFFFFFF00120E40000000403A
:1036F0000D000000040000000000000004000000B5
:10370000FFFFFFFF000E0E40000020000B00000036
:10371000040000000000000004000000FFFFFFFFA5
:10372000000E0E40000000020B000000010000002F
:103730000000000004000000FFFFFFFF000E0E402D
:10374000000000040B000000010000000000000069
:1037500004000000FFFFFFFF000E0E400000000805
:103760000B00000001000000000000000400000049
:10377000FFFFFFFF000E0E40000000100B000000D6
:10378000010000000000000004000000FFFFFFFF38
:1037900000100E40000080000C000000020000003D
:1037A0000000000004000000FFFFFFFF000E0E40BD
:1037B000000006000B0000000100000000000000F7
:1037C00005000000FFFFFFFF00100E40003000006A
:1037D0000C000000010000000000000005000000D7
:1037E000FFFFFFFF000E0E40000300000B00000073
:1037F000010000000000000005000000FFFFFFFFC7
:10380000000E0E40000C00000B0000000100000044
:103810000000000005000000FFFFFFFF000E0E404B
:10382000003000000B00000001000000000000005C
:1038300005000000FFFFFFFF00140E4030000000F5
:103840000E00000002000000000000000500000063
:10385000FFFFFFFF00100E40000C00000C000000F6
:10386000010000000000000004000000FFFFFFFF57
:1038700000100E40000020000C00000002000000BC
:103880000000000004000000FFFFFFFF000E0E40DC
:10389000000000200B0000000100000000000000FC
:1038A00004000000FFFFFFFF00100E40008000003A
:1038B0000C000000010000000000000004000000F7
:1038C000FFFFFFFF00100E40004000000C00000052
:1038D000010000000000000004000000FFFFFFFFE7
:1038E000000E0E40030000000B000000010000006D
:1038F0000000000005000000FFFFFFFF00100E4069
:1039000000C000000C0000000100000000000000EA
:1039100005000000FFFFFFFF0000000000000000A6
:103920000000000000000000000000000000000097
:10393000FFFFFFFF8000072043000000F8B500BF35
:10394000F8BC08BC9E467047ED2908006D010800D0
:103950007902080001090800CD0B08004515080090
:10396000C9230800F8B500BFF8BC08BC9E467047E4
:043970004501080005
:1039740072B64FF42063C4F20E039A6812F0010F7A
:10398400FBD04FF42063C4F20E034FF48672C5F6E5
:1039940000225A604FF42063C4F20E039A6812F0B6
:1039A400010FFBD044F24023C0F20F03013BFDD1D1
:1039B4004FF4D053C4F20E034FF00502CAF2005282
:1039C4001A60FEE70D000000FFFFFFFF00E10000AA
:1039D40000000800FFFFFFFF0101000000093D0097
:1039E400010000000000000080000720000000002B
:1039F400000000006C030720D40307203C040720C8
:103A040000000000000000000000000000000000B2
:103A140000000000000000000000000000000000A2
:103A24000000000038390800000000000000000019
:103A34000000000000000000000000000000000082
:103A44000000000000000000000000000000000072
:103A54000000000000000000000000000000000062
:103A64000000000000000000000000000000000052
:103A74000000000000000000000000000000000042
:103A84000000000000000000000000000000000032
:103A94000000000000000000010000000000000021
:103AA4000E33CDAB34126DE6ECDE05000B000000E6
:103AB4000000000000000000000000000000000002
:103AC40000000000000000000000000000000000F2
:103AD40000000000000000000000000000000000E2
:103AE40000000000000000000000000000000000D2
:103E2400A8040720A8040720B0040720B004072032
:103E3400B8040720B8040720C0040720C0040720E2
:103E4400C8040720C8040720D0040720D004072092
:103E5400D8040720D8040720E0040720E004072042
:103E6400E8040720E8040720F0040720F0040720F2
:103E7400F8040720F80407200005072000050720A0
:103E8400080507200805072010050720100507204E
:103E940018050720180507202005072020050720FE
:103EA40028050720280507203005072030050720AE
:103EB400380507203805072040050720400507205E
:103EC400480507204805072050050720500507200E
:103ED40058050720580507206005072060050720BE
:103EE400680507206805072070050720700507206E
:103EF400780507207805072080050720800507201E
:103F040088050720880507209005072090050720CD
:103F14009805072098050720A0050720A00507207D
:103F2400A8050720A8050720B0050720B00507202D
:103F3400B8050720B8050720C0050720C0050720DD
:103F4400C8050720C8050720D0050720D00507208D
:103F5400D8050720D8050720E0050720E00507203D
:103F6400E8050720E8050720F0050720F0050720ED
:103F7400F8050720F805072000060720000607209B
:103F84000806072008060720100607201006072049
:103F940018060720180607202006072020060720F9
:103FA40028060720280607203006072030060720A9
:103FB4003806072038060720400607204006072059
:103FC4004806072048060720500607205006072009
:103FD40058060720580607206006072060060720B9
:103FE4006806072068060720700607207006072069
:103FF4007806072078060720800607208006072019
:1040040088060720880607209006072090060720C8
:104014009806072098060720A0060720A006072078
:10402400A8060720A8060720B0060720B006072028
:10403400B8060720B8060720C0060720C0060720D8
:10404400C8060720C8060720D0060720D006072088
:10405400D8060720D8060720E0060720E006072038
:10406400E8060720E8060720F0060720F0060720E8
:10407400F8060720F8060720000707200007072096
:104084000807072008070720100707201007072044
:1040940018070720180707202007072020070720F4
:1040A40028070720280707203007072030070720A4
:1040B4003807072038070720400707204007072054
:1040C4004807072048070720500707205007072004
:1040D40058070720580707206007072060070720B4
:1040E4006807072068070720700707207007072064
:1040F4007807072078070720800707208007072014
:1041040088070720880707209007072090070720C3
:104114009807072098070720A0070720A007072073
:10412400A8070720A8070720B0070720B007072023
:10413400B8070720B8070720C0070720C0070720D3
:10414400C8070720C8070720D0070720D007072083
:10415400D8070720D8070720E0070720E007072033
:10416400E8070720E8070720F0070720F0070720E3
:10417400F8070720F8070720000807200008072091
:10418400080807200808072010080720100807203F
:1041940018080720180807202008072020080720EF
:1041A400280807202808072030080720300807209F
:1041B400380807203808072040080720400807204F
:1041C40048080720480807205008072050080720FF
:1041D40058080720580807206008072060080720AF
:1041E400680807206808072070080720700807205F
:1041F400780807207808072080080720800807200F
:1042040088080720880807209008072090080720BE
:104214009808072098080720A0080720A00807206E
:08422400FFFFFFFF0000020094
:00000001FF
