S00A000048572E737265637B
S214080000683207207D110800A5010800A501080030
S214080010A5010800A5010800A501080000000000C9
S214080020000000000000000000000000A901080011
S214080030A501080000000000B5010800C10108007D
S214080040A5010800A5010800A5010800A5010800EB
S214080050A5010800A5010800A5010800A5010800DB
S214080060B91A0800A501080000000000F10F0800F2
S2140800701910080041100800691008000000000068
S21408008000000000CD1A0800E11A0800A5010800C3
S214080090F51A0800A5010800A5010800A501080032
S2140800A0A501080000000000A5010800A501080039
S2140800B0A5010800A5010800B1190800A501080057
S2140800C0A5010800A5010800A5010800A50108006B
S2140800D0A5010800A5010800A5010800A50108005B
S2140800E0A5150800A5010800A5010800A501080037
S2140800F0A501080008B50548054B1B1A062B00D8AD
S21408010008BD044B002BFBD09847F9E7886E08001B
S2140801108B6E08000000000008B50748074B1B1A3E
S2140801209B1003EBD373591000D108BD044A002A6C
S214080130FBD09047F9E700BF886E0800886E080075
S2140801400000000010B5064C237843B9FFF7D2FF2D
S214080150044B13B10448AFF300800123237010BD8D
S214080160780A072000000000886E080008B5084BCB
S2140801701BB108480849AFF300800848036813B164
S214080180074B03B19847BDE80840FFF7C5BF00BF57
S21408019000000000886E08007C0A0720886E0800A9
S2140801A000000000FEE7000008B5014B984708BDB0
S2140801B0E701080008B5014B984708BDE7010800A5
S2140801C008B5044B984718B9034B9847034B98470C
S2140801D008BD00BFE30108002903080089150800C8
S2140801E0704700207047FEE72DE9F0470024DFF847
S2140801F03890DFF8388007460E4625463B191979A9
S2140802000A223046C8472E2182463046C047013467
S2140802105044032C0544F1D13046F9790A22024BA2
S21408022098472818BDE8F0870103080095020800DB
S214080230044B054A1A6000221A715A719A71DA71CB
S214080240704700BF940A0720D85E0800F8B506462F
S2140802500C468F18002506E0336830461B6814F8ED
S214080260011B98472D18BC42F6D12846F8BD000059
S21408027038B505460C46084641B1054B98472B68E5
S21408028002465B6828462146984738BD38BD00BFF9
S214080290AB25080008B503681B68984708BD00002A
S2140802A070B500238AB08DF82430012A98BF0A2238
S2140802B00DF12303B1FBF2F505FB1211CCB2092CA4
S2140802C01E4601D8303400E03734E4B203F801495A
S2140802D02946002DEED13146014B98470AB070BD2D
S2140802E07102080010B50C4622B90368C9B21B682B
S2140802F0984710BDD2B2014B984710BDA10208001E
S21408030008B5014B984708BDE5020800014B186080
S214080310704700BF3C000720024B4FF0FF321A60C0
S214080320704700BF3C000720054A08B51368591CEB
S21408033004D0013B13600BB9024B984708BD00BFB9
S2140803403C0007200100072010B500214022044B7E
S21408035004469847002323646364204610BD00BF04
S21408036049220800026C10B5531C446C03F03F0386
S214080370A3421CBF8154036410BD0000044B1A68D6
S2140803800AB9044A1A601A681018186010467047A6
S2140803909C0A0720683207204FF0FF3070474FF45A
S2140803A000534B60002070470120704700207047BC
S2140803B000207047074830B50023044605E0456925
S2140803C0AD07FCD5CD5C0133E5619342F7DB22EA45
S2140803D0E27030BD00080E4008B50146014B0248E1
S2140803E09847FEE777220800E05E080070474FF05F
S2140803F0FF307047012070470369186C5B6CC01AA1
S21408040000F03F00704703695A6C196C914214BF9C
S214080410985C4FF0FF30704703695A6C196C91422C
S21408042005D0985C013202F03F025A6470474FF0DC
S214080430FF307047426953699B07FCD5704743698C
S2140804405A699207FCD5D9610120704730B5002556
S21408045045604FF47A758560044D04460560039D33
S214080460416105610276C36130BD00BF085F0800C0
S21408047038B5436904465D69E90704D59969006992
S214080480C9B2054B984715F0600F04D063691A681F
S21408049042F480721A6038BD650308000120704770
S2140804A00369186C5B6CC01A00F03F00704703695C
S2140804B05A6C196C914214BF985C4FF0FF30704725
S2140804C003695A6C196C914205D0985C013202F0A7
S2140804D03F025A6470474FF0FF30704742695369CD
S2140804E09B07FCD5704743695A699207FCD5D961C2
S2140804F00120704730B5002545604FF47A75856051
S214080500044D04460560039D416105610276C3619A
S21408051030BD00BF305F080038B5436904465D69E2
S214080520E90704D599690069C9B2054B984715F0DB
S214080530600F04D063691A6842F480721A6038BD86
S21408054065030800044BD3F80002D3F80432C01A37
S214080550C005C00D704700BFA00A0720064BD3F899
S2140805600012D3F80422914203D0D3F80422985CF0
S21408057070474FF0FF307047A00A072013B502688F
S21408058002AB03F8011D546819460122A0471CBD9A
S21408059008B50320014B984708BD00BF950F080013
S2140805A038B50F4B0446D3F80012D3F8042291420C
S2140805B013D0D3F8042202209D5CD3F8042201321B
S2140805C0D205D20DC3F80422064B984718B1236803
S2140805D020469B699847284638BD4FF0FF3038BDFF
S2140805E0A00A072081090800F8B5184B0121184D04
S2140805F053E8002F12B1BFF32F8FF8BD43E800125F
S214080600002AF4D1D5F80042124E0134E405E40D70
S214080610114F11E00220B04720B9104B4FF480422A
S2140806201A600DE00220B847D5F80032C5F8004237
S2140806300134E405E854E40DD5F804329C42E9D1C7
S214080640034B0022C3F80822F8BD00BFA80C0720F9
S214080650A00A072081090800390A080028C20A40AB
S21408066010B5084B0446D87940B10320064B984786
S214080670002805DC01236360002010BD01236360A9
S21408068010BD00BF400007205D0A080008B50378C3
S21408069003490233037042220020024B984708BDE4
S2140806A0505F0800B10A080008B50378034902330A
S2140806B0037042220020024B984708BD925F08004C
S2140806C0B10A080008B502784378A12A07D10020A5
S2140806D0212B20D112490722124B98471EE0212AC7
S2140806E01AD1202B04D107210F4B0D48984715E047
S2140806F0222B11D182780A4BDA711A68B2F5966FF6
S2140807000CD1DB79DB0703D4FA20084B984705E0C1
S214080710074B984702E008BD002008BD012008BD29
S21408072040000720B10A0800F50A08000D03080073
S21408073019030800054B0022C3F810224FF47A72FA
S214080740C3F81422024AC3F80C227047A00A0720EE
S214080750E05F0800036870B59B6804460E46984735
S21408076023680546DB68204631469847E8B270BDE0
S21408077008B5037803490133037019220020024B99
S214080780984708BD00600800B10A080008B50020B0
S21408079002496522024B984708BD00BF1960080049
S2140807A0B10A080000B591B08DF80000002304E0F7
S2140807B0C81810F8010C0DF80300934203F1010362
S2140807C0F6D11A4604206946014B984711B000BD79
S2140807D05D0A080002784378A12A05D1012B12D0B9
S2140807E0033B584258417047212A0ED10B2B03D1A0
S2140807F08278074B1A7004E00A2B06D18278044BDD
S2140808005A7001207047184670470020704700BF8E
S2140808104C00072008B502200822014B984708BD5F
S214080820A507080008B5014600238372C372037340
S21408083043738373C37301F8083F014B984708BD99
S21408084015080800872938B502D97831C9B218E0E2
S2140808500B0609D50123803903FA01F1037A23EA46
S2140808600101017200210CE0104B591891F89C10F8
S214080870D1B10A0605D5037A01F07F0123F00203F9
S214080880037203460622002419B19D7A8D4208BFDA
S2140808909C72013A013312F0FF02F5D100F108010B
S2140808A0034B9847012038BD084638BD006008004D
S2140808B015080800872910B502D97831C9B218E09A
S2140808C00B0608D50123803903FA01F1037A194388
S2140808D0017200210DE01A4B591891F89C1001B9C5
S2140808E029E00A0605D5037A01F07F0143F00203E2
S2140808F00372837A8B4218D0C37A8B4215D0037B57
S2140809008B4212D0437B8B420FD0837B8B420CD01A
S214080910C37B8B4209D00023C218947A0CB9917213
S21408092003E00133062BF7D105E000F10801054B7B
S2140809309847012010BD01234360002010BD00BF6A
S2140809400060080015080800034B00221A709A6019
S214080950024A5A60704700BFC00C0720886008002B
S214080960064B02E05A68D10707D4D3F83021D207DD
S214080970F8D5024B0122C3F86021704700C00A4030
S21408098038B5094C256872B6BFF35F8F002323601D
S21408099000F00F00054B984725B101232360BFF3ED
S2140809A05F8F62B638BD00BF580007208918080058
S2140809B02DE9F8431B4B0E461B6814469BB115E001
S2140809C02846C04706F8010B4E45F9D11CB1284603
S2140809D0154B9847F0B10FB3144B01221A60BFF3BA
S2140809E05F8F62B61AE04FF0FF3417E00F4B1F68B0
S2140809F072B6BFF35F8F002200F00F051A60284614
S214080A00094B9847A04238BF044606EB0409DFF8AE
S214080A102480D9E72846064B9847DCE72046BDE8F9
S214080A20F88300BFD40C0720891808005800072050
S214080A309D1808001D18080007B5074B01220DF180
S214080A40070100F00F00984701280CBF9DF8070023
S214080A504FF0FF300EBD00BFB1090800124B2DE95C
S214080A60F0471B6880461546C3B10E46144600F08C
S214080A700F0ADFF838900EE0B8F1000F14BF4FF4F5
S214080A8000774027A74228BF2746314650463A46B1
S214080A90C847E41BF619002CEED101E04FF0FF35ED
S214080AA02846BDE8F08700BFD40C07206D1708005D
S214080AB00E4B2DE9F04115465A689B6888469A42BF
S214080AC008DB0CE008EB060122460020B84736187B
S214080AD0241A02E0064F2C460026002CF2D1034BBF
S214080AE028465A68AA185A60BDE8F081D40C072030
S214080AF06D17080038B50C460546054B9847002084
S214080B0029462246034B9847034B9847204638BD4C
S214080B100D170800411808003517080008B50379AE
S214080B200BB9044B02E0022B02D1034B984708BDD1
S214080B30002008BDC5060800D507080013B5002321
S214080B4002AC04F8013D2046034B98472046034B69
S214080B5098479DF807001CBD8D0608007107080019
S214080B6013B5002302AC04F8013D2046034B984712
S214080B702046034B98479DF807001CBDA9060800A9
S214080B80710708002DE9F0479D4C86B06368180782
S214080B9017D52368002023F07F032360236842F2DA
S214080BA0320143F080032360964B9847964B042205
S214080BB01A604FF48053A361944B00221A600823EE
S214080BC0A3608F4B5B68590408D5914B02201860C8
S214080BD0904B984710B19048904B9847884B5A6866
S214080BE0520701D504229A605B68D80440F1B481A4
S214080BF08B4B9847002800F0AF810822002001A9F7
S214080C00884B9847884B98479DF8045029064CBF50
S214080C10864B874B984705F060021446002A40F03A
S214080C2085819DF8053083B99DF8044004B916E01F
S214080C30764B1B7B0020012B01D1012100E00146E9
S214080C407C4B98470020014666E1012B0FD19DF8A2
S214080C500630012B6D4B01D15B7BEBE71A73204600
S214080C602146744DA84720462146A8476AE1032B2B
S214080C7079D19DF80630012B05D1644A2046537376
S214080C8021466C4B98479DF8060028B95F4B012211
S214080C901A730146674B98479DF80630022B40F0BA
S214080CA051819DF80430002B40F04C81BDF8083087
S214080CB01A0740F04781524C1B0A6269013B22F032
S214080CC001026261226842F400622260032B00F28D
S214080CD03981DFE803F0353C4302574B9847002339
S214080CE0C4F81833C4F8283341F23013C4F808316E
S214080CF0D4F80831424943F00203C4F80831D1F861
S214080D0038213F4B5403FAD5DA694C4C42F00402BA
S214080D10DA614B494B4B4C4AE0188218127803F8B4
S214080D20012F8B42F7D1364B1A6842F400421A60FC
S214080D300122C3F868214FF48042C3F82822FEE750
S214080D403D4B9847236843F400532360FEE73A4B2D
S214080D509847236843F480432360FEE7364B98475A
S214080D603A4B6361FEE7052B06D1304B98479DF852
S214080D700600374B9847E5E0062B40F0AA809DF81A
S214080D800760224F022EBDF80A507A6003D1BA6077
S214080D90DFF8C89073E0222EBD6006D130462D4B92
S214080DA09847003018BF0120CBE0012E0ED1082D41
S214080DB001D101233B61284B396903F1120200294E
S214080DC00CBF11461946112D7ED816E0032E47D1C2
S214080DD09DF806301BB9204911F8243F0BE0022B7A
S214080DE003D11D4911F8283F05E0012B40F0AC80DF
S214080DF0194911F84A3FAB4266D9EAB2A7E000BFE4
S214080E0000C00A408D160800F0C10A40D40C07201E
S214080E1068C10A4081090800AC0C0720E9050800EB
S214080E204D170800411808005D170800FD16080051
S214080E301D170800F91708006109080094610800E2
S214080E4034001920FFFF18200100E7DF7FF0077E37
S214080E50F51808008D070800206108003D0B0800FB
S214080E60062E04D1092D75D8EAB23D496FE0072E43
S214080E704FF0000468D13B4FDFF81491BC60C847B8
S214080E804FF0090882462146424603A8364B984743
S214080E9001238DF81130C0238DF81330FA238DF80E
S214080EA00C808DF80D608DF814307B6803A94344D8
S214080EB0ADF80E308DF810A042462C4B20467C60CC
S214080EC0BD609847C8473DE00A780020274B9847FA
S214080ED038E0072B38D0082B04D1224B1046196867
S214080EE0C9B219E0092B12D1E8062DD1204B2148AA
S214080EF0052198479DF806201A4B1A601E4B0222B9
S214080F001A604FF48042A3F5FC739A611AE00A2B24
S214080F1005D1144B0020197D184B984712E00B2B6F
S214080F2010D19DF806200F4B5A610BE0144B9847DA
S214080F300C4BBDF80A20002159609A6001A8114B95
S214080F40984708B1104B00E0104B984704E0002A79
S214080F50BBD1B9E70249B7E706B0BDE8F08700BFDE
S214080F6082610800D40C072049220800B10A08004C
S214080F70BD160800CC610800F8C10A40F917080039
S214080F80FD1608001D0B08001D1708007518080038
S214080F90610B080010B5044B0446984710B120466C
S214080FA0024B984710BD00BF89180800C9180800EA
S214080FB010B5064B044606489847064B984710B99E
S214080FC0054B01229A61204610BD00BFB5150800E2
S214080FD0850B0800C1150800D40C072008B5024880
S214080FE0024B984708BD00BFF00C0720B10F080059
S214080FF0074B70B5DD6C074E0024EB0702D5A359E6
S21408100003B1984704346D08802CF6D170BD00BF34
S214081010000E0E40F80C0720074B70B5DD6C074E27
S2140810200024EA0702D5A35903B1984704346D088B
S214081030802CF6D170BD00BF00100E40780D07203A
S214081040074B70B5DD6C074E0024E90702D5A35997
S21408105003B1984704346D08802CF6D170BD00BFE4
S21408106000120E40F80D0720074B70B5DD6C074ED2
S2140810700024E80702D5A35903B1984704346D083D
S214081080802CF6D170BD00BF00140E40780E0720E5
S21408109070B5054C0546A047044E451900E0B04714
S2140810A0A047A842FBD370BD99150800E1010800C7
S2140810B00023034A1946995401334F2BFBD1704736
S2140810C0F90E072070B51C254543154E7419237B69
S2140810D0002B24D0012915D002D302291FD107E0FE
S2140810E0104BA0689847705903216268002306E0F1
S2140810F00C4BA068984770596268032101230A4C74
S214081100A04770BD75590521236928466268064EB2
S214081110B047AB69013302D1A068044B984770BD4D
S2140811206C62080081140800F5130800C51408004E
S2140811301C2273B550430D4B0E461A18117BA1B1ED
S2140811401D58546828462146094B984728B928460A
S21408115021463246074B984707E00123009321466D
S214081160284632460023044CA0477CBD6C62080023
S2140811705514080079130800D11308001549164AB3
S21408118010B5914207D1154B154A00210BE0585867
S2140811909850043301E0134C00239818A042F6D365
S2140811A0F1E743F8041B9342FBD30F4A0F4B22F098
S2140811B0604102F1604221F07F01B2F5801F99601C
S2140811C003D29A6842F000529A60094B9847094B36
S2140811D09847FEE7886E080000000720780A072070
S2140811E068120720780A07200000080000ED00E0D3
S2140811F0A11D0800D91208001C4A4FF4806313602A
S214081200C2F800321A4B1A6AD10103D5194A1A6273
S214081210174A05E0184A1A629A6ED207FCD5F5E70F
S214081220936E13F4803F124BFAD01A6B22F0030227
S21408123042F001021A63996E0D4A0807FBD50F4B58
S214081240114693628B6E0A4A13F0020FFAD01123E6
S2140812501363916E064B0907FBD512221A639A6E22
S2140812601207FCD5064A074B1A607047000A0E405C
S21408127000060E400908370109083700013F0D200F
S21408128000BD01055000072008B5044B0121186869
S214081290034B9847034B984708BD00BF54000720E8
S2140812A0C5100800AD1A080070B5084E0121306850
S2140812B0074DA847074C4FF4FA70A047306800213E
S2140812C0A8474FF4FA70A04770BD00BF5400072027
S2140812D0311108009110080008B5074B98470120FF
S2140812E0064B9847064B9847064D074CA847002CD0
S2140812F0FCD0A047FAE700BF091B080091100800B9
S21408130089120800A91208000000000030B5520033
S2140813100124046040F202250024B1FBF2F1446087
S2140813204A1EC0F820511B04C0F80441C0F81441F6
S2140813304568120603F4702343EA124215434560D3
S214081340204630BD4368D2011943D3B219434160E1
S214081350704710B54468090622431B0701F07064FD
S214081360224303F040531A43426010BD4FF6FF7302
S21408137043617047816270470AB1416670470166EB
S2140813807047426405290DD8DFE801F00D03090D02
S2140813900D0D036F016F0B4023EA020301E0036F94
S2140813A01343036742607047D30741644CBF4166E6
S2140813B0016612F00A0F14BF01624162930700D556
S2140813C001E0130701D5C0F880104161016070473D
S2140813D010B5029C41640CB1416600E001660BB191
S2140813E0016500E041650AB1016300E041630161FF
S2140813F0016010BDF7B51E464B1E05460F4614463F
S214081400042B1FD8DFE803F003030C1212000E4B60
S21408141022469847F3076C644CBF6C662C6603E05C
S21408142021463246094B984701200CE021467C1F8E
S21408143006F00103624200936241C6F38003044C3F
S214081440A047F1E70020FEBD83130800A913080093
S214081450D113080083680B4005D0836919420CBF76
S214081460002001207047184670470000034B4FF4D1
S2140814704412DA619A6E5206FCD5704700060E4092
S2140814802C2819D81F280E4B4FF0010208D802FA4C
S21408149000F0996900EA010282420FD018610DE057
S2140814A0203802FA00F0D3F8081100EA0102824256
S2140814B004D0C3F8000101E00120704700207047FF
S2140814C000060E402C2817D81F280D4B4FF0010198
S2140814D007D801FA00F09A69024082420ED15A6192
S2140814E00CE0203801FA00F0D3F8082102408242C6
S2140814F004D1C3F8042101E001207047002070479A
S21408150000060E40000200F47062024B42F0010230
S2140815109A63704700060E40014B20221A607047F7
S21408152000060E40022910B505D908484021084A89
S214081530084B094CA04789010224431844504FF031
S214081540FF319962196A5A6010BD00BFFE61080033
S214081550E061080027620800E51C0800022910B5AB
S21408156005D905485C21054A054B064CA047890164
S2140815700523435010BD00BFFE610800ED6108005A
S21408158027620800E51C0800024B1A6801321A6038
S214081590704700BF540F0720014B1868704700BFFC
S2140815A0540F072008B5024B1B6803B1984708BDBF
S2140815B0580F0720014B1860704700BF580F0720C8
S2140815C010B500232A491A4641F8232001EB830068
S2140815D0013300240A2B8262F6D12820254B98472F
S2140815E0254B98472046254B9847254B9847254B2B
S2140815F04FF4807283F828435A60234B2046D3F86A
S214081600002822F08072C3F80028D3F8002842F099
S2140816100072C3F80028D3F8002822F08072C3F8B6
S2140816200028D3F8002822F48052C3F80028D3F8FC
S214081630002842F48052C3F80028D3F8002842F461
S2140816400042C3F80028D3F8002822F48042C3F8E2
S21408165000281A6822F480521A601A6822F4406237
S2140816601A60D3F8002842F48042C3F8002810BD58
S2140816705C0F0720811408006D1408000515080083
S2140816801915080000E100E000C00A4000F00F004D
S214081690094B00F1400243F82210012202FA00F238
S2140816A0D9690A43DA6103F5987353F8203058036A
S2140816B000D4FEE7704700BF00C00A40012370B59B
S2140816C00C4A1D4613E050F8046F03F1400442F834
S2140816D0246005FA03F6D4693443D461064C1C1911
S2140816E0A400246814F4802F00D1FEE701338B424F
S2140816F0E9D370BD00C00A404CB00210024AD2F8C6
S2140817003031DB07FBD5704700C00A40024AD2F8E2
S21408171030319907FBD5704700C00A40034B0122B9
S214081720C3F86021024B00221A60704700C00A40C6
S2140817305C0F0720034B0222C3F86021024B0022ED
S2140817409A62704700C00A405C0F0720024BD3F825
S214081750300100F00400704700C00A40024B042223
S214081760C3F86021704700BF00C00A4038B503467A
S214081770C00300F100501D4D144600F5C01003F1DB
S2140817804C0255F82220D207F9D5194A3BB91568F4
S2140817906519402D06D91468C4F1400402E00025F6
S2140817A042F8235052F823208018002202E08D5C6D
S2140817B085540132A242FAD10D4A52F82310611814
S2140817C042F823102BB91368402B0DD1094B9847C4
S2140817D00AE0064A03F15801012042F8210088333E
S2140817E04FF4804142F82310204638BD00C00A4016
S2140817F05C0F07201D170800074B53F8202002EB44
S214081800C03202F1005202F5C012117053F82020BF
S214081810013243F8202070475C0F0720074B03EB84
S21408182080039A6A02EBC0309A6A00F100500132CF
S21408183000F5C01000789A62704700BF5C0F07205A
S21408184070B50B4CC50304EB80039B6A05F1005585
S21408185005F5C015ED18002302E0EE5CCE54013302
S2140818609342FAD104EB8000826A9B18836270BDAB
S2140818705C0F0720034B0122DA614FF40022C3F8FD
S214081880F021704700C00A40034B4C3053F8200044
S214081890C0F30A50704700BF00C00A40084B00F16A
S2140818A05802022143F8221000F188024FF48041C2
S2140818B043F82210034B03EB800000238362704733
S2140818C000C00A405C0F0720084B00F158020121AF
S2140818D043F8221000F188024FF4804143F82210A2
S2140818E0034B002243F82020704700BF00C00A4080
S2140818F05C0F0720064B00F07F001A6822F07F0274
S21408190002431A601A6842F080021A60704700BFE5
S21408191000C00A404FF400434360704738B5194C7E
S21408192000213C22184B2046984741F2EF2323809B
S214081930A4F84030154A164B164D1A600021284662
S2140819404FF44042144B9847144B4FF452721A60A7
S21408195010229A60124B4FF080421A601E20114BDC
S2140819609847114B284600219847012384F84230AF
S2140819700E4B23654FF47A7363654FF47A43A4F8E5
S2140819804C3038BDB00F072049220800004D495496
S214081990E440084000400840251508001C40084060
S2140819A000E100E0811408005D150800A08601002B
S2140819B01E4B1A681E4B1969C3F88020DA688A1805
S2140819C0002A1A6107DD9968521A1A61194A4FF0F7
S2140819D0007152681163D8699A6915498218002AF5
S2140819E0DA6107DD8B68D21A124BCA619B684FF022
S2140819F080521A630E4B996A5A6A891800299962A6
S214081A000C4A06DD9868091A9962D3684FF0806117
S214081A10196353684FF00071596393684FF080510B
S214081A205963D3684FF080625A6370472040084075
S214081A30B00F07205C0007201B4A4FF00073516860
S214081A404FF080500B610B600B664B654B629168DC
S214081A5008610860086648654862D1684FF080608B
S214081A600861086008664865486211690B610B6082
S214081A700B664B654B6253694FF0807119611960AC
S214081A8019665965596293694FF40001196119601E
S214081A90196659655962D3694FF480021A611A604B
S214081AA01A665A655A6270475C00072008B5014BEB
S214081AB0984708BD1D19080008B50248024B984704
S214081AC008BD00BF901007207104080008B502483A
S214081AD0024B984708BD00BFB0100720190508003C
S214081AE008B50248024B984708BD00BFD01007202B
S214081AF01905080008B50248024B984708BD00BFFC
S214081B00F0100720190508002DE9F0413D4B9847CD
S214081B103D4BF0211A684FF47A73B2FBF3F23B4B55
S214081B20013A5A603A4A002482F8231007229C6039
S214081B3038481A60384B9847384B9847384D2046EF
S214081B4000210134A8474F2CF9D1364D364FDFF81F
S214081B500881364B4FF0FF36354CC5F8A06001219A
S214081B60C7F8A0604FF44072C3F8A0602846002368
S214081B70C8F8A060A04700200121294B98470121FA
S214081B80002328464FF44062A04701210023284638
S214081B904FF44052A0470221302200234046A04777
S214081BA00121002338464FF44062A0470121032252
S214081BB000232846A04701214FF440420023384618
S214081BC0A04725201B4B98470F4B1B4A19681B4CF0
S214081BD00C231B48A0470123194800214FF4401244
S214081BE0184CA04700210A461548174B9847314617
S214081BF01348164B98471248154B9847154B984765
S214081C00BDE8F081F91108005000072010E000E058
S214081C1000ED00E0501A0E4015190800A11D080036
S214081C2031110800000E0E4000100E4000120E4043
S214081C30F513080081140800002D31010D13080063
S214081C4000000C40531308004513080075130800DD
S214081C506D130800B110080000140E402DE9F3417A
S214081C60184C194D04F180063046A847082213463A
S214081C701649009604F1C8082046154EB04704F5E4
S214081C8088774046A84704F5AC763846A8473046D5
S214081C90A847112213460F4DCDF8008004F1200006
S214081CA00D49A84712221346009704F140000B4935
S214081CB0A8471422009604F1600009491346A8476D
S214081CC0BDE8FC81901007204903080000080E4074
S214081CD04D040800F50408000080094000C00940CB
S214081CE000400A401FB5054608480068C0680AB1A3
S214081CF0074C01E0074C22468DE81200029206497E
S214081D001A462B4600F03AF801F09AFEB80107206A
S214081D10986C0800F85E0800A56C080008B513461D
S214081D200022FFF7DFFF00BF0146002002460346F9
S214081D3001F02EBE70B5094B094C0025E41AA41014
S214081D4003EB840602E072599047013C043D002CE0
S214081D50F9D1BDE8704005F023B800BFAC6D0800A7
S214081D60B06D08000CB407B504AB53F8042B019308
S214081D7000F05AFCBDE80E4002B070470EB403B53A
S214081D80014603AB054853F8042B0068019300F09E
S214081D904BFCBDE80C4003B0704700BFB8010720F5
S214081DA070B50E4B0E4D0024ED1AAD101E4603E01E
S214081DB056F8242090470134AC42F9D104F0DAFFF3
S214081DC0084D094B0024ED1AAD101E4603E056F8E0
S214081DD0242090470134AC42F9D170BD806D0800CC
S214081DE0806D0800A06D0800806D0800024B014653
S214081DF0186800F00BB800BFB8010720024B014670
S214081E00186802F055B800BFB80107202DE9F0475A
S214081E1001F10B04162C064603D934F0070401D545
S214081E2002E010248C4202D20C233360D3E1304601
S214081E3000F012FAB4F5FC7F14D2A04BE20803EBCC
S214081E40C203DD689D4205D105F108036D690232BB
S214081E509D4244D0EA68A9686B68CA6023F0030309
S214081E60916059E0620A01D1E2081BE0042A02D810
S214081E70A209383216E0142A01D85B3212E0542A36
S214081E8002D8220B6E320DE0B2F5AA7F02D8E20B1A
S214081E90773207E040F254539A4202D8A20C7C32BA
S214081EA000E07E22854B03EBC203DD6814E0696818
S214081EB021F00301081B0F2801DD013A0EE0002877
S214081EC009DBEB68AA68D3609A606B185A6842F018
S214081ED001025A608BE1ED689D42E8D101327749EC
S214081EE00D6901F10807BD4267D06B6823F003034C
S214081EF0181B0F280CDD2B1940F0010244F00104D2
S214081F006C604B610B61DF609F605A6018506EE131
S214081F1000284F610F6101DBEB18D7E7B3F5007FA8
S214081F200FD2DB089810012707FA00F748683843ED
S214081F30486001EBC3018B68E960AB60DD608D60CB
S214081F403BE0580A042802D89809383016E01428C6
S214081F5001D85B3012E0542802D8180B6E300DE01A
S214081F60B0F5AA7F02D8D80B773007E040F2545174
S214081F70884202D8980C7C3000E07E20DFF83CE1EE
S214081F800EEBC007B968B9420DD10123801003FAD9
S214081F9000F0DEF804300343CEF804300B4608E0C1
S214081FA08968B94204D0486820F003008342F7D312
S214081FB0CB68EB60A960CD609D600121931001FAA3
S214081FC003F33E4949688B425DD80B4205D122F09F
S214081FD003025B0004320B42FBD0384800EBC20C0D
S214081FE0E6461746DEF80C502CE0696821F0030830
S214081FF0C4EB08010F2913DD2B1944F00104EA6825
S2140820006C6055F8080F5950C26090602B4A5361AF
S21408201013610832DA609A6041F001025A600CE0F7
S21408202000290EDB05EB08035A6842F001025A60E5
S214082030EB6855F8082FD3609A60304600F00DF923
S214082040D9E0ED687545D0D10137B90705F1080E16
S214082050C8D16146950704D1426822EA0302426065
S21408206005E0A1F108050968013AA942F2D04168DD
S2140820705B008B4207D833B13A4601E004325B0076
S2140820800B42ABD1FAE70D4B9F687A6822F003093A
S214082090A1451A4604D3C4EB09030F2B00F39D8011
S2140820A0074B07EB090A1B6804EB0308D2F8083449
S2140820B0013307D108F110080CE000BFE805072037
S2140820C03012072008F5805808F10F0828F47F68B2
S2140820D028F00F083046414600F04CFA421C0546E8
S2140820E06BD0504502D2454B9F4266D1444A55456F
S2140820F0536843445360414A07D1290505D193687C
S214082100C84448F001025A604CE0D2F8082401326C
S21408211003D13A4BC3F8085404E0CAEB050A384A18
S2140821205344536015F007031CBFC3F10803ED18AA
S214082130A84403F580534FEA0858A3EB18584146BD
S214082140304600F017FA2E4A431C536804BF4FF077
S2140821500008284643445360401B284B404440F040
S21408216001009F429D6068601CD0B9F10F0F02D82D
S21408217001236B6021E07B68A9F10C0929F00709A7
S21408218003F0010349EA03037B60052207EB090312
S214082190B9F10F0F5A609A6004D9304607F1080162
S2140821A001F086FE164A5368D16A8B4288BFD3620E
S2140821B0126B934284BF124A1363104B9B685A688B
S2140821C022F00302A242C4EB020301D30F2B04DC65
S2140821D0304600F042F800250DE0084A44F00101B8
S2140821E0956843F001032C19696094606360304673
S2140821F000F033F808352846BDE8F087E8050720DC
S2140822003012072010B5002302E0CC5CC45401331A
S2140822109342FAD110BD814210B511D28C18A04253
S2140822200ED253428118E418CB1801E0A15C9954E9
S21408223012F1FF32FAD210BDCC5CC454013300E070
S21408224000239342F8D110BD8218034601E003F834
S214082250011B9342FBD17047704770470EB403B515
S21408226003AB53F8042B8168019300F089FEBDE8A0
S2140822700C4003B070470FB407B5064904AB0868AE
S21408228053F8042B8168019300F07AFEBDE80E40EF
S21408229004B07047B80107202DE9F84F8146164666
S2140822A00C4621B91146BDE8F84FFFF7AFBDFFF75A
S2140822B0D3FF06F10B0754F8045C162FA4F1080B9D
S2140822C025F0030803D937F0070701D502E01027E1
S2140822D0B74204D20C23C9F80030002644E1B845BA
S2140822E080F21981A24A0BEB080391688B4206D04C
S2140822F05A6822F001029A185268D00726D45A68FB
S2140823008B4222F0030000EB080A18D107F11002EE
S21408231092451DDB964B0BEB0705C7EB0A0A9D603B
S2140823204AF001036B6054F8043C484603F0010386
S2140823301F4344F8047CFFF790FF264614E1BA458D
S21408234006DBDA689B68DA609360E5E000200346FF
S214082350EA0700F1918054F8085CC5EB0B056A683B
S21408236022F00302002B51D002EB080A8B4282446B
S21408237045D107F110039A4548DB2E4656F8082F34
S214082380EB68D3609A60A8F10402242A25D8132A99
S2140823901BD923681B2AAB606368EB6003D805F17A
S2140823A01003083412E0A368242A2B61E3686B61E3
S2140823B003D005F11803103408E02369AB6163699C
S2140823C01834EB6105F1200300E0334622681A60F2
S2140823D062685A60A2689A6003E030462146FFF7B2
S2140823E01AFF634AEB19C7EB0A0A93604AF0010220
S2140823F05A606B6803F001031F436F6087E0BA45B5
S21408240004DBDA689B68DA60936003E002EB080A8C
S214082410BA4531DB284650F8082FEB68D3609A6037
S214082420A8F10402242A23D8132A1AD923681B2AB7
S214082430AB606368EB6003D805F11000083410E061
S214082440A368242A2B61E3686B6103D005F11800A2
S214082450103406E0236905F12000AB61636918347F
S214082460EB612368036063684360A368836054E095
S2140824702146FFF7D0FE50E031464846FFF7C6FC37
S214082480064600B943E054F8043CA0F1080223F0DD
S21408249001035B449A4205D150F8043C23F0030A32
S2140824A0C24439E0A8F10402242A29D8132A1ED9DE
S2140824B023681B2A03606368436004D800F1080396
S2140824C004F1080215E0A368242A8360E368C36061
S2140824D004D000F1100304F110020AE0236904F1A5
S2140824E0180203616369436100F1180301E00346BB
S2140824F02246116819605168596092689A6002E02D
S2140825002146FFF788FE4846214601F0D1FC48469A
S214082510FFF7A3FE28E0C2465D46C7EB0A030F2B6B
S2140825206A6811D902F00102E919174343F001025B
S2140825306F60CB184A605A68484642F001025A60F3
S214082540083101F0B5FC0AE002F001024AEA02028C
S2140825506A6005EB0A035A6842F001025A60484668
S214082560FFF77BFE05F108063046BDE8F88F00BF8A
S214082570E805072038B5064C0023054608462360BC
S214082580FDF7FCFE431C02D1236803B12B6038BD5F
S2140825906412072010F8012B11F8013B012A28BF06
S2140825A09A42F7D0A2EB03007047034613F8012BB4
S2140825B0002AFBD1181A01387047000093682DE9E5
S2140825C0F04781460F4614461BB953601846BDE8C7
S2140825D0F0874B6E9B0420D5156818E055F8043C28
S2140825E055F808AC4FEA9308002608E048465AF81B
S2140825F026103A4601F09CFB431C10D0013646458F
S214082600F4DBA3684FEA8808C8EB0303A360A36853
S2140826100835002BE2D1184601E001F0FDFC002346
S214082620A3606360BDE8F0872DE9F04FADF2D44DA6
S2140826300E4615461C46029018B1836B0BB901F07E
S214082640FBFAB38903F4005212B232B943F40053CA
S214082650B381736E23F400537366B38903F00803DB
S2140826601BB23BB133692BB1B28902F01A030A2BAD
S21408267044D10AE00298314601F02EF90028F3D03A
S2140826804FF0FF30049000F067BCF389190435D486
S214082690ADF87630F36922F002022193736AADF83A
S2140826A07420239334AB726E1A931E934FF4806390
S2140826B01C931F9300233392209302981AA92A4644
S2140826C02346FFF7B1FF0028049009DB1AA90298F1
S2140826D001F0BEF90499002818BF4FF0FF310491A5
S2140826E0BDF8743003F040031BB2002B00F03484AE
S2140826F0B38943F04003B38100F02EBC002334AA0C
S2140827000D920F930E930395079304939346039B9A
S2140827101D4613F8012B1AB9039AAF1A03D11DE008
S214082720252AF5D1F8E7039B8BE888000F9BDB1971
S2140827300F930E9B0133072B0E9302DC0BF1080B4D
S21408274009E0029831460DAAFFF738FF002840F046
S214082750FC830DF1D00B0498C01904902B78002B3D
S21408276000F0EC8301350023002103958DF82F1027
S2140827704FF0FF3A06931D460A2004E0634602E03F
S21408278014464FF0FF3A039A12F801CB0392BCF1B5
S214082790630F00F0C18034DCBCF1390F1EDCBCF1DD
S2140827A0310F80F29A80BCF12B0FE7D00ADCBCF11F
S2140827B0230F61D0BCF12A0F61D0BCF1200F40F086
S2140827C01B8255E0BCF12E0F64D0BCF1300F00F030
S2140827D08180BCF12D0F40F00F8258E0BCF14F0FFE
S2140827E000F0F18004DCBCF1440F40F005829BE069
S2140827F0BCF1550F00F03581BCF1580F40F0FC8154
S21408280032E0BCF16F0F00F0E08013DCBCF1690F1A
S21408281027D007DCBCF1640F23D0BCF1680F40F06A
S214082820EB8169E0BCF16C0F69D0BCF16E0F40F02B
S214082830E381A7E0BCF1730F00F0F88008DCBCF178
S214082840700F00F0E380BCF1710F40F0D58160E0B6
S214082850BCF1750F00F00781BCF1780F40F0CC8111
S2140828601DE18DF82F3063E08DF82F30A34B19E16A
S214082870002B08BF202386E745F0010583E7221DC5
S2140828802468002C069413DA61420691144645F033
S214082890040578E7039A12F801CBBCF12A0F0392D5
S2140828A00FD1D4F800A0221DBAF1000FFFF668AFCA
S2140828B0144668E7039900FB0A2A11F801CB03912E
S2140828C001E04FF0000AACF13002092AF2D94AEAD0
S2140828D0EA7A5CE745F0800555E703990022ACF1F3
S2140828E0300C00FB02C211F801CBACF13007092FFF
S2140828F00391F4D906924AE745F0400543E7039961
S2140829000A786C2A02D10131039102E045F01005DD
S21408291039E745F0200536E7236800228DF8403071
S2140829208DF82F20043472E18DF82F3045F010050D
S214082930AA0607D5073424F0070303F10804D3E9E9
S214082940008911E015F0100F04F1040301D0226885
S21408295006E015F0400F226802D00FFA82F800E071
S21408296090464FEAE8791C46B8F1000F79F1000363
S21408297080F2C8802D23D8F1000869EB49098DF844
S2140829802F30BFE015F0200F8DF82F3004F1040229
S21408299005D0049B2168D8170B60486004E0EB0656
S2140829A004D52368049818601446B0E615F0400F5E
S2140829B0226814BF0499049804F1040314BF118014
S2140829C010601C46A3E645F0100515F0200308D055
S2140829D0073424F0070303F10804D3E90089002329
S2140829E088E015F0100104F1040200D008E015F0A4
S2140829F0400305D0B4F800804FF000091446EEE70F
S214082A0021684FF000098846144673E023683C495D
S214082A10984630238DF8303078234FF0000945F07B
S214082A2002058DF831300434079162E023461F68AA
S214082A3000220434BAF1000F8DF82F2038460CDB3C
S214082A400021524601F036FD002800F0E680C7EB6C
S214082A500009D14500F3E480E3E0FFF7A6FD8146D0
S214082A60DFE045F01005AF0607D5073424F0070366
S214082A7003F10804D3E900890FE015F0100F04F1FC
S214082A80040300D004E0680602D5B4F8008001E02C
S214082A90226890464FF000091C4601232AE08DF86C
S214082AA02F30174BA906079307D5073424F00703DA
S214082AB003F10804D3E900890FE015F0100F04F1BC
S214082AC0040300D004E06A0602D5B4F8008001E0EA
S214082AD0226890464FF000091C46EF0709D558EAC9
S214082AE0090006D030238DF830308DF831C045F017
S214082AF00205022300218DF82F1004E0FA6C080066
S214082B000B6D08000123BAF1000FA8BF25F0800559
S214082B1058EA090202D1BAF1000F5FD0012B21D082
S214082B20022B44D00DF16703072008EA000202F1E1
S214082B3030014FEAD80242EA49724FEAD900C9B2D0
S214082B40904681461F461970013B58EA0902EBD1A8
S214082B50E8073A464BD5302949D01F46302302F8B5
S214082B60013C44E0B9F1000F08BFB8F10A0F03D2E0
S214082B7008F1300310AF36E00DF1670305934046C1
S214082B8049460A22002301F003FF0598303200F870
S214082B90012949460A220023059F0590404601F070
S214082BA0F7FE8046894658EA0901E8D11FE00DF18C
S214082BB0670C0F20079908EA00028A1813786746F8
S214082BC00CF801394FEA181343EA09734FEA191249
S214082BD09846914658EA0902EBD108E033B9E90766
S214082BE004D510AF302307F8273F00E01AAF0DF1E1
S214082BF06809C7EB090916E08DF82F30BCF1000FFD
S214082C0000F09C8100238DF840C08DF82F304FF0DF
S214082C1001094FF0000A10AF05E0D146824602E0EF
S214082C20D1464FF0000AD145ACBF4B4653460593F4
S214082C309DF82F3013B1059B0133059315F0020359
S214082C40089302D0059B0233059315F08403099375
S214082C5045D10698059BC3EB000CBCF1000F20DCA1
S214082C603DE00F9ACBF8008010320F920E9ACBF800
S214082C7004300132072A0E9202DC0BF1080B0DE035
S214082C80029831460DAA8DE80810FFF797FC9DE8D4
S214082C900810002840F059810DF1D00BACF1100C4B
S214082CA002E0DFF890821023BCF1100FD9DCA14BAC
S214082CB08BE808100F9B63440F930E9B0133072B7A
S214082CC00E9302DC0BF1080B09E0029831460DAAB8
S214082CD0FFF774FC002840F038810DF1D00B9DF802
S214082CE02F200DF12F03CAB1CBF800300123CBF803
S214082CF004300F9B01330F930E9B0133072B0E9363
S214082D0002DC0BF1080B09E0029831460DAAFFF722
S214082D1055FC002840F019810DF1D00B089BD3B163
S214082D200CABCBF800300223CBF804300F9B0233F1
S214082D300F930E9B0133072B0E9302DC0BF1080B47
S214082D4009E0029831460DAAFFF738FC002840F043
S214082D50FC800DF1D00B099B802B45D10698059B6E
S214082D60C3EB000CBCF1000F20DC3DE00F9ACBF85B
S214082D70008010320F920E9ACBF804300132072AE0
S214082D800E9202DC0BF1080B0DE0029831460DAAF4
S214082D908DE80810FFF712FC9DE80810002840F0A0
S214082DA0D4800DF1D00BACF1100C02E0DFF888816E
S214082DB01023BCF1100FD9DC5F4B8BE808100F9B73
S214082DC063440F930E9B0133072B0E9302DC0BF123
S214082DD0080B09E0029831460DAAFFF7EFFB00281A
S214082DE040F0B3800DF1D00BC9EB0A03002B1BDCB7
S214082DF037E00F9A8BE8000510320F920E9A0132D0
S214082E00072A0E9202DC0BF1080B0BE002983146FB
S214082E100DAA0093FFF7D2FB009B002840F0958090
S214082E200DF1D00B103B03E0DFF80C814FF0100AD1
S214082E30102BDEDC404A8BE80C000F9AD3180F9351
S214082E400E9B0133072B0E9302DC0BF1080B08E0F0
S214082E50029831460DAAFFF7B1FB002875D10DF18F
S214082E60D00B0F9B8BE880024B440F930E9B0133CD
S214082E70072B0E9302DC0BF1080307E00298314695
S214082E800DAAFFF79BFB00285FD134AB6A070BD46B
S214082E900498059B06998B42ACBFC01840180F9B38
S214082EA00490002B37D03CE006980599C1EB000942
S214082EB0B9F1000F17DCEBE70F9A83E8A000103291
S214082EC00F920E9A0132072A0E9201DC083307E0A9
S214082ED0029831460DAAFFF771FB002835D134ABAE
S214082EE0A9F1100901E0134D1027B9F1100FE3DC22
S214082EF0104A83E804020F9B4B440F930E9B013342
S214082F00072B0E93C4DD029831460DAAFFF756FB31
S214082F100028BDD019E000220E920DF1D00BFFF765
S214082F20F6BB029831460DAAFFF748FB0028F2D0F8
S214082F300BE000BFDA6C0800EA6C08000F9B23B1B0
S214082F40029831460DAAFFF739FBB38903F0400310
S214082F501BB2002B7FF494AB049835B00DF5806D4A
S214082F60BDE8F08F30B51346044A05460C4610688F
S214082F7029462246BDE83040FFF756BBB801072071
S214082F802DE9F04FADF2D44D0E4615461C4602907C
S214082F9018B1836B0BB900F04FFEB38903F40052E7
S214082FA012B232B943F40053B381736E23F400535C
S214082FB07366B38903F008031BB23BB133692BB1C0
S214082FC0B28902F01A030A2B44D10AE00298314665
S214082FD000F082FC0028F3D04FF0FF30049000F099
S214082FE067BCF389190435D4ADF87630F36922F056
S214082FF002022193736AADF87420239334AB726E81
S2140830001A931E934FF480631C931F9300233392E6
S214083010209302981AA92A462346FFF7B1FF0028EC
S214083020049009DB1AA9029800F012FD04990028FA
S21408303018BF4FF0FF310491BDF8743003F0400319
S2140830401BB2002B00F03484B38943F04003B381ED
S21408305000F02EBC002334AA0D920F930E9303950E
S214083060079304939346039B1D4613F8012B1AB93E
S214083070039AAF1A03D11DE0252AF5D1F8E7039B7A
S2140830808BE888000F9BDB190F930E9B0133072BE9
S2140830900E9302DC0BF1080B09E0029831460DAAE4
S2140830A0FFF78CFA002840F0FC830DF1D00B04984B
S2140830B0C01904902B78002B00F0EC830135002310
S2140830C0002103958DF82F104FF0FF3A06931D4602
S2140830D00A2004E0634602E014464FF0FF3A039ADB
S2140830E012F801CB0392BCF1630F00F0C18034DC08
S2140830F0BCF1390F1EDCBCF1310F80F29A80BCF1AE
S2140831002B0FE7D00ADCBCF1230F61D0BCF12A0FE5
S21408311061D0BCF1200F40F01B8255E0BCF12E0FA9
S21408312064D0BCF1300F00F08180BCF12D0F40F068
S2140831300F8258E0BCF14F0F00F0F18004DCBCF1C0
S214083140440F40F005829BE0BCF1550F00F0358136
S214083150BCF1580F40F0FC8132E0BCF16F0F00F074
S214083160E08013DCBCF1690F27D007DCBCF1640FE4
S21408317023D0BCF1680F40F0EB8169E0BCF16C0F1E
S21408318069D0BCF16E0F40F0E381A7E0BCF1730F85
S21408319000F0F88008DCBCF1700F00F0E380BCF1AA
S2140831A0710F40F0D58160E0BCF1750F00F0078123
S2140831B0BCF1780F40F0CC811DE18DF82F3063E02C
S2140831C08DF82F30A34B19E1002B08BF202386E784
S2140831D045F0010583E7221D2468002C069413DABF
S2140831E061420691144645F0040578E7039A12F8FA
S2140831F001CBBCF12A0F03920FD1D4F800A0221DF0
S214083200BAF1000FFFF668AF144668E7039900FBAB
S2140832100A2A11F801CB039101E04FF0000AACF13D
S2140832203002092AF2D94AEAEA7A5CE745F08005CC
S21408323055E703990022ACF1300C00FB02C211F8E6
S21408324001CBACF13007092F0391F4D906924AE76F
S21408325045F0400543E703990A786C2A02D1013104
S214083260039102E045F0100539E745F0200536E7FA
S214083270236800228DF840308DF82F20043472E140
S2140832808DF82F3045F01005AA0607D5073424F028
S214083290070303F10804D3E9008911E015F0100FBD
S2140832A004F1040301D0226806E015F0400F2268F6
S2140832B002D00FFA82F800E090464FEAE8791C46FA
S2140832C0B8F1000F79F1000380F2C8802D23D8F1F9
S2140832D0000869EB49098DF82F30BFE015F0200F7C
S2140832E08DF82F3004F1040205D0049B2168D81706
S2140832F00B60486004E0EB0604D523680498186061
S2140833001446B0E615F0400F226814BF04990498D6
S21408331004F1040314BF118010601C46A3E645F0B0
S214083320100515F0200308D0073424F0070303F12E
S2140833300804D3E90089002388E015F0100104F199
S214083340040200D008E015F0400305D0B4F8008069
S2140833504FF000091446EEE721684FF0000988464A
S214083360144673E023683C49984630238DF830307D
S21408337078234FF0000945F002058DF83130043403
S214083380079162E023461F6800220434BAF1000F52
S2140833908DF82F2038460CDB0021524601F08AF8BB
S2140833A0002800F0E680C7EB0009D14500F3E4806A
S2140833B0E3E0FFF7FAF88146DFE045F01005AF06D0
S2140833C007D5073424F0070303F10804D3E9008976
S2140833D00FE015F0100F04F1040300D004E06806AF
S2140833E002D5B4F8008001E0226890464FF0000944
S2140833F01C4601232AE08DF82F30174BA9060793A1
S21408340007D5073424F0070303F10804D3E9008935
S2140834100FE015F0100F04F1040300D004E06A066C
S21408342002D5B4F8008001E0226890464FF0000903
S2140834301C46EF0709D558EA090006D030238DF850
S21408344030308DF831C045F00205022300218DF892
S2140834502F1004E0FA6C08000B6D08000123BAF17F
S214083460000FA8BF25F0800558EA090202D1BAF174
S214083470000F5FD0012B21D0022B44D00DF167033B
S214083480072008EA000202F130014FEAD80242EAB1
S21408349049724FEAD900C9B2904681461F4619704C
S2140834A0013B58EA0902EBD1E8073A464BD53029E2
S2140834B049D01F46302302F8013C44E0B9F1000F1A
S2140834C008BFB8F10A0F03D208F1300310AF36E090
S2140834D00DF167030593404649460A22002301F08A
S2140834E057FA0598303200F8012949460A2200237F
S2140834F0059F0590404601F04BFA8046894658EAF3
S2140835000901E8D11FE00DF1670C0F20079908EABA
S21408351000028A18137867460CF801394FEA181320
S21408352043EA09734FEA19129846914658EA09027F
S214083530EBD108E033B9E90704D510AF302307F814
S214083540273F00E01AAF0DF16809C7EB090916E036
S2140835508DF82F30BCF1000F00F09C8100238DF809
S21408356040C08DF82F304FF001094FF0000A10AF19
S21408357005E0D146824602E0D1464FF0000AD14522
S214083580ACBF4B46534605939DF82F3013B1059BA9
S2140835900133059315F00203089302D0059B023306
S2140835A0059315F08403099345D10698059BC3EB4C
S2140835B0000CBCF1000F20DC3DE00F9ACBF8008031
S2140835C010320F920E9ACBF804300132072A0E9268
S2140835D002DC0BF1080B0DE0029831460DAA8DE8C7
S2140835E00810FEF7EBFF9DE80810002840F0598108
S2140835F00DF1D00BACF1100C02E0DFF8908210232E
S214083600BCF1100FD9DCA14B8BE808100F9B634464
S2140836100F930E9B0133072B0E9302DC0BF1080B5E
S21408362009E0029831460DAAFEF7C8FF002840F0C8
S21408363038810DF1D00B9DF82F200DF12F03CAB15C
S214083640CBF800300123CBF804300F9B01330F93DF
S2140836500E9B0133072B0E9302DC0BF1080B09E0D7
S214083660029831460DAAFEF7A9FF002840F01981F6
S2140836700DF1D00B089BD3B10CABCBF8003002236E
S214083680CBF804300F9B02330F930E9B0133072BA6
S2140836900E9302DC0BF1080B09E0029831460DAADE
S2140836A0FEF78CFF002840F0FC800DF1D00B099B3C
S2140836B0802B45D10698059BC3EB000CBCF1000F88
S2140836C020DC3DE00F9ACBF8008010320F920E9A5D
S2140836D0CBF804300132072A0E9202DC0BF1080BF5
S2140836E00DE0029831460DAA8DE80810FEF766FF31
S2140836F09DE80810002840F0D4800DF1D00BACF1FE
S214083700100C02E0DFF888811023BCF1100FD9DC1A
S2140837105F4B8BE808100F9B63440F930E9B013397
S214083720072B0E9302DC0BF1080B09E002983146D2
S2140837300DAAFEF743FF002840F0B3800DF1D00B2A
S214083740C9EB0A03002B1BDC37E00F9A8BE8000551
S21408375010320F920E9A0132072A0E9202DC0BF1F3
S214083760080B0BE0029831460DAA0093FEF726FFD9
S214083770009B002840F095800DF1D00B103B03E02D
S214083780DFF80C814FF0100A102BDEDC404A8BE87D
S2140837900C000F9AD3180F930E9B0133072B0E932A
S2140837A002DC0BF1080B08E0029831460DAAFEF77A
S2140837B005FF002875D10DF1D00B0F9B8BE8800212
S2140837C04B440F930E9B0133072B0E9302DC0BF131
S2140837D0080307E0029831460DAAFEF7EFFE002818
S2140837E05FD134AB6A070BD40498059B06998B42C5
S2140837F0ACBFC01840180F9B0490002B37D03CE095
S21408380006980599C1EB0009B9F1000F17DCEBE73C
S2140838100F9A83E8A00010320F920E9A0132072AF8
S2140838200E9201DC083307E0029831460DAAFEF72F
S214083830C5FE002835D134ABA9F1100901E0134DB7
S2140838401027B9F1100FE3DC104A83E804020F9B37
S2140838504B440F930E9B0133072B0E93C4DD02983F
S21408386031460DAAFEF7AAFE0028BDD019E00022B0
S2140838700E920DF1D00BFFF7F6BB029831460DAA53
S214083880FEF79CFE0028F2D00BE000BF1C6D080077
S2140838902C6D08000F9B23B1029831460DAAFEF73F
S2140838A08DFEB38903F040031BB2002B7FF494AB64
S2140838B0049835B00DF5806DBDE8F08F30B5134629
S2140838C0044A05460C46106829462246BDE830409C
S2140838D0FFF756BBB801072038B52C4B05461868C5
S2140838E00C4618B1826B0AB900F0A6F9A38903F052
S2140838F0080212B20ABB03F0100212B212B94FF055
S214083900FF3038BD03F004031BB293B1216B41B1FD
S21408391004F14003994202D0284600F0C9FA002371
S2140839202363A38923F02403A38100236360236908
S2140839302360A38943F00803A38123694BB9A389AD
S21408394003F42073B3F5007F03D02846214600F021
S21408395045FDA38913F0010205D00023A36063691F
S2140839605B42A36107E003F002031BB20BB963696D
S21408397000E01346A360236933B9A08900F08000ED
S21408398000B20028BBD138BD002038BDB8010720DA
S2140839902DE9F8439846234B06461C680F46D4F88C
S2140839A04801914618B904F5A670C4F8480141685C
S2140839B01F2916DD1C4B1BB94FF0FF30BDE8F883F6
S2140839C04FF4C870FEF712FA0028F5D0D4F848115C
S2140839D0002545600160C4F84801C0F88851C0F861
S2140839E08C51B6B14468012202FA04F2D0F8881164
S2140839F000EB84031143022EC3F88890C0F88811A0
S214083A001C46C3F8088104D1D0F88C311A43C0F894
S214083A108C2143689A1C013340F8227043600020CA
S214083A20BDE8F883D46C0800ED1D0800024B13B1FE
S214083A300248FEF779B9704700000000351D0800F7
S214083A4008B5062000F0C7FD0120FCF7C5FC0000FD
S214083A502DE9F0410C46054618B1836B0BB900F00A
S214083A60EBF8A28902B926E002F008031BB2002B85
S214083A7062D142F40063A3816368002B02DCE36B27
S214083A80002B18DDA66AB6B102F48052002312B2E3
S214083A902F682B600AB1226D10E001232846E169E1
S214083AA0B0470246013009D12B683BB11D2B01D027
S214083AB0162B56D12F600020BDE8F081A38903F0AD
S214083AC004031BB22BB16368D21A236B0BB1E36BEA
S214083AD0D21AE1690023A66A2846B047411C05D1D8
S214083AE02B681BB11D2B01D0162B1FD1A38923F4DD
S214083AF00062A2810022626003F4805322691BB22E
S214083B00226023B1421C01D12B6803B92065216BC2
S214083B102F600029CFD004F14003994202D02846EE
S214083B2000F0C6F900202063BDE8F081A38943F0C1
S214083B304003A381BDE8F0812669002EBBD0236828
S214083B402660C6EB030893070CBF63690023A360CF
S214083B5012E0676A2846E16932464346B8470028B5
S214083B6007DCA3894FF0FF3043F04003A381BDE88C
S214083B70F0813618C0EB0808B8F1000FE9DC9AE7C0
S214083B80014620B9044B0549186800F0BFBB044B32
S214083B901868FFF75DBF00BFD46C0800513A0800EC
S214083BA0B80107200020704700207047014900F040
S214083BB08BBB00BFF7480800002310B50446036017
S214083BC04360836081814366C28103614361836188
S214083BD0194600F15C000822FEF736FB044BE46148
S214083BE02362044B6362044BA362044BE36210BD7A
S214083BF03D460800634608009F460800C34608007E
S214083C0070B568254D430E4605F10C01FEF7FEF823
S214083C10044640B100F10C00002184E84200A06090
S214083C202A46FEF711FB204670BD024B1868FFF7C0
S214083C30BDBF00BFD46C080038B5836B0446EBB92B
S214083C400F4A0125C2630322C0F8E42200F53B723E
S214083C50C0F8E0328563C0F8E82204211A464068B6
S214083C60FFF7AAFFA06809212A46FFF7A5FFE06824
S214083C7012210222BDE83840FFF79EBF38BD00BFBC
S214083C80AD3B0800F8B51D4B07461E68B36B13B965
S214083C903046FFF7D1FF06F53876B468736803E058
S214083CA0B4F90C508DB16834013BF9D533680BB1C3
S214083CB03668F2E738460421FFF7A2FF306000288E
S214083CC0F6D10C233B60044615E04FF6FF73E381FC
S214083CD00123A38165662560A56065602561656129
S214083CE0A56104F15C0029460822FEF7ADFA2563B3
S214083CF065636564A5642046F8BD00BFD46C0800FB
S214083D007047704770477047024B0349186800F0C1
S214083D10DBBA00BFB8010720A53B0800024B0349E1
S214083D20186800F0D1BA00BFB8010720A93B080000
S214083D3093892DE9F341144603F4005212B28046E3
S214083D400E4632B943F40053A381636E43F400531E
S214083D50636600F025FB012806D12EB1FF2E03D896
S214083D608DF8046007460EE03246404601A904F185
S214083D705C0300F005FD421C074604D1A38943F006
S214083D804003A38130E0002528E0A26801AB013A91
S214083D90002AA26019DAA1698A420CDB5B5D2268F8
S214083DA01370236819780A2903D00133002023608A
S214083DB012E0404601E0595D4046224600F086FC87
S214083DC0B0F1FF335842584106E022685B5D137035
S214083DD023680133236000E020B90135BD42D4D101
S214083DE0304601E04FF0FF30BDE8FC81F8B5084CDE
S214083DF0074620680E4618B1856B0DB9FFF71CFFFD
S214083E00206839463246BDE8F840FFF791BF00BF44
S214083E10B8010720F8B5234D0E460446FEF71CFAEF
S214083E20AB685F6827F0030707F6EF739E1B26F458
S214083E307F6626F00F06A6F58056B6F5805F04DA8C
S214083E402046FEF70AFA0020F8BD00212046FEF7B5
S214083E5091FBAB68DB199842F2D171422046FEF717
S214083E6089FB013010D100212046FEF783FBAB68A2
S214083E70C21A0F2AE4DD0C4942F0010209685A60AA
S214083E80401A0A490860DBE7AB68BF1B47F0010722
S214083E905F60064B20461A68961B1E60FEF7DDF923
S214083EA00120F8BDE8050720F0090720341207208E
S214083EB0F8B506460D46002900F0A580FEF7CCF9B1
S214083EC055F804CC504FA5F108032CF001029C18B5
S214083ED0B96860688C4220F003000CF001011CD120
S214083EE0821839B955F8081C5B1A98685218D968A8
S214083EF0C160886042F00101596043498B60434BBA
S214083F001B689A4204D3424B30461968FFF782FF73
S214083F103046BDE8F840FEF7A0B9606059B955F8D4
S214083F20085C08375B1B52199D68BD4205D0DF68E0
S214083F30EF60BD6002E0002100E0012125186D68F1
S214083F4015F0010F0FD1121849B9A068314DA842D3
S214083F5005D1EB60AB60D8609860012103E0E068AB
S214083F60A468E060846042F0010058609A50002916
S214083F70CED1B2F5007F0CD2D2089010012404FAF4
S214083F8000F42149486801EBC20220434860916862
S214083F9034E0540A042C02D89409383416E0142C59
S214083FA001D85B3412E0542C02D8140B6E340DE0A2
S214083FB0B4F5AA7F02D8D40B773407E040F2545100
S214083FC08C4202D8940C7C3400E07E240E4D05EB1F
S214083FD0C400816881420BD10122A41002FA04F4BD
S214083FE06A6822436A600A4608E08968814204D003
S214083FF04C6824F00304A242F7D3CA68DA609960D2
S2140840009360CB6084E7F8BDE8050720F40907202D
S21408401030120720F005072093682DE9F74F06466B
S2140840200C4691460BB900204CE18B8903F0080337
S2140840301BB20BB10B695BB930462146FFF74CFC47
S21408404030B1A38943F04003A3810923336037E1E5
S214084050B4F80CA0D9F800800AF0020C0FFA8CF31A
S2140840603BB923E0D8F800A0D8F8047008F108088F
S21408407002E04FF0000A5746002FF3D0B7F5806FDE
S21408408034BF3B464FF480633046E1695246656A62
S214084090A847002840F31081D9F8083082443F1A10
S2140840A0181AC9F808000028E6D1BCE71AF0010A71
S2140840B00BD09B4601931F469A46A1E0D8F800A06D
S2140840C0D8F8045008F1080800E05546002DF5D049
S2140840D0A289D4F808B002F4007109B2002952D0B7
S2140840E05D4540D312F4906F3BD063690320434389
S2140840F02169276802207F1A019793FBF0F7019839
S21408410002F48062431C5B1912B29F4238BF1F46F6
S214084110304682B13946FDF779FE834600B913E08A
S214084120019A2169FEF76EF8A28922F4906242F09D
S2140841308002A2810BE03A46FEF7AEF8834630B915
S21408414030462169FFF7B4FE0C233360B4E0019AC9
S21408415067610BEB0203BF1AC4F810B02360AB46C6
S214084160A7605D4500D2AB465A4620685146FEF722
S21408417052F8A268CBEB0202A260226802EB0B039D
S2140841802360AB4629E02068226990420ED95D4537
S2140841900CD951465A46FEF73EF8226830465A442D
S2140841A022602146FFF754FCB8B185E063699D425A
S2140841B008D3676A3046E1695246B847B0F1000B43
S2140841C00BDC79E02A465146FEF725F8A268AB468E
S2140841D0521BA260226852192260D9F80820DA44D5
S2140841E0CBEB0203CBEB0505C9F80830002B7FF4B0
S2140841F06DAF18E7002598E88004019508F10808CF
S214084200BAF1000FF6D0019D75B938460A21524614
S21408421000F050F920B100F1010CC7EB0C0B01E0DF
S2140842200AF1010B0125019520682269D34534BFA0
S2140842305B4653469042A568D4F814E00FD97544F7
S214084240AB420CDD39462A46FDF7E5FF23683046C3
S2140842505B1923602146FFF7FBFBC0B12CE07345D2
S21408426008DB656A3046E1693A467346A847051E84
S2140842700DDC21E01A4639460093FDF7CCFF009B7B
S214084280A2681D46D21AA2602268D2182260BBEB2A
S214084290050B06D130462146FFF7DAFB60B9CDF8A4
S2140842A004B0D9F808307F19C5EB0A0A5D1BC9F8AF
S2140842B00850002DA4D1B6E6A38943F04003A38195
S2140842C04FF0FF30BDE8FE8F2DE9F04104468846E2
S2140842D004F53874FFF714FD002610E0A568676833
S2140842E00AE0B5F90C3033B1B5F90E30013302D017
S2140842F02846C04706436835013FF2D52468002C97
S214084300ECD1FFF7FEFC3046BDE8F0812DE9F84316
S2140843108046894608F53874FFF7F2FC002611E057
S214084320A56867680BE0B5F90C303BB1B5F90E30F7
S214084330013303D040462946C84706436835013F3F
S214084340F1D52468002CEBD1FFF7DBFC3046BDE83E
S214084350F883000010B514460AB90C4810BD10467C
S2140843600B49FEF717F90028F7D020460749FEF74D
S21408437011F90028F1D020460649FEF70BF9034B41
S21408438000280CBF1846002010BD00BFD86C0800D7
S2140843903C6D0800F85E080000487047F8090720DA
S2140843A0014B186A704700BFF80907200048704795
S2140843B01C0A072000207047004870473C0A072060
S2140843C00A460349034608681946FFF7C3BF00BFF5
S2140843D0B8010720004870473C0A0720F0B58B89CB
S2140843E091B003F002031BB206460C4603B13FE049
S2140843F0B1F90E1000290DDAA389002703F080050D
S2140844002DB243F40063002D0CBF4FF480654025A1
S214084410A38120E001AA00F075FA0028ECDB029BD5
S21408442003F47043B3F5005257425741B3F5004FB3
S2140844300BD1A36A1D4A934207D1A3894FF480651E
S21408444043F48063A381E56405E0A3894FF480659F
S21408445043F40063A38130462946FDF7D7FC70B9BC
S214084460A38903F4007212B2EAB943F00203A381E7
S21408447004F14303236023610123636113E00C4BBB
S214084480F363A389206043F08003A38120616561FC
S2140844904FB13046B4F90E1000F046FA18B1A389A9
S2140844A043F00103A38111B0F0BD00BF9F4608008A
S2140844B0AD3B080010B5C9B20346821803E004787D
S2140844C001338C4203D093421846F8D1002010BD21
S2140844D038B5D0F8DC5204460DB1002038BD80212E
S2140844E0FDF794FCC4F8DC0240B12B462946D4F804
S2140844F0DC22D1500433802BF9D1EEE74FF0FF30A1
S21408450038BD1F2970B504460D46164602D916232F
S21408451003600DE0D0F8DC3233B1D4F8DC3253F85F
S214084520250043F8256070BDFFF7D2FF0028F4D0B9
S2140845304FF0FF3070BD1F2938B505460C4604D924
S214084540162303604FF0FF3038BDD0F8DC2212B1D6
S21408455052F821304BB9284600F06EF8224601463C
S2140845602846BDE8384000F055B8012B0AD0591C3B
S21408457003D116230360012038BD002542F82450D5
S21408458020469847002038BD1F2938B505460C46F2
S21408459002D94FF0FF3038BDD0F8DC322BB1D5F851
S2140845A0DC2252F824302BB90FE0FFF791FF0028E1
S2140845B0F5D0EEE7581C0AD0012B0AD00025204675
S2140845C042F824509847284638BD012038BD0220B6
S2140845D038BD032038BD024B01461868FFF7ABBF4D
S2140845E0B80107200A460349034608681946FFF734
S2140845F088BF00BFB8010720014B1868FFF768BFDF
S214084600B8010720024B01461868FFF7BDBF00BF78
S214084610B801072038B5074C00230546084611465A
S2140846202360FBF7E3FE431C02D1236803B12B602B
S21408463038BD00BF64120720FBF7D9BE10B50C467C
S214084640B1F90E1000F092F9002803DB236D1B1851
S214084650236510BDA38923F48053A38110BD0020D1
S21408466070472DE9F0411D468B89074603F4807391
S2140846701BB20C4616462BB1B1F90E1000220223C7
S21408468000F062F9A389B4F90E1023F48053A381CD
S214084690384632462B46BDE8F04100F0C7B810B59C
S2140846A00C46B1F90E1000F04FF9431CA38903D14C
S2140846B023F48053A38110BD43F48053A38120655F
S2140846C010BDB1F90E1000F0C3B8000070B50D4665
S2140846D01446064618B1836B0BB9FFF7ADFAA36903
S2140846E0A360A38903F008031BB20BB123695BB967
S2140846F030462146FFF7F0F830B1A38943F040036F
S214084700A3810923336017E0A389EDB203F40052AE
S21408471012B232B943F40053A381636E23F40053F4
S214084720636623692068C01A6369984207DB3046C7
S2140847302146FFF78DF910B14FF0FF3515E0A36855
S2140847400130013BA360236803F8015B23606369BB
S214084750984204D0A389DB0707D50A2D05D1304631
S2140847602146FFF775F90028E6D1284670BD0A46A7
S2140847700249034608681946FFF7A8BFB80107208C
S2140847802DE9F0411D46104B86B0044690460E466D
S2140847901F6839B9FFF700FE0095034603A92046AF
S2140847A0324606E0FFF7F8FD0095034631462046F8
S2140847B04246B847431C03D100232B608A23236054
S2140847C006B0BDE8F08100BF740A072030B513466E
S2140847D0044A05460C46106829462246BDE830407D
S2140847E0FFF7CEBFB801072049B1FF2A04D98A23AC
S2140847F003604FF0FF3070470A7001207047084684
S21408480070472DE9F3419846074B05460F4616466E
S2140848101C68FFF7C1FDCDF80080034639462846D8
S2140848203246A047BDE8FC81740A072038B5074C15
S214084830054600202060084611461A46FBF7BAFDD2
S214084840431C02D1236803B12B6038BD64120720CD
S21408485038B5064C0023054608462360FBF79CFD42
S214084860431C02D1236803B12B6038BD64120720AD
S21408487070B505460C4600293AD0FFF741FA25B12F
S214084880AB6B13B92846FFF7D7F9B4F90C6006B92D
S2140848902BE028462146FFF7DBF8E36A06463BB1DD
S2140848A02846E169984736EA200628BF4FF0FF36C3
S2140848B0A38903F080031BB21BB128462169FFF7C2
S2140848C0F7FA216B41B104F14003994202D0284619
S2140848D0FFF7EEFA00232363616C21B12846FFF741
S2140848E0E7FA002363640023A381FFF70AFA00E0CF
S2140848F00E46304670BD024B01461868FFF7B8BF33
S214084900B801072038B5074C002305460846114667
S2140849102360FBF744FD431C02D1236803B12B60D8
S21408492038BD00BF6412072038B5064C002305467C
S21408493008462360FBF738FD431C02D1236803B101
S2140849402B6038BD6412072038B5074C0546002092
S2140849502060084611461A46FBF728FD431C02D17C
S214084960236803B12B6038BD6412072038B5074C9E
S214084970054600202060084611461A46FBF718FD33
S214084980431C02D1236803B12B6038BD641207208C
S2140849904BB942B9002908BF002802D04FF0FF31B2
S2140849A0084600F03BB882B0EC462DE9005000F00F
S2140849B01DF8DDF804E002B00CBC70472DE9F041A4
S2140849C01646984604460D4600F02AF806FB01FCF3
S2140849D0A6FB002300FB08C7FB18A21A65EB030317
S2140849E0069CC4E90023BDE8F08100BF2DE9F0412C
S2140849F0904606460F461D4600F076F900FB05F37E
S214084A00A0FB084508FB0138069B4544341B67EBAA
S214084A100505C3E90045BDE8F08100BF704700BF43
S214084A202DE9F00F002400291D46C0F20681002D4E
S214084A30C0F2FE8080460F4694461E46DBBB8A427E
S214084A4048D9B2FA82F343B1C3F1200520FA05F536
S214084A5001FA03F19A4098402943150CB1FBF5F684
S214084A601FFA82FC05FB16110CFB06F7030C43EA3B
S214084A7001439F4208D9711E9B1880F028819F42E7
S214084A8040F22581023E9B18DB1BB3FBF5F105FBC4
S214084A9011330CFB01FC80B240EA0340844506D97A
S214084AA04B1E821802D20239944500D8194641EAAC
S214084AB00641002503E08B4244D9002529460A46CC
S214084AC02B4614B1524263EB430310461946BDE821
S214084AD0F00F704712B90123B3FBF2F2B2FA82F66E
S214084AE0002E40F0B080891A130C1FFA82FC0125AC
S214084AF0B1FBF3F703FB17110CFB07F84FEA104955
S214084B0049EA0146B04506D9791EB61802D2B0451C
S214084B1000F2E7800F46C8EB0606B6FBF3F103FB88
S214084B2011630CFB01FC80B240EA03439C4506D99E
S214084B304E1E9B1802D202399C4500D8314641EADF
S214084B400741BCE7B3FA83F5002D00F0B980C5F13C
S214084B50200103FA05F622FA01F327FA01F207FA0A
S214084B6005F720FA01F11E434FEA1648B2FBF8F99A
S214084B701FFA86FA08FB19220AFB09FB0F433B0CAF
S214084B8043EA024293450CFA05FC0BD9921909F13F
S214084B90FF3380F0A280934584BFA9F102099219D9
S214084BA040F29B80CBEB0202B2FBF8F108FB112225
S214084BB00AFB01FABFB247EA02439A4508D94A1ED9
S214084BC09B1980F086809A4540F2838002399B19AB
S214084BD041EA09410F0C1FFA8CF808FB07F68AB25F
S214084BE04FEA1C4C08FB02F80CFB02620CFB07FCA5
S214084BF002EB1842964288BF0CF5803CCAEB0303CA
S214084C000CEB124C634510D300FA05F51FFA88F82A
S214084C1014BF0023012308EB024295422CBF00254F
S214084C2003F00105002D3FF44AAF0139002546E799
S214084C30E443524263EB4303FCE6404261EB410126
S214084C404FF0FF34F3E6B240C6F1200921FA09F71F
S214084C5020FA09F901FA06F1130CB7FBF3F81FFA64
S214084C6082FC03FB18770CFB08F549EA01094FEAB2
S214084C70194141EA0747B040BD4209D9BF1808F1B3
S214084C80FF312CD2BD4284BFA8F10208BF1826D92E
S214084C907F1BB7FBF3F503FB15710CFB05F61FFA34
S214084CA089F949EA01418E4206D96F1E891812D23F
S214084CB08E4210D9023D8918891B45EA084517E730
S214084CC00121BB4228BF82427FF6F9AEF5E60E46C2
S214084CD0DAE611467CE73D46EEE7994662E78846FF
S214084CE0D6E7023FB61816E72DE9F0031446054640
S214084CF00E46DBBB8A4246D9B2FA82F343B1C3F109
S214084D00200220FA02F201FA03F69C409D40164360
S214084D10230CB6FBF3F1A7B203FB116607FB01F2FF
S214084D20280C40EA0646B24208D9481E361980F0D2
S214084D300F81B24240F20C8102393619B61AB6FB18
S214084D40F3F203FB126307FB02F7ADB245EA03432F
S214084D509F4207D9501E1B1980F0F880023A9F42DE
S214084D6040F2F48042EA0140002146E08B4242D8F5
S214084D70B3FA83F4002C43D18B4228BF82423AD838
S214084D802146012039E012B90123B3FBF2F4B4FA44
S214084D9084F2002A40F09B800A1B230CA7B201214C
S214084DA0B2FBF3F603FB162207FB06F04FEA154C98
S214084DB04CEA0242904207D9121906F1FF3C02D289
S214084DC0904200F2DC806646121AB2FBF3F003FB50
S214084DD0102307FB00F7ADB245EA03439F4207D905
S214084DE0421E1B1980F0B68002389F4240F2B280FD
S214084DF040EA064001E000210846BDE8F003704797
S214084E00C4F1200722FA07FC03FA04F321FA07F68E
S214084E1020FA07F501FA04F14CEA03031F0CB6FB67
S214084E20F7F81FFA83F907FB186609FB08FC2943FD
S214084E300D0C45EA0646B44502FA04F205D9F618FA
S214084E4008F1FF35C0F08F80A846CCEB0606B6FB07
S214084E50F7FC07FB1C6609FB0CF989B241EA064514
S214084E60A94504D9ED180CF1FF3175D38C464CEAE8
S214084E70084C97B24FEA1C4607FB06F1120C1FFABD
S214084E808CF307FB03F702FB031302FB06F203EBA4
S214084E901743994288BF02F58032C9EB050502EB35
S214084EA0134295420FD300FA04F1BFB214BF002292
S214084EB0012207EB034399422CBF002102F00101AF
S214084EC06046002999D00CF1FF30002195E7944000
S214084ED0C2F1200321FA03F620FA03F901FA02F1D7
S214084EE0230CB6FBF3FCA7B203FB1C6607FB0CF807
S214084EF049EA01094FEA194141EA0646B04500FA6F
S214084F0002F509D936190CF1FF3234D2B04584BF00
S214084F10ACF1020C36192ED9C8EB0606B6FBF3F030
S214084F2003FB106207FB00F81FFA89F949EA0242F8
S214084F30904506D9411E12191FD290451DD9023830
S214084F401219C8EB020240EA0C4129E7024609E7B3
S214084F500146F3E610464BE7A94584BFACF1020CC0
S214084F60ED1884D882E7B44584BFA8F10208F6187D
S214084F703FF66BAF68E79446CEE70846E1E7023EA1
S214084F80121921E703685A004CBF43F0004323F088
S214084F900043C018704700BF2DE9F04F064683B09F
S214084FA0914611B3013901918846002707EB08049A
S214084FB004EBD474641006EBC40B5846FFF7E2FF04
S214084FC0019B651CA342824606EBC50015D0FFF779
S214084FD0D9FF0138CA4504D9BC420BD004F1FF38C2
S214084FE0E4E7484502D22F46E0E78B46584603B02A
S214084FF0BDE8F08F4FF0000BF8E7CA45ECD8F5E7A8
S214085000012807D0022807D0044B00280CBF1846F2
S214085010002070470248704702487047A1560800AB
S2140850209956080091560800036810B50446D80734
S21408503006D4990704F1480009D500F0B5FC2368A2
S2140850405A0709D518070ED5D90613D510BD00F08E
S214085050A3FC23685A07F5D404F1D00000F0ACFC92
S21408506023681807F0D404F5D87000F0ADFC236860
S214085070D906EBD404F50C70BDE8104000F0E8BC87
S21408508030B5254B83B004468D1E002B3CD02846F1
S21408509001A9AFF300800346002B21D02A460199C8
S2140850A0FFF77AFF0546F0B1FFF76CFF6B68A06460
S2140850B0012B11D0281D002B22DBFFF763FF0023EE
S2140850C0E06423650368002B10DBFFF75BFF002313
S2140850D02061184603B030BD002323610523F8E796
S2140850E023610923F5E720610923F2E7C3F3036088
S2140850F0FFF786FF206100280CBF09230023E8E796
S2140851000123E0642365DDE7044B054A1846D31AF5
S214085110DB100193C2E700BF00000000B06D080076
S214085120886E0800036803B11B181846704700BF4E
S21408513009207047704700BF2DE9F047ADF5916D1F
S21408514003AD0C1D064617460FCC0FC50FCC0FC572
S2140851500FCC0FC594E80F0002ACD6F80C80D6F832
S214085160189085E80F0000233046216C23609F4284
S21408517014BF0A270927FFF783FF054695B1A36BD7
S2140851803246636401208DE8100247F0100133466A
S214085190C047002818BF0925284622B00DF5806D9F
S2140851A0BDE8F087236C21464FF41072736192A80D
S2140851B0FDF728F8314692AA336938469847A09BE7
S2140851C082460094012063643946CDF8049032463E
S2140851D03346C04790B9204692A94FF41072FDF79F
S2140851E011F8BAF1080F06D13046216CFFF748FFD0
S2140851F009270546C2E7BAF1070F01D00925CBE70C
S2140852002846216CFFF796FF03A800F0B9FB00BFFD
S21408521070B504460D462046296CFFF731FF064652
S21408522050B92A6C01206261236921462A469847AC
S2140852300828F0D0072801D0FEF702FC3046296C73
S214085240FFF778FF281D00F09BFB00BF406C7047F7
S214085250F0B5CB6BADF5117D0B6401AC0D1D0F469B
S21408526006460FCD0FC40FCD0FC40FCD0FC495E85B
S2140852700F0084E80F004FF0FF3300933046109974
S214085280FFF7FEFE58B9336931466A46984708283C
S2140852900446F3D06846FFF7C7FE062C03D009205D
S2140852A00DF5117DF0BD30463946FFF7B1FF00BF5A
S2140852B030B4DD6B0446C1608261194600221D6465
S2140852C030BCFFF739BF00BF70B54369C6680446EF
S2140852D00D460B6426B10122FFF72EFFFEF7B0FB42
S2140852E00369214602202A469847072803D008283B
S2140852F008D0FEF7A5FB3046296CFFF71BFF281DD4
S21408530000F03EFB20462946FFF782FFC26810B42D
S2140853102AB1CC6B00220C6410BCFFF70DBF10BC82
S214085320FFF796BF704700BF08B5836801460BB104
S2140853300120984708BD00BF79B90F2A98BF002BEF
S2140853400CBF0023012301BF00EB820252681846F7
S214085350009B0CBF1A600220704704298CBF0220ED
S2140853600120704700B585B00A4603AB00210093BC
S2140853700B46FFF7E1FF039805B000BD79B90F2A81
S21408538098BF002B02BF009900EB820209680CBF89
S2140853900023012306BF18465160022070470429DF
S2140853A08CBF02200120704710B584B004AB0C46B1
S2140853B043F8042D0021009322460B46FFF7DEFF34
S2140853C004B010BD2DE9F04FCE6C0C4656F8041B01
S2140853D08BB01D46174600F0030807910896E3B9F8
S2140853E009028DF82530032307918DF82430236DA4
S2140853F0B8F1020F08BFA66B13F001031BD00022FA
S2140854000192022D40F3B380FFF792FE002800F0C9
S214085410B58009200BB0BDE8F08F022BE7DC0B0C3B
S214085420DAB209048DF82530022307918DF8243066
S21408543006EB8206DBE700F0080004F15802C0B26B
S214085440019302920390AA463568002D00F0FB806F
S214085450BAF1020F00F087803588B6F80290043655
S214085460A36C0F2129F0010B38469B44FFF77AFFFF
S21408547083451AD825F001039B4409F0010905F075
S2140854800105584545EA49052CBF00200120012D95
S21408549014D02ED2B8F1000F0CBF002000F0010087
S2140854A0002840F0BD800436CEE709F0010905F073
S2140854B0010545EA49050020012DEAD1B8F1000F9B
S2140854C071D1A0B1736835689A1CA2D0029A0133CC
S2140854D0069200F09B80301DFFF724FEEA0F014677
S2140854E006AB2046AFF30080002840F0BF800836A1
S2140854F0AAE7022D8DD1336823F00045B8F1000FD6
S2140855006AD150B3039A002A18BF002D25D1002D62
S21408551000F09C8006F1040BC1460496CDF8148072
S214085520029ED84603E0AB45D94600F08E8040463A
S2140855300696FFF7F7FD0022014606AB2046AFF3B6
S214085540008009F1010B08F104080028EBD04D454E
S214085550049EDDF8148079D03368002B54DB0135BF
S21408556006EB850670E7D6F80490083678E73846DE
S21408557007A900F001FB00287FF44BAF019B082029
S214085580002B3FF447AF0F213846FFF7EBFE0E21FE
S21408559002463846FFF708FF38460F213B4AFFF712
S2140855A003FF072036E70D213846256AFFF7DAFE9F
S2140855B085429CD1A36A9E4299D13046FFF7E2FC09
S2140855C00F2102463846FFF7EFFE384600212246EE
S2140855D0FFF7EAFE07201DE70D213846D4F820908D
S2140855E0FFF7C0FE8145B7D1A36A9E42B4D1002218
S2140855F0331DE2620422A562226363633368002BCC
S2140856002EDB01230193AAE70436A8E738460D21C6
S214085610FFF7A8FE2062069B6362A6620620F9E6EC
S2140856203046FFF7AFFC04360546A6632046AFF3C0
S214085630008000283FF4EDAE38460F212A46FFF7D3
S214085640B3FE0720E6E65546DBE6049E38460D21FF
S214085650FFF788FE069B20626362A6620620D9E6EC
S21408566005F10100A94606EB8000A7E703460D21D1
S21408567038460093FFF776FE009B2062022BCAD1BD
S214085680069A234643F82C2F6362C6E700000000FC
S2140856900223FFF797BE00BF0123FFF793BE00BFA4
S2140856A00023FFF78FBE00BFF0B5D36BADF5277D9F
S2140856B0136417AC151D07460E460FCD0FC40FCD45
S2140856C00FC40FCD0FC495E80F0084E80F004FF005
S2140856D0FF33169326996846FFF7D2FC6A460C21D4
S2140856E0B8B916A8FFF760FE314616A8B847694647
S2140856F016AA70B90820049B9847092818BF0528D9
S2140857000446E7D116A8FFF78FFC20460DF5277D3F
S214085710F0BD0924F6E700BF2DE9F0410446E8B0DD
S214085720042907D8DFE801F02C4644030A00032BB7
S21408573000F0C380022068B0BDE8F081102A98BF48
S214085740002BF7D12368D90600F1DB8002A8019266
S21408575000F088F9A06B019A0023012505FA03F1E9
S21408576011421EBF50F8041B02AE46F82310013340
S214085770042BF3D1A06302A800F06AF90020DAE748
S214085780002BD7D1A56B96B2012000FA03F131425F
S2140857901EBF55F8047B04EB83014F600133102BC2
S2140857A0F3D112F4005008BFA563C4D00020C2E7A6
S2140857B00120C0E703F0FB010129BBD1150C96B206
S2140857C07219012B14BF202110219142B2D3B3F1D4
S2140857D0010CDCF1000757EB0C070F2D94BF0021D6
S2140857E001213942A6D1B04621B9102A40F2AB8031
S2140857F0A2F11008B8F1000F18BF052B9AD10F2D8B
S2140858000FD82268D0070CD522F00101052B21609D
S214085810204600F0AE8022F0030240F8482B00F045
S214085820BFF8B8F1000F02D0236859077BD4002FC1
S21408583040F098800F2D6ED9B8F1000F40F08C809C
S214085840A06B002E014610DD46AA4FEA460C02EB76
S214085850C5060CF1FF3133469A1B1258013943F836
S214085860042B4A1CF8D100EB8C01B8F1000F16D0B7
S21408587068AB102D2CBF2E46102603EBC6064FEA43
S214085880480CA6F502760CF1FF33081F50F8042FD3
S214085890013B46F8042B5A1CF8D101EB8C01002F6B
S2140858A053D10F2DA1633AD9B8F1000F3FF47EAF5C
S2140858B006A800F081F800203DE7150C96B273198B
S2140858C0102B3FF637AF2368180734D426A800F005
